:10000000008000109D080000CD080000CF0800000F
:10001000D1080000D3080000D5080000000000004F
:10002000000000000000000000000000D7080000F1
:10003000D908000000000000DB080000DD08000017
:10004000DF080000DF080000DF080000DF08000014
:10005000DF080000DF080000DF080000DF08000004
:10006000DF080000DF080000DF080000DF080000F4
:10007000DF080000DF080000DF080000DF080000E4
:10008000DF080000DF080000DF080000DF080000D4
:10009000DF080000DF080000DF080000DF080000C4
:1000A000DF080000DF080000DF080000DF080000B4
:1000B000DF080000DF080000DF080000DF080000A4
:1000C000DF080000DF080000DF080000064B10B565
:1000D0001A781C4632B9054B13B10548AFF30080BE
:1000E0000123237010BD00BF9C0100100000000020
:1000F000D4910000074B10B51BB107490748AFF377
:1001000000800748036823B1064B13B1BDE81040D7
:10011000184710BD00000000A0010010D49100009D
:100120009C01001000000000134B002B08BF114B76
:100130009D46A3F5803A00218B460F461148124A8E
:10014000121A02F082FC0D4B002B00D098470C4B8A
:10015000002B00D098470020002104000D000B4820
:1001600002F0C5F802F0C4FB2000290000F05CFB9F
:1001700002F0D8F800000800008000100000000025
:10018000000000009C01001014060010E126000091
:100190007047000010B50446064B403003F11802CA
:1001A00040F8403C4C330260436001F0F5FB2046D0
:1001B00010BD00BF188B0000A0F14000EAE7A0F1DD
:1001C0004400E7E710B5044602F08BF8204610BD66
:1001D0002DE9F047584C94B02369626857481A607B
:1001E00001F0FAFCE368626855491A60554801F06D
:1001F000E5FB554A0C21554800F034FC54490246B1
:10020000504801F0DBFB4FF00A0A1A224F4908A8B8
:1002100000F0C0FCDDE90889DDE90A67DDE90C458D
:100220000DF11F030DF11D0207A9009347480DF1C1
:100230001E0300F0E3FB9DF81D309DF81C001844E0
:100240009DF81E3003449DF81F00184407F024FF5A
:10025000404908F029F801463F4800F01DFD002202
:100260003E4B2046294607F03FFC21F0004319464B
:1002700007F008FE01463A4800F00EFD0022374B19
:100280003046394607F030FC21F00043194607F0AC
:10029000F9FD0146334800F0FFFC00222F4B404699
:1002A000494607F043F900222C4B07F01DFC21F0D2
:1002B0000043194607F0E6FD01462B4800F0ECFC30
:1002C000642001F095FCBAF1010A9ED10EA8142217
:1002D0001E4900F05FFC16A3D3E90023CDE9028993
:1002E000CDE90423CDE9006722462B461F49154876
:1002F00001F064FBDDE912231D49CDE90223DDE9AC
:1003000010231048CDE90023DDE90E2301F056FB50
:100310009DF81F109DF81D3001919DF81E109DF84D
:100320001C2000910748134901F048FB6BE700BF10
:100330003333333333333540180200100000A0400C
:100340007085000000020010C00100103002001093
:100350008785000000004041600200100080664078
:10036000B8010010580200105002001098850000DB
:10037000C9850000F785000010B50446FFF70AFFA5
:10038000204601F0AEFF204610BDA0F14000F3E78B
:10039000A0F14400F0E7000010B51649164800F03F
:1003A000C9FC1649164800F0C5FC1649164800F06D
:1003B000C1FC164C1649174800F0BCFC164A1749F8
:1003C000174800F0E9FA0023164A1749204601F0C1
:1003D0002FFA2046154C164A164901F07DFF0021E0
:1003E0002046182202F031FB2046BDE81040124999
:1003F00001F02ABB32C009206002001034C009207D
:10040000B801001035C0092058020010C0010010CA
:1004100037C00920500200100BC009200AC0092073
:100420003002001003C0092002C009201802001089
:10043000C80000109501000009C0092000B599B05E
:1004400072B63B49684601F0FFFA06A8394901F047
:10045000FBFA0CA8384901F0F7FA12A8374901F065
:10046000F3FA32E0069B039A01990133116059D0E7
:100470000C9B0A9A0799013311604DD0129B109A78
:100480000D990133116041D0159B139A96201A6083
:1004900001F0AEFB009B013332D0069B049A019918
:1004A0000133116026D00C9B099A07990133116022
:1004B0001AD0129B0F9A0D99013311600ED0169B22
:1004C000139A96201A6001F093FB009B0133C9D167
:1004D0001B481C49242201F087FAC3E71848194930
:1004E000242201F081FAEAE715481649242201F096
:1004F0007BFADEE712481349242201F075FAD2E7AD
:100500000F481049242201F06FFAC6E70C480D4944
:10051000242201F069FAB7E709480A49242201F0C8
:1005200063FAABE706480749242201F05DFA9FE72A
:1005300032C0092034C0092035C0092037C0092045
:1005400020860000388600000C4B30B49D689A6805
:100550002B46B2F1805F0CD2094AC43553F8044BE4
:10056000AB4242F8044FF9D14FF080521346034C8E
:10057000A260103043F8201030BC704700ED00E05E
:10058000FCFFFF0F036870B51B69002101220446C0
:100590009847431C06460ED0236820461B6900215D
:1005A000022298472368054631461B6920460022EF
:1005B0009847284670BD70BD02480349034A00F0C1
:1005C00095BF00BF0806001002C0092003C0092023
:1005D000084A094B10B4026003F58071002453F8F7
:1005E000042F824208BF1C608B42F8D15DF8044B97
:1005F000704700BFC886000064020010F0B50E46C8
:1006000085B03649054603F052FD20B9344B1B68CE
:1006100063B105B0F0BD2846324903F048FD78B912
:100620002F4B1B6843B1012005B0F0BD0190FFF7CF
:10063000C3FF019805B0F0BDFFF7BEFF0120E8E75A
:100640002846294903F033FD10B3284B002402E06B
:100650000134402C21D053F8042F002AF8D12B78F4
:100660003A2B33D0294602A801F01EF802A801F067
:1006700071F890B102A801F053F888B102A801F016
:1006800059F803464BB11A4AE01C42F82430C0E73F
:10069000134B1B68B3B10220BBE74FF0FF30B8E744
:1006A00002A801F02DF805460028F6D0036802A83C
:1006B0009F6801F023F826F4803201462846B847A7
:1006C0000346DFE7FFF778FF0220A2E72846094943
:1006D00002AA03F07DFC029BD4E700BFA8860000BD
:1006E0006C030010B8860000B086000064020010A1
:1006F00068020010EC86000002280ADD074AC31ECB
:1007000052F82300002142F8231020B103685B68EF
:100710001847002070474FF0FF3070476802001004
:10072000022812DC0E4B70B51B680C4616460BB93E
:10073000FFF742FFA51936B114F8011B094800F074
:1007400023FEAC42F8D1304670BD074B033853F856
:10075000200010B103681B6818474FF0FF30704746
:100760006C030010080600106802001002280DDC5F
:100770000C4B10B51B680C460BB9FFF71DFF0A4860
:1007800000F0C0FD01232070184610BD074B033850
:1007900053F8200010B103689B6818474FF0FF33EF
:1007A000184670476C03001008060010680200101D
:1007B000022807DD064B033853F8200020B10368F8
:1007C000DB681847012070474FF0FF30704700BFCB
:1007D00068020010022807DD064B033853F820009A
:1007E00020B103681B691847002070474FF0FF30A5
:1007F000704700BF68020010022808B504D84FF403
:1008000000534B60002008BD01F086FD0923036002
:100810004FF0FF3008BD00BF08B5012001F082FD98
:10082000704700BF704700BF08B5FFF7FBFFFFF739
:10083000F7FFBDE80840FFF7CBBC00BF074A1368CD
:100840001918EFF30880814202D2184611607047F0
:10085000034B0C221A604FF0FF307047CC000010A1
:10086000100600100A4C08B523680546986801F088
:1008700077FE2368D86801F073FE01F031F920B9E2
:1008800005B9FEE7FFF7DAFDFBE701F085F9F7E7C9
:1008900050010010002103F0C1BA00BF0649074A09
:1008A000074B9A42BEBF51F8040B42F8040BF8E71D
:1008B0000448804704480047E0910000C800001049
:1008C0009C010010E108000029010000FEE7FEE79E
:1008D000FEE7FEE7FEE7FEE7FEE7FEE7FEE7FEE7F0
:1008E0002B4A2023F0B4C2F8A031D2F8A0319806E8
:1008F00045D4274B002519460124AA20552202275A
:100900000B26C3F80471C3F8A851C3F8AC51C3F85F
:100910000C41C3F88460C3F88C00C3F88C20C3F882
:100920008040C3F88C00C3F88C20D1F88830184A76
:100930005B01FAD511460324AA205523C2F8804052
:10094000C2F88C00C2F88C30D1F88830104A13F00D
:10095000407FF9D00F4900230520C2F80801C2F8F2
:10096000C410C2F8C8311368F0BC23F4704323F0FC
:100970003A0343F4405343F03A0313607047D2F80C
:10098000A0315906B5D4D2F8A0315906F7D5B0E751
:1009900000C00F40DE87280410B5044600F0E0FEDA
:1009A0002046074900F0ECFE50232372054B2046F9
:1009B000E3604FF07653236163610123E36110BD6F
:1009C000801A06006F12833A30B5044685B00125BF
:1009D00004AA02F8021D2B46017A009500F0E8FEF9
:1009E000217A002300930DF10F022B462944204663
:1009F00000F0F8FE9DF80F0005B030BDF8B50F46C9
:100A0000352116461D46069CFFF7DEFF0FB1830910
:100A10003B7016B1C0F30113337015B1C0F38103FD
:100A20002B7014B100F003002070F8BD1FB5002337
:100A30008DF80C108DF80D20017A03AA0093022383
:100A400000F0B6FE012005B05DF804FB08B50A46CB
:100A500041723D21FFF7EAFFBDE808401E2001F08A
:100A6000C7B80000F8B50F463F2104461546FFF70A
:100A7000ABFF40F02002D2B23F2140352046FFF7C5
:100A8000D5FF3149284600F099FF00212046FFF7A5
:100A90009BFF06462D49284600F090FFA02E1ED051
:100AA00032462B49284600F089FF4FF47A7001F056
:100AB0009FF82849284600F081FF00212046FFF7D3
:100AC00083FF06462449284600F078FFA02E06D072
:100AD00032462249284600F071FF0020F8BD00216F
:100AE0002046FFF7B3FF20223F212046FFF79EFF5D
:100AF00000212046FFF768FFA02803D00A2001F05C
:100B000077F8F5E7322001F073F800223E21204605
:100B1000FFF78CFF0A2001F06BF800220721204626
:100B2000FFF784FF00223F212046FFF77FFF0A20C6
:100B300001F05EF839462046FFF788FF142001F0E7
:100B400057F80120F8BD00BFFA86000007870000B3
:100B5000118700001D8700002E8700003B870000E2
:100B6000F0B5054616461F4685B004AA012402F8D2
:100B7000011D2346017A009400F01AFE0023009321
:100B8000297A3B463246284600F02CFE204605B026
:100B9000F0BD0000F7B5154600230093ADF8043012
:100BA0000446062308466A462946FFF7D9FF9DF802
:100BB00000309DF801009DF8037043EA00209DF885
:100BC00002309DF8056043EA07279DF80430142D94
:100BD00043EA062624D003D8082D39D00E2D04E090
:100BE000282D35D02E2D33D01A2D4CD100B206F041
:100BF000EBFD0022254B06F04DFEC4E9000138B2A2
:100C000006F0E2FD0022214B06F044FEC4E9020199
:100C100030B206F0D9FD00221C4B06F03BFE30E05E
:100C200000B206F0D1FD0022194B06F05DFFC4E9C9
:100C3000000138B206F0C8FD0022154B06F054FF43
:100C4000C4E9020130B206F0BFFD0022104B16E0ED
:100C500000B206F0B9FD00220E4B06F045FFC4E9D4
:100C6000000138B206F0B0FD00220A4B06F03CFF4E
:100C7000C4E9020130B206F0A7FD064B002206F0DF
:100C800033FFC4E90401204603B0F0BD0000B03FCB
:100C900000208C400000594070B50C4605460021EC
:100CA000204607F0EBFBF0B920464FF07E5107F0ED
:100CB00003FC08B14FF07E540C4EB06907F0E8F920
:100CC000214607F03DFA07F027FCB3690749834244
:100CD0002B6808BF0130186028790A6D0123834012
:100CE00013430B6570BD0024E6E700BF00800140A0
:100CF0000E4B0F4A1B6810B403FB01F10224546031
:100D0000916193693BB100680368926903FB01F14B
:100D1000B1FBF2F10160064B09211A6D5DF8044B3D
:100D200042F001021A655960704700BF6803001065
:100D300000800140F8B50E4605462049304600F0D7
:100D400011FFC4B2FF2C33D01D4A1E49D2F8C43063
:100D500051F8241043F040032C712960C2F8C430CC
:100D6000D2F8A811184B21F4405100270220C2F8F4
:100D7000A811DF605861D96C08340122A2400A43EF
:100D80001249DA640B681249124AA1FB0313284680
:100D90001B0D44F620611360FFF7AAFF28460021CF
:100DA000FFF77AFF3046BDE8F840044900F09ABEEC
:100DB00009480A493C2200F017FEC5E754870000A5
:100DC00000C00F40D400001000800140D00000108F
:100DD00083DE1B4368030010088800001C880000A5
:100DE000144B9968C1F3420101291BD0022917D184
:100DF000114AD16B013109D0916C106C086092F8E6
:100E00006E1019B9596821F001015960906B0A4BB5
:100E100078B193F86E3023B1084B00211B68184756
:100E200070477047044B986B0028FAD0034B1B683F
:100E30001847704700000140740300107003001051
:100E400070B50368284CA34247D03FDD274CA3422E
:100E500029D004F58044A34242D1254C082632BB58
:100E600001290BD04268234CC2EBC20204EBC20240
:100E700092F8364030325279D44213D1B1FA81F42B
:100E80005D68012202FA01F125EA01015960036857
:100E900064095B6802FA04F1194203D1164BB240AF
:100EA000C3F8802070BD154C0726002AD8D05A6898
:100EB000012505FA01F10A4376B25A60214630460F
:100EC000FFF742FB0C4BB5401D6070BDA4F580449C
:100ED000A34205D10A4C0526C1E70A4C0626BEE707
:100EE00000242646BBE700BF000001400080094007
:100EF000090F00007403001000E100E0750F00000E
:100F0000D90F0000E10D0000174B9968C1F34201B1
:100F100001291FD002291BD1144AD2F8AC1001318B
:100F20000BD0D2F8B810D2F8B000086092F8DE10FA
:100F300019B9596821F001015960D2F8A8000B4B8A
:100F400080B193F8DE3023B1094B00211B681847AC
:100F500070477047054BD3F8A8000028F9D0044B20
:100F60001B681847704700BF00C009407403001099
:100F700070030010154B9968C1F3420101291CD080
:100F8000022918D1124A516F01310AD0D2F88010CB
:100F9000906F086092F8A61019B9596821F0010104
:100FA0005960106F0A4B78B193F8A63023B1094B02
:100FB00000211B68184770477047054B186F0028C1
:100FC000FAD0044B1B681847704700BF00800940E7
:100FD0007403001070030010144B9968C1F34201B0
:100FE00001291BD0022917D1114A5168013109D0BA
:100FF00011699068086092F8361019B9596821F0A3
:101000000101596010680A4B78B193F8363023B16A
:10101000084B00211B68184770477047044B18683D
:101020000028FAD0034B1B681847704700C00040E7
:1010300074030010700300102DE9F04F844A036818
:101040008DB093420B908B4600F3E680814A934229
:1010500000F0ED8040F3CD807F4A934200F0A38002
:1010600002F5804293420CD17C4AD2F8AC1121F4B3
:101070004021C2F8AC11D2F8AC1141F48021C2F881
:10108000AC1177494FEA0B120968B1FBF2F402FB8D
:1010900014120891A4B2002A00F0A9805E46DA4634
:1010A000089B4FF001085A009900019300230A920F
:1010B0000991059406920291CDF81080CDF81CB0EC
:1010C00003935346DDF81C900027CA469946BB4659
:1010D0005FFA88F5CDF80080B846069F002F76DBD2
:1010E000029BB3FBFAF4009B64090134C4F34F0480
:1010F00003EB0B0E002C64D1BBF1000F00F0A580B8
:101100000224204600FB0EF0019BC000B3FBF0F070
:101110000130C9EB500001F0E6F8B04206DA48456C
:101120005FD00646CDF80C80059404950BF1010BB9
:101130005FFA8BF8A845CA44D0D3019B089ADDF822
:101140000080134401930A9A069B08F10108134496
:101150000693099A029BB8F1100F13440293079B60
:10116000CA464B440793ACD1039B049A059C43EABF
:1011700002150B9BEDB21B681A7BC4F3072142F0EA
:1011800080021A730B9AE4B21368197113681C7009
:10119000136883F828501268137B03F07F031373DE
:1011A0000DB0BDE8F08F2D4AD2F8AC1121F44031DA
:1011B000C2F8AC11D2F8AC1141F48031C2F8AC11D4
:1011C0005FE7BBF1000F9CD0012C9AD898E7B7FBE2
:1011D000FAF4009B24090134C4F34F0403EB0B0E13
:1011E00088E70B9B48EA0515EDB21B68C4E710259C
:1011F000C2E7A2F5804293427FF443AF174AD2F888
:10120000A81121F0C001C2F8A811D2F8A81141F02C
:101210004001C2F8A81134E79B221248124900F09D
:10122000E3FB0B9B0B4A1B6893427FF413AF0B4A03
:10123000D2F8A81121F44071C2F8A811D2F8A8116F
:1012400041F48071C2F8A8111BE70124204659E738
:1012500000C00940000001400080094000C00F406C
:10126000D0000010208900003C890000F8B55F1E06
:10127000012F05460E46144604D915481549FB2290
:1012800000F0B2FB053E032E1CD8042C14D8013C00
:10129000E4B2032C0DD8104B082153F824000001B0
:1012A000C2B246EA87060E4332432B68D2B21A73A3
:1012B000F8BD00221146F4E708480649FE2200F076
:1012C00093FBE4E706480349FC2200F08DFBDCE7D2
:1012D000A08900003C890000A4880000EC8900007F
:1012E000C8890000436810B40448054CC3EBC3032D
:1012F00044F8332001605DF8044B70477003001020
:10130000740300100268137DDB07FCD543680949AC
:10131000C3EBC30301EBC303596810780131C0B2BA
:1013200006D059699B680B60536843F00103536012
:10133000704700BF740300104368124AC3EBC30335
:1013400002EBC303D96901310BD0196B1B6A0A6820
:101350001A4204D10368187DC0F380107047002042
:1013600070470268127D920606D493F834000F2865
:101370008CBF002001207047002283F83420012018
:10138000704700BF7403001038B504460D46204670
:10139000FFF7D2FF0028FAD02368EDB21D70636812
:1013A000054AC3EBC30302EBC30393F834200132B5
:1013B00083F8342038BD00BF740300102DE9F04FCE
:1013C00004464648256883B085420F4691460193FE
:1013D00043D0D4F804A000255346414E4FEACA0832
:1013E000C3EBC303CAEB080E002006EBCE0E4FF092
:1013F000FF3B06EBC3030146024683F83500CEF8F7
:101400001CB02046CEF804B0FFF71AFD17B903B0A0
:10141000BDE8F08F3349484600F096FB32498346D9
:10142000019800F091FBBB1E012B37D9012FEED1A3
:10143000B9F1FF3FEBD0294B226807219B45117280
:1014400013D195B148462B7C264943F040032B74B9
:1014500003B0BDE8F04F00F045BB2B7CD4F804A0EE
:1014600003F03F032B746368B7E7CAEB080806EB89
:10147000C800494601250430002200F007FB204641
:101480002A4663680021C3EBC30306EBC30686F854
:10149000355003B0BDE8F04FFFF7D2BC019B0133DC
:1014A0000AD00E4B98420DD0CAEB080006EBC000E4
:1014B00001991C3000F0B6FA032FA8D1B9F1FF3F13
:1014C000B9D1A4E7002DEFD02B7C019843F0800325
:1014D0002B74054900F006FBEEE700BF0000014059
:1014E0007403001080880000EC8A00002DE9F047AA
:1014F0000F46054608466149164600F033FB604931
:101500000446304600F02EFB0146204600F00AFB60
:10151000411C044600F0AB805A4B2860984200F012
:10152000838053D9584B984276D003F58043984234
:1015300006D1564AD2F8C43043F00073C2F8C43022
:101540004FF0010984F808902B684FF00008C3F8A9
:10155000048028464FF41651FFF76EFD42464B4675
:1015600028460821FFF782FE3846444900F0BAFABF
:101570003046434900F0B6FA7A1C03D0384641465B
:1015800000F0BAFB731C03D03046002100F0B4FB1E
:101590003C4B9C4250D025D93B4B9C4264D003F538
:1015A00080439C424BD103236B60394CC3EBC30394
:1015B0004FF0FF3604EBC3042846324633466660DC
:1015C000E6610021BDE8F047FFF7F8BEA3F58043D0
:1015D0009842B5D12D4AD2F8C43043F00803C2F87E
:1015E000C430ADE7A3F580439C4228D1284E4FF08C
:1015F000FF34002169602246234628467460F46166
:10160000FFF7DCFE234B012429461C6022480822F8
:10161000BDE8F04701F00EBA1C4AD2F8C43043F0DE
:101620008073C2F8C4308BE7184AD2F8C43043F054
:101630001003C2F8C43083E701236B60B5E76E681E
:10164000134BC6EBC6064FF0FF3703EBC6063A4610
:101650003B46284600217760F761FFF7AFFE0F4B4E
:101660009C42CFD0BDE8F08702236B609DE70C4819
:101670000C495C2200F0B8F92C6061E7808A000018
:10168000B4880000000001400080094000C00F4005
:10169000740300106C0300100806001000C0004026
:1016A000708A00003C89000038B500230360436065
:1016B0000A7804462F2A01D0204638BD4A78002AED
:1016C000FAD0481C20604D782F2D13D085B10346E9
:1016D00000E06AB15D1A013323601A782F2AF8D12D
:1016E00029460133236000F085FD6060204638BD47
:1016F0002946F8E719460346F3E700BF006870473C
:10170000436843B110B50446184600F091FD012826
:1017100003D1606810BD00207047002010BD00BFDD
:10172000406830B108B500F083FDB0FA80F04009A0
:1017300008BD704743684BB110B50446184600F029
:1017400077FD28B9606818B1043810BD00207047D3
:10175000002010BD4068003018BF0120704700BF56
:1017600038B50446044B00250560436000F000FBDB
:10177000024B20461C6038BDA086010054040010B6
:1017800010B50446416000F059FB014B1C6010BDD0
:101790005404001038B5054D2A68824204D004462E
:1017A000416800F04BFB2C6038BD00BF54040010B2
:1017B0002DE9F0411D460F461646804682B09DF841
:1017C0002040FFF7E7FF84F00104009440463946CB
:1017D00032462B4600F0F0FB281A18BF012002B059
:1017E000BDE8F0812DE9F0411D460F4616468046C2
:1017F00082B09DF82040FFF7CDFF84F001040094F3
:101800004046394632462B4600F024FB281A18BFC2
:10181000012002B0BDE8F08100F05AB8A0F140000C
:10182000FFF7FABF00F058B8A0F14000FFF7FABF89
:1018300038B504461D4600F02DF8294604F1400055
:1018400000F088F8054B204603F1080103F120025F
:10185000543321602264636438BD00BF108B0000E4
:101860004A1C02EB420200EBC202936853B101EB47
:101870004101C9004218D2681AB101441031104622
:101880001847704701EB410300EBC301CB68002B05
:10189000F7D0184770B504460B4E0023251D4FF4B2
:1018A0001650E06363602846A360E36023626362CE
:1018B000A3632660FFF71AFE284622460349FFF776
:1018C00011FD204670BD00BF788B0000611800003C
:1018D0000430FFF717BD00BF10B50C460430FFF70A
:1018E00053FD204610BD00BF00207047F8B58E188C
:1018F000B1420F460ED005460C4601E0A64207D085
:101900002B6828465B6A14F8011B98470130F5D113
:10191000E01BF8BD0C46FBE7F8B58E18B1420F4648
:101920000ED005460C4603E004F8010BA64205D094
:101930002B6828469B6A9847431CF5D1E01BF8BDED
:101940000C46FBE7002070470020704700207047DE
:101950000020704710B5044684B000F06BFC0B4BC0
:10196000002203F108013C3384E80A00626101A807
:101970002246074902F008FB064901A800F004FFCF
:101980006061FEF787FF204604B010BD808B000029
:10199000EC860000C48B000010B50446064B40697D
:1019A00003F108023C3384E80C0000F021FD2046DE
:1019B00000F054FC204610BD808B00000EB430B502
:1019C000044682B005AB53F8045B4069019300F014
:1019D000C7FD29466069019A01F01CFA02B0BDE812
:1019E000304003B0704700BF10B40C4613460146A8
:1019F000224602485DF8044B00F002B8C88B000094
:101A00000FB400B5064A83B004AB53F8041B10684A
:101A10001A46C068019301F0FDF9012000F082FC34
:101A20005001001038B50D46044600F0FFF80135AE
:101A300009D02046002100F015F92046BDE83840C5
:101A4000032100F00BB938BD38B50D46044600F04F
:101A5000EDF801350FD0236801330DD0236962689A
:101A600020461A60012100F0FDF82046BDE838400C
:101A7000022100F0F3B838BD024803492422FFF7E1
:101A8000B3FFEBE7208600003886000070B50D46F6
:101A90001646044600F0CAF8013514D02368013315
:101AA00012D066B9236962681A602046012100F0ED
:101AB000D9F82046BDE87040022100F0CFB8E368B5
:101AC00062681A60F1E770BD034804492422FFF7F9
:101AD0008BFF002EE6D0F2E720860000388600005B
:101AE00000F066B8431C10B5044618D00B68581CAB
:101AF00004D10FE051F80C3F5A1C0BD09C42F9D195
:101B00002046896800F0D0F82046BDE81040022148
:101B100000F0F2B80248BDE81040FFF771BF10BDF9
:101B2000FC8B000088420AD0421C09D0013106D04B
:101B300008B50448FFF764FF4FF0FF3008BD704759
:101B400008467047108C00000B685A1C04D107E04F
:101B500051F80C3F5A1C03D08342F9D148687047B2
:101B600018467047421C0ED008B50B685A1C04D1A9
:101B70000AE051F80C3F5A1C06D09842F9D1486847
:101B8000411C01D008BD70470248FFF739FF4FF0F4
:101B9000FF30F7E7248C000030B585B018246D467F
:101BA00020462946ABBE0446204605B030BD00BFE6
:101BB000024B186800F00100704700BFF0ED00E034
:101BC00038B5054600F0A6FA044600F0A3FA001B5B
:101BD000A842FAD338BD00BF08B5044906F0B0FAF0
:101BE00006F074FCBDE80840FFF7EABF0024744922
:101BF0004FF47A7303FB00F0FFF7E2BF431C10B50C
:101C0000044608D02046002100F04EF804F01F04DE
:101C10000120A04010BD034803491522FFF7E4FE50
:101C2000F0E700BF648C0000788C00004A1C016063
:101C300013D038B50C4605460846FFF7DFFF24F001
:101C40001F0101F1180401F11C0201F11403686085
:101C5000A960EC602A616B6138BD7047006800F0D4
:101C60004BB800BF38B50368044601330D4610D0A9
:101C700045B1012D05D1A268636811680B4313605B
:101C800038BD38BDA2686168136823EA0103136098
:101C900038BD034803492C22FFF7A6FEE8E700BF42
:101CA00020860000788C000038B5431C04460D46A1
:101CB00018D004F16040A0F51C2003099B0003F13B
:101CC000804303F5303300F00F0019684000032211
:101CD000824021EA02021A601A68854045EA020140
:101CE000196038BD024803491522FFF77DFEE0E781
:101CF000648C0000D88C000038B5431C05460C46A7
:101D00002BD005F16040A0F51C2043099B0003F196
:101D1000804303F53033996E00F01F02C4F3800551
:101D200005FA02F221EA02019966996E0A439A665F
:101D300095B903099B0003F1804303F5303300F0AC
:101D40000F00196C40000322824021EA02021A644B
:101D50001A6C844014431C6438BD03480349202294
:101D6000FFF742FECDE700BF648C0000D88C000076
:101D7000F8B506460D46084628491446FFF7F2FE18
:101D8000274907462046FFF7EDFE01463846FFF794
:101D9000C9FE421C0346306039D0224A93422ED0FD
:101DA00002F58822934222D0A2F50422934216D053
:101DB0001D4A1E4912683C27120AA1FB0212402646
:101DC00092095A6128461A6114499F611E60FFF703
:101DD00089FE2046BDE8F8401149FFF783BE14494B
:101DE000D1F8C42042F08002C1F8C420E0E71049D5
:101DF000D1F8C42042F08062C1F8C420D8E70C4971
:101E0000D1F8C42042F40022C1F8C420D0E7094828
:101E100009496322FFF7E8FD3368BEE7388D00000B
:101E2000E88D000000C00540D0000010632D3E0585
:101E300000C00F40748D0000888D0000044B4900E5
:101E40001B6802689B08B3FBF1F151611161704797
:101E5000D00000102DE9F04304683C2507462420FB
:101E6000A561A6462060534D01E0013D02D02668E1
:101E70003607FAD5606820251028A56110D00828FB
:101E80000ED01023082223604A4BA26101E0013BDF
:101E900002D02268D506FAD46FF00100BDE8F083C5
:101EA00041F001010820A1604249A06101E001392F
:101EB00002D025682807FAD5616840290ED0102382
:101EC000082223603B4BA26101E0013B02D0226863
:101ED000D606FAD44FF0FF30BDE8F083581E002834
:101EE000D8BF4FF0000C1FDD844602F1FF3E0026F4
:101EF0004FF004094FF00808C4F800902D49C4F8C9
:101F0000188001E0013902D025682D07FAD5A568AF
:101F1000616850292CD1013686420EF8015F01D04C
:101F20003C68E9E7D7F800E004210824CEF818104F
:101F30002049CEF8184001E0013903D0DEF8004016
:101F40002507F9D5DEF80840DEF8041058291DD021
:101F500010230822CEF80030164BCEF8182001E0EE
:101F6000013B11D0DEF80020D406F9D4BDE8F0839F
:101F70001023082223600F4BA26101E0013B02D035
:101F80002268D706FAD43046BDE8F08302F80C4048
:101F9000079A5AB13868102208210260054A816107
:101FA00001E0013A02D00168C906FAD41846BDE83A
:101FB000F08300BFA186010070B404683C25242092
:101FC000A561364D206001E0013D02D02668300752
:101FD000FAD5606820251028A56110D008280ED0F9
:101FE0001023082223602D4BA26101E0013B02D0A7
:101FF0002268D606FAD46FF0010070BC704701F079
:10200000FE010820A1602549A06101E0013902D04C
:1020100025682D07FAD5616818290ED010230822EB
:1020200023601E4BA26101E0013B02D02268D00672
:10203000FAD44FF0FF3070BC7047002B13DD551EF3
:102040000020082615F8011F144AA160A66101E0CE
:10205000013A02D021680907FAD56268282A11D10D
:1020600001309842EED1039A52B110220821226029
:102070000A4AA16101E0013A02D02168C906FAD4F6
:102080001846BAE7102308222360044BA26101E03E
:10209000013BB2D02268D506FAD4AEE7A186010092
:1020A00038B51249124B01241C60D1F8C430114AD2
:1020B00043F4000310480025C1F8C43015670368D5
:1020C00001F1437101F5F45103319B08A1FB0313A6
:1020D0009B0C013B022151600420D36007495460EE
:1020E000FEF732FA064B10221A6038BD00C00F40CE
:1020F0005804001000400940D00000108122000068
:1021000000E100E0024B1B6803B17047FFF7C8BF56
:102110005804001008B5044B1B680BB9FFF7C0FF4B
:10212000024B986808BD00BF5804001000400940E9
:10213000034B98615A6942F001025A61704700BF2F
:1021400000400940024A536923F00103536170477C
:1021500000400940014B01221A60704700400940CD
:10216000094A8368026053B1084B1A68824201D160
:1021700006E01A4653688342FBD1436853607047B8
:1021800042681A60704700BF308E00005C04001087
:102190000C4A836810B50446026053B10A4B1A68B2
:1021A000904201D10AE01A4653689C42FBD1636811
:1021B0005360204600F095F8204610BD42681A6032
:1021C000F7E700BF308E00005C04001010B4074C2D
:1021D0000023027381600460436019B1044B1A68E4
:1021E000186042605DF8044B704700BF308E0000FD
:1021F0005C0400100D4B70B51C6806460D4614B902
:1022000011E064687CB1A0680028FAD031462A4603
:1022100001F05FFF0028F4D1A06801F052FFA8424E
:10222000EFD1204670BD002070BD00BF5C040010DF
:10223000007B704710B50446064B002240F8043B73
:10224000FFF7C4FF044B204603F10802343384E84F
:102250000C0010BDC8860000388E000010B5044682
:10226000064B03F108023433226040F8043FFFF7C5
:1022700077FF2046FEF7ACF9204610BD388E0000EF
:10228000014800F003B800BF888E0000036870B5F5
:10229000DB68054698476B685B6883B12A681C68F1
:1022A00053689847201A00286A680DDC5068116846
:1022B000836853600029F0D040688847EBE72B68BB
:1022C000BDE870409B6818472B6852681B6910680E
:1022D000BDE87040184700BF0B460146184600F0A5
:1022E0000DB800F091BB0028B8BF404270470023F2
:1022F00001461A46184602F033BF000010B5054CDF
:1023000013462CB10A460146022002F029FF10BDF7
:10231000204610BD61510000014B1868704700BF96
:102320005001001008B5074B044613B1002102F01C
:102330007BFF054B1868836A03B198472046FEF778
:1023400091FA00BF29520000F48E000070B50546D6
:102350000C4609B9002070BD18B183690BB900F0B3
:1023600051F9204B9C4201D16C6808E01E4B9C4205
:1023700001D1AC6803E01D4B9C4208BFEC68B4F986
:102380000C30002BE6D02146284600F039F8236BAC
:10239000064633B1216A284698470028B8BF4FF057
:1023A000FF36A3891B0603D52169284600F056FB9A
:1023B000616B41B104F14403994202D0284600F018
:1023C0004DFB00236363A16C21B1284600F046FB5E
:1023D0000023A36400F082F90023A38100F07FF9B9
:1023E000304670BD908E0000B08E0000D08E000090
:1023F000024B01461868FFF7A9BF00BF500100104B
:102400008A892DE9F041054610070C4659D44B68DE
:10241000002B02DC0B6C002B17DDE66AAEB102F478
:102420008052002392B22F682B600AB1606D15E0D4
:10243000216A01232846B047411C0FD12B686BB19C
:102440001D2B01D0162B03D12F600020BDE8F08199
:10245000A38943F04003A381BDE8F081A3895A0713
:1024600005D56368C01A636B0BB1236CC01A0023D7
:102470000246E66A216A2846B047431CA38906D172
:1024800029681D2939D8204ACA40D60735D50022E7
:1024900062602269D904226004D5421C01D12B68F4
:1024A00003B96065616B2F600029CED004F144034D
:1024B000994202D0284600F0D1FA00206063BDE8BE
:1024C000F0810F69002FC0D093070E680CBF4B69D5
:1024D0000023C7EB06080F608B6002E00744C0EBE7
:1024E0000808B8F1000FB0DD43463A46216A284695
:1024F000A66AB0470028F1DCA38943F04003A3811A
:102500004FF0FF30BDE8F0810100402038B50B6985
:1025100005460C46DBB118B183690BB900F072F8BF
:102520000C4B9C4201D16C6808E00B4B9C4201D1E2
:10253000AC6803E0094B9C4208BFEC68B4F90C306E
:102540002BB121462846BDE83840FFF759BF00208F
:1025500038BD00BF908E0000B08E0000D08E00000D
:10256000014620B9044B0549186800F0A3B9044B93
:102570001868FFF7CBBF00BFF48E00000D250000E8
:1025800050010010014900F095B900BF0D25000071
:1025900010B5044600230360436083608181436675
:1025A000C281036143618361194608225C3000F0F7
:1025B0004CFA054B24626362044BA362044BE36252
:1025C000044B236310BD00BF254000004B400000BA
:1025D00083400000A740000070B568234D1E5D4396
:1025E0000E4605F1740100F07DFA044640B1002169
:1025F00080E842000C30A06005F1680200F025FA86
:10260000204670BD836910B5044633BB8364C36440
:102610000365124B124A1B688262984204BF012371
:10262000836100F01FF86060204600F01BF8A06096
:10263000204600F017F80022E06004216068FFF7F0
:10264000A7FF01220921A068FFF7A2FF02221221A1
:10265000E068FFF79DFF0123A36110BDF48E000029
:1026600085250000F8B51C4B07461E68B36913B9F1
:102670003046FFF7C7FF4836B4687368013B04D49F
:10268000B4F90C507DB16834F8E733680BB13668A3
:10269000F2E704213846FFF79FFF30600028F6D1AB
:1026A0000C233B60F8BD4FF6FF73E3810123A38148
:1026B00065662560A560656025616561A561082284
:1026C000294604F15C0000F0C0F96563A563A564C8
:1026D000E5642046F8BD00BFF48E000070477047E7
:1026E00038B5074B074C1D46E41AA41024B1013C31
:1026F00055F824309847F9E7BDE8384005F032BF77
:10270000980100109C010010F7B50F46114601AA70
:10271000054603F029FC064608B9002029E02846B2
:10272000FFF7A0FF04460028F7D04FF4DB73019AAF
:102730003946284601F020FB002806DA0025FFF77D
:10274000CDFFA581FFF7CBFFE7E70B4BE08163628D
:102750000A4BA681A3620A4B2462E362094B2363FE
:10276000F30505D5022300222146284600F014F87F
:10277000204603B0F0BD00BF254000004B400000E4
:1027800083400000A7400000024B0A46014618683B
:10279000FFF7BABF5001001000F000B82DE9F84370
:1027A0000C4690461E46054618B183690BB9FFF7E3
:1027B00029FF3D4B9C4201D16C6808E03B4B9C4299
:1027C00001D1AC6803E03A4B9C4208BFEC68A38996
:1027D00003F48473B3F5847F03D121462846FFF7C1
:1027E00095FEE76A0FB91D232BE0012E04D0022EBF
:1027F0002BD056B3162324E021462846FFF786FE49
:10280000A28902F4805292B20AB1606D05E0216A99
:1028100033462846B847411C14D0A3895A0706D529
:102820006368C01A636B4BB1236CC01A06E01B07C8
:1028300004D5236813B122699B1A184480440026EA
:1028400003E02B604FF0FF392BE023691BB92146D1
:10285000284600F097F821462846FFF757FE8146A4
:102860000028EFD133464246216A2846B847013056
:10287000E8D0616B41B104F14403994202D028468B
:1028800000F0ECF800236363236900212360A3892F
:10289000616023F40263A381082204F15C0000F06C
:1028A000D4F84846BDE8F883908E0000B08E000052
:1028B000D08E00002DE9F8438046894600F1480497
:1028C000002694B1A5686768013F0CD4AB89012B41
:1028D00007D9B5F90E30013303D029464046C84721
:1028E00006436835F0E72468EBE73046BDE8F88337
:1028F0000E4B70B51E460E4C0025E41AA410A542DE
:1029000004D056F8253098470135F8E705F024FE45
:10291000084B094C1E46E41AA4100025A54204D019
:1029200056F8253098470135F8E770BD9001001042
:1029300090010010900100109801001070B50E4633
:10294000B1F90E1090B0002914461D4606DA002396
:102950002B60B3891A060ED540230EE001AA03F0BE
:102960003BFB0028F3DB029A02F47042A2F500530D
:102970005A425A412A604FF480630020236010B00D
:1029800070BD00008B8973B59E0705460C460FD4B9
:1029900001AB6A46FFF7D2FF00990646284600F0D1
:1029A000A1F860B9A3899A0522D443F00203A38158
:1029B00004F14703236023610123636118E00D4B99
:1029C000AB62A389206043F08003A381009B206158
:1029D0006361019B4BB1B4F90E10284603F02CFE45
:1029E00018B1A38943F00103A381A0893043A081DA
:1029F00002B070BD85250000024B0146186800F04A
:102A000071B800BF50010010024B0146186800F079
:102A100025B800BF5001001010B5C9B20244904261
:102A2000034605D01C7801308C42F8D1184610BD01
:102A3000002010BD10B5431E0A44914204D011F885
:102A4000014B03F8014FF8E710BD034602449342DF
:102A500002D003F8011BFAE77047000030B50029E7
:102A60003CD051F8042C0B1F1D49002AB8BF9B18FD
:102A70000A680C4612B95A600B6030BD9A420DD9F3
:102A800019685818824201BF106852680918196005
:102A90005A60236030BD994203D80A465168002924
:102AA000F9D1146815199D420AD11B682344D01826
:102AB0008142136012D10868034413604B680CE034
:102AC00002D90C23036030BD18681C18A14201BF55
:102AD0000C684968001918605960536030BD00BF28
:102AE0006C04001070B5CD1C25F0030508350C2DC5
:102AF00038BF0C25002D064603DA0C233360002076
:102B000070BDA942F9D81F4B1C681A462146A1B1D5
:102B10000B685B1B0ED40B2B03D90B60CC18CD506C
:102B20001EE08C420BBF63684B681360636018BF84
:102B30000C4615E00C464968E9E7134C23681BB9BD
:102B4000304601F02BF920602946304601F026F985
:102B5000431CD2D0C41C24F00304A0420AD1256037
:102B600004F10B00231D20F00700C31A09D05A42BC
:102B7000E25070BD211A304601F010F90130EED15B
:102B8000BBE770BD6C04001068040010936810B4BB
:102B9000013B002B936008DA9469A34202DBCBB2BD
:102BA0000A2B02D110BC02F009BA1368581C10603D
:102BB0001970C8B210BC7047F8B506460F461446E7
:102BC000D518AC4208D03A4614F8011B3046FFF73E
:102BD000DDFF431CF5D100E00020F8BD2DE9F04FEA
:102BE0009DB00C4617460393064618B183690BB98E
:102BF000FFF708FD7F4B9C4201D1746808E07E4BD3
:102C00009C4201D1B46803E07C4B9C4208BFF4684D
:102C1000A38918070CD5236953B1002309932023F6
:102C20008DF8293030238DF82A30DFF8D4B144E014
:102C30002146304602F028FA0028EED04FF0FF304F
:102C4000D5E0039A111D12680391002A80F28C804E
:102C5000524243F002000792049098F800302E2B65
:102C600000F08480032298F800106548FFF7D4FE36
:102C700048B14023CBEB000003FA00F0049B08F1BD
:102C800001081843049098F8001006225D4808F1E6
:102C900001078DF82810FFF7BFFE002800F095808F
:102CA000594B002B40F08880039B073323F0070328
:102CB00008330393099B53440993B846454615F8D6
:102CC000013B1BB9B8EB07090FD003E0252BF9D066
:102CD000A846F3E74B463A4621463046FFF76CFFDD
:102CE00001307FD0099B4B44099398F80030002BAA
:102CF00078D000234FF0FF32049307930592069398
:102D00008DF853301A930127052229783F48FFF7A1
:102D100083FE05F10108049B38B13C4A4546801A00
:102D200007FA00F018430490EEE7D90644BF2022CA
:102D30008DF853201A0744BF2B228DF853202A7890
:102D40002A2A3FF47EAF079A00210A20A84698F865
:102D500000300135303B092B03D800FB0232012142
:102D6000F4E700293FF479AF079276E798F801304D
:102D70002A2B0BD1039B08F102081A1D1B68039232
:102D8000002BB8BF4FF0FF3305936BE700231946C4
:102D9000059308F101000A25804698F800200130CB
:102DA000303A092A03D805FB01210123F4E7002B5F
:102DB0003FF458AF059155E703AB00932246144BFF
:102DC00004A9304600F0C2F807E003AB00932246A6
:102DD0000F4B04A9304600F073FBB0F1FF3F824671
:102DE0007FF468AFA3895B063FF528AF09981DB053
:102DF000BDE8F08F908E0000B08E0000D08E0000F5
:102E0000FE8E0000028F00004D2F0000F88E0000A3
:102E1000B92B000013460A46014602480068FFF736
:102E2000DDBE00BF500100102DE9F04788B0149FAF
:102E3000002B1E461299B8BF03F1004327F020076C
:102E4000B6BF1E4600232D23462F1446109DDDF8E5
:102E50004CA00B7003D0452F03D1013501E00323B3
:102E600000E0022307AA049206AA03928DE8280430
:102E70002246334602F0E0FA472F804602D1119BEA
:102E8000DB0728D5462F08EB050911D198F800304B
:102E9000302B0AD1002200232046314604F062FF85
:102EA00018B9C5F10105CAF80050DAF800309944A4
:102EB000002200232046314604F054FF08B9302296
:102EC00002E0CDF81C9006E0079B994503D9591CF8
:102ED00007911A70F8E74046079B159AC8EB030361
:102EE000136008B0BDE8F087034673B50029B8BF8A
:102EF000494203F8022BB4BF2D222B22092942702C
:102F00001ADD0DF1070216460A2591FBF5F405FBC3
:102F10001411092C01F1300102F8011D2146F4DCE5
:102F20003031541E02F8011CB4421A460AD214F879
:102F3000012B03F8012BF7E71A463024214402F84D
:102F4000024B5970101A02B070BD00002DE9F04F0D
:102F500091B00C46DDF8688016461F46054603F022
:102F60007BFB03681846099301F0ABF800230E932E
:102F7000D8F800300A90073323F0070303F1080262
:102F800094F81890D4F800B0C8F80020D3E90023D2
:102F9000C4E91223D4F84CA0D4F848802AF00043A6
:102FA0000B934FF0FF32A74B40460B9904F00CFFF8
:102FB000A0B94FF0FF32A34B40460B9904F0E6FE58
:102FC00060B9002200234046514604F0D5FE10B1FE
:102FD0002D2384F843309C4B9C4A0AE042465346DA
:102FE0004046514604F0F0FE002800F09281984BD4
:102FF000984AB9F1470F8CBF904698460323236146
:103000002BF0040323604FF0000A3DE0B9F1670F95
:1030100000F08A81B9F1470F00F0868123600193A7
:10302000636800210DF1330205900292009342463D
:1030300053460691CDF81090CDF80CE02846FFF7E6
:10304000F3FE09F0DF03472B804600F08481B9F1DD
:10305000650F0D9900F28D8101394A4604F1500047
:103060000D91FFF741FF0E9A82468318012A2361D2
:1030700000F37C812268D10700F178819DF833301C
:1030800013B12D2384F84330009733460FAA21460D
:10309000284600F09FF9013002D14FF0FF3096E151
:1030A00023685A0501D4236965E0B9F1650F40F240
:1030B000D580D4E912010022002304F053FE78B336
:1030C0000123654A31462846B8470130E5D00E9BBA
:1030D0000D9A9A420BDB2368D80708D423689B0714
:1030E00040F111814FF0000804F1190906E10A9B33
:1030F000099A31462846B8470130CED04FF0000833
:1031000004F11A090E9B013B9845E7DA01234A4670
:1031100031462846B8470130BFD008F10108F1E731
:103120000D9B002B29DC01234B4A31462846B8472A
:103130000130B2D00D9B23B90E9B13B92368D90778
:10314000CCD50A9B099A31462846B8470130A4D00D
:103150004FF0000904F11A0A0D9B5B42994509DA08
:103160000123524631462846B847013095D009F12F
:103170000109F1E70E9B4246A7E00E9AA36D9A4221
:10318000A8BF1A46002A914606DC4FF0000A29EA39
:10319000E97904F11A0B11E01346314642462846FC
:1031A000B8470130F1D178E701235A463146284625
:1031B000B84701303FF471AF0AF1010AA36DC9EBC2
:1031C00003029245F0DB08EB03090D9A0E9B9A422D
:1031D0000FDB2368DA070CD40E9B0D9A9844C9EBD9
:1031E00008089B1A9845A8BF9846B8F1000F08DC5C
:1031F0000FE00A9B099A31462846B8470130EBD1C7
:103200004BE743464A4631462846B84701303FF42B
:1032100044AF4FF0000928EAE87804F11A0A09E0FF
:103220000123524631462846B84701303FF435AFB6
:1032300009F101090D9A0E9B9B1AC8EB03039945EE
:10324000EEDB4BE7FFFFEF7F098F00000D8F0000E3
:10325000118F0000158F0000628F00000E9A012A66
:1032600001DCDB0738D50123424631462846B84702
:1032700001303FF412AF0A9B099A31462846B847FD
:1032800001303FF40AAFD4E912010022002304F018
:1032900069FD20B14FF0000804F11A090EE00E9B01
:1032A00008F10102013B19E001234A463146284654
:1032B000B84701303FF4F1AE08F101080E9B013B25
:1032C0009845F1DB534604F1500231462846B84791
:1032D00001307FF403AFE0E6424601233146284641
:1032E000B8470130EED1D8E601234A463146284698
:1032F000B84701303FF4D1AE08F10108E3680F9AF6
:103300009B1A9845F0DBE0680F9B9842B8BF1846BF
:103310005DE062680EA8531C0DF1340E4BF480631F
:103320007FF474AE062201E012B90122626075E6F4
:10333000002106910DF133018DE80C00236005900A
:103340004246CDF81090CDF80CE002915346284645
:10335000FFF76AFD80460D9BD81C02DB6268934232
:103360001DDDA9F102095FFA89F970E601332361D5
:1033700084E6B9F1660F14D10029636807DD216185
:1033800013B92268D2071DD501330B4419E013B9D4
:103390002268D00701D5023313E0012311E04FF07A
:1033A00067090D9B0E9A934205DB22682361D107C2
:1033B00008D5013305E0002BD4BFC3F1020301237C
:1033C000134423610D9B4FF0000AA36556E611B02C
:1033D000BDE8F08F2DE9F04791461F460A698B68DA
:1033E00006469342B8BF1346C9F8003091F843200F
:1033F0000C46DDF8208012B10133C9F80030236893
:10340000990642BFD9F800300233C9F80030256868
:1034100015F0060510D104F1190A07E00123524600
:1034200039463046C04701301AD00135E368D9F833
:1034300000209B1A9D42F1DB94F843302268003350
:1034400018BF012392060FD5E118302081F8430000
:103450005A1C94F845102244023382F8431003E0CA
:103460004FF0FF30BDE8F08704F1430239463046A3
:10347000C0470130F4D02268D9F80050E36802F068
:103480000602042A08BF5D1B2269A3680CBF25EA57
:10349000E57500259342C4BF9B1AED184FF0000953
:1034A0001A344D4509D00123224639463046C047DB
:1034B0000130D5D009F10109F3E70020BDE8F0871C
:1034C0002DE9F04317460A7E85B06E2A98460646D7
:1034D0000C460C9B01F1430E00F0AE8011D8632A1C
:1034E00022D009D8002A00F0BB80582A40F0CA80B8
:1034F00081F84520834955E0642A1ED0692A1CD0F2
:10350000C0E0732A00F0B08009D86F2A2ED0702A4C
:1035100040F0B8800A6842F020020A603EE0752A56
:1035200024D0782A3AD0ADE01A6801F14205111D85
:103530001960136884F84230A8E021681A6811F015
:10354000800F02D0111D196008E011F0400F02F148
:103550000401196002D0B2F9003000E01368002BBA
:103560003CDA2D225B4284F8432037E021681A6858
:1035700011F0800F02D0111D196007E011F0400F0B
:1035800002F10401196001D0138800E01368227E63
:103590005C496F2A14BF0A2208221BE078225A498C
:1035A00084F845202268186812F0800F00F10405A5
:1035B0001D6003D1550601D5038800E00368D007DC
:1035C00044BF42F0200222601BB9226822F0200290
:1035D00022601022002084F8430001E049490A22B9
:1035E0006568002DA56008DB206820F004002060DD
:1035F0002BB9002D7DD175460CE0002B79D0754696
:10360000B3FBF2F002FB1033CB5C05F8013D03463F
:103610000028F5D1082A0BD12368DA0708D52369D9
:1036200062689A42DEBF302305F8013C05F1FF35A0
:10363000C5EB0E0323612EE008681A6810F0800FB6
:10364000496903D0101D1860136808E010F0400F9E
:1036500002F104001860136801D0198000E01960BD
:1036600000232361754616E01A68111D196015685C
:10367000002162682846FFF7CFF908B1401B60605F
:10368000636804E004F1420584F8422001232361C9
:10369000002384F84330CDF800803B4603AA21463E
:1036A0003046FFF797FE013002D14FF0FF3026E0A1
:1036B00023692A4639463046C0470130F5D0236891
:1036C0009B0710D5002504F1190907E001234A469C
:1036D00039463046C0470130E7D00135E368039AE8
:1036E0009B1A9D42F2DBE068039B9842B8BF1846E4
:1036F00005E00B7804F1420584F842308AE705B012
:10370000BDE8F083198F00002A8F00002DE9F04FEB
:103710009A468B6816465A1EB2F5AE7F88BF6FF484
:10372000AE7287B082BF9B18019340F25D1388464A
:1037300096BF00238B6001930B684FF0000B43F49E
:10374000F06348F81C3B07460C4645465A46D946A6
:10375000CDF810B0CDF80CB0CDF808B0A1680029B4
:1037600000F0E58033681B78492B70D016D8392BD0
:103770000DD8312B40D22D2B46D002D82B2B43D045
:10378000D5E02E2B00F09280302B23D0CFE0452BBC
:1037900000F09580462B77D0412B0CE0652B00F094
:1037A0008E800AD8542B75D002D84E2B34D0BEE070
:1037B000592B75D0612B46D0B9E06E2B2CD004D894
:1037C000662B61D0692B42D0B1E0742B62D0792B8B
:1037D00066D0ACE0206810F4807F0DD0019B20F013
:1037E0008000206009F10109002B00F08780013B77
:1037F00001310193A16081E012EB0B0F40F0978043
:10380000216821F4C07105E02168080640F18F802D
:1038100021F0800121606FE06AB9B9F1000F0CD18D
:10382000216801F4E060B0F5E06F06D121F4F061A9
:103830002160012260E0022A5DD0BBF1010F1ED0A1
:10384000BBF1040F1AE0012A71D1022254E0BBF14E
:10385000000F0ED1B9F1000F6CD1216801F4E060C6
:10386000B0F5E06F6AD121F4F06121604FF0010BF7
:1038700042E0BBF1030F02D0BBF1050F57D10BF1B2
:10388000010B5FFA8BFB37E0BBF1020F4FD14FF01A
:10389000030B31E0BBF1060F49D14FF0070B2BE0D2
:1038A000BBF1070F43D14FF0080B25E021688805D5
:1038B0003DD521F420712160CDF808901CE02168ED
:1038C00001F4A060B0F5806F04D048052FD5B9F1A0
:1038D000000F33D0880558BF029821F4F06158BF1B
:1038E000C0EB090041F4C0715CBF039004952160F6
:1038F0004FF0000900E003222B700135A368013B63
:10390000A3602369013323617368013B002B73605B
:1039100003DD33680133336020E7D4F8803131466A
:10392000384605929847059A00283FF417AFB9F139
:10393000000F03D0236823F480732360013A012A27
:103940000ED845450AD9D4F87C31324615F8011D08
:10395000384698472369013B2361F2E70126ADE031
:103960000BF1FF33062B22D8BBF1020F12D9ABF1BA
:10397000030B5FFA8BFBCBEB050B5D4517D0D4F83F
:103980007C31324615F8011D384698472369013BC2
:103990002361F2E74545E1D9D4F87C31324615F888
:1039A000011D384698472369013B2361F2E72368EC
:1039B000DA052CD55B050CD54545CFD9D4F87C313B
:1039C000324615F8011D384698472369013B2361AB
:1039D000F2E715F8011C2369652903F1FF3305F1AE
:1039E000FF3B23610DD045290BD0D4F87C31324602
:1039F00038469847236915F8021C013BA5F1020BD4
:103A00002361D4F87C313246384698475D462668B3
:103A100016F0100651D12E70236803F4C063B3F57D
:103A2000806F05D1029BC3EB09035A4263B915E0CD
:103A3000039B9BB104990A2332460131384601F0B9
:103A40007FF9039B049DC21A04F26F139D4228BFA5
:103A500004F5B7751B49284600F096FA0022414646
:103A6000384600F06DFB2268804612F0020F89464E
:103A7000DAF8003003D01A1DCAF8002006E012F070
:103A8000040503F10402CAF8002003D01B68C3E94F
:103A900000890EE01F6802460B4604F095F918B144
:103AA000284600F06DFA03E04046494604F0EAF982
:103AB0003860E3680133E36000E00026304607B079
:103AC000BDE8F08F3B8F00002DE9F84315468A686A
:103AD00080460C4632B98A69002A0CBF01224FF099
:103AE000FF328A602268DFF8A890D10658BF1A68B2
:103AF0004FF000065EBF111D19601768A069F8B984
:103B000023680136DA065EBF2B681B783B702A6893
:103B10006B6802F101022A60A26803F1FF3302F12F
:103B2000FF326B6058BF0137A260E2B1002BE5DCC9
:103B3000D4F880312946404698470028DED012E06C
:103B4000012806D12B681A7863699B5C002BD7D1BA
:103B500019E0022807D12B68D9F800201B781344FC
:103B60005B781B07CCD5236813F0100305D1E268FE
:103B70000132E260A26902B13B70236900201E4459
:103B80002661BDE8F883002EEDD1BDE8F88300BFC3
:103B9000540100102DE9F04F0C469A46724B87B045
:103BA0008346164693E8070003ABA76883E807003F
:103BB0006E4BA1696E4A04F11C09032918BF1A460D
:103BC0007B1EB3F5AE7F84BF40F25D13A360236814
:103BD00088BF6FF4AE7543F4506323604B46009288
:103BE0008CBF7F1900274FF000083168019303ABA9
:103BF00053F8280002220978FEF70EFF019B0028E7
:103C000033D0B8F1010F0BD162682AB90822626083
:103C1000226842F400722260226822F4A0620CE062
:103C2000B8F1020F0AD1226802F4C061B1F5007F39
:103C30001BD11021616042F480722260A268511E83
:103C4000A16092B132685D1C511C316012781A700B
:103C50007368013B002B736006DCD4F88031314679
:103C600058469847002841D12B4608F10108B8F181
:103C7000030FBAD162680AB90A22626062683D49DC
:103C80006069891A019300F099F8019B4FF00008D0
:103C90001D46A36863B3316860690A78805C38B3F5
:103CA000302A226808D1100506D508F1010857B15D
:103CB0000133013FA36006E022F4106222600B781A
:103CC000013505F8013C7368013B002B736003DD8F
:103CD00033680133336005E0D4F88031314658460B
:103CE000984728B9A368013BA360D2E74FF00008CA
:103CF0002368D9050CD54D4508D915F8011C6F1E50
:103D0000D4F87C313246584698473D464D4527D039
:103D1000226812F010021BD12A7063684946584687
:103D2000009EB0472268DAF8003012F0200F07D169
:103D3000D20705D51A1DCAF800201B68188004E0B8
:103D40001A1DCAF800201B681860E3680133E3609D
:103D50002369C9EB050545441D442561002000E0A9
:103D6000012007B0BDE8F08F408F00004D4E0000ED
:103D7000414D00005C8F000038B5074C05460846F1
:103D80001146002222601A46FCF738FC431C02D17F
:103D9000236803B12B6038BD1006001038B5064CFF
:103DA0000023054608462360FCF748FD431C02D16A
:103DB000236803B12B6038BD1006001070B50B7876
:103DC000441E5E2B13BF4A1C8A1C4B78002108BF7F
:103DD000012100F1FF0504F8011FAC42FBD10BB932
:103DE000501E70BD81F001041146C4540D784A1C68
:103DF0002D2D06D05D2D0FD00DB12B46F4E70846D2
:103E000070BD4E785D2EF8D0B342F6DC023101333E
:103E10009E42C454FBDCE9E7104670BD00294FF414
:103E200080630CBF0222002200F000B82DE9F743A6
:103E30001D464F4B04461E680F46904626B1B36997
:103E400013B93046FEF7DEFB4A4B9C4201D1746841
:103E500008E0494B9C4201D1B46803E0474B9C42C7
:103E600008BFF468B8F1020F04D0B8F1010F79D897
:103E7000002D77DB21463046FEF748FB616B41B1F0
:103E800004F14403994202D03046FEF7E7FD0023D7
:103E900063630023A3616360A3891B0603D52169C3
:103EA0003046FEF7DBFDA389B8F1020F23F44A6325
:103EB00023F00303A3811ED001AB6A46214630469E
:103EC000FEF73CFDA3891843A0810DB9009D00E0D9
:103ED0002FBB2846FEF790FD0746D0B9DDF80090CD
:103EE000A94502D14FF0FF3006E04846FEF784FDB9
:103EF000074678B9F6E70020A38943F00203A381BF
:103F00000023A36004F1470323602361012363615D
:103F10002AE0A9464D46A38943F08003A381B369F3
:103F200013B93046FEF76EFBB8F1010F08BFA38945
:103F3000276004BF43F00103A381A389276103F035
:103F4000080080B2656158B113F001034FF0000022
:103F50001DBF6D42A060A561A56008BF184603E0C3
:103F6000A06001E04FF0FF3003B0BDE8F08300BF78
:103F700050010010908E0000B08E0000D08E000026
:103F8000004870470000C07F0EB400B54FF40271C6
:103F90009CB0ADF814106FF00041049107914FF6FA
:103FA000FF711DAB02900690084853F8042BADF842
:103FB0001610006802A9019302F0F4FF029B002290
:103FC0001A701CB05DF804EB03B07047500100108C
:103FD0000EB430B59CB01FAC4FF4017254F8045BC2
:103FE000ADF814200290069000F06BF80B4B039094
:103FF0000B9300230F9314934FF6FF730790084819
:10400000ADF816302A46234602A90068019403F051
:1040100019F91CB0BDE8304003B0704747400000BC
:104020005001001010B50C46B1F90E1003F05EFA05
:104030000028ABBF636DA3891B1823F48053ACBF6A
:104040006365A38110BD002070472DE9F0411F4634
:104050008B890546DB050C46164605D50223002252
:10406000B1F90E1002F0FCFAA389324623F4805312
:10407000A381B4F90E103B462846BDE8F04100F09C
:10408000F1BF10B50C46B1F90E1002F0E9FA431C6D
:10409000A38915BF606523F4805343F48053A38143
:1040A00018BFA38110BDB1F90E1001F027B910F8A7
:1040B000012B11F8013B012A28BF9A42F7D0D01AF0
:1040C0007047034613F8012B002AFBD1181A013858
:1040D000704730B582B1451E013915F8013F11F81E
:1040E000014FA34206D1EC431444E04201D0002B1F
:1040F000F3D11C46181B30BD104630BD2DE9F041F0
:104100000F46904602F09EFD04460D46B8F1000FA2
:1041100011D0C7F30A53C3F16B03002B0BDD1B0552
:1041200003F17F55002405F5401522462B4603F088
:10413000B1FBBDE8F08120462946BDE8F0810000D2
:104140002DE9F04F82460C469DB000231392189340
:104150004FF000084FF000091791179B1A780D2AAD
:1041600005D8092A13D2002A00F0AD8112E02B2ACB
:1041700004D02D2A04D0202A0CD108E0002200E02F
:1041800001220C925A1C17925B782BB99BE10133E8
:104190001793E2E700230C93179D2B78302B5CD10B
:1041A0006B78582B01D0782B4CD10C9BA84A0193EB
:1041B00018AB009317A919AB504601F06AFF10F035
:1041C0000706044600F08585062E05D1013500233B
:1041D00017950C9300F07DBD189A3AB135211AA8B5
:1041E00002F017FE1899504602F09CFA062E22D8CB
:1041F000DFE806F0040D08181D0D04004FF000095B
:10420000C84618E0DDF86880DDF86C9013E01B9B71
:10421000199A23F4801302F23342DDF8688043EAEE
:10422000025908E0DFF82C924FF0000803E06FF02D
:1042300000494FF0FF38210740F14B8549F0004914
:1042400000F047BD179B5A1C17925B78302BF9D0B2
:10425000002B00F03E85012300E000230593179B0F
:104260000A22069300239B4602930493179D2E78FF
:10427000A6F13003D9B2092911D8BBF1080FD5BF77
:104280000499029902FB013302FB013305F1010598
:10429000D4BF049302930BF1010B1795E6E7504648
:1042A00002F0DAF90768504602F0D6F90068FFF725
:1042B00008FF394602462846FFF70BFF074628B19C
:1042C000002033465D46024601465AE0504602F061
:1042D000C3F90068FFF7F5FE179B1A1817921B5CCD
:1042E000BBF1000F45D15846302B05D1179B01304B
:1042F0005A1C17925B78F7E7A3F13102082A46D8D7
:10430000179A0692024600200546303B00F1010153
:1043100029D00A44294605EB000C0A2661450FD036
:10432000013101F1FF3EBEF1080F03DC049F77432A
:104330000497F3E71029DEBF029F77430297EDE76A
:104340002844082800F1010505DC04980A2101FB36
:104350000033049306E0102DDFBF02980A2101FB11
:10436000003302930021179B581C17905B78084676
:1043700002E05D4638463A46A3F130010929C4D926
:104380000121652B01D0452B4FD16DB904E0652B80
:1043900040F0AD840022012128B9059B002B00F0DC
:1043A0009280054600E00025179C631C17936378F4
:1043B0002B2B06D02D2B02D00026039606E00123DE
:1043C00000E000230393A31C1793A378A3F1300606
:1043D000092E29D8302B04D1179B5E1C17965B78C9
:1043E000F8E7A3F13106082E1FD8A3F1300E179B72
:1043F0001F46179B5E1C17965B78A3F1300CBCF12F
:10440000090F05D80A2606FB0E3EAEF1300EF0E786
:10441000F61B082E44F61F6602DC7645A8BF7646DA
:10442000039F1FB1764201E017940026002D52D160
:10443000002840F04E84059A002A40F04A84002962
:1044400041D14E2B20D007DC492B0AD03BE000BFE6
:104450006C8F00000000F07F692B02D06E2B13D010
:1044600031E0AA4917A802F045F860B3179BA849A4
:10447000013B17A8179302F03DF810B9179B0133C1
:104480001793DFF8A8921AE0A24917A802F032F8B1
:10449000C8B1179B1B78282B0FD11AAA9E4917A8C1
:1044A00002F03BF8052808D11B9BDDF8688043F03B
:1044B000FF4949F4E00900F00CBCDFF874924FF0BA
:1044C000000800F006BC139B1794002B00F00C842E
:1044D00000230C93FFE32C46BBF1000F08BFAB4653
:1044E0000498102DA8BF1024B71A03F05DF9092C09
:1044F0008046894613DD894B03EBC40353E912233D
:1045000003F0C8F980460298894603F04DF9024647
:104510000B464046494603F00BF8804689460F2D6E
:1045200033DC002F00F0D58322DD162F07DC7B4D16
:10453000424605EBC7014B46D1E9000113E0C5F146
:1045400025039F4221DC754CC5F10F0504EBC50125
:104550007D1B4246D1E900014B4604EBC50403F044
:1045600099F9D4E9002303F095F980468946B0E330
:1045700017F1160F09DB694D4046A5EBC703D3E9D8
:104580000023494603F0B0FAEFE72C1B3C44002C13
:104590005DDD14F00F010AD0604B424603EBC10110
:1045A000D1E900014B4603F075F98046894634F0A5
:1045B0000F0400F0C180B4F59A7F0FDD4FF0000BBF
:1045C000CDF808B0CDF814B0CDF810B02223CAF859
:1045D0000030DFF858914FF0000889E14046494625
:1045E00000234F4E24110293012C0CDDE20704D569
:1045F000D6E9002303F04EF90123029A6410013238
:1046000002920836F0E70BB180468946444B029A85
:10461000A9F1547903EBC201D1E9000142464B46AE
:1046200003F038F921F0004389460A461B0D3D4945
:104630001B058B428046C1D8A1F580118B4286BFF5
:10464000DFF8F0904FF0FF3802F1547974E073D046
:10465000644214F00F020AD0304B404603EBC20311
:104660004946D3E9002303F03FFA804689462411E6
:1046700062D01F2C08DD4FF0000BCDF808B0CDF84C
:1046800014B0CDF810B02CE14046494614F0100F9C
:104690000CBF00236A23244E03930023002C09DD62
:1046A000E20704D5D6E9002303F0F4F801236410EF
:1046B0000836F3E70BB180468946039BEBB1C9F39B
:1046C0000A53C3F16B03002B494616DD1F2B0EDD89
:1046D000342BDEBF203B4FF0FF3202FA03F34FF0E2
:1046E0000008CCBF4FF05C7903EA010905E04FF008
:1046F000FF3202FA03F303EA0808002200234046CF
:10470000494603F02FFB0028B5D117E00E8F0000BB
:10471000C4900000168F0000808F0000D890000029
:10472000A09100000000A07C988F00000000F07FA6
:104730000000F8FFFFFFEF7F00230393049B5A461E
:10474000009306992B46504602F03EF8059000284B
:104750003FF434AF002FC7F10003A8BF00230D932F
:104760004FF0000B27EAE7731293CDF808B0059BD2
:104770005046596801F0A1FF049000283FF426AF8D
:10478000059B0C301A6903F10C0102329200FEF70E
:1047900051F91AAB019319AB009342464B46504670
:1047A000CDE9088902F0BFFA189000283FF40EAF57
:1047B0000121504602F093F8029000283FF406AF22
:1047C000199B0399002BACBF0D9A129A1A9CACBF8F
:1047D000D618D21AA3EB01032344B14903F1FF33E6
:1047E000ACBF129A0D9E8B42C4F1360480F28580D4
:1047F000C91A1F29C8BFAB4D4FF00107D4BF07FA34
:1048000001F3ED1AA4EB0104D9BF0793002507FAC1
:1048100005F507973719039BBE4214441C443346E1
:10482000A8BF3B46A342A8BF2346002BC2BFFF1A26
:10483000E41AF61A0D9B002B63D1002F7ADC129B31
:10484000002B40F08180002C00F38880002E00F3C4
:104850008F80049A1899504602F095F983460028F3
:104860003FF4B4AEC3680024C4600299069302F01A
:104870006EF9A04280F28B80069B002B40F00282F2
:10488000B8F1000F40F0FE81C9F31303002B40F094
:10489000F98129F000431B0D1B05B3F1D66F40F2DF
:1048A000F181DBF81430002B6CD0594601225046C0
:1048B00002F0FCF80299834602F049F9002840F31F
:1048C000E18129F00043039A1B0D1B05002A00F02B
:1048D0008D80B3F1D66F00F38980B3F15C7F00F374
:1048E000D38122234FF000084FF00009CAF80030AE
:1048F000059B002B40F0D981EBE1012300250793B4
:1049000088E71A460299504602F082F80290002881
:104910003FF45CAE0146189A504601F0E9FF06905C
:1049200000283FF453AE1899504601F0FBFE069B59
:10493000189382E73A461899504602F0B7F8189053
:1049400000287FF47CAF41E6129A0499504602F0A9
:104950005FF8049000287FF476AF37E6224604998A
:10496000504602F0A3F8049000287FF46FAF2DE6C4
:1049700032460299504602F099F8029000287FF4DE
:1049800068AF23E6DBF81030012B8EDC7AE161D1D1
:10499000069AC9F3130322B343494A468B422ED1E8
:1049A000039B414663B1414B1340B3F1D46F07D829
:1049B0001B0DC3F16B034FF0FF3000FA03F301E06E
:1049C0004FF0FF338B421AD139498A4202D1013369
:1049D0003FF4FCAD354B4FF00008134003F5801950
:1049E00050E163B9B8F1000F09D16AE7A3F580136C
:1049F0006FEA13594FF0FF386FEA095942E115B1D8
:104A000015EA090F02E0079B13EA080F00F03A814C
:104A1000069B039A4046494653B1FFF76FFB024697
:104A20000B46DDE9080102F083FD8046894629E155
:104A3000FFF764FB02460B46DDE9080102F076FD54
:104A4000002200238046894603F08CF900287FF479
:104A500048AF17E10299584602F0B3F900224FF02F
:104A6000804306460F4603F091F900283FD0069B8D
:104A700013B100260F4F10E0B8F1000F03D1C9F3B6
:104A800013033BB91AE0B8F1010F03D1B9F1000FDC
:104A90003FF427AF084F00260024064D3CE000BF3E
:104AA00002FCFFFFE2FBFFFFFFFF0F000000F07FB3
:104AB000FFFFEF7F0000F03F0000F0BF00229A4BA5
:104AC0003046394603F058F940B90022974B30463A
:104AD000394602F0DFFE04460D4601E0069C934D88
:104AE00005F1004314941593DDE9146714E08F4B2E
:104AF00000223046394602F0CDFE069B04460D46A4
:104B000023B901F100430E900F9303E002460B46D8
:104B1000CDE90E23DDE90E6729F000431B0D1B05CF
:104B20000793079A824B9A422BD1DDE90823A9F11A
:104B3000547940464946CDE90A2302F083F80246FB
:104B40000B463046394602F0A5FE42464B4602F07F
:104B5000EFFC21F000431B0D764A1B059342804673
:104B60000CD9754B0B9A9A4203D10A9B01333FF43F
:104B70002DADDFF8C4914FF0FF3872E001F15479A8
:104B800039E0039B3BB3079BB3F1D46F23D85EA3FB
:104B9000D3E900232046294603F0F8F8B8B12946A6
:104BA000204603F04FF9002808BF012002F0FCFD69
:104BB000069B04460D4623B901F100431090119362
:104BC00003E002460B46CDE91023DDE91067079AA2
:104BD00007F1D6639F1ADDE9080102F033F80246B7
:104BE0000B463046394602F055FEDDE9082302F057
:104BF0009FFC80468946039B9BBB29F000431B0D0D
:104C0000079A1B059A424E462BD12946204603F0AF
:104C1000F1F802F0D9FD0B4602462946204602F083
:104C200085FC069B04460D462BB9B8F1000F02D156
:104C3000C9F313067EB136A3D3E9002320462946E3
:104C400003F09AF888BB34A3D3E900232046294611
:104C500003F0B0F804E032A3D3E9002303F08CF8AA
:104C600018BB1899504601F05DFD0499504601F0BB
:104C700059FD0299504601F055FD5946504601F044
:104C800051FD74E5039B83B12C4B40460B930023ED
:104C90000A934946DDE90A2302F0FCFD8046894675
:104CA00019B910B92223CAF800301899504601F0FA
:104CB00039FD0499504601F035FD0299504601F046
:104CC00031FD0599504601F02DFD5946504601F041
:104CD00029FD139B13B1179B139A13600C9B1BB1F7
:104CE000424609F1004307E042464B4604E00025F6
:104CF0002A460121FFF747BB104619461DB0BDE803
:104D0000F08F00BFAFF300800000C0FFFFFFDF4166
:104D10009535A094FFFFDF3F35E5AF350000E03F5C
:104D20009535A094FFFFCF3F0000F03F0000E03F2B
:104D30000000E07FFFFF9F7CFFFFEF7F0000503906
:104D40002DE9F0470F4680463F48D0F800903D4699
:104D500015F8014B09EB0400407800F0080000F062
:104D6000FF0608B12F46F2E72D2C03D1BD1C7C783D
:104D7000012603E02B2C04BF7C78BD1C13B1102B43
:104D80000AD15BE0302C57D1287800F0DF0058289A
:104D90004DD16C7810230235002E14BF4FF0004C1B
:104DA0006FF0004CBCFBF3FA0027384603FB1ACC2B
:104DB00009EB040E9EF801E01EF0040F01D0303C18
:104DC0000BE01EF0030E1BD0BEF1010F0CBF4FF025
:104DD000370E4FF0570ECEEB0404A34210DDB7F1AF
:104DE000FF3F0AD0504506D801D1644503DC03FBE0
:104DF0000040012701E04FF0FF3715F8014BD7E7DE
:104E00007B1C0CD1002E4FF0220314BF4FF000404A
:104E10006FF00040C8F800302AB9BDE8F08706B14D
:104E2000404272B107B1691E1160BDE8F0873024BD
:104E3000002BB1D10823AFE70A23ADE7302CA3D074
:104E4000AAE7BDE8F08700BF540100102DE9F04744
:104E50000E4680463B48D0F80090354615F8014B89
:104E600009EB0400407800F0080000F0FF0708B1EB
:104E70002E46F2E72D2C03D1B51C7478012703E0F0
:104E80002B2C04BF7478B51C13B1102B0AD153E03E
:104E9000302C4FD1287800F0DF00582845D16C78AD
:104EA000102302354FF0FF3CBCFBF3FC03FB0CFA74
:104EB00000266FEA0A0A304609EB040E9EF801E06C
:104EC0001EF0040F01D0303C0BE01EF0030E1AD090
:104ED000BEF1010F0CBF4FF0370E4FF0570ECEEB67
:104EE0000404A3420FDD002E08DB604506D801D183
:104EF000544503DC03FB0040012601E04FF0FF3680
:104F000015F8014BD8E7002E07DA2223C8F8003045
:104F10004FF0FF302AB9BDE8F08707B1404272B1C7
:104F200006B1691E1160BDE8F0873024002BB9D1AD
:104F30000823B7E70A23B5E7302CABD0B2E7BDE8CA
:104F4000F08700BF540100102DE9F0410C46496B79
:104F500004F1440399421AD14FF48061FDF7C2FD78
:104F600018B94FF0FF30BDE8F0814FF48063A363C0
:104F700094F84630606380F8FF3394F8453000F2CF
:104F8000FD30437094F844300370206012E0A66B4B
:104F900077003A4601F087FF05460028E1D000EB94
:104FA0000608014632464046FDF744FDC4F800803D
:104FB0006563A7630020BDE8F0810000F8B50F46E7
:104FC0001446064618B183690BB9FDF71BFB224B4B
:104FD0009C4201D1746808E0204B9C4201D1B46826
:104FE00003E01F4B9C4208BFF468A369A360A38938
:104FF0001A0709D523693BB123682069FDB2181A45
:10500000636998420FDB08E02146304600F03CF827
:105010000028F1D04FF0FF30F8BD21463046FDF7B3
:1050200075FA0028F6D1A368013BA36023685A1CD7
:1050300022601F706269431C934204D0A389DB077E
:1050400007D50A2D05D121463046FDF75FFA002825
:10505000E0D12846F8BD00BF908E0000B08E000061
:10506000D08E000038B5074C054608461146002290
:1050700022601A46FBF754FB431C02D1236803B19C
:105080002B6038BD10060010314B70B51D68064608
:105090000C4625B1AB6913B92846FDF7B3FA2D4B81
:1050A0009C4201D16C6808E02B4B9C4201D1AC685A
:1050B00003E02A4B9C4208BFEC68A3899AB211070F
:1050C0001DD4D50602D40922326038E0500712D52B
:1050D000616B41B104F14403994202D03046FDF7BF
:1050E000BDFC00236363A38923F02403A381002371
:1050F000636023692360A38943F00803A3812369C4
:105100004BB9A38903F42073B3F5007F03D0214684
:105110003046FDF737FCA38913F0010205D00022C9
:10512000A26062695242A26103E0990758BF6269B6
:10513000A26022694AB903F0800080B230B143F026
:105140004003A3814FF0FF3070BD002070BD00BF51
:1051500050010010908E0000B08E0000D08E000034
:105160002DE9F8432C4D07462C680E46914698468B
:1051700034B92A4C2A4B2C6013B11B68C4F8883010
:1051800063681F2B14DD274B1BB94FF0FF30BDE8C0
:10519000F8838C20FDF730FC04460028F5D02A68FF
:1051A0000023026043602860C0F8883057B306E0EF
:1051B00047B3D4F8880078B91A4B002BE5D04FF4E8
:1051C0008470FDF719FC0028DFD00023C0F80031FF
:1051D000C0F80431C4F888006268012340F82290C6
:1051E000934000EB8201D0F80021022F42EA030233
:1051F000C0F80021C1F8808002BFD0F80421134319
:10520000C0F80431636800205A1C0233626044F81D
:105210002360BDE8F88300BF040600107805001085
:10522000688F0000F92900002DE9F74F89460190A9
:10523000304B4FF0010B98461C68002C56D0656827
:10524000D4F888606F1EAD0006EB050A04352544CE
:10525000002F36DBB9F1000F09D026B9013FAAF1C2
:10526000040A043DF4E7DAF87C209145F6D1616840
:105270002A6801398F4216BF002367602B60002A1D
:10528000ECD0636800932EB1D6F800010BFA07F159
:10529000014201D190470BE0D6F80401014204D14C
:1052A0005AF8041C0198904702E05AF8040C904701
:1052B0006268009B9342BBD1D8F800209442CDD0C5
:1052C000B6E70D4B93B16268236862B95BB1C8F869
:1052D000003016B13046FDF797FB2046FDF794FBF2
:1052E000D8F80040A9E7A0461C46A6E703B0BDE8F1
:1052F000F08F00BF04060010092A000038B5064CE4
:105300000023054608462360FBF7F6F9431C02D14B
:10531000236803B12B6038BD100600102DE9F74F4C
:1053200003690C6980469C427FDC013C01F1140753
:105330004FEA840E00F1140606EB0E0357F82450D2
:10534000019356F824300135B3FBF5F507EB0E0950
:10535000C5B34FF0000A3846B446D34650F8043B74
:105360009AB205FB02A21B0C4FEA124A05FB03A3EB
:1053700092B2C2EB0B0BBCF800204FEA134A5A441E
:105380001FFA83FBDCF800308145CBEB134303EBC2
:10539000224392B242EA03424FEA234B4CF8042BD9
:1053A000DCD256F80E306BB9019B043B9E421A4684
:1053B00002D3C8F8104005E01268043B002AF8D177
:1053C000013CF3E7404601F0C2FB00282BDB3046EE
:1053D00001354FF0000E57F8042B036891B2C1EB72
:1053E0000E0E120C99B27144C2EB134303EB21432E
:1053F00089B24FEA234EB94541EA034340F8043BE2
:10540000E9D256F8242006EB840362B9043B9E429D
:105410001A4602D3C8F8104005E01268043B002A7F
:10542000F8D1013CF3E7284600E0002003B0BDE8D6
:10543000F08F0000000000002DE9F04F456A95B0A4
:105440008246219CCDE9022345B91020FDF7D4FA0C
:10545000CAF82400456085600560C560DAF824302C
:10546000196859B15A68012393404A608B605046CD
:1054700001F058F9DAF8243000221A60039BA04AA0
:10548000002BBDBF01232360039B0023BCBF23F07F
:1054900000430393DDF80C80A8BF236028F000438D
:1054A0001B0D1B0593421DD142F20F73209A13600E
:1054B000029B43B9934A944BC8F31300002814BFCE
:1054C0001846104600E09048229B002B00F04685CD
:1054D000C37813B100F1080300E0C31C229A1360E3
:1054E00000F03CBDDDE902450022002320462946AC
:1054F00002F038FC074658B1209A01231360229B22
:10550000002B00F01E8581481860013800F026BD90
:1055100012AB019313AB009322462B46504601F089
:1055200002FCC8F30A56049056B1C5F3130343F0C6
:105530007F51204641F44011A6F2FF3611971DE03D
:10554000139B129E1E4406F23243202B0ADD029A60
:1055500006F21240C3F1400322FA00F008FA03F306
:10556000184304E0C3F12000029B03FA00F002F0AC
:105570001BF90123A1F1F871013E11930022644B44
:1055800001F0D4FF58A3D3E9002302F083F958A314
:10559000D3E9002301F0CCFF044630460D4602F06B
:1055A00013F955A3D3E9002302F074F902460B4620
:1055B0002046294601F0BCFF04460D4602F01AFCC5
:1055C0000022834600232046294602F0D5FB58B12D
:1055D000584602F0F9F802460B462046294602F0EA
:1055E000C1FB08B90BF1FF3BBBF1160F0DD8DDE98C
:1055F0000223484901EBCB01D1E9000102F0DAFBBB
:1056000030B10BF1FF3B002300E00123109300E0D9
:105610001090129B9E1B731E079343BFC3F100089B
:10562000002307934FF00008BBF1000F06DB079B38
:10563000CDF82CB05B440793002705E00023CBEBAB
:105640000808CBF100070B931E9B092B28D8052BCC
:10565000C4BF043B1E931E9BC8BF0025A3F10203D9
:10566000D8BF0125032B20D8DFE803F0060E020483
:10567000012302E0012308E000230A931F9B002B73
:105680001DDD9946059321E000230A931F9B0BEB38
:10569000030909F10103012B0593B8BF012315E0AC
:1056A000012500231E930A9501E001230A934FF080
:1056B000FF390022CDF8149012231F9206E04FF01C
:1056C00001094B46CDF81490CDF87C90DAF82440CF
:1056D00000226260042101F114029A421CD862681F
:1056E000490001326260F6E761436F63A787D23FEA
:1056F000B3C8608B288AC63FFB799F501344D33FC1
:105700000000F07FC1900000CA900000638F00008D
:105710000000F83FD89000006168504600F0CDFFCF
:10572000DAF8243020601B680693059B0E2B00F2EC
:105730005B81002D00F05881DDE90234BBF1000FE0
:10574000CDE90E3430DD9F4A0BF00F034FEA2B15E5
:1057500002EBC303E80618CBCDE908340CD5DDE92C
:105760000E01994B05F00F05D3E9082302F0BCF9AF
:105770000324CDE9020100E00224934E6DB1E90754
:1057800008D5DDE90801D6E9002302F083F8CDE968
:10579000080101346D100836F0E7DDE90823DDE982
:1057A000020102F0A1F920E0CBF1000505B3DDE92B
:1057B0000E01844B05F00F0203EBC203D3E9002373
:1057C00002F068F8CDE902017F4E2D11002302247A
:1057D00055B1EA0705D5D6E9002302F05BF801349C
:1057E00001236D100836F3E71BB1CDE9020100E09B
:1057F0000224109BE3B1DDE902560022734B2846D8
:10580000314602F0B9FA98B1059B8BB1B9F1000F9E
:1058100040F3E6800BF1FF330893314600226C4BD6
:10582000284602F037F80134CDE902014E4602E085
:10583000059ECDF820B0204601F0C6FFDDE9022329
:1058400002F028F8634B002201F072FEA1F15073C0
:1058500004460C931D46D6B9DDE9020100225E4BD9
:1058600001F064FE22460C9BCDE9020102F0A2FA8F
:10587000002840F03F820C99224601F10043DDE907
:10588000020102F079FA002840F02B82A8E00A9A7F
:105890004C4B711E002A49D003EBC103D3E900230E
:1058A00000204E4902F020F922462B4601F03EFE30
:1058B000CDE90C01069CDDE9020102F09BFA0546E8
:1058C00001F082FF02460B46DDE9020101F02EFEE7
:1058D000DDE90C23303504F8015BCDE9020102F06B
:1058E0004BFA002840F01D83DDE9022300203749F0
:1058F00001F01CFEDDE90C2302F03EFA002840F026
:10590000D180069BE31AB3426ADADDE90C0100227A
:105910002F4B01F0BFFF0022CDE90C01DDE90201B0
:105920002B4B01F0B7FFCDE90201C4E703EBC10146
:105930002246D1E900012B4601F0ACFF069BCDE9E0
:105940000C011D469C19DDE9020102F053FA0646DE
:1059500001F03AFF02460B46DDE9020101F0E6FDE7
:10596000303605F8016BAC42CDE902014FF0000280
:1059700022D11A4BDDE90C0101F0DAFD02460B469B
:10598000DDE9020102F016FA002840F08B80DDE923
:105990000C230020114901F0C9FD02460B46DDE948
:1059A000020102F0E9F9D8B114F8013C621E302B73
:1059B00040F0B7821446F7E7054B01F06BFFCDE9E5
:1059C0000201C0E7D8900000A09100000000F03F65
:1059D0000000244000001C40000014400000E03F94
:1059E000DDE90E34CDE90234139B002B7CDBBBF1E7
:1059F0000E0F79DCAB4B03EBCB03D3E900671F9BA6
:105A0000002B14DA059B002B11DC40F06C81002286
:105A1000A54B3046394601F03DFFDDE9022302F097
:105A2000BFF9059D2E46002840F05F8165E1069C88
:105A3000DDE9028932463B464046494602F054F8C9
:105A400002F0D8F9054601F0BFFE32463B4601F0B0
:105A500021FF0B4602464946404601F067FD05F12D
:105A6000300E069B04F801EBC3EB040E059B734557
:105A70002DD102460B4601F05BFD80468946024669
:105A80000B463046394602F077F978B942464B4624
:105A90003046394602F066F9002800F04482EB07F0
:105AA00004D440E2DDF820B000E01C4614F8012CDC
:105AB000631E392A07D1069A9A42F6D106993022F6
:105AC0000BF1010B0A701A7801321A702BE20022D6
:105AD000764B01F0DFFE002200238046894602F06B
