:1000000000800010C53A0000F53A0000F73A000001
:10001000F93A0000FB3A0000FD3A00000000000041
:10002000000000000000000000000000FF3A000097
:10003000013B000000000000033B0000053B000006
:10004000073B0000073B0000073B0000073B0000A8
:10005000073B0000073B0000073B0000073B000098
:10006000073B0000073B0000073B0000073B000088
:10007000073B0000073B0000073B0000073B000078
:10008000073B0000073B0000073B0000073B000068
:10009000073B0000073B0000073B0000073B000058
:1000A000073B0000073B0000073B0000073B000048
:1000B000073B0000073B0000073B0000073B000038
:1000C000073B0000073B0000073B0000044B0548CE
:1000D0001B1A062B02D9044B03B11847704700BF07
:1000E0004B010010480100100000000005490648BF
:1000F000091A891001EBD171491002D0034B03B1E9
:100100001847704748010010480100100000000027
:1001100010B5064C237843B9FFF7D8FF044B13B151
:100120000448AFF300800123237010BD4801001084
:10013000000000002463000008B5084B1BB108490B
:100140000848AFF300800848036813B9BDE80840C9
:10015000CCE7064B002BF9D09847F7E700000000EA
:100160004C01001024630000480100100000000052
:100170000346426808200A705A68C2404A70DA880A
:100180008A70DA79CA709A680A719A68C2404A71AC
:100190005A898A71DB7ACB71704700BF024610B46E
:1001A0000B78082053604C7843EA042353608C7822
:1001B00043EA04435360CC7843EA046353600B7909
:1001C00093604C7943EA042393608C7943EA0443B7
:1001D0009360C97910BC43EA01639360704700BF24
:1001E00000487047745C000000487047845C000061
:1001F00000487047A85C000000487047C45C0000DD
:1002000000487047E85C000000487047FC5C000054
:1002100000487047C05D000000487047205D000046
:10022000002070470020704700487047445D000080
:1002300000487047545D0000044B59695A680968CA
:100240000A420CBFDB681B691A607047640100102A
:1002500003690C30184700BF406970470048704779
:10026000445D000000487047545D000090F8FC05B4
:10027000704700BF2DE9F043037900240B704C70E8
:100280008C70CC70037983B0002B68D00B460425AA
:10029000C268661C52F82420F4B24FEA122E170CE2
:1002A000160E1A7183F805E09F71DE71027904352C
:1002B000A24203F10403EBD82B462A1D154603F195
:1002C000010C03F1020EDF1C067C0024CE5401F861
:1002D0000C4001F80E40CC55037CABB14B19826940
:1002E000661C52F82420F4B24FEA122E170C160E98
:1002F0004A5583F801E09F70DE70027C0435A2420B
:1003000003F10403EBD82A46067F4B1900248E54D0
:100310005C709C70DC70037F2E1DE3B1884607463D
:100320007B6A06F1040953F8240004F062FE0546D6
:10033000019001982A4648F806007B6A08EB0900FC
:1003400053F8241003F08AFF01343B7FE4B2A34248
:1003500005EB0906E4D8304603B0BDE8F083082277
:10036000154607274FF0060E4FF0050C0423ABE7A8
:1003700070B5037982B00B70064680680D4604F0B4
:1003800038FE044602AB43F8040D18682246C5F84F
:100390000100B168681D03F061FF601D02B070BD0F
:1003A00083882DE9F0410B70838884B01B0A4B7061
:1003B000064680680D4604F01CFE044604AB43F874
:1003C0000C0D18682246C5F80200B168A81D03F09C
:1003D00045FFF06804F00DFE804604AB43F8080DBD
:1003E0001868A31DE8500A34F1684246281903F042
:1003F00035FF306904F0FDFD074604AB43F8040DFA
:100400001868444428510434316928193A4603F0E5
:1004100025FF736938192A182B541E0A1C0C190E53
:10042000043056709470D17004B0BDE8F08100BF04
:100430000B46F0B413F8012B06460271186882B01F
:100440000190019D0F1D681D052808D93B462C1DF4
:100450000C4413F8012FA34203F8012CF9D10D44E9
:1004600000232B71B76002B0F0BC7047F0B40B787A
:10047000054683804A7884B043EA02238380D1F81A
:1004800002004F1D0190019A961D062E08D93B4689
:10049000541D0C4413F8010F9C4203F8010CF9D1D0
:1004A0008B1800205871AF60885904360290029B67
:1004B00033449E4209D2304609320A4412F8014FB1
:1004C0000130984202F8014CF8D3013E0E44CA189C
:1004D000002002F8010CEE6010681E1D03900398C6
:1004E0003044864209D2324603330B4413F8014F9D
:1004F0000132824203F8014CF8D3013E0C180E443D
:10050000002304F8013C2E61A37866780A5C1B0482
:10051000E17843EA0623134343EA016304306B6145
:1005200004B0F0BC704700BF2DE9F04103790C78AE
:1005300082B0A34205460E46C0F082802C71002C8A
:1005400000F08780334605F10807002004249A79DB
:1005500093F805E01979120442EA0E2293F807E0B5
:100560000A4342EA0E62AA60D7F800E0EA68411C3A
:1005700042F820E02A79C8B2824204F1040403F16F
:100580000403E4D8234616F803802B7C271D43453B
:100590003C4666D385F81080B8F1000F1FD005F1F6
:1005A0001407331900209A7893F801E0197812049F
:1005B00042EA0E2293F803E00A4342EA0E626A61BD
:1005C000D7F800E0AA69411C42F820E02A7CC8B2B2
:1005D000824204F1040403F10403E4D82746F75DE2
:1005E0002B7FBB4244D3231D2F772FB30027BC465C
:1005F00005F1200EF0581C1D019001982044844202
:1006000009D222460333334413F8011F01328242D8
:1006100003F8011CF8D3013C3318344403F801CC2F
:100620002C626A6ADEF800107B1C42F827102A7FD1
:10063000DFB2BA420346DDD8184602B0BDE8F08109
:10064000A100C06801F044FC2C71E860002C7FF42C
:1006500079AF042316F803802B7C082743453C46DA
:1006600098D24FEA8801A86901F032FCA86191E7AD
:10067000B900686A01F02CFC6862B4E72DE9F0412A
:10068000632984B003DD90F8FC55002D4AD006465E
:100690001368884610461B6806F227319847C4B293
:1006A000C0F307216218D24380B286F82243FF24A8
:1006B00006F2253700F2263586F8242386F82043F3
:1006C000FE225FFA88F448F3072886F821233B4688
:1006D00086F82313354486F8254386F826830022BE
:1006E00001E013F8014FAB422244FAD1D243C31DBB
:1006F00000F108059BB2ADB23344B5F5007F83F835
:10070000202313D806F5487765B16B1E1F4406F108
:10071000440806F21F3414F8011F404603F090F914
:10072000A742F8D1284604B0BDE8F0813049314CE9
:1007300003223368019103948DF808201B682E4929
:100740008B424DD104AB382143F8101D186886F850
:100750002723C6F8280304F1300C06F54B75A6468E
:10076000BEE80F00E64528606960AA60EB6004F10E
:10077000100405F11005F2D103CC4FF0000E2860F3
:1007800069604FF0070CC221FF25FE243D2086F84A
:1007900024137346624686F823E386F826E386F838
:1007A00025C386F8205386F8214386F8220306F2F3
:1007B000633101E017F8012F8F421344FAD1DB4374
:1007C00006F1440786F8643306F21F3506F55974BE
:1007D00015F8011F384603F033F9AC42F8D103E0B5
:1007E000304601AA072198474FF0FF359AE700BF2E
:1007F000085C0000785D00007D0600002DE980485F
:10080000DFF8589389B0D9F8001109F1040003F01A
:1008100041F80022134609F5B061C9F8E825C9F886
:10082000EC25C9F8F425C9F8F02551F8042F1AB1C0
:100830000133192BF9D106E0C64A09EB8301643371
:10084000C1F884255360DFF824A3AAF548740DE0AD
:1008500099F8FC353BB140F6C412D4F80036EB1AD7
:10086000934200F22481012002F016F8BA4803F006
:1008700017F942F6F822D9F804360546C31A93420E
:1008800084BF002384F8FC35D9F8E83533B1D4F8B7
:100890000836984284BF0023C4F8E835AF4E301DB7
:1008A00001F0C8FC80460028D2D10121301D01F0A2
:1008B00037FB0028CCDBD4F8F835D4F8E8750344CE
:1008C000072FC4F8F83546D04FB9FF2856D101227A
:1008D00005F11403C4F8E825C4F80836DEE7012F53
:1008E00056D0022F00F0A480032F00F0AB80042F1D
:1008F00000F0B280052F00F0BE80062F00F0C3800C
:10090000082FCBD1964A00211A408A42C9F8E8152F
:10091000C0F21781FF2AC1D1D9F8F0358F4E002BD4
:1009200000F016820A2B00F0D781062B00F0208100
:100930000B2B00F00B8104EB8303D3F8F4030028A6
:10094000ACD00368874A1B68934240F0D7830369A1
:100950000C309847A2E7D4F8F425D4F8EC35511CB4
:10096000013B2244C4F8F41582F82001C4F8EC35A8
:10097000002B93D10823C9F8E8358FE706F582707C
:1009800003F08EF8401B052888D986F8FC756AE7C5
:10099000FE286CD094F8FC35C4F8E885002B7FF471
:1009A0007DAF0A201A4684F8273384F8283384F868
:1009B000293384F82A3384F82B3384F82C3384F8D1
:1009C0002D3384F82E3384F8233384F82633FE2322
:1009D0000146FF2784F8250384F821330820F723F4
:1009E00084F8243384F8207306F2253384F8220334
:1009F00006F22E3601E013F8011FB3420A44FAD181
:100A0000D243564689F82F230AF10F08FF2101E04F
:100A100016F8011F514F07F1440003F011F8464545
:100A2000F6D107F5827003F03BF8C7F8140135E7FB
:100A30000323C4F8EC05C4F8F485C4F8F805C4F839
:100A4000E8352BE7D4F8EC35042203EB0020C4F89A
:100A5000EC05C4F8E82521E7414A1A40002A21DBC9
:100A6000FF2A0CBF05230023C9F8E83516E7022347
:100A7000C4F8E83512E70623C4F8F005C4F8F80511
:100A8000C4F8E8350AE7D9F8F035D9F8EC2503EBD6
:100A900000230721C9F8F035C9F8E815002A3FF40A
:100AA00069AFFBE6013A62F0FF020132D8E70A269D
:100AB000FF272D4B002031464FF0FE0E84F82563B2
:100AC00084F82073F7260827024684F8270384F861
:100AD000280384F8290384F82A0384F82B0384F874
:100AE0002C0384F82D0384F82E0384F8230384F860
:100AF000260384F821E303F1090084F8227384F8C3
:100B0000246301E013F8011F83420A44FAD1D2435F
:100B1000564689F82F230AF10F08FF2101E016F845
:100B2000011F0E4F07F1440002F08AFF4645F6D13F
:100B300007F5827002F0B4FFC7F80056C7F8140139
:100B400091E6013A62F0FF020132E3E6002384F805
:100B5000FC35A3E6B4070010800200107C010010F1
:100B6000FF00008051020000A10400109C0400104E
:100B700094F8206194F81436B34206D2B100D4F848
:100B80001C0601F0A5F9C4F81C0689F81466002EAD
:100B900000F0B982D74F4FF0040E002697F82631A7
:100BA00097F8251197F824211B0443EA012397F8AD
:100BB0002711134343EA0163C9F81836CE4B0EF1EF
:100BC000040E1868D9F81C36043743F8260099F843
:100BD00014360136F6B2B342E0D80EF104073E46B1
:100BE000CE449EF8208199F82036434507D24FEA3B
:100BF0008801D4F8280601F06BF9C4F8280689F8B2
:100C00002086B8F1000F22D004EB060E00279EF8D4
:100C100022319EF821119EF820211B0443EA012372
:100C20009EF82311134343EA0163C9F82436B34BFA
:100C300004361868D9F828360EF1040E43F8270058
:100C400099F820360137FFB2BB42E0D837464F440F
:100C500097F8207199F82C36BB4206D2B900D4F827
:100C6000340601F035F9C4F83406043689F82C76D8
:100C700077B34FF0000EF446A14B06F104089859E3
:100C80000790079F4744474509D9424606F2231378
:100C9000234459780132974203F8011BF9D8984A46
:100CA00008F1FF33134409EB070282F81FC1C9F8AA
:100CB0003036944B3E461868D9F8343643F82E0047
:100CC00099F82C360EF1010E5FFA8EFE7345D3D8DB
:100CD000012389F80C36E1E506F5827002F0E0FEAA
:100CE000D4F81431D4F82021D4F82411864FC3EB62
:100CF000000806F5827002F1FF3B0F4402F0D0FEBF
:100D0000824B4FF47A71A3FB0832804B9209A3FB0C
:100D1000003E01FB12887E4B4FEA9E1E01FB1E0126
:100D200003FB087703FB11735A44CEEB020206F56E
:100D30008E7106F58C70C4F81C31C4F8182101F0CE
:100D4000DBF806F5827002F0ABFEC4F80406A5E5F8
:100D500086F8273386F8283386F8293386F82A332D
:100D600086F82B3386F82C3386F82D3386F82E330D
:100D700086F8233386F826331946FE230A2786F899
:100D8000202386F821330822F72386F8243386F8B7
:100D9000257386F8222306F22E33384606F22536CE
:100DA00001E016F8010FB3420144FAD1C943DFF85C
:100DB00070A189F82F135746FF2101E017F8011F92
:100DC0004C4E06F1440002F03BFE06F22F339F42E8
:100DD000F4D106F5827002F063FE06F21C53029510
:100DE0001D4606F55972C6F81401019255F8043FE4
:100DF000002B00F0B58058689E680268D3F800B0F8
:100E0000926890472B68804658680368DB6898476B
:100E10002B6807461B69632B04DD99F8FC25002A23
:100E200000F09E80C6F307225846039389F8276393
:100E300089F8282304F0DDF806460590354B05981F
:100E4000594618603246181D03F008FA404604F06F
:100E5000D0F883460690304B0698B21D0A3698505B
:100E600041465A46981903F0F9F9384604F0C1F89A
:100E700080460790284B5E44079806F1040B985172
:100E80003946424603EB0B0003F0E8F908EB0B0090
:100E9000071DC7F307225FFA87F808EB020E6FEA17
:100EA0000E0E039B002648444FF0020CBFB280F8A0
:100EB00028C380F8276380F8296380F82A633146C5
:100EC000D8B207F226364FF0FF0C89F824E343F33B
:100ED00007234FF0FE0E89F8232389F822830F4A57
:100EE0004E4489F820C389F821E389F8250389F85D
:100EF000263319E07C01001094070010A0070010B1
:100F00009C020010AC07001000CA9A3BD34D62103F
:100F100040420F00A5040010A3040010A10400101B
:100F20009C04001012F8010FB2420144FAD1C943E7
:100F3000FA1D07F1080392B29BB24A44B3F5007F51
:100F400082F8201300F2E48053B103F21F33B74E4E
:100F5000E71816F8011FB64802F072FDB742F8D143
:100F6000B44B9D427FF442AF029D01951D4655F85A
:100F7000040F002800F0A78090E80808AE499A689E
:100F8000D0F808808A4240F0B480AC4FDA68AC49AF
:100F90008A4240F0A980AB4E5B68AB4A934240F076
:100FA000A0804369632B04DD99F8FC25002A00F03A
:100FB0008A80CBF307224046029389F827B389F849
:100FC000282304F016F883460590A04B0598414667
:100FD00018605A46181D03F041F9384604F009F824
:100FE000804606909A4B06980BF106020BF10A0B0D
:100FF00098503946424603EB0B0003F02FF9304678
:1010000003F0F7FF07460790914BC34407980BF195
:10101000040843F80B0031463A4603EB080003F09E
:101020001DF907EB080000F1040ECEF307225FFA6A
:101030008EFB0BEB0207FF43029B002648444FF058
:10104000020C1FFA8EFE80F828C380F8276380F810
:10105000296380F82A633146D8B20EF226364FF063
:10106000FF0C89F8247343F30723FE2789F8232311
:1010700089F822B3774A4E4489F820C389F821734E
:1010800089F8250389F8263301E012F8010FB242EE
:101090000144FAD1C9430EF107020EF1080392B2DE
:1010A0009BB24A44B3F5007F82F8201377D853B13E
:1010B00003F21F335D4EE71816F8011F5C4802F07B
:1010C000BFFCB742F8D1644B9D427FF450AF019D05
:1010D0000123C9F80056C9F8045689F8FC35FFF712
:1010E000C2BB984703465DE79047064628680368F9
:1010F00052E7904707462868036847E706F590716E
:101100009847FFF7CBBB08273E464FF0040E67E534
:10111000524F534E0FCF0FC60FCF0FC60FCF0FC674
:1011200097E80300032384F827333823C4F82833CF
:10113000FF2386E8030084F82033FE2384F821335C
:101140003D2384F822334FF0000C4FF00708C223F0
:1011500006EB0802E646C346373E84F823C384F80C
:1011600026C384F8258384F8243301E016F801BFF0
:10117000B242DE44FAD16FEA0E0E3A4E89F864E3C9
:10118000FF2101E016F8011F294802F059FC019BDC
:101190009E42F7D1274B9D427FF428AEE4E62F4FC5
:1011A0002F4E0FCF0FC60FCF0FC60FCF0FC697E82A
:1011B0000300032384F827333823C4F82833FF239C
:1011C00086E8030084F82033FE2384F821333D238E
:1011D00084F822334FF0000C4FF00708C22306EBCF
:1011E0000802E646C346373E84F823C384F826C384
:1011F00084F8258384F8243301E016F801BF964271
:10120000DE44FAD16FEA0E0E164E89F864E3FF2130
:1012100001E016F8011F064802F012FC124B9E4234
:10122000F7D10D4B9D427FF4A2AE50E79B04001016
:10123000C0010010FC0600105D020000445D0000CB
:1012400065020000545D000059020000A504001072
:10125000A3040010A104001060070010785D0000D6
:10126000A80400109C040010E00400102DE9F04FC9
:101270000746C14BC14991B0002200F5B06800F2A9
:101280001C5B0A910C930D930E93ADF82C200F92DA
:10129000CDF804805BF8043F002B00F0BD80586857
:1012A0001C6801689A680C948B68ADF82C209847EC
:1012B000DBF800300D9058680368DB6898473B689E
:1012C000DBF800104FF400720E901B680E690F924D
:1012D000AB4A8146934240F08B81632E04DD97F840
:1012E000FC35002B00F09880BDF82C300C9D1A0ABC
:1012F00087F8273387F82823284603F07AFE044628
:1013000010AB43F82C0D186829462246C7F829036C
:1013100007F22D3002F0A2FF0D9D10AB284600937E
:1013200003F067FE07F2273E034629467546009AFA
:10133000069052F8280D02930092A21D0A344EF82E
:1013400002001A46281902F089FF484603F051FEB0
:101350008246029B07900DF14008234458F8240D63
:101360001C1DE85049465246281902F077FF0AEB47
:101370000400011D5FFA81FAC1F307290AEB090E87
:101380006FEA0E0E00242C5405EB000C89B20220EB
:101390008CF802408CF803408CF8010007F22533EA
:1013A000224601F22630FF2487F824E3FE255FFA67
:1013B00086FE46F30726029387F822A387F8239335
:1013C000384487F8204387F8215387F825E387F8C6
:1013D000266301E013F801EF98427244FAD1D24338
:1013E000C81D01F1080380B29BB23918B3F5007F24
:1013F00081F8202300F21D8107F5487563B1013B98
:101400001D4407F1440607F21F3414F8011F30464B
:1014100002F016FBA542F8D1019B9B457FF43AAF41
:10142000984607F2E453019358F8040F002800F09F
:10143000D5808268036841680C929A68ADF82C10D8
:1014400050498A4240F0EF804F4A0D92DA684F4986
:101450008A4240F0E2804E4A39680E924FF40072A0
:101460005B680C680F924B4A934240F0D380466908
:10147000DFF80CA1544540F0C480632E04DD97F8DA
:10148000FC35002B00F0AA80BDF82C300C9D1A0A08
:1014900087F8273387F82823284603F0AAFD044657
:1014A00010AB43F82C0D186829462246C7F82903CB
:1014B00007F22D3002F0D2FE0D9D10AB28460093AE
:1014C00003F097FD07F2273E034629467546009A2A
:1014D000069052F8280D03930092A21D0A344EF88C
:1014E00002001A46281902F0B9FE0E990DF14009C2
:1014F0000846029103F07DFD8346039B0790234439
:1015000059F8240D1C1DE8505A462819029902F07A
:10151000A5FE0BEB0400021D5FFA82FBC2F3072C51
:101520000BEB0C04E4430F9905EB000E2954080A59
:101530008EF8010092B2080C090E8EF802008EF8A7
:10154000031007F22533FE2102F22630FF2587F82B
:101550002443F4B246F3072687F82113029387F851
:1015600022B387F823C3384487F8205387F82543EC
:1015700087F82663002111E0B05D0000F05B0000F9
:101580007D0600005D020000445D00006502000071
:10159000545D00005902000013F8014F98422144A5
:1015A000FAD1C943D01D02F1080380B29BB23A18A8
:1015B000B3F5007F82F8201300F2998007F5487593
:1015C00063B1013B1D4407F1440607F21F3414F8D0
:1015D000011F304602F034FAA542F8D1019B434581
:1015E0007FF422AF012387F8FC3511B0BDE8F08FFE
:1015F00031460AAA38469847019B9B457FF44AAE7C
:101600000EE731460AAA3846A047019B43457FF4BE
:101610000BAFE7E7984706462AE790470246D8F817
:101620000000036818E790470246D8F800000368F6
:101630000BE761490322079160493B6809918DF8E6
:1016400020201B685E498B4240F0AC803823069313
:10165000009B5A4C186887F82723C7F8280304F121
:10166000300E07F54B7526460FCE7645286069602B
:10167000AA60EB6004F1100405F11005F3D103CC6E
:10168000029B28606960FF20FE2100264FF0070EB4
:1016900087F8200387F821133D20C22187F82413FF
:1016A0003246744687F8236387F8266387F825E374
:1016B00087F8220307F2633101E013F8014F9942E2
:1016C0002244FAD1D24307F1440687F8642307F293
:1016D0001F3407F5597514F8011F304602F0B0F9B0
:1016E000AC42F8D1019B9B457FF4D4AD98E63249DA
:1016F000324C03223B68079109948DF820201B6827
:10170000534554D138230693009B87F82723186844
:1017100004F1300EC7F8280307F54B7526460FCEA7
:10172000764528606960AA60EB6004F1100405F159
:101730001005F3D103CC029B28606960FF20FE21D5
:1017400000264FF0070E87F8200387F821133D206D
:10175000C22187F824133246744687F8236387F83A
:10176000266387F825E387F8220307F2633101E057
:1017700013F8014F8B422244FAD1D24307F14406B9
:1017800087F8642307F21F3407F5597514F8011F11
:10179000304602F055F9A542F8D1019B43457FF44C
:1017A00043AE1FE7424607213846984734E64A468B
:1017B00007213846984711E7085C0000785D000073
:1017C0007D0600002DE9F04F00F58273044687B0D6
:1017D0001846019302F064F942F6F822D4F8043670
:1017E0000646C31A934284BF002384F8FC35D4F81C
:1017F000E83533B1D4F8083683423CBF0023C4F83F
:10180000E835DFF8AC83251D284600F013FD81463E
:1018100070B194F8FC0540B140F6C412D4F800361B
:10182000F31A934200F20D81002007B0BDE8F08F5B
:101830000121284600F074FB0028EADBD4F8F835D3
:10184000D4F8E8750344072FC4F8F83545D04FB9EC
:10185000FF2855D1012206F11403C4F8E825C4F885
:101860000836D1E7012F59D0022F00F0B080032FA6
:1018700000F0B780042F00F0BE80052F00F0CA8072
:10188000062F00F0CF80082FBED1C44A00211A4095
:101890008A42C4F8E815C0F23881FF2AB4D1D4F8DE
:1018A000F035002B00F041820A2B00F03C81062B22
:1018B00000F082810B2B00F0328104EB8303D3F81C
:1018C000F4030028A0D00368B54A1B68934240F097
:1018D000288203690C30984796E7D4F8F4355A1CEF
:1018E0002344C4F8F42583F82001D4F8EC35013BF7
:1018F000C4F8EC35002B87D10823C4F8E83583E71A
:10190000019802F0CDF8801B05287FF67DAF6FF0BF
:10191000010084F8FC7507B0BDE8F08FFE2875D093
:1019200094F8FC35C4F8E895002B7FF46DAF9D4921
:101930002268039117689C4A04939742059340F0EC
:10194000DA800A201A4601464FF0FF0E84F827334A
:1019500084F8283384F8293384F82A3384F82B3325
:1019600084F82C3384F82D3384F82E3384F8233311
:1019700084F82633FE27F72384F82503082084F80B
:10198000220384F8243384F820E384F8217304F2DA
:10199000253304F22E3001E013F8011F98420A4467
:1019A000FAD1D24304F1440A84F82F2304F21F37FA
:1019B00004F22F3917F8011F504602F041F84F4545
:1019C000F8D1019802F06CF8C4F814011CE7032365
:1019D000C4F8EC05C4F8F495C4F8F805C4F8E83583
:1019E00012E7D4F8EC35042203EB0020C4F8EC0530
:1019F000C4F8E82508E7694A1A40002A76DBFF2A7E
:101A00000CBF05230023C4F8E835FDE60223C4F823
:101A1000E835F9E60623C4F8F005C4F8F805C4F87B
:101A2000E835F1E6D4F8F035D4F8EC2503EB0023E3
:101A30000721C4F8F035C4F8E815002A3FF45CAF7C
:101A4000E2E6584A236803921D68574A00239542EC
:101A5000049305935ED10A201A4601464FF0FF0E0B
:101A600084F8273384F8283384F8293384F82A3318
:101A700084F82B3384F82C3384F82D3384F82E33F8
:101A800084F8233384F82633FE25F72384F82503CE
:101A9000082084F8220384F8243384F820E384F8AF
:101AA000215304F2253304F22E3001E013F8011F14
:101AB00083420A44FAD1D24304F1440984F82F2323
:101AC00004F21F3504F22F3815F8011F484601F0C3
:101AD000B7FFA845F8D1019801F0E2FFC4F814015E
:101AE0000020C4F8006607B0BDE8F08F013A62F04C
:101AF000FF02013283E703AA0A212046B847019872
:101B000001F0CEFFC4F814017EE6013A62F0FF0254
:101B10000132C2E603AA0A212046A847DBE70023D8
:101B200084F8FC3570E6DDF804B0DFF888A058468C
:101B300001F0B6FFD4F81471D4F82431C71B58460D
:101B40009A44D4F8209101F0ABFFA8FB073EA8FB14
:101B500000124FEA9E1E4FF47A7303FB1E77910921
:101B6000124A03FB110302FB07A2104F09F1FF39D0
:101B700007FB1323F144C1EB0902C4F81C31C4F87C
:101B8000182104F58E7104F58C7000F0B5F95846F3
:101B900001F086FFC4F8040636E600BFFF000080AF
:101BA00051020000D85B00007D06000040420F009B
:101BB000D34D621000CA9A3B94F8207194F8143601
:101BC00004F59079BB4206D2B900D4F81C0600F0A7
:101BD0007FF9C4F81C0684F81476002F00F0BE804C
:101BE000484604F5C36E04270021837990F805C0A8
:101BF00002791B0443EA0C2390F807C0134343EA1D
:101C00000C63C4F81836DEF80020D4F81C3604370C
:101C100043F8212094F814360131C9B28B4200F107
:101C20000400E2D807F1040A3B46574619F803B00E
:101C300094F820365B4507D24FEA8B01D4F828068A
:101C400000F046F9C4F8280684F820B6BBF1000F6E
:101C500022D004F2246E09EB07000021837890F86B
:101C600001C002781B0443EA0C2390F803C013431D
:101C700043EA0C63C4F82436DEF80020D4F8283692
:101C8000043743F8212094F820360131C9B28B4241
:101C900000F10400E2D8BA4619F80AA094F82C36EC
:101CA000534507D24FEA8A01D4F8340600F010F900
:101CB000C4F83406043784F82CA6BAF1000F2CD0EF
:101CC00000218C4604F5C66E59F8070007F1040A96
:101CD0000390039A5244924509D25046FB1C4B4450
:101CE00013F8017F0130904203F8017CF8D30AF128
:101CF000FF334B4409EB020000F801CCC4F8303646
:101D0000DEF80000D4F83436174643F8210094F882
:101D10002C360131C9B28B42D6D8012384F80C3657
:101D200072E504F5907198476EE50F4922680391BA
:101D300004930A2105932046136803AA9847019843
:101D400001F0AEFEC4F814012046FFF78FFAC4F884
:101D50000066C4F804664FF0FF3066E54FF0080AED
:101D60005746042362E700BFD85B000038B5314C0A
:101D7000314A20463149002340F8042B304A00F014
:101D80002FFA04F5827001F06FFE4FF46143C4F83E
:101D9000003104F5827001F077FE2A4A00231946CB
:101DA00084F8FC35C4F8102684F81436C4F81C36C0
:101DB00084F82036C4F8283684F82C36C4F8343633
:101DC00004F21C5204F5B06342F8041F9342FBD1A5
:101DD0001D49002243F8042F9942FBD11B4A0021E0
:101DE00002F5007302F8011F9342FBD1184900224B
:101DF00003F8012F8B424FF00004F9D1154A164920
:101E00000C4801F081FE154B154918461C605C60BA
:101E10009C60DC601C615C61124D00F053FC124C54
:101E2000124B1348134A01211D60DC60186159618F
:101E30009A6038BD7C010010505C000002C009208F
:101E400003C00920205C0000600700109B02001006
:101E50009B060010C8000010791E000064010010ED
:101E600032C00920645C0000385C0000B407001038
:101E700039020000B45D000010B50446034B40F881
:101E8000043B00F04FF9204610BD00BF505C00003D
:101E9000074A084808B50021121A02F005FAAFF304
:101EA000008002F04BF901F081FC01F049FE00BF17
:101EB000D809001048010010022801DC01207047F9
:101EC00001F03CBCEFF3058303B100BE02F0A8B9FA
:101ED000EFF3058303B100BE02F016BFEFF30583F5
:101EE00003B100BE02F0A4B908B5012001F028FE3C
:101EF00008B5FFF7F9FF00BF10B40C68064A630A83
:101F0000A2FB0323054ADB0902FB134204682344B6
:101F1000036010BC0A607047834B040000CA9A3B00
:101F2000C36F70B5002B2DD0426E002A2AD0002935
:101F30002FD0D0F88430002BFBD0436F0446D55C03
:101F4000436FEDB201334367426FC36F9A42A4BF40
:101F500000234367D0F88420C36F9A4209D0C36D31
:101F60005E685A6822F001025A6000F019F8E36DC9
:101F70005E6072B6D4F88430013BC4F8843062B637
:101F8000284670BDC26D137DDB07FCD51078C0B24A
:101F900070BDD0F88430002BCFD14FF0FF3070BD32
:101FA000C36D70B5002B4ED0C26F002A4BD0426E6D
:101FB000002A48D0044600F15805002620E0626E51
:101FC0008AB1E16E94F86130DBB25354D4F88430B6
:101FD0000133C4F88430E36E0133E366E26EE36FED
:101FE0009A42A8BFE666D4F89830002B34D0284631
:101FF000984794F8942094F861309A421CD0E36D8D
:102000001A7DD00738D51B78DBB284F86130D4F85C
:102010008420E36F9A42D2D194F86130D4F8B8208A
:10202000DBB2C4F88C307AB32846904794F89420F9
:1020300094F861309A42E2D1D4F8E830002B48D0CD
:1020400028469847DBE7D0F8983000F1580183B371
:10205000BDE8704008461847D4F89C000028C8D056
:10206000D4F8A020D4F8A4303AB1D90707D400EBB3
:10207000630029469047BCE770BDD907B9D55B100E
:10208000C15818448A58F4E7D4F8BC30002BB0D0BB
:10209000D4F8C020D4F8C40022B1C10704D403EBA3
:1020A0006000E6E7C107A4D54010195818448A58C3
:1020B000DFE7D0F89C30002BDED0D0F8A020D0F89D
:1020C000A4001AB3C40714D403EB6000BDE8704049
:1020D0001047D4F8EC00002891D0D4F8F020D4F8C0
:1020E000F4305AB1D9070CD400EB6300294690476D
:1020F00085E740101C581844A258E7E7D9077FF538
:102100007EAF5B10C15818448A58EFE7C507F0D47A
:1021100070BD00BF704700BF10B5044601F0F9FC68
:10212000204610BDF8B5044690F8F820144D53B27F
:10213000406E01215B0902F01F02124E01FA02F209
:1021400005F11807203305F14C012560276461640F
:1021500046F8232008B1FFF7C1FEA06E08B1FFF7D3
:10216000BDFE094B04F1400003F1180103F14C02DC
:1021700023602164626401F051FC2046F8BD00BF79
:10218000E45D000000E100E0C4600000A0F1400058
:10219000FFF7C8BFA0F14400FFF7C4BF10B5044665
:1021A000FFF7C0FF204601F0B4FC204610BD00BF81
:1021B000A0F14400FFF7F2BFA0F14000FFF7EEBF2F
:1021C0000121FFF7ADBE00BFA0F14000F8E700BF5E
:1021D000012200F035B800BFA0F14000F8E700BFD1
:1021E00038B50446154601F0ADFB114B002103F153
:1021F00018000A46A16503F14C0123606164206464
:1022000004F1A80304F5847143F8102C43F80C2C56
:1022100043F8082C43F8042C10338B42F4D14FF4CC
:10222000807220462B46114600F09EF8204638BDAD
:10223000E45D0000D0F88400B0FA80F040097047F7
:10224000836E70B5044613B1D0F880303BB9E26DAF
:10225000137D9E06FCD5C9B21170002070BDC36D00
:10226000187D850605D5D4F8880010B9C9B2197053
:1022700070BD0D46C2B15E685A6822F002025A6013
:10228000D4F88820D4F880309A4209D10021204621
:1022900000F0EEF8D4F88820D4F880309A42F5D0D7
:1022A000E36D5E60E36D05E0D4F88810D4F880201B
:1022B000914220D05A68E9B222F002025A60236F9C
:1022C000A26ED15472B6D4F888300133C4F8883085
:1022D00062B6236F002001332367226FD4F8803069
:1022E0009A42A8BF0023E26DA8BF2367536843F05A
:1022F0000203536070BDD4F8C830C4F8905004F1A4
:1023000058001BB198474FF0FF3070BDD4F8CC2077
:10231000AAB1D4F8D050D4F8D43075B1D90707D4C5
:1023200002EB630301461846A8474FF0FF3070BD2B
:102330005B10D15813444D59F4E7DC07F8D44FF043
:10234000FF3070BD4B68DA0705D55B100A68C158CD
:1023500018448A5810470A6800EB6300104700BF12
:10236000012100F085B800BFF8B5044690F8F85098
:1023700001266BB25B0905F01F05384F203306FAC2
:1023800005F547F8235016460D4600F00DF9E36DAC
:10239000A465002B5ED0002EE66747DDE06FFFF7F7
:1023A00091FD0021E16660666167C4F88410C4F89D
:1023B0008C10002C42D02A4A2A4B261D2261E46050
:1023C000616123623046012200F08AFD002DC4F8CD
:1023D00080503DDDD4F88000FFF774FD22490023D2
:1023E0002367A066A367C4F88830C4F89030F9B1B9
:1023F000F4B11C4D0122A1626462E3623046A56320
:10240000114600F06DFD204600F0FAF894F8F8301F
:1024100001215AB203F01F0301FA03F30F48002110
:10242000520984F8941040F82230F8BD0020B8E733
:1024300030460022012100F053FDE4E70426304637
:102440002246214600F04CFD002DC4F88050C1DC2E
:102450000020C3E7054800F011F9D4E700E100E0EF
:10246000A11F00004523000061230000385E00002A
:10247000C36D2DE9F04113B3D0F88030FBB1836E0A
:10248000EBB10E460446002700F15805D4F8883019
:102490001BB1E26D137D98061AD4D4F88830002B56
:1024A00033D1E26D04F15800536823F00203536006
:1024B000D4F8D830002B4BD0BDE8F0411847D0F805
:1024C000A83000F1580113B3BDE8F04108461847A1
:1024D000A36FA16ECB5CDBB284F860301370D4F8CC
:1024E0008830013BC4F88830A36F0133A367A26F23
:1024F000D4F880309A4200DBA767002EC6D0D4F80B
:10250000A830ABB128469847C0E7BDE8F081D0F8C5
:10251000AC30002BF9D0D0F8B020D0F8B400002AAD
:102520003AD0C40727D403EB6000BDE8F041104760
:10253000D4F8AC000028A9D0D4F8B020D4F8B43036
:10254000F2B1D9071ED400EB6300294690479DE7FE
:10255000D4F8DC30002BD8D0D4F8E050D4F8E42004
:10256000F5B1D10713D403EB6203014618462B469D
:10257000BDE8F041184740101C581844A258D4E751
:10258000D90783D55B10C15818448A58DDE752102B
:10259000995813444D59E8E7C507ECD4BDE8F081DC
:1025A000D407F4D4BDE8F0818368032B1BD8DFE89F
:1025B00003F0140E08020E4A0823C26580F8F830B2
:1025C00070470C4A0723C26580F8F83070470A4A02
:1025D0000623C26580F8F8307047084A0523C265B3
:1025E00080F8F83070470023C36580F8F8307047F2
:1025F00000C00940008009400000014000C00040C8
:10260000C36D07221A72704700B599B072B61749A8
:10261000684600F057F806A8154900F053F80CA8D2
:10262000144900F04FF812A8134900F04BF8039A30
:1026300001990A9B11600799109A19600D99159BD1
:102640001160139A96201A6000F026F9049A0199F5
:10265000099B116007990F9A19600D99169B1160DB
:10266000139A96201A6000F017F9E0E732C00920AB
:1026700034C0092035C0092037C009200FB400B587
:10268000064A83B004AB53F8041B10681A46C068AE
:10269000019301F0EDFF012001F052FA3401001026
:1026A00038B50D46044600F077F9013509D02046CB
:1026B000002100F093F92046BDE83840032100F0E6
:1026C00089B938BD38B50D46044600F065F90135C5
:1026D0000CD023696268204601211A6000F07EF95F
:1026E0002046BDE83840022100F074B938BD00BF73
:1026F00070B50D461646044600F04EF9013511D06E
:1027000066B9236962681A602046012100F066F903
:102710002046BDE87040022100F05CB9E3686268C1
:102720001A60F1E770BD00BF00F06EB8431C1CD00A
:102730000B685A1C1AD0984210B5044602D10AE020
:102740009C4208D051F80C3F5A1CF9D10948BDE809
:102750001040FFF793BF2046896800F051F92046EA
:10276000BDE81040022100F067B970470148FFF74B
:1027700085BF00BF685E000088420AD0421C09D0B5
:10278000013106D008B50448FFF778FF4FF0FF305D
:1027900008BD7047084670477C5E00000B685A1CF5
:1027A00008D0984202D107E0834205D051F80C3F8F
:1027B0005A1CF9D11846704748687047421C0ED021
:1027C00008B50B685A1C04D10AE051F80C3F5A1C9A
:1027D00006D09842F9D14868411C01D008BD704725
:1027E0000248FFF74BFF4FF0FF3008BD905E00003E
:1027F00030B585B018246D4620462946ABBE044648
:10280000204605B030BD00BF024B186800F0010043
:10281000704700BFF0ED00E0036870B5DB68054667
:1028200098476B685B6883B12A681C68536898474F
:10283000201A00286A680DDC5068116883685360AC
:102840000029F0D040688847EBE72B68BDE870406E
:102850009B6818472B6852681B691068BDE8704078
:10286000184700BF03685B68184700BF00487047FF
:10287000E45E00000148FFF7CFBF00BFE45E000048
:1028800038B5054600F036FD044600F033FD001B68
:10289000A842FAD338BD00BF4FF47A7303FB00F0AF
:1028A000FFF7EEBF0C4B30B49D689A682B46B2F12F
:1028B000805F0CD2094AC43553F8044BAB4242F84E
:1028C000044FF9D14FF080521346034CA2601030F0
:1028D00043F8201030BC704700ED00E0FCFFFF0F14
:1028E0002B4A2023F0B4C2F8A031D2F8A0319806C8
:1028F00045D4274B002519460124AA20552202273A
:102900000B26C3F80471C3F8A851C3F8AC51C3F83F
:102910000C41C3F88460C3F88C00C3F88C20C3F862
:102920008040C3F88C00C3F88C20D1F88830184A56
:102930005B01FAD511460324AA205523C2F8804032
:10294000C2F88C00C2F88C30D1F88830104A13F0ED
:10295000407FF9D00F4900230520C2F80801C2F8D2
:10296000C410C2F8C8311368F0BC23F4704323F0DC
:102970003A0343F4405343F03A0313607047D2F8EC
:10298000A0315906B5D4D2F8A0315906F7D5B0E731
:1029900000C00F40DE8728044A1C016018D038B5FB
:1029A0000C4605460021204600F02AF824F01F01BD
:1029B00004F01F020123934001F1180401F11C00EF
:1029C00001F11402A9606B60EC6028616A6138BD96
:1029D000704700BF006800F02FB800BF41B1012967
:1029E00005D18268436811680B43136070477047D4
:1029F00082684168136823EA01031360704700BFCF
:102A000000F16040A0F51C2003099B0003F1804306
:102A100003F53033400010B400F01E001C680322A0
:102A2000824024EA02021A601A68814041EA0200E8
:102A3000186010BC704700BF00F16040A0F51C207A
:102A400043099B0003F1804303F5303330B400F0B9
:102A50001F029C6EC1F3800505FA02F224EA02040B
:102A60009C669C6E22439A669DB903099B0003F104
:102A7000804303F5303340001C6C00F01E0003223D
:102A8000824024EA02021A641A6C01FA00F0104330
:102A9000186430BC704700BF154B9968C1F3420100
:102AA000012918D0022914D1124A516F013106D0E0
:102AB000D2F88010906F086092F8A61089B1106F5C
:102AC0000C4B38B193F8A63023B10B4B00211B6897
:102AD000184770477047074B186F38B1064B1B6893
:102AE0001847596821F001015960E8E7704700BFB5
:102AF00000800940DC070010D8070010F8B5294C09
:102B00000368A34247D03FDD274CA34229D004F5F8
:102B10008044A34242D1254D082632BB01290BD067
:102B20004268234CC2EBC20204EBC20292F8364068
:102B300092F83520D44213D1B1FA81F25D680124B4
:102B400004FA01F125EA01015960036852095B6842
:102B500004FA02F21A4203D1164BB440C3F8804083
:102B6000F8BD154D0726002AD8D05868012707FA66
:102B700001F2024374B25A6029462046FFF792FEE2
:102B80000C4BA7401F60F8BDA4F58044A34205D1BB
:102B90000A4D0526C1E70A4D0626BEE700252E464A
:102BA000BBE700BF0000014000800940C52B0000CA
:102BB000DC07001000E100E0992A0000312C000041
:102BC000912C0000174B9968C1F3420101291BD0D9
:102BD000022917D1144AD2F8AC10013107D0D2F82B
:102BE000B810D2F8B000086092F8DE1099B1D2F8AF
:102BF000A8000D4B38B193F8DE3023B10B4B002108
:102C00001B68184770477047074BD3F8A80038B1C6
:102C1000064B1B681847596821F001015960E6E727
:102C2000704700BF00C00940DC070010D807001043
:102C3000144B9968C1F34201012917D0022913D11D
:102C4000114A5168013105D011699068086092F805
:102C5000361089B110680C4B38B193F8363023B177
:102C60000A4B00211B68184770477047064B1868CD
:102C700038B1064B1B681847596821F001015960AB
:102C8000E8E7704700C00040DC070010D8070010DC
:102C9000144B9968C1F34201012917D0022913D1BD
:102CA000114AD16B013105D0916C106C086092F81B
:102CB0006E1089B1906B0C4B38B193F86E3023B124
:102CC0000A4B00211B68184770477047064B986BEA
:102CD00038B1064B1B681847596821F0010159604B
:102CE000E8E7704700000140DC070010D80700103B
:102CF0002DE9F04F02686E4B89B09A420790069218
:102D000000F0C88040F3B4806A4B0698984272D0B5
:102D100003F58043984240F09D80674BD3F8AC2187
:102D200022F44022C3F8AC21D3F8AC2142F4802233
:102D3000C3F8AC21614A0B011268B2FBF3F003FB4C
:102D40001023039280B2002B00F09080039B4FF081
:102D500001085A009C009446A246C3468E469946F6
:102D600000230592049400900291019300242546CB
:102D7000029E5FFA88F7BCF1000FB5BFBCFBF6F00E
:102D8000BAFBF6F0000940090130C0F34F0008EB30
:102D9000040200283DD00CB101283BD0034603FBC0
:102DA00002F3DB00B9FBF3F30133C1EB5303002B58
:102DB000B8BF5B42734505DA994230D09E46BB46A8
:102DC0008DE821000134E5B2AF420E44D3D8039B15
:102DD00008F101089944059BB8F1100F9C44049B2D
:102DE0009A44029B0B440293C0D1019B009843EA92
:102DF0000B15EDB216E0304BD3F8AC2122F4403283
:102E0000C3F8AC21D3F8AC2142F48032C3F8AC2132
:102E100090E714B102200346C1E70120BEE745EA6E
:102E20000715EDB20699C0F307220B7BC0B243F041
:102E300080030B7307990B681A710B6818700B6885
:102E400083F828500A68137B03F07F03137309B0DB
:102E5000BDE8F08F194A0B011268B2FBF3F003FBD7
:102E60001023039280B2002B7FF470AF1025D9E7B6
:102E7000A3F580439A42EDD10F4BD3F8A82122F05D
:102E8000C002C3F8A821D3F8A82142F04002C3F839
:102E9000A8214FE7084BD3F8A82122F44072C3F8C9
:102EA000A821D3F8A82142F48072C3F8A82141E7F1
:102EB000000001400080094000C00F40CC0000101D
:102EC000436810B40448054CC3EBC30344F83320F3
:102ED000016010BC704700BFD8070010DC0700106D
:102EE00059B9436810B4064CC3EBC30304EBC303E6
:102EF00083F8362010BCFFF701BEFFF7FFBD00BF0F
:102F0000DC0700100268137DDB07FCD54368094924
:102F1000C3EBC30301EBC303596810780131C0B29E
:102F200006D059699B680B60536843F001035360F6
:102F3000704700BFDC0700104368154AC3EBC303AA
:102F4000DB00D11810B4CC6901340FD00B460A6BEA
:102F50001C335B6812681A4205D1036810BC187DE7
:102F6000C0F380107047002010BC704703681B7DC1
:102F70009B0607D491F8340010BC0F288CBF0020AA
:102F800001207047002381F83430012010BC7047C5
:102F9000DC07001038B504460D462046FFF7CCFF8D
:102FA0000028FAD02368EDB21D706368054AC3EBB0
:102FB000C30302EBC30393F83420013283F83420B7
:102FC00038BD00BFDC0700102DE9F04F054644482E
:102FD0002C6883B084420F4691469A461DD06E6895
:102FE00000243246DFF804B14FEAC608C2EBC20142
:102FF000C6EB08000BEBC00000220BEBC1014FF049
:10300000FF3381F83520C361436011462846FFF73E
:1030100075FD4FB903B0BDE8F08F237C6E6803F0F7
:103020003F0323746A68DDE72E494846FFF7B6FB85
:103030002D4901905046FFF7B1FBBA1E012A30D945
:10304000012FE7D1B9F1FF3FE4D0254A019B296860
:103050000720934208720BD154B14846237C214982
:1030600043F04003237403B0BDE8F04FFFF75EBBAD
:10307000C6EB08060BEBC600494604300022FFF7FA
:1030800037FB6A680124C2EBC2020BEBC20328467D
:103090002246002183F8354003B0BDE8F04FFFF72A
:1030A0002DBDBAF1FF3F0AD00D4A90420DD0C6EBBC
:1030B00008000BEBC00051461C30FFF7F1FA032F5C
:1030C000A8D1B9F1FF3FC0D1A4E7002CEFD0227CFA
:1030D000504642F0800222740349FFF727FBEEE7D7
:1030E00000000140EC5E0000E85F0000DC0700101B
:1030F0002DE9F0410F460546594938461646FFF777
:103100005DFB584904463046FFF758FB0146204610
:10311000FFF732FB544B0446984228607FD06FD9AA
:10312000524B98424BD003F58043984206D1504A07
:10313000D2F8C43043F00073C2F8C43001232372C4
:103140002B684FF00008C3F804804FF4165128464E
:10315000FFF7CEFD2B6803221A7341493846FFF76B
:10316000E5FA40493046FFF7E1FA7A1C03D04146C0
:103170003846FFF761FC731C03D030460021FFF78F
:103180005BFC394B9C4247D021D9384B9C4263D0E1
:1031900003F580439C424AD103236B60354CC3EB5B
:1031A000C3034FF0FF3604EBC304284633463246D0
:1031B0006660E6610021BDE8F041FFF705BF2C4ADB
:1031C000D2F8C43043F08073C2F8C430B6E7A3F538
:1031D00080439C422BD1274E4FF0FF340021696081
:1031E0002346224628467460F461FFF7EDFE224B29
:1031F00001221A6028686968204B03C3BDE8F0818A
:10320000A3F58043984299D1194AD2F8C43043F0CB
:103210000803C2F8C43091E701236B60BEE7144A8B
:10322000D2F8C43043F01003C2F8C43086E76E68A9
:10323000104BC6EBC6064FF0FF3703EBC6063A4607
:103240003B46002128467760F761FFF7BDFE0C4B37
:103250009C42CCD0BDE8F08102236B609EE700BFAA
:103260007C5F0000105F000000000140008009400A
:1032700000C00F40DC070010D4070010CC0900107C
:1032800000C0004038B51049104B01241C60D1F833
:10329000C4300F4A43F400030E480025C1F8C4307F
:1032A000156703680C480221A0FB03031B0D013BBB
:1032B00051600420D36009495460FFF7F3FA084BCA
:1032C00010221A6038BD00BF00C00F40BC080010BB
:1032D00000400940CC00001083DE1B43752800002D
:1032E00000E100E0024B1B6803B17047FFF7CABF63
:1032F000BC08001008B5044B1B680BB9FFF7C2FFF0
:10330000024B986808BD00BFBC080010004009408F
:10331000034B98615A6942F001025A61704700BF3D
:1033200000400940024A536923F00103536170478A
:1033300000400940014B01221A60704700400940DB
:10334000094A8368026053B1084B1A68904201D160
:1033500006E01A4653689842FBD1436853607047B1
:1033600042681A60704700BF14600000C008001077
:103370000C4A836810B50446026053B10A4B1A68C0
:10338000904201D10AE01A4653689C42FBD163681F
:103390005360204600F0BDFB204610BD42681A6015
:1033A000F7E700BF14600000C008001010B4064C1E
:1033B0000023027381600460436019B1034B1A68F3
:1033C0001860426010BC704714600000C008001014
:1033D000F8B50B4B1C688CB107460E46A56855B175
:1033E00032463946284601F00CFE20B9284601F045
:1033F00000FE864202D06468002CEFD12046F8BD62
:10340000C0080010007B7047036870B501221B697B
:10341000002104469847064601300ED02368022258
:103420001B690021204698470546236831461B69E1
:10343000204600229847284670BD304670BD00BF28
:1034400010B50446064B002240F8043BFFF7AEFFE0
:10345000044B204603F10802343384E80C0010BD0D
:10346000786000001C60000010B50446064B03F1B4
:1034700008023433026040F8043FFFF761FF204642
:1034800000F06CF8204610BD1C60000038B5002329
:10349000036043600A7804462F2A01D0204638BDD5
:1034A0004A78002AFAD0481C20604D782F2D13D07E
:1034B00085B1034600E06AB15D1A013323601A78D2
:1034C0002F2AF8D1294601332360FFF781FF60607E
:1034D000204638BD2946F8E719460346F3E700BF02
:1034E00000687047436843B110B504461846FFF7BB
:1034F00089FF012803D1606810BD002070470020BB
:1035000010BD00BF406830B108B5FFF77BFFB0FACF
:1035100080F0400908BD704743684BB110B50446C0
:103520001846FFF76FFF28B9606818B1043810BD5E
:1035300000207047002010BD4068003018BF0120F7
:10354000704700BF024A03490348FFF7D1BD00BFDF
:1035500003C0092002C00920CC090010074A084B0B
:1035600010B4026003F58071002453F8042F9042D8
:1035700008BF1C608B42F8D110BC70477860000017
:10358000C0080010F0B50E4685B03749054601F079
:1035900026FD28B9354B1B68002B42D005B0F0BD85
:1035A0003349284601F01BFD30B9304B1B68002B16
:1035B00042D0012005B0F0BD2E49284601F00FFD94
:1035C000002834D02C4B002402E00134402C3CD0A5
:1035D00053F8042F002AF8D12B783A2B3CD02946F7
:1035E00002A8FFF753FF02A8FFF7A6FF68B302A8DF
:1035F000FFF788FF20BB02A8FFF774FF054620B342
:10360000036802A89F68FFF76BFF32460146284611
:10361000B8470346CBB1194AE01C42F8243005B044
:10362000F0BD0190FFF78EFF019805B0F0BD0F4B84
:103630001B686BB10220B1E7FFF784FF0120ADE703
:1036400002A8FFF769FF0346E4E74FF0FF30A5E764
:10365000FFF778FF0220A1E7284602AA084901F0F7
:103660004FFC029BD6E700BF58600000D407001053
:103670006860000060600000C0080010C40800100E
:103680009C60000002280ADD074AC31E52F823008E
:10369000002142F8231020B103685B68184700201E
:1036A00070474FF0FF307047C4080010022812DC4A
:1036B0000E4B70B51B680C4616460BB9FFF742FF60
:1036C000A51936B114F8011B0948FFF763FCAC4299
:1036D000F8D1304670BD074B033853F8200010B1C5
:1036E00003681B6818474FF0FF307047D40700107D
:1036F000CC090010C408001002280DDC0C4B10B5DA
:103700001B680C460BB9FFF71DFF0A48FFF7FAFBD1
:1037100001232070184610BD074B033853F82000D2
:1037200010B103689B6818474FF0FF331846704785
:10373000D4070010CC090010C4080010022807DDCF
:10374000064B033853F8200020B10368DB681847A4
:10375000012070474FF0FF30704700BFC4080010D1
:10376000022807DD064B033853F8200020B1036818
:103770001B691847002070474FF0FF30704700BFAB
:10378000C4080010022808B504D84FF400534B6059
:10379000002008BD00F0CEF9092303604FF0FF3090
:1037A00008BD00BF704700BF704700BF08B5FFF7F6
:1037B000FBFFFFF7F7FFBDE80840FDF71FB800BFAC
:1037C000074A13681918EFF30880814202D218469D
:1037D00011607047034B0C221A604FF0FF307047A6
:1037E000D0000010D40900100B4C08B52368054622
:1037F000986800F0C3FA2368D86800F0BFFAFEF7B3
:1038000093FF20B905B9FEE7FEF7FEFEFBE7FEF7E2
:10381000EFFF002DF7D0F7E734010010002101F091
:10382000BBBA00BF4A1C02EB420200EBC202936823
:1038300053B101EB4101C9004218D2681AB10144E9
:10384000103110461847704701EB410300EBC301EC
:10385000CB68002BF7D0184770B504460B4E0023F9
:10386000251D4FF41650E06363602846A360E360B3
:1038700023626362A3632660FFF73AFC2846224670
:103880000349FFF71DFB204670BD00BFB460000078
:103890002538000038B504460D460430FFF728FAF5
:1038A000E56338BD0430FFF72DBB00BF10B50C46F3
:1038B0000430FFF76FFB204610BD00BFFFF7F2BFDB
:1038C000A0F14000FFF7FABFFFF7F0BFA0F1400002
:1038D000FFF7FABF10B50446064B403003F108016C
:1038E00003F12002543321602264636400F096F8EF
:1038F000204610BDBC600000A0F14000EAE700BF18
:10390000A0F14400E6E700BF10B50446084B403084
:1039100003F1080103F1200254332160226463643F
:1039200000F07CF8204600F0F4F8204610BD00BFFF
:10393000BC600000A0F14000E6E700BFA0F1440039
:10394000E2E700BF38B504461D46FFF785FF29466C
:1039500004F1400000F040F8054B204603F1080157
:1039600003F12002543321602264636438BD00BF38
:10397000BC600000F8B58E18B1420F460ED0054667
:103980000C4601E0A64207D02B6814F8011B5B6AC5
:10399000284698470130F5D1E01BF8BD0C46FBE7FF
:1039A000F8B58E18B1420F460ED005460C4603E01E
:1039B00004F8010BA64205D02B6828469B6A98475D
:1039C000431CF5D1E01BF8BD0C46FBE70020704717
:1039D000002070470020704710B5044684B0FFF700
:1039E0002FFD0B4B002203F108013C3384E80A0051
:1039F000626101A82246074901F05EFA064901A862
:103A000000F0BCFA6061FFF709FF204604B010BD6A
:103A1000186100009C6000005C61000010B5044665
:103A2000064B406903F108023C3384E80C0000F0C7
:103A3000EDF82046FFF718FD204610BD1861000084
:103A400038B50D460446406900F098F9616928468A
:103A5000BDE8384000F0BEBA10B50446C068FEF7B5
:103A600001FF6368C01A10BD38B5002505604560C8
:103A700085600446FEF7FAFEE060FEF7F3FEA560FF
:103A80006060204638BD00BF036803B1704710B5C1
:103A90000446C068FEF7E6FE01236060236010BDA7
:103AA000036810B5846813B1FFF7D6FF03460448D6
:103AB000234480FB0320DB17C3EBA01010BD00BF25
:103AC000D34D62100649074A074B9A42BEBF51F8D0
:103AD000040B42F8040BF8E7044880470448004709
:103AE00028630000C800001048010010E128000011
:103AF000911E0000FEE7FEE7FEE7FEE7FEE7FEE7B9
:103B0000FEE7FEE7FEE7FEE70B460146184600F03B
:103B100003B8FEF7E3B9000010B5054C13462CB10D
:103B20000A4601460220AFF3008010BD204610BDBA
:103B300000000000014B1868704700BF34010010FE
:103B400008B5074B044613B10021AFF30080054BC5
:103B50001868836A03B198472046FFF745FE00BF07
:103B600000000000C461000070B505460C4609B9AC
:103B7000002070BD18B183690BB900F051F9204BDA
:103B80009C4201D16C6808E01E4B9C4201D1AC689C
:103B900003E01D4B9C4208BFEC68B4F90C30002BCD
:103BA000E6D02146284600F039F8236B064633B1AB
:103BB000216A284698470028B8BF4FF0FF36A389EE
:103BC0001B0603D52169284600F076FB616B41B1E5
:103BD00004F14403994202D0284600F06DFB002313
:103BE0006363A16C21B1284600F066FB0023A36447
:103BF00000F082F90023A38100F07FF9304670BD08
:103C00006061000080610000A0610000024B01467D
:103C10001868FFF7A9BF00BF340100108A892DE999
:103C2000F041054610070C4659D44B68002B02DCC6
:103C30000B6C002B17DDE66AAEB102F48052002354
:103C400092B22F682B600AB1606D15E0216A0123E2
:103C50002846B047411C0FD12B686BB11D2B01D0FA
:103C6000162B03D12F600020BDE8F081A38943F01B
:103C70004003A381BDE8F081A3895A0705D5636895
:103C8000C01A636B0BB1236CC01A00230246E66AAC
:103C9000216A2846B047431CA38906D129681D29FB
:103CA00039D8204ACA40D60735D500226260226939
:103CB000D904226004D5421C01D12B6803B9606588
:103CC000616B2F600029CED004F14403994202D0E9
:103CD000284600F0F1FA00206063BDE8F0810F692A
:103CE000002FC0D093070E680CBF4B690023C7EBB1
:103CF00006080F608B6002E00744C0EB0808B8F1CB
:103D0000000FB0DD43463A46216A2846A66AB0470E
:103D10000028F1DCA38943F04003A3814FF0FF307A
:103D2000BDE8F0810100402038B50B6905460C461E
:103D3000DBB118B183690BB900F072F80C4B9C42EF
:103D400001D16C6808E00B4B9C4201D1AC6803E0E8
:103D5000094B9C4208BFEC68B4F90C302BB12146EA
:103D60002846BDE83840FFF759BF002038BD00BFE6
:103D70006061000080610000A0610000014620B980
:103D8000044B0549186800F0BBB9044B1868FFF7ED
:103D9000CBBF00BFC4610000293D0000340100100A
:103DA000014900F0ADB900BF293D000010B504463F
:103DB000002303604360836081814366C2810361A5
:103DC00043618361194608225C3000F06DFA054BAF
:103DD00024626362044BA362044BE362044B2363DB
:103DE00010BD00BF554F00007B4F0000B34F0000D7
:103DF000D74F000070B568234D1E5D430E4605F198
:103E0000740100F09DFA044640B1002180E84200B0
:103E10000C30A06005F1680200F046FA204670BD43
:103E2000836910B5044633BB8364C3640365124BD6
:103E3000124A1B688262984204BF0123836100F02A
:103E40001FF86060204600F01BF8A060204600F0DC
:103E500017F80022E06004216068FFF7A7FF012245
:103E60000921A068FFF7A2FF02221221E068FFF7F4
:103E70009DFF0123A36110BDC4610000A13D0000AE
:103E8000F8B51C4B07461E68B36913B93046FFF7F7
:103E9000C7FF4836B4687368013B04D4B4F90C50CA
:103EA0007DB16834F8E733680BB13668F2E7042176
:103EB0003846FFF79FFF30600028F6D10C233B60A7
:103EC000F8BD4FF6FF73E3810123A381656625608A
:103ED000A560656025616561A5610822294604F138
:103EE0005C0000F0E1F96563A563A564E564204624
:103EF000F8BD00BFC461000070477047F7B50F46BA
:103F0000114601AA054601F0B1FA064608B900209B
:103F100029E02846FFF7B4FF04460028F7D04FF405
:103F2000DB73019A3946284600F0A0FE002806DA25
:103F30000025FFF7E1FFA581FFF7DFFFE7E70B4B68
:103F4000E08163620A4BA681A3620A4B2462E362AA
:103F5000094B2363F30505D5022300222146284699
:103F600000F040F8204603B0F0BD00BF554F000000
:103F70007B4F0000B34F0000D74F0000024B0A46B2
:103F800001461868FFF7BABF3401001070B50E463D
:103F90001446054618B183690BB9FFF741FF0A4B78
:103FA0009C4201D16C6808E0084B9C4201D1AC688E
:103FB00003E0074B9C4208BFEC6822463146284686
:103FC000BDE8704000F064BE6061000080610000E8
:103FD000A0610000024B0A4601461868FFF7D6BFF1
:103FE0003401001000F000B82DE9F8430C4690466B
:103FF0001E46054618B183690BB9FFF711FF3D4B0B
:104000009C4201D16C6808E03B4B9C4201D1AC68FA
:1040100003E03A4B9C4208BFEC68A38903F4847325
:10402000B3F5847F03D121462846FFF77DFEE76A7A
:104030000FB91D232BE0012E04D0022E2BD056B336
:10404000162324E021462846FFF76EFEA28902F4DB
:10405000805292B20AB1606D05E0216A334628466B
:10406000B847411C14D0A3895A0706D56368C01A03
:10407000636B4BB1236CC01A06E01B0704D52368A1
:1040800013B122699B1A18448044002603E02B6078
:104090004FF0FF392BE023691BB92146284600F079
:1040A00073F821462846FFF73FFE81460028EFD1EE
:1040B00033464246216A2846B8470130E8D0616B52
:1040C00041B104F14403994202D0284600F0F4F8CB
:1040D00000236363236900212360A389616023F4C3
:1040E0000263A381082204F15C0000F0DDF8484679
:1040F000BDE8F8836061000080610000A0610000FD
:104100002DE9F8438046894600F14804002694B121
:10411000A5686768013F0CD4AB89012B07D9B5F9B5
:104120000E30013303D029464046C8470643683560
:10413000F0E72468EBE73046BDE8F8830E4B70B536
:104140001E460E4C0025E41AA410A54204D056F8D1
:10415000253098470135F8E701F02EFD084B094C52
:104160001E46E41AA4100025A54204D056F82530B6
:1041700098470135F8E770BD3C0100103C01001084
:104180003C01001044010010F0B58B8991B09D07EF
:1041900006460C4625D4B1F90E10002908DAA38989
:1041A000002513F0800F14BF40274FF480670DE007
:1041B00001AA01F093F90028F1DB029D4FF480671A
:1041C00005F47045A5F500514D424D413946304644
:1041D00000F0B6F860B9A3899A051DD443F0020334
:1041E000A38104F14703236023610123636113E08A
:1041F0000A4BB362A389206043F08003A38120614E
:1042000067614DB1B4F90E10304601F079F918B17B
:10421000A38943F00103A38111B0F0BDA13D0000CB
:10422000024B0146186800F08BB800BF3401001043
:10423000024B0146186800F03FB800BF340100107F
:1042400010B5C9B202449042034605D01C78013033
:104250008C42F8D1184610BD002010BD10B5431E89
:104260000A44914204D011F8014B03F8014FF8E7DA
:1042700010BD884210B501EB020301D8421E0BE0CD
:104280009842FBD28118D21AD34204D013F8014DC0
:1042900001F8014DF8E710BD994204D011F8014B27
:1042A00002F8014FF8E710BD03460244934202D0E2
:1042B00003F8011BFAE7704730B500293CD051F8EC
:1042C000042C0B1F1D49002AB8BF9B180A680C4616
:1042D00012B95A600B6030BD9A420DD9196858184E
:1042E000824201BF10685268091819605A60236041
:1042F00030BD994203D80A4651680029F9D11468A3
:1043000015199D420AD11B682344D01881421360BD
:1043100012D10868034413604B680CE002D90C23E7
:10432000036030BD18681C18A14201BF0C684968C1
:10433000001918605960536030BD00BFC8090010F3
:1043400070B5CD1C25F0030508350C2D38BF0C25A4
:10435000002D064603DA0C233360002070BDA9420D
:10436000F9D81F4B1C681A462146A1B10B685B1B8C
:104370000ED40B2B03D90B60CC18CD501EE08C4211
:104380000BBF63684B681360636018BF0C4615E091
:104390000C464968E9E7134C23681BB9304600F026
:1043A000BBFC20602946304600F0B6FC431CD2D04E
:1043B000C41C24F00304A0420AD1256004F10B00C0
:1043C000231D20F00700C31A09D05A42E25070BDE5
:1043D000211A304600F0A0FC0130EED1BBE770BDE1
:1043E000C8090010C4090010936810B4013B002BE9
:1043F000936008DA9469A34202DBCBB20A2B02D1A4
:1044000010BC00F051BF1368581C10601970C8B27E
:1044100010BC7047F8B506460F461446D518AC4296
:1044200008D03A4614F8011B3046FFF7DDFF431C65
:10443000F5D100E00020F8BD2DE9F04F9DB00C460D
:1044400017460393064618B183690BB9FFF7E8FCDA
:104450007F4B9C4201D1746808E07E4B9C4201D1A5
:10446000B46803E07C4B9C4208BFF468A38918073A
:104470000CD5236953B10023099320238DF82930EB
:1044800030238DF82A30DFF8D4B144E0214630469D
:1044900000F070FF0028EED04FF0FF30D5E0039A17
:1044A000111D12680391002A80F28C80524243F061
:1044B00002000792049098F800302E2B00F08480C0
:1044C000032298F800106548FFF7BAFE48B1402370
:1044D000CBEB000003FA00F0049B08F1010818433D
:1044E000049098F8001006225D4808F101078DF845
:1044F0002810FFF7A5FE002800F09580594B002BEF
:1045000040F08880039B073323F0070308330393AD
:10451000099B53440993B846454615F8013B1BB91E
:10452000B8EB07090FD003E0252BF9D0A846F3E735
:104530004B463A4621463046FFF76CFF01307FD0AC
:10454000099B4B44099398F80030002B78D0002346
:104550004FF0FF3204930793059206938DF8533082
:104560001A930127052229783F48FFF769FE05F1D4
:104570000108049B38B13C4A4546801A07FA00F00E
:1045800018430490EEE7D90644BF20228DF853204B
:104590001A0744BF2B228DF853202A782A2A3FF489
:1045A0007EAF079A00210A20A84698F8003001350E
:1045B000303B092B03D800FB02320121F4E700292C
:1045C0003FF479AF079276E798F801302A2B0BD1A8
:1045D000039B08F102081A1D1B680392002BB8BF49
:1045E0004FF0FF3305936BE700231946059308F15D
:1045F00001000A25804698F800200130303A092A47
:1046000003D805FB01210123F4E7002B3FF458AF49
:10461000059155E703AB00932246144B04A930469D
:10462000AFF3008007E003AB009322460F4B04A9D1
:10463000304600F09DF8B0F1FF3F82467FF468AF4E
:10464000A3895B063FF528AF09981DB0BDE8F08F40
:104650006061000080610000A0610000CE61000088
:10466000D261000000000000C86100001544000095
:1046700013460A46014602480068FFF7DDBE00BF48
:10468000340100102DE9F04791461F460A698B68F6
:1046900006469342B8BF1346C9F8003091F843204C
:1046A0000C46DDF8208012B10133C9F800302368D0
:1046B000990642BFD9F800300233C9F800302568A6
:1046C00015F0060510D104F1190A07E0012352463E
:1046D00039463046C04701301AD00135E368D9F871
:1046E00000209B1A9D42F1DB94F84330226800338E
:1046F00018BF012392060FD5E118302081F843003E
:104700005A1C94F845102244023382F8431003E007
:104710004FF0FF30BDE8F08704F1430239463046E0
:10472000C0470130F4D02268D9F80050E36802F0A5
:104730000602042A08BF5D1B2269A3680CBF25EA94
:10474000E57500259342C4BF9B1AED184FF0000990
:104750001A344D4509D00123224639463046C04718
:104760000130D5D009F10109F3E70020BDE8F08759
:104770002DE9F04317460A7E85B06E2A9846064614
:104780000C460C9B01F1430E00F0AE8011D8632A59
:1047900022D009D8002A00F0BB80582A40F0CA80F5
:1047A00081F84520834955E0642A1ED0692A1CD02F
:1047B000C0E0732A00F0B08009D86F2A2ED0702A8A
:1047C00040F0B8800A6842F020020A603EE0752A94
:1047D00024D0782A3AD0ADE01A6801F14205111DC3
:1047E0001960136884F84230A8E021681A6811F053
:1047F000800F02D0111D196008E011F0400F02F186
:104800000401196002D0B2F9003000E01368002BF7
:104810003CDA2D225B4284F8432037E021681A6895
:1048200011F0800F02D0111D196007E011F0400F48
:1048300002F10401196001D0138800E01368227EA0
:104840005C496F2A14BF0A2208221BE078225A49C9
:1048500084F845202268186812F0800F00F10405E2
:104860001D6003D1550601D5038800E00368D00719
:1048700044BF42F0200222601BB9226822F02002CD
:1048800022601022002084F8430001E049490A22F6
:104890006568002DA56008DB206820F0040020601A
:1048A0002BB9002D7DD175460CE0002B79D07546D3
:1048B000B3FBF2F002FB1033CB5C05F8013D03467D
:1048C0000028F5D1082A0BD12368DA0708D5236917
:1048D00062689A42DEBF302305F8013C05F1FF35DE
:1048E000C5EB0E0323612EE008681A6810F0800FF4
:1048F000496903D0101D1860136808E010F0400FDC
:1049000002F104001860136801D0198000E01960FA
:1049100000232361754616E01A68111D1960156899
:10492000002162682846FFF78BFC08B1401B6060DD
:10493000636804E004F1420584F842200123236106
:10494000002384F84330CDF800803B4603AA21467B
:104950003046FFF797FE013002D14FF0FF3026E0DE
:1049600023692A4639463046C0470130F5D02368CE
:104970009B0710D5002504F1190907E001234A46D9
:1049800039463046C0470130E7D00135E368039A25
:104990009B1A9D42F2DBE068039B9842B8BF184621
:1049A00005E00B7804F1420584F842308AE705B04F
:1049B000BDE8F083D9610000EA6100002DE9F84309
:1049C00015468A6880460C4632B98A69002A0CBFAF
:1049D00001224FF0FF328A602268DFF8A890D106EA
:1049E00058BF1A684FF000065EBF111D19601768A6
:1049F000A069F8B923680136DA065EBF2B681B7818
:104A00003B702A686B6802F101022A60A26803F118
:104A1000FF3302F1FF326B6058BF0137A260E2B191
:104A2000002BE5DCD4F88031294640469847002821
:104A3000DED012E0012806D12B681A7863699B5CEE
:104A4000002BD7D119E0022807D12B68D9F8002014
:104A50001B7813445B781B07CCD5236813F0100335
:104A600005D1E2680132E260A26902B13B702369BC
:104A700000201E442661BDE8F883002EEDD1BDE87C
:104A8000F88300BF380100102DE9F04F0C469A461C
:104A9000724B87B08346164693E8070003ABA768BE
:104AA00083E807006E4BA1696E4A04F11C090329D3
:104AB00018BF1A467B1EB3F5AE7F84BF40F25D136C
:104AC000A360236888BF6FF4AE7543F4506323601E
:104AD0004B4600928CBF7F1900274FF000083168C9
:104AE000019303AB53F8280002220978FFF7A8FBD3
:104AF000019B002833D0B8F1010F0BD162682AB9AD
:104B000008226260226842F400722260226822F465
:104B1000A0620CE0B8F1020F0AD1226802F4C06171
:104B2000B1F5007F1BD11021616042F480722260D8
:104B3000A268511EA16092B132685D1C511C3160A7
:104B400012781A707368013B002B736006DCD4F88E
:104B50008031314658469847002841D12B4608F10C
:104B60000108B8F1030FBAD162680AB90A2262607B
:104B700062683D496069891A019300F0DDF8019B84
:104B80004FF000081D46A36863B3316860690A7876
:104B9000805C38B3302A226808D1100506D508F1A8
:104BA000010857B10133013FA36006E022F410620F
:104BB00022600B78013505F8013C7368013B002B3E
:104BC000736003DD33680133336005E0D4F880316E
:104BD00031465846984728B9A368013BA360D2E7FD
:104BE0004FF000082368D9050CD54D4508D915F8B4
:104BF000011C6F1ED4F87C313246584698473D461A
:104C00004D4527D0226812F010021BD12A7063682C
:104C100049465846009EB0472268DAF8003012F044
:104C2000200F07D1D20705D51A1DCAF800201B682E
:104C3000188004E01A1DCAF800201B681860E36899
:104C40000133E3602369C9EB050545441D44256133
:104C5000002000E0012007B0BDE8F08FFC610000FB
:104C6000395100002D5000001862000038B5074C83
:104C7000054608461146002222601A46FEF782FCCD
:104C8000431C02D1236803B12B6038BDD409001046
:104C900070B50E461446054618B183690BB9FFF787
:104CA000BFF8164B9C4201D16C6808E0144B9C4243
:104CB00001D1AC6803E0134B9C4208BFEC68A368C9
:104CC000013B002BA36011DAA269934207DB236842
:104CD0001E70236819780A290BD1224601E022466A
:104CE00031462846BDE8704000F0DEBA23681E70E9
:104CF00023685A1C2260187870BD00BF60610000F4
:104D000080610000A0610000024B0A46014618685D
:104D100000F018BC3401001038B5064C00230546DD
:104D200008462360FEF74CFD431C02D1236803B103
:104D30002B6038BDD409001070B50B78441E5E2B73
:104D400013BF4A1C8A1C4B78002108BF012100F1C7
:104D5000FF0504F8011FAC42FBD10BB9501E70BD1A
:104D600081F001041146C4540D784A1C2D2D06D043
:104D70005D2D0FD00DB12B46F4E7084670BD4E787F
:104D80005D2EF8D0B342F6DC023101339E42C454AA
:104D9000FBDCE9E7104670BD00294FF480630CBFCF
:104DA0000222002200F000B82DE9F0411D463D4BE3
:104DB00004461E680F46904626B1B36913B93046C3
:104DC000FFF72EF8384B9C4201D1746808E0374B4E
:104DD0009C4201D1B46803E0354B9C4208BFF468A3
:104DE000B8F1020F59D8002D57DB21463046FEF7A7
:104DF0009BFF00236360A361A3891B0603D5216980
:104E00003046FFF759FAA389B8F1020F23F0830364
:104E1000A38112D037BB002D08BF4FF48065284610
:104E2000FDF750F80746C8B94FF48060FDF74AF81F
:104E3000074688B94FF0FF3000E00020A38943F017
:104E40000203A3810023A36004F1470323602361CD
:104E500001236361BDE8F0814FF48065A38943F0CD
:104E60008003A381B8F1010F05D1A38943F00103A9
:104E7000A3816B42A3610F4BB362A389276003F048
:104E8000080080B22761656148B113F0030F18BFB5
:104E90000025A5600020BDE8F0814FF0FF30BDE89F
:104EA000F08100BF340100106061000080610000EB
:104EB000A0610000A13D00000EB400B54FF40271E6
:104EC0009CB0ADF814106FF00041049107914FF6BB
:104ED000FF711DAB02900690084853F8042BADF803
:104EE0001610006802A9019300F0ACFB029B00229F
:104EF0001A701CB05DF804EB03B070473401001069
:104F00000EB430B59CB01FAC4FF4017254F8045B82
:104F1000ADF814200290069000F06BF80B4B039054
:104F20000B9300230F9314934FF6FF7307900848D9
:104F3000ADF816302A46234602A90068019400F015
:104F4000D1FC1CB0BDE8304003B07047774F000083
:104F50003401001010B50C46B1F90E1000F010FE2F
:104F60000028ABBF636DA3891B1823F48053ACBF2B
:104F70006365A38110BD002070472DE9F0411F46F5
:104F80008B890546DB050C46164605D50223002213
:104F9000B1F90E1000F0C4FAA389324623F480530D
:104FA000A381B4F90E103B462846BDE8F04100F05D
:104FB000CFB910B50C46B1F90E1000F0B1FA431C90
:104FC000A38915BF606523F4805343F48053A38104
:104FD00018BFA38110BDB1F90E1000F037BA10F858
:104FE000012B11F8013B012A28BF9A42F7D0D01AB1
:104FF0007047034613F8012B002AFBD1181A013819
:10500000704730B582B1451E013915F8013F11F8DE
:10501000014FA34206D1EC431444E04201D0002BDF
:10502000F3D11C46181B30BD104630BD2DE9F047AA
:105030000F4680463F48D0F800903D4615F8014B9A
:1050400009EB0400407800F0080000F0FF0608B10A
:105050002F46F2E72D2C03D1BD1C7C78012603E0FE
:105060002B2C04BF7C78BD1C13B1102B0AD15BE044
:10507000302C57D1287800F0DF0058284DD16C78BB
:1050800010230235002E14BF4FF0004C6FF0004C7F
:10509000BCFBF3FA0027384603FB1ACC09EB040EDD
:1050A0009EF801E01EF0040F01D0303C0BE01EF032
:1050B000030E1BD0BEF1010F0CBF4FF0370E4FF0A7
:1050C000570ECEEB0404A34210DDB7F1FF3F0AD028
:1050D000504506D801D1644503DC03FB004001279D
:1050E00001E04FF0FF3715F8014BD7E77B1C0CD1DF
:1050F000002E4FF0220314BF4FF000406FF000402D
:10510000C8F800302AB9BDE8F08706B1404272B154
:1051100007B1691E1160BDE8F0873024002BB1D1C2
:105120000823AFE70A23ADE7302CA3D0AAE7BDE8F8
:10513000F08700BF380100102DE9F0470E46804689
:105140003B48D0F80090354615F8014B09EB0400B8
:10515000407800F0080000F0FF0708B12E46F2E7A3
:105160002D2C03D1B51C7478012703E02B2C04BF30
:105170007478B51C13B1102B0AD153E0302C4FD1E9
:10518000287800F0DF00582845D16C7810230235CC
:105190004FF0FF3CBCFBF3FC03FB0CFA00266FEA6C
:1051A0000A0A304609EB040E9EF801E01EF0040FD7
:1051B00001D0303C0BE01EF0030E1AD0BEF1010FFF
:1051C0000CBF4FF0370E4FF0570ECEEB0404A34246
:1051D0000FDD002E08DB604506D801D1544503DC05
:1051E00003FB0040012601E04FF0FF3615F8014BAC
:1051F000D8E7002E07DA2223C8F800304FF0FF303E
:105200002AB9BDE8F08707B1404272B106B1691E04
:105210001160BDE8F0873024002BB9D10823B7E72F
:105220000A23B5E7302CABD0B2E7BDE8F08700BF6A
:10523000380100102DE9F0410C46496B04F144039C
:1052400099421AD14FF48061FFF77AF818B94FF0FC
:10525000FF30BDE8F0814FF48063A36394F84630DB
:10526000606380F8FF3394F8453000F2FD304370FE
:1052700094F844300370206012E0A66B77003A4641
:1052800000F060F905460028E1D000EB0608014671
:1052900032464046FEF7E2FFC4F800806563A7632C
:1052A0000020BDE8F0810000F8B50F461446064620
:1052B00018B183690BB9FEF7B3FD224B9C4201D1B3
:1052C000746808E0204B9C4201D1B46803E01F4B96
:1052D0009C4208BFF468A369A360A3891A0709D593
:1052E00023693BB123682069FDB2181A63699842AB
:1052F0000FDB08E02146304600F03CF80028F1D0F2
:105300004FF0FF30F8BD21463046FEF70DFD002876
:10531000F6D1A368013BA36023685A1C22601F706A
:105320006269431C934204D0A389DB0707D50A2D89
:1053300005D121463046FEF7F7FC0028E0D128468B
:10534000F8BD00BF6061000080610000A061000046
:1053500038B5074C054608461146002222601A4619
:10536000FEF7A4F9431C02D1236803B12B6038BDBA
:10537000D4090010314B70B51D6806460C4625B1A6
:10538000AB6913B92846FEF74BFD2D4B9C4201D16A
:105390006C6808E02B4B9C4201D1AC6803E02A4BBF
:1053A0009C4208BFEC68A3899AB211071DD4D506A8
:1053B00002D40922326038E0500712D5616B41B146
:1053C00004F14403994202D03046FEF775FF0023F2
:1053D0006363A38923F02403A3810023636023690B
:1053E0002360A38943F00803A38123694BB9A389F0
:1053F00003F42073B3F5007F03D021463046FEF757
:10540000C3FEA38913F0010205D00022A2606269E5
:105410005242A26103E0990758BF6269A260226903
:105420004AB903F0800080B230B143F04003A38159
:105430004FF0FF3070BD002070BD00BF3401001080
:105440006061000080610000A061000038B5064C7A
:105450000023054608462360FEF714F9431C02D1D9
:10546000236803B12B6038BDD40900100B7830B528
:10547000722B0ED0772B07D0612B0ED14FF4027414
:1054800001234FF484701AE04FF4C0640123082014
:1054900015E000242346042011E0162303600020B9
:1054A00030BD622D10D0782D11D02B2D07D120F0DA
:1054B0001C0023F0030340F0100043F0020311F836
:1054C000015F002DEDD105E043F48033F7E743F4AD
:1054D0000063F4E72343136030BD000038B5074C88
:1054E00000230546084611462360FEF74BF9431C8E
:1054F00002D1236803B12B6038BD00BFD40900106E
:1055000038B5064C0023054608462360FCF7D4FC5A
:10551000431C02D1236803B12B6038BDD4090010AD
:1055200038B5074C054608461146002222601A4647
:10553000FEF716F9431C02D1236803B12B6038BD76
:10554000D4090010F8B5074615460E4621B9114694
:10555000BDE8F840FEF7F4BE1AB9FEF7ADFE2846E6
:10556000F8BD00F01FFB85420ED929463846FEF7EC
:10557000E7FE044650B131462A46FEF76FFE31463B
:105580003846FEF799FE01E03046F8BD2046F8BDEA
:105590002DE9F0478E6882469E420C469146984619
:1055A0003ED88A8912F4906F3AD02568096902239F
:1055B0006F1A656905EB450595FBF3F57B1C4344C4
:1055C0009D4238BF1D4653050FD52946FEF7B8FE4C
:1055D000064698B13A462169FEF740FEA38923F4B6
:1055E000906343F08003A38113E02A46FFF7AAFFEC
:1055F000064670B921695046FEF75EFE0C23CAF8D4
:105600000030A3894FF0FF3043F04003A381BDE891
:10561000F08726613E44266046466561ED1BA56025
:10562000464528BF4646494632462068FEF721FED9
:10563000A36800209B1BA36023681E442660BDE86E
:10564000F08700002DE9F04F9DB003938B898046D1
:105650001C060D4616460DD50B695BB94021FEF7B9
:105660006FFE2860286118B90C23C8F80030CDE01F
:1056700040236B610023099320238DF82930DFF844
:105680009CB130238DF82A3037463C4614F8013B54
:105690001BB9B7EB060910D003E0252BF9D027463C
:1056A000F3E74B46324629464046FFF771FF01308B
:1056B00000F0A780099B4B4409933B78002B00F036
:1056C000A08000234FF0FF320493079305920693C6
:1056D0008DF853301A930126052221784E48FEF7A3
:1056E000AFFD671C049B38B14B4A3C46801A06FA52
:1056F00000F018430490EFE7D90644BF20228DF84C
:1057000053201A0744BF2B228DF8532022782A2ACF
:1057100003D0079A00210A200BE0039A111D12689A
:105720000391002A10DA524243F0020007920490DB
:105730000BE027463B780134303B092B03D800FBB4
:1057400002320121F5E701B107923B782E2B1ED1E1
:105750007B782A2B0AD1039B02371A1D1B68039200
:10576000002BB8BF4FF0FF33059310E0002319461C
:105770000593781C0A2407463A780130303A092A02
:1057800003D804FB01210123F5E703B105910322AE
:1057900039782248FEF754FD40B14023CBEB00009E
:1057A00003FA00F0049B013718430490397806226D
:1057B0001B487E1C8DF82810FEF742FD88B1194B5E
:1057C00033B9039B073323F007030833039314E033
:1057D00003AB00932A46144B04A94046AFF3008064
:1057E00007E003AB00932A460F4B04A94046FEF79F
:1057F000BFFFB0F1FF3F824603D0099B534409939A
:1058000042E7AB895B0601D4099801E04FF0FF3015
:105810001DB0BDE8F08F00BFC8610000CE61000080
:10582000D261000000000000915500004B1C70B5D3
:105830000E46144602D14FF0FF3070BD9389CDB2B1
:1058400023F020039381536B526883B1A36B9A4278
:1058500007DA23685A1E226003F8016C636801337B
:105860001FE02146FFF7E6FC0028F2D0E3E72169BC
:10587000236851B1994208D213F8011C8D4204D11A
:10588000013B0132236062600CE0E36304F14403F6
:1058900063630323A3632346226403F8466F2360F4
:1058A00001236360284670BD10B50C46496B69B191
:1058B00004F14403994201D0FEF7FEFC236C002062
:1058C0006063636013B1E36B236010BD23694FF025
:1058D000FF30236000236360A38943F02003A3818A
:1058E00010BD00002DE9F04FDFF8909207460C46FE
:1058F000CA46ADF5257D01930023469347939B4B04
:105900000DF10C08A2939A4BDFF868B2CDF8208114
:10591000A3931578002D00F02081D9F800302B4496
:105920005B7803F0080303F0FF01F3B16368002B19
:1059300010DD2368DAF800001978014449780D0772
:1059400010D54799013301314791616823600139CE
:105950006160EBE7A39B2146384600929847009A86
:105960000028E6D0561C3246D3E7252D02F1010669
:105970004BD14391459153782A2B02BF1023961C9B
:1059800043930A2231783546A1F13003092B06F101
:10599000010605D8459B02FB0313303B4593F1E715
:1059A00003227448FEF74CFC40B135460123CBEB93
:1059B000000003FA00F0439B034343936E1C2D78D1
:1059C000672D0FD8652D78D25B2D54D005D8002DCA
:1059D00000F0C580252D18D071E0632D57D0642DBF
:1059E0003FD06CE0702D32D007D86E2D55D03AD80C
:1059F000692D64D1002344933BE0752D31D0782D7F
:105A000029D0732D5BD102233FE06368002B0DDDAD
:105A100023681A78954240F0A080013362682360C1
:105A2000479B013A0133626047939CE7A39B214661
:105A3000384698470028EBD04698002800F08F8021
:105A4000A38913F0400F18BF4FF0FF3089E0439B4C
:105A500043F020034393439B43F400734393102389
:105A600002E00A2300E008236E2D449301DD0423A5
:105A70000BE0032309E031464046FFF75DF9064697
:105A8000439B43F040034393012349931BE0439B13
:105A900043F0400343930023F7E7439AD0063FF5D2
:105AA00062AF12F0010F019A479B02F104010191CC
:105AB000126814BF1380136055E70523E5E703233D
:105AC00049930A2344936368002B03DD439B5906E3
:105AD00011D518E0A39B2146384698470028F5D0F9
