:1000000000800010F57000002571000027710000CD
:10001000297100002B7100002D710000000000000C
:100020000000000000000000000000002F71000030
:1000300031710000000000003371000035710000D4
:100040003771000037710000377100003771000010
:100050003771000037710000377100003771000000
:1000600037710000377100003771000037710000F0
:1000700037710000377100003771000037710000E0
:1000800037710000377100003771000037710000D0
:1000900037710000377100003771000037710000C0
:1000A00037710000377100003771000037710000B0
:1000B00037710000377100003771000037710000A0
:1000C000377100003771000037710000044B05489C
:1000D0001B1A062B02D9044B03B11847704700BF07
:1000E000D3010010D00100100000000005490648AF
:1000F000091A891001EBD171491002D0034B03B1E9
:1001000018477047D0010010D00100100000000017
:1001100010B5064C237843B9FFF7D8FF044B13B151
:100120000448AFF300800123237010BDD0010010FC
:100130000000000064AF000008B5084B1BB108497F
:100140000848AFF300800848036813B9BDE80840C9
:10015000CCE7064B002BF9D09847F7E700000000EA
:10016000D401001064AF0000D001001000000000B6
:100170004B68DA0705D55B100A68C15818448A58DD
:1001800010470A6800EB6300104700BF2DE9F04FED
:100190001D46044683B000F1080B04F1600A06F026
:1001A000B7FB2946584606F049FC50460C9906F024
:1001B00045FC04F1D80304F5FC70002243F8182C28
:1001C00043F8042C183383424FF00001F6D108465F
:1001D000C4F8EC1184F8F21104F2DF1304F2EB120C
:1001E00003F8010F93424FF00005F9D120467749FB
:1001F00004F1B80606F09CFB442384F8B95032465B
:100200000095402184F8B8302046032306F09AFB7D
:100210003246009503234021204606F093FB4FF021
:10022000FF09462384F8B95084F8BA503246009545
:10023000402184F8B83084F8BB9084F8BC90052342
:10024000204606F07FFB32460095052340212046DC
:10025000022706F077FB4F230095324684F8B8302A
:1002600084F8B9703B464021204606F06BFB3B46C4
:10027000324600954021204606F064FB4FF6FF739E
:10028000A4F8F031B4F8F03184F8B8703246009533
:10029000402184F8B93020463B4606F053FBB4F8C1
:1002A000F0313246C3F307230095402184F8BA3079
:1002B00020463B4606F046FB062384F8BA9084F8B5
:1002C000B95032460095402184F8B83020460323C7
:1002D00006F038FB4FF00108324600950323402119
:1002E000204606F02FFB84F8B85032464346CDF83E
:1002F00000804021204606F025FB3B463246009513
:100300004021204606F040FB43463246CDF80080AF
:100310004021204606F016FB3B4632460095402120
:10032000204606F031FB4FF04A0384F8B99084F878
:10033000BA9032460095402184F8B8302046032315
:1003400006F000FB3246009503234021204606F0CC
:10035000F9FA4FF04A0384F8B99084F8B83084F879
:10036000BA503246009503234021204606F0EAFAAF
:100370003246009503234021204606F0E3FA144E4E
:10038000144B42463946E36404F12400A464256515
:10039000E66505F077FA104B4246C4F8A4303946BA
:1003A00004F17C00C4F8B460C4F8A040C4F8A850BC
:1003B00005F068FA2946584606F064FB504629467F
:1003C00006F060FB204603B0BDE8F08F801A0600FF
:1003D00071010000D9040000D10400002DE9F043B0
:1003E00080464D2385B0002708F8B83F4029424693
:1003F00000974FF0010308BF3E46054618BF06268A
:100400000C4606F09FFA01239946009721460DF10C
:100410000E02284606F0B8FA009742464B4621469F
:1004200085F8B890284606F08DFA00974B460DF1F6
:100430000F022146284606F0A7FA9DF80E209DF8E7
:100440000F70D3B233EA070734D095F8F2311A436C
:1004500085F8F221002402E00134082C1CD0A119F7
:1004600047FA04F3C9B2DB0705EB0102F4D592F8B1
:10047000E031002BF0D001EB4101C9006B181946A7
:10048000D3F8D420C431E2B1D3F8C0000028E3D0BF
:1004900001349047082CE2D1D5F8EC313BB1391C3E
:1004A00095F8F22118BF01219DF80E00984705B07C
:1004B000BDE8F08395F8F22122EA030385F8F231D2
:1004C000C8E7D3F8C030002BC6D09847C4E700BFB8
:1004D0004021FFF783BF00BFFFF7FABFC0F8EC1160
:1004E000704700BF2DE9F04706461F46022384B03F
:1004F00006F8B83F4FF0010A534688469146394600
:100500003246CDF800A0044606F01CFA002205464B
:1005100000925346394620460DF10F0206F034FA98
:10052000002D18BF40F00100051C18BF0125B9F1CE
:10053000000F1BD09DF80F2022EA08028DF80F2033
:100540000223002084F8B83084F8B920394600909E
:100550003246204606F0F6F955EA000304BF9DF83E
:100560000F30A4F8F03104B0BDE8F0879DF80F30EB
:1005700048EA030842468DF80F80E1E710B50446CB
:10058000603006F023FA04F1080006F01FFA204656
:1005900010BD00BF4B68DA0705D55B100A68C1586B
:1005A00018448A5810470A6800EB6300104700BFE0
:1005B00070B504460C4E00F536752846C4F8D8626E
:1005C00006F002FD284606F07DFD04F13C0504F12D
:1005D000E400FFF7D3FF2846E66306F0F5FC284663
:1005E00006F070FD204670BD80AD000070B5416022
:1005F00004461A49406807F0DDF966680546314649
:10060000174807F0D7F90146284607F099FC04F18E
:10061000E40500BB0246D2B2402310212846FFF772
:1006200061FF60680D4907F0C5F966680446314608
:100630000B4807F0BFF90146204607F063FC4FF076
:10064000010200B902462846BDE87040D2B24023FC
:100650002021FFF747BF4FF00102DCE7CDCC4C3E35
:10066000CDCC4C3F70B5816004464FF07E51806820
:1006700007F0A2F9A668054631464FF07E5007F014
:1006800099F90146284607F03DFC04F1E40510BB4A
:100690000246D2B2402304212846FFF723FFA06878
:1006A0004FF07E5107F088F9A668044631464FF0B6
:1006B0007E5007F07FF90146204607F041FC4FF0DD
:1006C000010200B902462846BDE87040D2B240237C
:1006D0000821FFF707BF4FF00102DAE770B5C160EC
:1006E00004460021C06807F02BFC04F1E40580B942
:1006F00002464023D2B201212846FFF7F3FEA37839
:1007000053B12846BDE87040402301220221FFF783
:10071000E9BE4FF00102ECE7E068002107F0E8FBDA
:100720004FF0010238B12846BDE87040D2B24023F4
:100730000221FFF7D7BE0246F5E700BFF8B5044631
:10074000B0F80C332D4D1B01E9588378FFF74EFFAD
:10075000B4F80C33204605EB03135968A378FFF770
:1007600081FFB4F80C33204605EB03139968A37896
:10077000FFF7B4FFB4F80C6305EB0615ED682846E7
:1007800006F05EFE02460B4606F0FCFC0B460246F7
:100790001B49002006F0D2FF07F0B8F8A3781949EA
:1007A0002561074607F0CCFBB0B1D4F80833164AF0
:1007B000013352F8262003EB8301B2EB410F67614E
:1007C000C4F8083307D2013606F003060023A4F864
:1007D0000C63C4F80833F8BD206906F031FE024608
:1007E0000B4606F0CFFC02460B460020044906F0FB
:1007F000A5FF07F08BF80746D7E700BFCC00001035
:100800000000F03F000080BF0C010010F0B504466E
:10081000002583B04570A5703C3006F03FFC444F86
:10082000444B4FF47A720121A4F86C202567A3672A
:1008300084F8741004F180006565A56684F87C5026
:10084000E7633D4905F050FA04F188031846C4F8FF
:100850008850C4F88C50C4F89050C4F89450C4F830
:100860009850C4F89C50354904F01EFD04F1A003D3
:100870001846C4F8A050C4F8A450C4F8A850C4F84E
:10088000AC50C4F8B050C4F8B4502D4904F00CFD7D
:1008900004F1B8002B4903F0D1FF04F1CC002A4940
:1008A00003F0CCFF47F23052284B04F1E406C4F8C1
:1008B000E02027490093274A01333046FFF766FCC2
:1008C00004F5367006F0EAFB2349244A00234FF072
:1008D0007C502570E5706060A360E3602161626117
:1008E000E2783046D2B222766268C4F8D872E26109
:1008F000A268C4F8F0522262E268C4F8045362624B
:10090000A36222691649E26262692263636384F822
:100910003850FFF7E3FD30462A464023FF21FFF71A
:10092000E1FD2046A4F80C53C4F8085303B0F0BD11
:1009300080AD00000000604043C0092012C00920C3
:1009400011C0092045C0092042C0092004C0092067
:1009500000C0092001C00920B00FA1354073CB4869
:10096000310A0000837803B102B1C170704700BF43
:10097000837803B10AB1FFF739BE7047837803B1BA
:100980000AB1FFF76FBE7047837803B10AB1FFF772
:10099000A5BE704738B5847804B153B101610546EE
:1009A0000D491046144607F0CBFA18B1204668618D
:1009B00038BD38BD286906F043FD02460B4606F0F7
:1009C000E1FB02460B460020044906F0B7FE06F0A4
:1009D0009DFF686138BD00BF000080BF0000F03F90
:1009E00070B50446002500F5367006F0EDFA0026D5
:1009F000A3782046E5704FF07C51A378FFF7F6FD11
:100A000020463146A378FFF72DFE31462046A378D5
:100A1000FFF764FE0449054A94F80E33A07821617B
:100A20006261A370657070BDB00FA1354073CB4893
:100A300051B3013AF8B5232A00F2D080DFE812F072
:100A40002C004200CE00BB00CE00CE00CE005D00E8
:100A50007300CE00CE005700CE00CE00CE00A8001E
:100A6000CE00CE00CE00CE00CE00CE00CE00CE0016
:100A7000CE00CE00CE00CE00CE00CE00CE0088004C
:100A80009B00CE00CE00250070476A4B0D221A70E5
:100A9000BDE8F84004F03CBC664C4FF07951E0688A
:100AA00006F08AFF4FF07D51054607F049FA00280D
:100AB00040F0B68029465F48A378FFF70FFE082371
:100AC0002370F8BD5B4C4FF07951E06806F072FF7F
:100AD0000021054607F016FA002840F0A8802946B4
:100AE0005448A378FFF7FAFD09232370F8BD514A53
:100AF000937883F001039370F8BD4E4C4FF07C5116
:100B0000A06806F059FF4FF07E51054607F018FA2D
:100B100008B14FF07E5529464648A378FFF7A2FD5D
:100B200007232370F8BD434B0C2218201A7006F0DF
:100B30000AFB04460023036043608360C3600361D3
:100B400043613D4904F0B0FB236962681A60F8BD57
:100B5000384C3A49606806F02DFF3949054607F0E0
:100B6000D1F900285AD129463248A378FFF73EFD33
:100B70000B232370F8BD2F4B0E221A705A7802F007
:100B8000FF04002A2ED01846BDE8F840FFF728BF22
:100B9000284C2A49606806F00FFF2A49054607F0ED
:100BA000CFF900283FD129462248A378FFF71EFD40
:100BB0000A232370F8BD1F4C4FF07C51A06806F04B
:100BC000F9FE2149054607F09DF970BB29461948F1
:100BD000A378FFF747FD06232370F8BD154B0F22BE
:100BE0001A70F8BD194E9F78194D0122C3F8F032E2
:100BF000C3F8F842C3F8F4629A7003F53670C3F88C
:100C00000843A3F80C4383F80E735A70C3F80453D7
:100C100042F21071BDE8F84006F0DEB9084DA2E7D7
:100C20004FF07D5546E7074DBDE7074DCEE7002560
:100C300055E700BFEC01001040C009209A99193E09
:100C4000CDCC4C3ECDCC4C3F000080BF3D070000DA
:100C50009505000010B5054C2046FFF7D7FD20464E
:100C6000BDE81040024A034906F066BAEC010010E4
:100C7000C8000010B105000010B5054C2046FFF774
:100C8000C5FD2046BDE81040024A034906F054BAAB
:100C9000FC040010C8000010B1050000704700BF40
:100CA00010B50446064B403003F1180103F14C0225
:100CB00023602164626406F02DF9204610BD00BF58
:100CC000DCAC0000A0F14000EAE700BFA0F1440066
:100CD000E6E700BF10B5044606F033FA204610BD23
:100CE00010B5044C204603F0C7FA204602F04CFF32
:100CF000002010BD9811001010B50446074B40307D
:100D000003F1180103F14C0223602164626406F0D0
:100D100001F9204606F015FA204610BDDCAC0000B3
:100D2000A0F14000E8E700BFA0F14400E4E700BF05
:100D300010B5074C074A20460749002306F07EF805
:100D40002046BDE81040054A054906F0F5B900BF48
:100D50000C08001003C0092002C00920C8000010C0
:100D6000A10C000070B504460E46002900F08180F9
:100D7000002525602946A4F8FE51D4F828026661B2
:100D8000A4F8245204F092FC4FF07F5004F0DCFBF6
:100D90003F49404800F0BEFD3E4800F0BFFD2B46F5
:100DA000294684F8E95103F1E802013304EB4202D9
:100DB0000A2B51714FF00002F5D11346114684F809
:100DC000EA2104EB430201330A2B82F8D6114FF0DB
:100DD0000002F6D1134611461F2084F8EB2184F857
:100DE000D421A4F8B021A4F8B201C4F8B421C4F805
:100DF000BC21C4F8C421C4F8CC211A1D0133322B04
:100E000044F832104FF00002F7D113461146C4F8EF
:100E1000B821C4F8C021C4F8C821C4F8D02104EB1B
:100E2000C3020133322B51624FF00002F7D1134657
:100E3000042184F8EC2104F5057084F8ED210126E5
:100E4000227662832277A4F80822C4F8042284F868
:100E5000001294F8005206FA03F250F8041F2A42D6
:100E600014BFCA680A6901334968032B1160F0D1C5
:100E700070BD582006F067F906460023064A074968
:100E800005F0DCFF30464FF4612105F0B7FF6FE756
:100E9000F51700005C0B001003C0092002C00920F8
:100EA000F8B50546002440F8044B0F4606F0ACF8B0
:100EB000A5F8FE411820A5F82442A5F82C42A5F873
:100EC0002E4206F040F906462349046044608460DF
:100ED000C4600461446104F0E7F9C5F80C621820AD
:100EE00006F031F906461D49046044608460C46020
:100EF0000461446104F0D8F9C5F81062182006F0C6
:100F000022F906461649046044608460C4600461A6
:100F1000446104F0C9F9D5F80C22D5F81032C5F8AF
:100F20001822C5F81C32C5F81462C5F820621820D2
:100F300006F009F90646046044608460C4600461F8
:100F40004461084904F09EF92846C5F828623946EC
:100F5000FFF708FF2846F8BD18C0092019C009206E
:100F60001AC0092040C0092070B5044601F00105EF
:100F7000C1F34200C1F30212C1F3C113C1F3412115
:100F800084F8305284F8310284F8322284F8333203
:100F900084F8341294F8301294F8310294F8322222
:100FA00094F83332120102EB40020A4494F83412EE
:100FB00002EBC31303EB41239BB2A4F82C3294F849
:100FC0003012194D003118BF012128460022FFF7C9
:100FD000C9FC94F83122154B284653F82210002200
:100FE000FFF7C6FC94F83222114B284653F8221022
:100FF0000022FFF7C3FC94F833220E4B284653F827
:1010000022100022FFF7C0FC94F834120A4B94F827
:1010100034420A4A284652F8242053F82110BDE8E9
:1010200070400023FFF7B6BCEC01001070A4000074
:101030008CA4000060A4000050A4000040A40000A4
:10104000F0B50125AE4683B000238DF8043000933F
:10105000EC466A466F1E0F4400230EFA03F42C423E
:101060004ED014783E78744014700133052B02F191
:101070000102F2D10135102DEAD100231C461A4697
:101080009DF8045091F80FE001278EEA050E8DF8C7
:1010900004E01CF8015B07FA03F601331DB132448A
:1010A0000134D2B2E4B2042BF3D1012C2FD9013A8E
:1010B0008B5C83F001038B54BEF1000F23D000231F
:1010C0001D461F4601260BE0CC5C0133AC4005F108
:1010D000010E44EA0702102B97B25FFA8EF507D093
:1010E000741EA342F0D101337600102BF6B2F7D173
:1010F00039460446FFF738FFA4F8FE7103B0F0BD8F
:10110000042BB2D1ADE7A0F8FEE103B0F0BD002C96
:10111000D5D0BEF1000FD2D1F5E700BF2F4B10B5EF
:10112000184600242E491C605C609C60DC601C61D9
:101130005C6104F0B9F82B4B2B4918461C605C60CD
:101140009C60DC601C615C6104F0AEF8274B2849B0
:1011500018461C605C609C60DC601C615C6104F093
:10116000A3F8244B244918461C605C609C60DC603A
:101170001C615C6104F098F8204B214918461C6002
:101180005C609C60DC601C615C6104F08DF81D4B50
:101190001D4918461C605C609C60DC601C615C61E1
:1011A00004F082F8194B1A4918461C605C609C6078
:1011B000DC601C615C6104F077F8164B1649184638
:1011C0001C605C609C60DC601C615C6104F06CF81D
:1011D0002146BDE810401148FFF762BEFC0A00102E
:1011E00032C00920140B001034C009202C0B001051
:1011F00035C00920440B001037C0092064080010D6
:1012000009C009207C08001008C0092094080010BB
:1012100007C00920AC08001006C00920C40800104F
:1012200000B50A4887B000F0EDFA00236846084987
:1012300001930093029303930493059304F034F80D
:10124000049B019A1A6007B05DF804FB5C0B001068
:1012500040C009202DE9F04FD0F8283287B0002B8C
:1012600000F07C8244F6206304460068984205D171
:10127000D84800F0C7FA07B0BDE8F08F2368D64819
:1012800001332360437803F0FF06002BF3D1638B17
:10129000DFF848E301339BB26383B4F824320439A6
:1012A00001339BB2A4F824323227B4F8B03151F89C
:1012B000040F1BB206EB43030833401144F823002C
:1012C000237FB6EB430F00F0B680237F5B00013332
:1012D0009E4200F0B0800136022EE6D1B4F8B00193
:1012E000BE4900B2461C81FB0630F517C5EB201045
:1012F000322303FB106080B2A4F8B001B4F8B2014D
:1013000000B2013081FB0015C117C1EB251103FBB1
:1013100011039BB2A4F8B23194F8D41101F0FF0389
:10132000002900F0768184F8D431237E03F0FF0099
:10133000002B40F0FF8094F8D431002B00F0FA80AD
:10134000237F217F5B004900DBB201318B4200F338
:101350009481DFF898B201254BE0DCF8C4E1DCF8B9
:10136000CC118E455DDDDCF8B49103F1010EDCF8A3
:10137000B4A1217F0EF0010808EB41016C3104EBB0
:1013800081014968A9EBEA0989454CDDDCF8B49193
:10139000217F08EB41016E3104EB81014968B1EB1B
:1013A000890F40DADCF8C481DCF8BC11B1EB081F0E
:1013B00039DADCF8C411594535DD94F8EB1104EB4A
:1013C0004101194481F8D55194F8EB1104EB410126
:1013D0000B4493F8D5C197F8E9115FFA8EF3614495
:1013E000C9B287F8E911217F490001318B4200F32E
:1013F000448194F8EB11E71804EB4101194491F88A
:10140000D5E197F8E91104EB830CCEEB0101C9B2E9
:1014100087F8E911DCF8B461DCF8BC11B1EB860F98
:101420009BDB03F1010E94F8EB1104EB410119442D
:1014300081F8D501C8E7207E00F0FF0300287FF483
:101440004AAF04EB8600C0F8C431C0F8CC31C0F814
:10145000B431C0F8BC31B4F8B031B4F8B2C11BB289
:1014600001338EFB0358DD17C5EB281507FB153339
:101470000FFA8CF59BB2AB4225D003F101098EFB2C
:10148000095B06EB430304EB8308D8F820A04FEA7E
:10149000E975D0F8BCC1C5EB2B1507FB15930AEB1A
:1014A0000C05C0F8BC51D8F820C0D0F8CC519BB284
:1014B000AC45C4BFD8F82050C0F8CC51B4F8B251F4
:1014C0002DB29D42D9D1B4F8B2C1B4F8B0311FFAEF
:1014D0008CFC23E00CF101098EFB093B06EB4C036D
:1014E00004EB8308D8F820A04FEAE975D0F8B4C11E
:1014F000C5EB2B1507FB15930AEB0C05C0F8B4518F
:10150000D8F82090D0F8C4511FFA83FCA945C4BF75
:10151000D8F82030C0F8C431B4F8B0311BB2013370
:101520008EFB0358DD17C5EB281507FB1533634504
:10153000D0D1D0E6638B9BB2502B1AD900210B4639
:101540000846217684F8E91103F1E801013304EB40
:1015500041010A2B48714FF00001F5D10B460846B6
:1015600084F8EA1104EB430101330A2B81F8D60118
:10157000F8D144F62063D4F8041219480A44C4F898
:101580000422B4F8081289B2013180FB0120CA1785
:10159000C2EB603203FB12139BB2A4F80832B4F81A
:1015A000082295B2002D53D194F800320D4E0E480A
:1015B000F25CA2FB0001D4F80422D31706F010FD60
:1015C00094F800722A46314642F210750123FFB2A8
:1015D00017E000BF5C0B0010EC0100101F85EB5101
:1015E000AD8BDB6838A4000080969800A0860100CF
:1015F000AB42BCBF1D4637460132082A10D011F855
:10160000013F1B1A002BD6B2F2DCC3F10003EFD16D
:10161000F2E7B4F8B0311BB2B3FA83F35B0982E6A8
:1016200084F8007204F505700023012694F8005236
:1016300006FA03F250F8041F2A4214BFCA680A6966
:1016400001334968032B1160F0D10023C4F8043240
:1016500042F20F72B4F824329BB293427FF60BAE83
:1016600042F21072B4F824329BB2934200F0AE8082
:1016700042F21173A4F82432FDE594F8EB315B4992
:10168000013381FB0310D917C1EBA00101EB8101EC
:10169000A3EB4103DBB284F8EB31237F04EB43037C
:1016A00093F8E931062B1AD9237F04EB4303013366
:1016B00093F8E931062B12D9237F04EBC303D3F847
:1016C000B411237F04EBC30303F5DA735B6899421B
:1016D0005EDD237F002104EB430383F8EA11237FBF
:1016E00004EB430393F8E931062B3AD9257F6D00CB
:1016F000638B9BB2B3F5967F40D394F8ED311BB169
:1017000094F8EC31102B4AD094F8ED3103F0FF013E
:101710000BB9A4F8FE11002384F8EC3184F8ED3104
:1017200094F8ED3103F0FF068BB994F8EC3105F035
:101730000101DBB2581CC0B2234484F8EC0183F8E9
:10174000EE11237F267794F8EC31102B39D0254405
:1017500095F8E9310121638321760AE7FFF760FDFF
:1017600089E5237F04EB4303013393F8E931062B2A
:101770007FF6FFAE257F6D000135B9E794F8ED31B6
:10178000002BCDD0002384F8EC31A4F8FE31C7E75C
:10179000237F002104EB430383F8E9119FE7002630
:1017A0000523A4F8246204F5F771A4F82E3220462C
:1017B0000192FFF745FC84F8EC61019A84F8ED6131
:1017C000A9E7012384F8ED312677C0E7084B02AD85
:1017D000186859689A68DB680FC502A92046FFF7A8
:1017E0002FFC0423A4F82E3242E700BF676666662A
:1017F00028A400000A4601460148FFF72BBD00BFA0
:10180000C4080010D0F858340022DA60437903F09D
:10181000FF02002BFAD18379002BF7D0054B064944
:101820005A60D1F8C430012223F00403C1F8C43057
:10183000027170470080004000C00F40704700BF39
:10184000074B0021074A5960D2F8C430064923F0FB
:101850000403C2F8C430054801230B7103F000BD36
:101860000080004000C00F405C0B0010B8A40000D6
:10187000154B5A79BAB103F1080103F5FE72C3F8AA
:10188000F413C3F8F0235A7993F8491482F0010253
:1018900001205A710C4A987171B992F848240B4B87
:1018A00090409860704703F5FE7103F10802C3F899
:1018B000F413C3F8F023E6E7012904D192F8482491
:1018C000024B9140996070475C0B00100040005043
:1018D00030B504460E4A0025FF2383B00571C0F8D9
:1018E00018544571C0F82C54C0F83054C0F8445412
:1018F000026085711A4600F57E700093012100F0A8
:1019000077FB204684F84C54C4F8705503B030BDC2
:10191000B0A40000C0F87015704700BF30B400F5E7
:10192000FC752946031D002243F8042F9D424FF009
:10193000000441F8042FF7D1254680F86C4500F5E6
:101940008D6200F59D6342F8045F93424FF0000101
:10195000F9D10C46C0F8641400F5AD6143F8044FAA
:101960008B424FF00002F9D140F2F14440F2D451E1
:101970000123C0F85C44C0F8682480F86D25C0F8E5
:10198000601480F84C3430BC704700BF2DE9F84F2C
:101990000446102005F0D7FBC4F85404102005F0CD
:1019A000D2FBC4F85804302005F0CDFB05461820C2
:1019B00005F0C9FB03460026AB621E605E6118207D
:1019C00005F0C1FBAB6AE862066046616449D4F881
:1019D00058047D224FF0040C6A6004F108070222CB
:1019E000C5F818C028622F616A61AA60EE60EE61D6
:1019F0006E62C4F850542E6019605E61EB6A594AF9
:101A00005E611A60D4F8503404F57E7599692846F1
:101A1000D4F8548400F094FAD4F85824D4F854A498
:101A2000D4F85034C8F80000CAF80820CAF8047086
:101A3000996928465F6800F0ABFAD4F85034C7F3D0
:101A40000B0999690746284600F0A2FAD4F85034E9
:101A500083469969284600F0B3FA3F03D4F850341E
:101A600049F0084907F4E04747EA090899698146BF
:101A7000284600F0A5FA4FEACB3707F460374FEA63
:101A8000894947EA080709F4E019400549EA0707C8
:101A900000F46000D4F850340743CAF80C70996918
:101AA0002846D4F8587400F04BFAD4F85424D4F8EB
:101AB00058A4D4F8503404F5FE713860CAF80820F0
:101AC000CAF80410996928465F6800F061FAD4F8F2
:101AD0005034C7F30B0999690746284600F058FAB5
:101AE000D4F8503483469969284600F069FA3F03D8
:101AF000D4F8503449F0084907F4E04747EA0908A8
:101B000099698146284600F05BFA4FEACB3707F423
:101B100060374FEA894947EA080709F4E0194005A8
:101B200000F46000D4F8508449EA07070743012312
:101B3000CAF80C70414663712846A67100F0C6FBD6
:101B400020B9BDE8F84F084803F08ABBD8F8001068
:101B50002846BDE8F84F01F0070100F0CDBA00BFFC
:101B6000711800004118000004A50000264B274A08
:101B70004FF48001F0B4C3F88010D2F8C410244BA5
:101B800041F48051C2F8C410D2F8A8114FF40010EB
:101B900021F04071C2F8A811186019681D4821F49D
:101BA0007F41196041684FF4807521F440414160E4
:101BB0004468194944F480444460DD601868032592
:101BC00020F48030186018680B2440F0C060186062
:101BD0001868312740F000601860D2F8C430002641
:101BE00043F00403C2F8C430D2F8A831012023F036
:101BF0003003C2F8A831CC608D614D61CF634E6077
:101C00004860F0BC704700BF00E100E000C00F403A
:101C10000040034000C00240008000402DE9F04F2A
:101C2000437989B006461BB1514BDA685B68136093
:101C3000DFF84891D9F80C30D9F804201A6073798C
:101C40001BB14C4BDA685B681360D6F8F4334A4A30
:101C500019460293484B5268DB6806F58C6E1A6091
:101C600096F86C3506F58B6206EB8308049676468B
:101C70000027039701F5FA7C05930192019B4FF031
:101C8000000B53F804AF58460193029900E0184640
:101C90000B68C3F30B12002F5CD080FB0A45A30A2C
:101CA00043EA8553043113448C45CBEB030383464D
:101CB000EDD183FB0AAB4FEA9A2444EA8B5483FBB1
:101CC000032380FB044580FB0001920A800A40EA5E
:101CD000815042EA8352A40A024444EA8554141B08
:101CE0005EF8041FD8F86C340794079ACB1A0137B2
:101CF00007991344022F46F8043F08F18008C8F8FA
:101D0000EC13BBD1049E96F86D35B3B9059B1F2B20
:101D100013D0D9F81030D9F80410174A1269196095
:101D200096F86C3514490133496803F01F0386F8AF
:101D30006C35116009B0BDE8F08FD6F8703501221E
:101D400086F86D25002BE4D0039A06F26440D10991
:101D50009847DEE7039BB2F5006FA3F50063B7BFBA
:101D6000039BD31803F500639B1A039395E700BF09
:101D700048110010E8100010001100106011001050
:101D800090F84C3403B9704770B504460023012124
:101D900000F1080500F5FE720371C0F8F0534171BF
:101DA000C0F8F4238371FFF7F1FD2379002B2BD0CA
:101DB000174D184EEA686968F368116072681A6016
:101DC00001E0A379DBB9237903F0FF02002BF8D0FF
:101DD00032697168104B116059681A690F4B1160B4
:101DE0005968DB682A69196069680D4B1160596888
:101DF0001A690C4B11605A68DB681A6070BDA271D9
:101E00002046FFF70BFFDEE72046FFF7AFFECFE7E8
:101E100030110010D0100010E81000101811001040
:101E2000481100107811001038B5324B00241846C4
:101E300031491C605C609C60DC601C615C6103F08B
:101E400033FA2E4B2E4918461C605C609C60DC60A7
:101E50001C615C6103F028FA2A4B2B4918461C6070
:101E60005C609C60DC601C615C6103F01DFA274BC8
:101E7000274918461C605C609C60DC601C615C61EA
:101E800003F012FA234B244918461C605C609C60E6
:101E9000DC601C615C6103F007FA204B20491846A6
:101EA0001C605C609C60DC601C615C6103F0FCF9A0
:101EB0001C4B1D4918461C605C609C60DC601C610A
:101EC0005C6103F0F1F9194B194D184619491C6072
:101ED0005C609C60DC601C615C6103F0E5F9284695
:101EE000FFF7F6FC2846BDE83840134A134905F0D1
:101EF00023B900BF3011001032C009204811001072
:101F000034C009206011001035C00920781100107C
:101F100037C00920D010001009C00920E8100010B7
:101F200008C009200011001007C009201811001076
:101F30005C0B001006C00920C80000103D1800000E
:101F400010B50C4698B060220549684606F0B2FD0F
:101F5000E4B218AB03EB840454F8600C18B010BD65
:101F600034A5000070B489B06C460E46074DF6B239
:101F70000FCD0FC495E80F0084E80F0008AB03EB0A
:101F8000860656F8200C09B070BC704794A5000076
:101F900070B586B06C46094DC1F30B0655F8800F3D
:101FA0000DF1180E6968AA68EB6876440FC42869B9
:101FB000696903C416F8180C06B070BD34A500009A
:101FC00070B586B06C46094DC1F30B0655F8980FF5
:101FD0000DF1180E6968AA68EB6876440FC4286989
:101FE000696903C416F8180C06B070BD34A500006A
:101FF000F0B585B0C9B106463048D0F8C4008500B8
:102000004FD42E4C2E4DD4F8C4002E4F40F000502B
:10201000C4F8C40001202863341F3E6006F11C0090
:10202000002644F8046F8442FBD1D60702D5264827
:1020300000240461900702D5244800240461570756
:1020400002D5234800240461160702D52148002444
:102050000461D50602D5204800240461940602D507
:102060001E4800240461500602D51D480024046166
:10207000120602D51B4A00201061114A93600A9B88
:10208000136161B11A2003F08FFA174B17491860DA
:102090001A2003F06BFA164B4FF080621A6005B0FD
:1020A000F0BD0748006BC407ABD5124803930292FA
:1020B000019103F0D5F801A90EC9A2E700C00F40B5
:1020C0000040005094110010004100502041005089
:1020D000404100506041005080410050A0410050FC
:1020E000C0410050E0410050901100100921000053
:1020F00000E100E0E4A5000008B5FFF733FF036945
:1021000043F00103036108BD2DE9F047DFF8B88112
:10211000D8F80030002B00F0C680684EDFF8A89198
:1021200000240127336807FA04F51D4259D073686B
:102130001D422BD0D8F8003053F82420002A5CD060
:10214000916A00204A6983F8504083F85100002AC0
:1021500000F08680086818B104319047D9F8003043
:102160005A6B002A00F08780186A20B103F124011D
:102170009047D8F8003072681846154218BFB5600D
:102180002146FFF7EFFE0369DA0738D4F3681D42F2
:1021900027D0D8F8003053F8242012B3D16A83F83E
:1021A00050404A6983F85170002A6CD0086818B111
:1021B00004319047D9F80030DA6C002A6CD0986B63
:1021C00020B103F13C019047D8F80030F26818467E
:1021D000154218BF35612146FFF7C4FE0369DB07CE
:1021E0001FD40134082C9DD1344C2368002B31D1ED
:1021F000324CE3683BBBBDE8F087F368F1E721466A
:10220000D8F80000FFF7AEFE8368002BBED1214650
:10221000D9F80000FFF7A6FE036923F0010303616C
:10222000B4E72146D8F80000FFF79CFE8368002B36
:10223000D7D12146D9F80000FFF794FE036923F0B7
:1022400001030361CDE71E4B1B689847FF23236101
:10225000BDE8F0871A4B1B689847FF23A360C7E7C8
:102260000A68002A3FF47CAF9047D9F800305A6BD7
:10227000002A7FF479AF1A6A002A3FF47CAF9047B6
:10228000D8F8003077E70A68002A95D09047D9F847
:102290000030DA6C002A92D19A6B002A96D09047CF
:1022A000D8F8003092E7064B1B681BB9054802F0CE
:1022B000D7FF32E7BDE8F047184700BF00400050A5
:1022C000901100100CA60000941100102DE9F843A5
:1022D0000C4609680646FFF745FE054622680123BD
:1022E00003FA02F1924802F00702C9B246F822400E
:1022F0008160216800228B40DBB20361EA602A61C1
:10230000236AAB606369052B00F20E81DFE813F0EE
:102310008400B600C100E800070106003046E3680B
:102320002B6023696B606368E169C3F30B07FFF7F8
:102330002FFEE16980463046FFF72AFE81464FEACC
:102340000838E16947F0044308F4E04730461F438A
:10235000FFF736FE804630464FEAC933E16903F4A1
:10236000603343EA0706FFF72BFE4FEA8842400539
:1023700002F4E01200F4600316431E43EE60A3690A
:102380006C480F2B61D9D0F8C421103B012101FA10
:1023900003F31343C0F8C431E36966480F2B62D9D5
:1023A000D0F8C421103B012101FA03F31343C0F814
:1023B000C4315F4B01211A461963136BDB07FCD54F
:1023C000A269E3690F2A616A88BF083A0F2B88BFA8
:1023D000083B59B10F29564E4FF0010088BF08390C
:1023E00000FA01F1706B89B20143716361695200B7
:1023F000081F012898BF023902F03E029B0142F4F7
:10240000404203F4F863C902134301F460510B43E3
:102410002B61E868BDE8F883E36846482B602369D0
:102420006B606268A368C2F30B02990442F00C422D
:1024300042F4103201F4E0115B050A4303F4600337
:102440001343EB60A3690F2B9DD8D0F8C421083B40
:10245000012101FA03F322EA0303C0F8C431E3695E
:1024600034480F2B9CD8D0F8C421083B012101FA35
:1024700003F322EA0303C0F8C4319AE7E368304665
:102480002B60E169FFF75CFD68606368E1693046D5
:102490004BE7A1693046FFF753FD286030462369BA
:1024A0006B606368A169C3F30B07FFF771FDA16956
:1024B00080463046FFF76CFD4FEA083847F0084386
:1024C000814608F4E047A16930461F43FFF778FDD5
:1024D0004FEAC933804603F460333046A16940E7D0
:1024E000A1693046FFF72CFD2860E1693046FFF70F
:1024F00027FD68606368A1693046C3F30B07FFF7E7
:1025000047FDE16980463046FFF742FD4FEA083853
:1025100047F00043814608F4E047A16916E7E36805
:1025200030462B602369BBE70020BDE8F88300BF7D
:102530000040005000C00F400346426808200A7067
:102540005A68C2404A70DA888A70DA79CA709A6822
:102550000A719A68C2404A715A898A71DB7ACB71D2
:10256000704700BF024610B40B78082053604C78C7
:1025700043EA042353608C7843EA04435360CC78E5
:1025800043EA046353600B7993604C7943EA042374
:1025900093608C7943EA04439360C97910BC43EAA1
:1025A00001639360704700BF00487047E4A60000D5
:1025B00000487047F4A600000048704718A70000C4
:1025C0000048704734A700000048704758A7000033
:1025D000004870476CA70000004870476CA80000D6
:1025E0000048704790A7000000487047B4A700005B
:1025F00000487047C4A7000000487047E8A70000E3
:102600000048704700A80000704700BFC06A7047CC
:1026100000487047E8A700000048704700A8000085
:1026200090F8FC05704700BFF0B40B780446436097
:102630004A7882B043EA022343608A7801F10F07A7
:1026400043EA02434360CA7843EA026343600B797A
:1026500083604A7943EA022383608A7943EA02432A
:102660008360CA7943EA026383600B7AC3604A7A63
:1026700043EA0223C3608A7A43EA0243C360CA7A08
:1026800043EA0263C360C8680190019E06F110002E
:10269000102809D93B4606F10F050D4413F8012F08
:1026A000AB4203F8012CF9D131440023CB732761ED
:1026B00002B0F0BC704700BFF0B40B7805468380D1
:1026C0004A7884B043EA02238380D1F802004F1D88
:1026D0000190019A961D062E08D93B46541D0C44C4
:1026E00013F8010F9C4203F8010CF9D18B1800205C
:1026F0005871AF60885904360290029B33449E4261
:1027000009D2304609320A4412F8014F013098428A
:1027100002F8014CF8D3013E0E44CA18002002F81A
:10272000010CEE6010681E1D039003983044864231
:1027300009D2324603330B4413F8014F013282426F
:1027400003F8014CF8D3013E0C180E44002304F8A2
:10275000013C2E61A37866780A5C1B04E17843EAA9
:102760000623134343EA016304306B6104B0F0BCF9
:10277000704700BF0B46F0B413F8012B06460271F8
:10278000186882B00190019D0F1D681D052808D9A9
:102790003B462C1D0C4413F8012FA34203F8012CD7
:1027A000F9D10D4400232B71B76002B0F0BC704723
:1027B00083882DE9F0410B70838884B01B0A4B702D
:1027C000064680680D4607F040F8044604AB43F81F
:1027D0000C0D18682246C5F80200B168A81D06F065
:1027E00069F9F06807F031F8804604AB43F8080D4A
:1027F0001868A31DE8500A34F1684246281906F00B
:1028000059F9306907F021F8074604AB43F8040D85
:102810001868444428510434316928193A4606F0AE
:1028200049F9736938192A182B541E0A1C0C190E01
:10283000043056709470D17004B0BDE8F08100BFD0
:10284000436870B50B70436882B01B0A4B70C38835
:1028500005468B70C3790C46CB7083680B71836817
:102860001B0A4B7143898B71C37ACB71C3680B729E
:10287000C3681B0A4B72C3898B72C37BCB7200691E
:1028800006F0E3FF064602AB43F8040D1868324633
:10289000E060296904F1100006F00CF906F110005F
:1028A00002B070BD2DE9F043037900240B704C7029
:1028B0008C70CC70037983B0002B68D00B46042554
:1028C000C268661C52F82420F4B24FEA122E170C8C
:1028D000160E1A7183F805E09F71DE7102790435D6
:1028E000A24203F10403EBD82B462A1D154603F13F
:1028F000010C03F1020EDF1C067C0024CE5401F80B
:102900000C4001F80E40CC55037CABB14B198269E9
:10291000661C52F82420F4B24FEA122E170C160E41
:102920004A5583F801E09F70DE70027C0435A242B4
:1029300003F10403EBD82A46067F4B1900248E547A
:102940005C709C70DC70037F2E1DE3B188460746E7
:102950007B6A06F1040953F8240006F076FF054669
:10296000019001982A4648F806007B6A08EB0900A6
:1029700053F8241006F09EF801343B7FE4B2A342E2
:1029800005EB0906E4D8304603B0BDE8F083082221
:10299000154607274FF0060E4FF0050C0423ABE752
:1029A00070B5037982B00B70064680680D4606F05C
:1029B0004CFF044602AB43F8040D18682246C5F8E4
:1029C0000100B168681D06F075F8601D02B070BDA9
:1029D0002DE9F04103790C7882B0A34205460E46FA
:1029E000C0F082802C71002C00F08780334605F106
:1029F0000807002004249A7993F805E01979120455
:102A000042EA0E2293F807E00A4342EA0E62AA6005
:102A1000D7F800E0EA68411C42F820E02A79C8B201
:102A2000824204F1040403F10403E4D8234616F8B7
:102A300003802B7C271D43453C4666D385F81080D8
:102A4000B8F1000F1FD005F11407331900209A7850
:102A500093F801E01978120442EA0E2293F803E099
:102A60000A4342EA0E626A61D7F800E0AA69411C93
:102A700042F820E02A7CC8B2824204F1040403F147
:102A80000403E4D82746F75D2B7FBB4244D3231DC4
:102A90002F772FB30027BC4605F1200EF0581C1DE0
:102AA000019001982044844209D2224603333344E2
:102AB00013F8011F0132824203F8011CF8D3013CD4
:102AC0003318344403F801CC2C626A6ADEF8001033
:102AD0007B1C42F827102A7FDFB2BA420346DDD8BA
:102AE000184602B0BDE8F081A100C06802F06AFBA0
:102AF0002C71E860002C7FF479AF042316F8038072
:102B00002B7C082743453C4698D24FEA8801A869A8
:102B100002F058FBA86191E7B900686A02F052FB25
:102B20006862B4E7836870B50B70836805461B0A5A
:102B30004B70438982B08B70C37A0C46CB70C368EC
:102B40000B71C3681B0A4B71C3898B71C37BCB713B
:102B500003690B7203691B0A4B72438A8B72C37C35
:102B6000CB72406906F071FE064602AB43F8040DD5
:102B700018683246E060696904F1100005F09AFFB8
:102B80002B7E344423746B7E06F114006374AB7E99
:102B9000A374EB7EE37402B070BD00BFF0B50B7898
:102BA000044643614A7800F10C0543EA022343617D
:102BB0008A7883B043EA02434361CA7801F10F0E79
:102BC00043EA026343610B7983614A7943EA022352
:102BD00083618A7943EA02438361CA7943EA0263E3
:102BE00083610B7AC3614A7A43EA0223C3618A7A1A
:102BF00043EA0243C361CA7A43EA0263C361C86815
:102C00000190019E06F11007102F09D9734606F1B5
:102C10000F00084413F8012F834203F8012CF9D167
:102C200028468B190022DA73C4F820E0CA5D84F8C4
:102C30002420597CA26A84F82510997C84F82610F7
:102C4000DB7C84F8273003B0BDE8F040104700BFBC
:102C50000B78F0B483604A78044643EA0223836029
:102C60008A7882B043EA02438360CA7801F10F0791
:102C700043EA026383600B79C3604A7943EA022323
:102C8000C3608A7943EA0243C360CA7943EA0263B4
:102C9000C3600B7A03614A7A43EA022303618A7AAA
:102CA00043EA02430361CA7A43EA02630361C868E4
:102CB0000190019800F11006102E09D93B4600F151
:102CC0000F050D4413F8012FAB4203F8012CF9D185
:102CD0000B180022DA7367618A5D143022765A7C01
:102CE00062769A7CA276DB7CE37602B0F0BC704719
:102CF0002DE9F041632984B003DD90F8FC55002DE7
:102D00004AD006461368884610461B6806F22731EB
:102D10009847C4B2C0F307216218D24380B286F844
:102D20002243FF2406F2253700F2263586F82423B5
:102D300086F82043FE225FFA88F448F3072886F8D5
:102D400021233B4686F82313354486F8254386F82D
:102D50002683002201E013F8014FAB422244FAD14E
:102D6000D243C31D00F108059BB2ADB23344B5F5A3
:102D7000007F83F8202313D806F5487765B16B1ED2
:102D80001F4406F1440806F21F3414F8011F4046A0
:102D900004F0D2F8A742F8D1284604B0BDE8F0818B
:102DA0003049314C03223368019103948DF8082097
:102DB0001B682E498B424DD104AB382143F8101DBE
:102DC000186886F82723C6F8280304F1300C06F5A6
:102DD0004B75A646BEE80F00E64528606960AA600C
:102DE000EB6004F1100405F11005F2D103CC4FF0B3
:102DF000000E286069604FF0070CC221FF25FE24F9
:102E00003D2086F824137346624686F823E386F84D
:102E100026E386F825C386F8205386F8214386F8F2
:102E2000220306F2633101E017F8012F8F421344A9
:102E3000FAD1DB4306F1440786F8643306F21F3506
:102E400006F5597415F8011F384604F075F8AC42C0
:102E5000F8D103E0304601AA072198474FF0FF352B
:102E60009AE700BF60A6000024A80000F12C000033
:102E70002DE9F0410D464A4C002211462046FDF74F
:102E800071FD95F91B007F3004F04AFE014604F005
:102E900093FD04F0D5FA3CA3D3E9002304F04EFCE3
:102EA0000022404B04F06CF904F030FD804695F9A7
:102EB00019007F3004F034FE4FF07D5104F084FEA1
:102EC00004F0BEFA30A3D3E9002304F037FC00225B
:102ED000002304F057F904F019FD074695F918008E
:102EE0007F3004F01DFE304904F06EFE04F0A8FAB5
:102EF00025A3D3E9002304F021FC25A3D3E9002373
:102F000004F040F904F002FD064695F91A007F30FE
:102F100004F006FE254904F057FE04F091FA1AA3C6
:102F2000D3E9002304F00AFC1BA3D3E9002304F037
:102F300029F904F0EBFC002201462046FDF718FDBC
:102F4000414620460022FDF719FD39462046002261
:102F5000FDF71AFD304604F073FA02460B4604F002
:102F600011F902460B4600200E4904F0E7FB04F07D
:102F7000CDFC3146024600232046BDE8F041FDF776
:102F800009BD00BFAFF300800000000000C06F402B
:102F9000000000E0F032AE3E000000A09999C93F69
:102FA000EC0100100000F03FA3E73B359A99193F70
:102FB00001460148FFF75CBF981100102DE9F04F62
:102FC0000746C14BC14991B0002200F5B06800F23C
:102FD0001C5B0A910C930D930E93ADF82C200F926D
:102FE000CDF804805BF8043F002B00F0BD805868EA
:102FF0001C6801689A680C948B68ADF82C2098477F
:10300000DBF800300D9058680368DB6898473B6830
:10301000DBF800104FF400720E901B680E690F92DF
:10302000AB4A8146934240F08B81632E04DD97F8D2
:10303000FC35002B00F09880BDF82C300C9D1A0A4E
:1030400087F8273387F82823284606F0FEFB044636
:1030500010AB43F82C0D186829462246C7F82903FF
:1030600007F22D3005F026FD0D9D10AB284600938C
:1030700006F0EBFB07F2273E034629467546009A09
:10308000069052F8280D02930092A21D0A344EF8C1
:1030900002001A46281905F00DFD484606F0D5FB3A
:1030A0008246029B07900DF14008234458F8240DF6
:1030B0001C1DE85049465246281905F0FBFC0AEB56
:1030C0000400011D5FFA81FAC1F307290AEB090E1A
:1030D0006FEA0E0E00242C5405EB000C89B202207E
:1030E0008CF802408CF803408CF8010007F225337D
:1030F000224601F22630FF2487F824E3FE255FFAFA
:1031000086FE46F30726029387F822A387F82393C7
:10311000384487F8204387F8215387F825E387F858
:10312000266301E013F801EF98427244FAD1D243CA
:10313000C81D01F1080380B29BB23918B3F5007FB6
:1031400081F8202300F21D8107F5487563B1013B2A
:103150001D4407F1440607F21F3414F8011F3046DE
:1031600003F0EAFEA542F8D1019B9B457FF43AAFFC
:10317000984607F2E453019358F8040F002800F032
:10318000D5808268036841680C929A68ADF82C106B
:1031900050498A4240F0EF804F4A0D92DA684F4919
:1031A0008A4240F0E2804E4A39680E924FF4007233
:1031B0005B680C680F924B4A934240F0D380C66A1A
:1031C000DFF80CA1544540F0C480632E04DD97F86D
:1031D000FC35002B00F0AA80BDF82C300C9D1A0A9B
:1031E00087F8273387F82823284606F02EFB044665
:1031F00010AB43F82C0D186829462246C7F829035E
:1032000007F22D3005F056FC0D9D10AB28460093BB
:1032100006F01BFB07F2273E034629467546009A37
:10322000069052F8280D03930092A21D0A344EF81E
:1032300002001A46281905F03DFC0E990DF14009CF
:103240000846029106F001FB8346039B0790234446
:1032500059F8240D1C1DE8505A462819029905F00A
:1032600029FC0BEB0400021D5FFA82FBC2F3072C62
:103270000BEB0C04E4430F9905EB000E2954080AEC
:103280008EF8010092B2080C090E8EF802008EF83A
:10329000031007F22533FE2102F22630FF2587F8BE
:1032A0002443F4B246F3072687F82113029387F8E4
:1032B00022B387F823C3384487F8205387F825437F
:1032C00087F82663002111E05CA8000048A60000F2
:1032D000F12C000011260000E8A7000019260000CC
:1032E00000A800000D26000013F8014F9842214469
:1032F000FAD1C943D01D02F1080380B29BB23A183B
:10330000B3F5007F82F8201300F2998007F5487525
:1033100063B1013B1D4407F1440607F21F3414F862
:10332000011F304603F008FEA542F8D1019B43453A
:103330007FF422AF012387F8FC3511B0BDE8F08F90
:1033400031460AAA38469847019B9B457FF44AAE0E
:103350000EE731460AAA3846A047019B43457FF451
:103360000BAFE7E7984706462AE790470246D8F8AA
:103370000000036818E790470246D8F80000036889
:103380000BE761490322079160493B6809918DF879
:1033900020201B685E498B4240F0AC8038230693A6
:1033A000009B5A4C186887F82723C7F8280304F1B4
:1033B000300E07F54B7526460FCE764528606960BE
:1033C000AA60EB6004F1100405F11005F3D103CC01
:1033D000029B28606960FF20FE2100264FF0070E47
:1033E00087F8200387F821133D20C22187F8241392
:1033F0003246744687F8236387F8266387F825E307
:1034000087F8220307F2633101E013F8014F994274
:103410002244FAD1D24307F1440687F8642307F225
:103420001F3407F5597514F8011F304603F084FD69
:10343000AC42F8D1019B9B457FF4D4AD98E632496C
:10344000324C03223B68079109948DF820201B68B9
:10345000534554D138230693009B87F827231868D7
:1034600004F1300EC7F8280307F54B7526460FCE3A
:10347000764528606960AA60EB6004F1100405F1EC
:103480001005F3D103CC029B28606960FF20FE2168
:1034900000264FF0070E87F8200387F821133D2000
:1034A000C22187F824133246744687F8236387F8CD
:1034B000266387F825E387F8220307F2633101E0EA
:1034C00013F8014F8B422244FAD1D24307F144064C
:1034D00087F8642307F21F3407F5597514F8011FA4
:1034E000304603F029FDA542F8D1019B43457FF406
:1034F00043AE1FE7424607213846984734E64A461E
:1035000007213846984711E760A6000024A800006C
:10351000F12C00002DE9F04F00F58273044687B0CE
:103520001846019303F09AFD42F6F822D4F80436C7
:103530000646C31A934284BF002384F8FC35D4F8AE
:10354000E83533B1D4F8083683423CBF0023C4F8D1
:10355000E835DFF8F083251D284601F04BFC814655
:1035600070B194F8FC0540B140F6C412D4F80036AE
:10357000F31A934200F27481002007B0BDE8F08F87
:103580000121284601F082F90028EADBD4F8F83559
:10359000D4F8E8750344072FC4F8F83500F0AB8081
:1035A00057B9FF2840F0BB80012206F11403C4F88C
:1035B000E825C4F80836CFE7012F00F0BE80022FBF
:1035C00000F01481032F00F01B81042F00F02281F2
:1035D000052F00F02E81062F00F03381082FBBD17C
:1035E000D44A00211A408A42C4F8E815C0F29C81EE
:1035F000FF2AB1D1D4F8F035002B00F0A0820A2BBD
:1036000000F06082062B00F0A8810B2B00F0A18156
:1036100004EB8303D3F8F423002A9DD01368C64833
:103620001B6804F59071834240F0868294F8203143
:1036300002F10C07536194F8210104F22F1943EAB7
:103640000023536194F8220143EA0043536194F844
:10365000230143EA0063536194F82431936194F8A1
:10366000250143EA0023936194F8260143EA0043CD
:10367000936194F8270143EA0063936194F8283139
:10368000D36194F8290143EA0023D36194F82A0115
:1036900043EA0043D36194F82B0143EA0063D3610A
:1036A000D4F82C010390DDF80CE00EF1100ABAF109
:1036B000100F09D94B460EF10F0C8C4413F8010F73
:1036C0009C4503F8010CF9D101EB0E030020D873DF
:1036D000C2F8209011F80A10384682F824105F7C56
:1036E000916A82F825709F7C82F82670DB7C82F8D4
:1036F0002730884730E7D4F8F4355A1C2344C4F8FF
:10370000F42583F82001D4F8EC35013BC4F8EC35FE
:10371000002B7FF421AF0823C4F8E8351CE701989B
:1037200003F09CFC801B05287FF616AF6FF00100AC
:1037300084F8FC7507B0BDE8F08FFE2875D094F8CA
:10374000FC35C4F8E895002B7FF406AF7B4922686E
:10375000039117687A4A04939742059340F0DA8000
:103760000A201A4601464FF0FF0E84F8273384F8EA
:10377000283384F8293384F82A3384F82B3384F8E7
:103780002C3384F82D3384F82E3384F8233384F8D3
:103790002633FE27F72384F82503082084F8220324
:1037A00084F8243384F820E384F8217304F2253369
:1037B00004F22E3001E013F8011F98420A44FAD1B6
:1037C000D24304F1440A84F82F2304F21F3704F291
:1037D0002F3917F8011F504603F0AEFB4F45F8D1C3
:1037E000019803F03BFCC4F81401B5E60323C4F8C8
:1037F000EC05C4F8F495C4F8F805C4F8E835ABE670
:10380000D4F8EC35042203EB0020C4F8EC05C4F82E
:10381000E825A1E6474A1A40002A76DBFF2A0CBFBA
:1038200005230023C4F8E83596E60223C4F8E835FA
:1038300092E60623C4F8F005C4F8F805C4F8E835A4
:103840008AE6D4F8F035D4F8EC2503EB0023072101
:10385000C4F8F035C4F8E815002A3FF45CAF7BE605
:10386000364A236803921D68354A00239542049323
:10387000059369D10A201A4601464FF0FF0E84F8DD
:10388000273384F8283384F8293384F82A3384F8DA
:103890002B3384F82C3384F82D3384F82E3384F8BA
:1038A000233384F82633FE25F72384F825030820E4
:1038B00084F8220384F8243384F820E384F8215325
:1038C00004F2253304F22E3001E013F8011F834285
:1038D0000A44FAD1D24304F1440984F82F2304F2B4
:1038E0001F3504F22F3815F8011F484603F024FB5A
:1038F000A845F8D1019803F0B1FBC4F814010020E9
:10390000C4F8006607B0BDE8F08F013A62F0FF022C
:10391000013283E703AA0A212046B847019803F041
:103920009DFBC4F8140117E6013A62F0FF02013270
:103930005EE600BFFF0000809D2B000030A6000067
:10394000F12C0000D34D621003AA0A212046A8479B
:10395000D0E7002384F8FC35FEE594F8207194F854
:10396000143604F59079BB4206D2B900D4F81C068F
:1039700001F028FCC4F81C0684F81476002F00F02F
:10398000F780484604F5C36E04270021837990F838
:1039900005C002791B0443EA0C2390F807C01343C7
:1039A00043EA0C63C4F81836DEF80020D4F81C365D
:1039B000043743F8212094F814360131C9B28B4200
:1039C00000F10400E2D807F1040A3B46574619F813
:1039D00003B094F820365B4507D24FEA8B01D4F848
:1039E000280601F0EFFBC4F8280684F820B6BBF1E6
:1039F000000F22D004F2246E09EB07000021837827
:103A000090F801C002781B0443EA0C2390F803C02D
:103A1000134343EA0C63C4F82436DEF80020D4F8DC
:103A20002836043743F8212094F820360131C9B2F2
:103A30008B4200F10400E2D8BA4619F80AA094F8C3
:103A40002C36534507D24FEA8A01D4F8340601F0E8
:103A5000B9FBC4F83406043784F82CA6BAF1000F79
:103A60002CD000218C4604F5C66E59F8070007F1EA
:103A7000040A0390039A5244924509D25046FB1C13
:103A80004B4413F8017F0130904203F8017CF8D3D6
:103A90000AF1FF334B4409EB020000F801CCC4F8F3
:103AA0003036DEF80000D4F83436174643F82100EB
:103AB00094F82C360131C9B28B42D6D8012384F850
:103AC0000C3649E5DDF804B0DFF8B8A0584603F03D
:103AD000C5FAD4F81471D4F82431C71B58469A4457
:103AE000D4F8209103F0BAFAA8FB073EA8FB001215
:103AF0004FEA9E1E4FF47A7303FB1E7791091F4A0B
:103B000003FB110302FB07A21C4F09F1FF3907FB5E
:103B10001323F144C1EB0902C4F81C31C4F8182185
:103B200004F58E7104F58C7000F09CFE584603F08D
:103B300095FAC4F804060FE5104698470CE51049BD
:103B40002268039104930A2105932046136803AA6F
:103B50009847019803F082FAC4F814012046FFF751
:103B60002DFAC4F80066C4F804664FF0FF3004E58F
:103B70004FF0080A5746042329E700BF40420F00D0
:103B800030A6000000CA9A3B2DE9F04F0446D0F859
:103B90008426D0F88836D1685568DA680D6059688F
:103BA000D0F88C36116059681A69D0F890361160D7
:103BB0005A681B6985B01A6003F062FA204603F068
:103BC00033FADFF8208404F58C730193257C002DF3
:103BD00075D1019803F042FA42F6F822D4F818366B
:103BE0000646C31A9342D4F8FC3588BF84F81056B1
:103BF00033B1D4F81C36984284BF0023C4F8FC3596
:103C000004F11805284601F0F5F88146002870D027
:103C100094F81036002BD9D040F6C412D4F81436DC
:103C2000F31A9342D2D900230A201A464FF0FF0C10
:103C30004FF0FE0E84F83B3384F83C3384F83D3378
:103C400084F83E3384F83F3384F8403384F84133BA
:103C500084F8423384F8373384F83A330825F7235D
:103C6000014684F8390384F8383384F834C384F87F
:103C700035E384F8365304F2393304F2423001E07C
:103C800013F8011F83420A44FAD1D24304F1580ABF
:103C900084F8432304F2333504F2433915F8011F45
:103CA000504603F049F94D45F8D1019803F0D6F993
:103CB000257CC4F81466C4F82801002D89D020465C
:103CC00003F0BEF9D4F88426D4F888361169506818
:103CD0001A6908605968D4F88C36116059681A69F5
:103CE000D4F8903611605A681B691A6005B0BDE8B7
:103CF000F08F0121284600F0C9FD002888DBD4F8A8
:103D00000C36D4F8FC750344072FC4F80C3600F0C9
:103D1000AE8057B9FF2840F0BE80012206F114039F
:103D2000C4F8FC25C4F81C366CE7012F00F0BD80F8
:103D3000022F00F00A81032F00F01181042F00F000
:103D40001881052F00F02481062F00F02981082F0B
:103D50007FF458AFA14A00211A408A42C4F8FC15EA
:103D6000C0F23281FF2A7FF44DAFD4F80436002B25
:103D700000F02C820A2B00F0EC81062B00F034813D
:103D80000B2B00F0268104EB8303D3F80824002AD0
:103D90003FF438AF136892481B6804F59A71834268
:103DA00040F0118294F8343102F10C07536194F819
:103DB000350104F2431943EA0023536194F83601B4
:103DC00043EA0043536194F8370143EA00635361C7
:103DD00094F83831936194F8390143EA00239361F0
:103DE00094F83A0143EA0043936194F83B0143EAB3
:103DF0000063936194F83C31D36194F83D0143EA48
:103E00000023D36194F83E0143EA0043D36194F860
:103E10003F0143EA0063D361D4F840010390DDF829
:103E20000CE00EF1100ABAF1100F09D94B460EF151
:103E30000F0C8C4413F8010F9C4503F8010CF9D1C9
:103E400001EB0E030020D873C2F8209011F80A107D
:103E5000384682F824105F7C916A82F825709F7C36
:103E600082F82670DB7C82F827308847CAE6D4F8CF
:103E700008365A1C2344C4F8082683F83401D4F8C1
:103E80000036013BC4F80036002B7FF4BBAE08239C
:103E9000C4F8FC35B6E6019803F0E0F8801B05286D
:103EA0007FF6B0AE84F8107690E6FE286CD094F8D9
:103EB0001036C4F8FC95002B7FF4A4AE0A201A46F5
:103EC0004FF0FF0C4FF0FE0E84F83B3384F83C3388
:103ED00084F83D3384F83E3384F83F3384F840332C
:103EE00084F8413384F8423384F8373384F83A3322
:103EF0000827F723014684F8390384F8383384F817
:103F000034C384F835E384F8367304F2393304F2A9
:103F1000423001E013F8011F98420A44FAD1D2431B
:103F200004F1580A84F8432304F2333704F2433986
:103F300017F8011F504602F0FFFF4F45F8D10198D6
:103F400003F08CF8C4F828015CE60323C4F80006EB
:103F5000C4F80896C4F80C06C4F8FC3552E6D4F848
:103F60000036042203EB0020C4F80006C4F8FC2548
:103F700048E61A4A1A40002A21DBFF2A0CBF052313
:103F80000023C4F8FC353DE60223C4F8FC3539E6CD
:103F90000623C4F80406C4F80C06C4F8FC3531E660
:103FA000D4F80436D4F8002603EB00230721C4F824
:103FB0000436C4F8FC15002A3FF469AF22E6013A42
:103FC00062F0FF020132D8E7013A62F0FF020132EB
:103FD000C8E6002384F8103614E600BFFF00008016
:103FE0009D2B0000D34D621094F8347194F828365C
:103FF00004F59A79BB4206D2B900D4F8300601F034
:10400000E1F8C4F8300684F82876002F00F02B8100
:10401000484604F22C6E04270021837990F805C0ED
:1040200002791B0443EA0C2390F807C0134343EAC8
:104030000C63C4F82C36DEF80020D4F83036043790
:1040400043F8212094F828360131C9B28B4200F19F
:104050000400E2D807F1040A3B46574619F803B0BA
:1040600094F834365B4507D24FEA8B01D4F83C060E
:1040700001F0A8F8C4F83C0684F834B6BBF1000F90
:1040800022D004F5C76E09EB07000021837890F871
:1040900001C002781B0443EA0C2390F803C01343C9
:1040A00043EA0C63C4F83836DEF80020D4F83C3616
:1040B000043743F8212094F834360131C9B28B42D9
:1040C00000F10400E2D8BA4619F80AA094F8403684
:1040D000534507D24FEA8A01D4F8480601F072F836
:1040E000C4F84806043784F840A6BAF1000F2CD073
:1040F00000218C4604F2446E59F8070007F1040AC7
:104100000390039A5244524509D95046FB1C4B4434
:1041100013F8017F0130824203F8017CF8D80AF1DC
:10412000FF334B4409EB020000F801CCC4F84436DD
:10413000DEF80000D4F84836174643F8210094F81A
:1041400040360131C9B28B42D6D8012384F82036DB
:1041500058E5DDF804B0DFF81CA1584602F07EFFF8
:10416000D4F82871D4F83831C71B58469A44D4F88B
:10417000349102F073FFA8FB073EA8FB00124FEA40
:104180009E1E4FF47A7303FB1E779109384A03FB96
:10419000110302FB07A2364F09F1FF3907FB132376
:1041A000F144C1EB0902C4F83031C4F82C2104F504
:1041B000987104F5967000F055FB584602F04EFFDA
:1041C000C4F818061EE5104698471BE50A2519464F
:1041D00084F83B3384F83C3384F83D3384F83E3331
:1041E00084F83F3384F8403384F8413384F8423311
:1041F00084F834234FF0FE0E082284F8373384F815
:104200003A33F72384F8362384F83833284684F881
:10421000395384F835E304F2393304F2423201E0D1
:1042200013F8010F93420144FAD1C94304F1580A2B
:1042300084F8431304F2333504F2433915F8011FAF
:10424000504602F079FE4D45F8D1019802F006FF84
:10425000C4F8280104F11400FEF7B0FEC4F8146697
:10426000C4F81866B2E44FF0080A57460423F5E68E
:1042700040420F0000CA9A3BF0B5514EADF23C6D82
:10428000504A51490023054601A8009600F088FDD8
:1042900041A802F0B9FE4FF4614341A8409302F0F7
:1042A000C3FE4A4900231A468DF8FC358DF81436B2
:1042B000CDF81C368DF82036CDF828368DF82C3602
:1042C000CDF83436CDF810160DF21C530DF5B0674D
:1042D00043F8042FBB42FBD13B460DF2E4510022D0
:1042E00043F8042F9942FBD10DF21F120DF21F3338
:1042F000002102F8011F9342FBD10DF21F51002251
:1043000003F8012F8B424FF00004F9D1409901A826
:1043100002F074FD2346CDF8E845CDF8EC45CDF824
:10432000F445CDF8F04502E00133192B0CD057F8D5
:10433000042F002AF8D10DEB830205F24C6164339F
:10434000C5F85036C2F88415182002F0FCFE044669
:104350000027076047608760C760076147611C49A5
:1043600000F090FF3946C5F87C46204601F09EF9E2
:10437000582002F0E8FE0446154902F05FFB204693
:10438000C5F88046134902F081FBD5F88426D5F89C
:104390008836D16850681A6908605968D5F88C3633
:1043A000116059681A69D5F8903611605A681B690E
:1043B00001A81A60009600F095FC0DF23C6DF0BD6E
:1043C000C0A6000003C0092002C0092078A6000092
:1043D00040C0092009260000F8B5054602F014FE89
:1043E000564B0024564A57496B6105F58C76234697
:1043F0002C7405F1180000F0D3FC304602F004FEE6
:104400004FF46143C5F81431304602F00DFE2146E9
:104410004D4B85F81046C5F8243685F82846C5F872
:10442000304685F83446C5F83C4685F84046C5F820
:10443000484605F5A66205F2945342F8041F9342DC
:10444000FBD105F5BF61002243F8042F8B42FBD15D
:1044500005F2331205F23333002102F8011F9342B3
:10446000FBD105F23351002203F8012F8B424FF0AC
:104470000004F9D1354B364A3649374F374E384864
:10448000C5F84C360123C5F85426C5F87836C5F86A
:104490005C66C5F86C06C5F87416C5F86046C5F8C4
:1044A0006446C5F8684685F8704685F8714685F813
:1044B000724685F87346C5F85876182002F043FE18
:1044C00006462849046044608460C4600461446115
:1044D00000F0EAFEC5F88466182002F034FE0646B5
:1044E0002149046044608460C4600461446100F058
:1044F000DBFEC5F88866182002F025FE06461B493B
:10450000046044608460C4600461446100F0CCFED7
:10451000C5F88C66182002F016FE064614490460A1
:1045200044608460C4600461446100F0BDFE2846BC
:10453000C5F89066FFF7A0FE2846F8BDC0A60000AB
:1045400003C0092002C0092078A60000D4A60000FC
:1045500060A80000B12F0000A8A6000090A60000EF
:104560005CA8000032C0092034C0092035C00920F1
:1045700037C0092010B5054C2046FFF72DFF204617
:10458000BDE81040024A034902F0D6BD9811001060
:10459000C80000109945000010B50446034B1830C0
:1045A000636100F09FFB204610BD00BFC0A6000065
:1045B00038B50446054B00F120050362284602F099
:1045C00003FD284602F07EFD204638BD80AD000088
:1045D00070B5044615460E46002940D0A661002D50
:1045E0002ED06561182002F0AEFD06460025234955
:1045F000056045608560C5600561456100F042FE6B
:1046000030462946E66101F051F81D4B1D49A36370
:1046100004F1200084F85050E56402F0DDFC626D86
:10462000A36DD16850681A6908605968E36D11601C
:1046300059681A69236E11605A681B691A6070BD47
:10464000582002F080FD054600230F4A0F4902F072
:10465000F5FB28464FF4E13102F0D0FBC1E75820CA
:1046600002F071FD06460023094A0A4902F0E6FB02
:1046700030464FF4E13102F0C1FBAFE740C0092002
:1046800009260000404B4C0003C0092002C009204D
:1046900010C009200FC009202DE9F0410546002473
:1046A00090460F4602F0B0FC2C7405F1200002F099
:1046B000F5FC224BAC632B62EC64182002F043FD46
:1046C00006461F49046044608460C460046144611C
:1046D00000F0EAFD6E65182002F035FD0646194926
:1046E000046044608460C4600461446100F0DCFDE7
:1046F000AE65182002F027FD0646134904604460A9
:104700008460C4600461446100F0CEFDEE65182051
:1047100002F019FD0646046044608460C4600461D0
:1047200044610A4900F0C0FD28462E6642463946DB
:10473000FFF74EFF2846BDE8F08100BF80AD0000C6
:1047400032C0092034C0092035C0092037C00920F3
:1047500010B5064C002211462046FFF79DFF20466B
:10476000BDE81040024A034902F0E6BC2C180010D4
:10477000C8000010B14500002DE9F047D0F808A0AE
:10478000054650460C4602F05BFE02460B460646C6
:104790000F4602F0F7FC80462046894602F050FEA4
:1047A0000022254B02F0ECFC02460B4640464946EF
:1047B00002F09AFE03F0AAF80AF100484146814649
:1047C00003F0A0FB08B3404602F03AFE06460F464F
:1047D00017A3D3E900233046394602F0D3FC03F097
:1047E00095F80146284601F01BFB0021204603F006
:1047F00089FBB0B94FF07E51204603F0A1FB08B110
:104800004FF07E542C61BDE8F0875046494603F0D6
:1048100079FB0028DCD1484602F012FE06460F461E
:10482000D6E700242C61BDE8F08700BFAFF300801D
:10483000FA7E6ABC7493583F0000E03F10B504460E
:1048400001F052FA054A064B2046A260E3604FF0A1
:104850007C51FFF791FF204610BD00BF6F12033A55
:104860000000344210B40C68064A630AA2FB03231A
:10487000054ADB0902FB134204682344036010BCB1
:104880000A607047834B040000CA9A3BC36F70B53F
:10489000002B2DD0426E002A2AD000292FD0D0F82C
:1048A0008430002BFBD0436F0446D55C436FEDB2E0
:1048B00001334367426FC36F9A42A4BF002343672B
:1048C000D0F88420C36F9A4209D0C36D5E685A68DD
:1048D00022F001025A6000F0AFF8E36D5E6072B63C
:1048E000D4F88430013BC4F8843062B6284670BDE9
:1048F000C26D137DDB07FCD51078C0B270BDD0F857
:104900008430002BCFD14FF0FF3070BD4B68DA07F9
:1049100005D55B100A68C15818448A5810470A68C0
:1049200000EB6300104700BF012100F03FB900BF5A
:10493000F8B5044690F8F85001266BB25B0905F013
:104940001F05384F203306FA05F547F82350164661
:104950000D4600F0D7FAE36DA465002B5ED0002E63
:10496000E66747DDE06F00F027FC0021E166606646
:104970006167C4F88410C4F88C10002C42D02A4A15
:104980002A4B261D2261E4606161236230460122C8
:1049900001F08CFC002DC4F880503DDDD4F880007F
:1049A00000F00AFC224900232367A066A367C4F82D
:1049B0008830C4F89030F9B1F4B11C4D0122A162E5
:1049C0006462E3623046A563114601F06FFC204645
:1049D00000F0C4FA94F8F83001215AB203F01F0332
:1049E00001FA03F30F480021520984F8941040F8AB
:1049F0002230F8BD0020B8E730460022012101F046
:104A000055FCE4E7042630462246214601F04EFCE0
:104A1000002DC4F88050C1DC0020C3E7054800F039
:104A20001FFCD4E700E100E0394A00000D49000016
:104A30002949000088A80000C36D70B5002B4ED036
:104A4000C26F002A4BD0426E002A48D0044600F1C3
:104A50005805002620E0626E8AB1E16E94F861305C
:104A6000DBB25354D4F884300133C4F88430E36E9D
:104A70000133E366E26EE36F9A42A8BFE666D4F8BC
:104A80009830002B34D02846984794F8942094F816
:104A900061309A421CD0E36D1A7DD00738D51B785F
:104AA000DBB284F86130D4F88420E36F9A42D2D12B
:104AB00094F86130D4F8B820DBB2C4F88C307AB303
:104AC0002846904794F8942094F861309A42E2D1B5
:104AD000D4F8E830002B48D028469847DBE7D0F8D8
:104AE000983000F1580183B3BDE87040084618477C
:104AF000D4F89C000028C8D0D4F8A020D4F8A43062
:104B00003AB1D90707D400EB630029469047BCE7C8
:104B100070BDD907B9D55B10C15818448A58F4E75D
:104B2000D4F8BC30002BB0D0D4F8C020D4F8C400E6
:104B300022B1C10704D403EB6000E6E7C107A4D5A6
:104B40004010195818448A58DFE7D0F89C30002BE1
:104B5000DED0D0F8A020D0F8A4001AB3C40714D433
:104B600003EB6000BDE870401047D4F8EC0000286B
:104B700091D0D4F8F020D4F8F4305AB1D9070CD43D
:104B800000EB63002946904785E740101C58184405
:104B9000A258E7E7D9077FF57EAF5B10C1581844EC
:104BA0008A58EFE7C507F0D470BD00BFC36D2DE98B
:104BB000F04113B3D0F88030FBB1836EEBB10E46F9
:104BC0000446002700F15805D4F888301BB1E26D87
:104BD000137D98061AD4D4F88830002B33D1E26DB7
:104BE00004F15800536823F002035360D4F8D8301E
:104BF000002B4BD0BDE8F0411847D0F8A83000F1A9
:104C0000580113B3BDE8F04108461847A36FA16EE1
:104C1000CB5CDBB284F860301370D4F88830013B91
:104C2000C4F88830A36F0133A367A26FD4F8803033
:104C30009A4200DBA767002EC6D0D4F8A830ABB1EB
:104C400028469847C0E7BDE8F081D0F8AC30002B8B
:104C5000F9D0D0F8B020D0F8B400002A3AD0C40778
:104C600027D403EB6000BDE8F0411047D4F8AC0056
:104C70000028A9D0D4F8B020D4F8B430F2B1D907C4
:104C80001ED400EB6300294690479DE7D4F8DC3042
:104C9000002BD8D0D4F8E050D4F8E420F5B1D107F7
:104CA00013D403EB6203014618462B46BDE8F041DE
:104CB000184740101C581844A258D4E7D90783D588
:104CC0005B10C15818448A58DDE7521099581344B4
:104CD0004D59E8E7C507ECD4BDE8F081D407F4D41A
:104CE000BDE8F081F8B5044690F8F820144D53B2B1
:104CF000406E01215B0902F01F02124E01FA02F21E
:104D000005F11807203305F14C0125602764616423
:104D100046F8232008B100F05BFAA06E08B100F05D
:104D200057FA094B04F1400003F1180103F14C025A
:104D300023602164626402F0EDF82046F8BD00BFF4
:104D4000C0A8000000E100E0DCAC0000A0F14000E1
:104D5000FFF7C8BFA0F14400FFF7C4BF10B5044679
:104D6000FFF7C0FF204602F0ECF9204610BD00BF5F
:104D7000A0F14400FFF7F2BFA0F14000FFF7EEBF43
:104D80000121FFF783BD00BFA0F14000F8E700BF9D
:104D9000012200F035B800BFA0F14000F8E700BFE5
:104DA00038B50446154602F049F8114B002103F1CD
:104DB00018000A46A16503F14C0123606164206478
:104DC00004F1A80304F5847143F8102C43F80C2C6B
:104DD00043F8082C43F8042C10338B42F4D14FF4E1
:104DE000807220462B461146FFF7A2FD204638BDB3
:104DF000C0A80000D0F88400B0FA80F040097047E5
:104E0000836E70B5044613B1D0F880303BB9E26DC3
:104E1000137D9E06FCD5C9B21170002070BDC36D14
:104E2000187D850605D5D4F8880010B9C9B2197067
:104E300070BD0D46C2B15E685A6822F002025A6027
:104E4000D4F88820D4F880309A4209D10021204635
:104E5000FFF7ACFED4F88820D4F880309A42F5D021
:104E6000E36D5E60E36D05E0D4F88810D4F880202F
:104E7000914220D05A68E9B222F002025A60236FB0
:104E8000A26ED15472B6D4F888300133C4F8883099
:104E900062B6236F002001332367226FD4F880307D
:104EA0009A42A8BF0023E26DA8BF2367536843F06E
:104EB0000203536070BDD4F8C830C4F8905004F1B8
:104EC00058001BB198474FF0FF3070BDD4F8CC208C
:104ED000AAB1D4F8D050D4F8D43075B1D90707D4DA
:104EE00002EB630301461846A8474FF0FF3070BD40
:104EF0005B10D15813444D59F4E7DC07F8D44FF058
:104F0000FF3070BD8368032B1BD8DFE803F0140E5D
:104F100008020E4A0823C26580F8F83070470C4A30
:104F20000723C26580F8F83070470A4A0623C26535
:104F300080F8F8307047084A0523C26580F8F830D9
:104F400070470023C36580F8F830704700C00940FF
:104F5000008009400000014000C00040C36D0722EE
:104F60001A72704710B5044690F91B0002F056FA09
:104F70000022224B02F006F90022214B02F0B4FA83
:104F800002F0C4FC01461F4800F01EFF94F91A000D
:104F900002F044FA0022194B02F0F4F80022184BF8
:104FA00002F0A2FA02F0B2FC0146174800F00CFF32
:104FB00094F9190002F032FA0022104B02F0E2F8E4
:104FC00000220F4B02F090FA02F0A0FC01460F48BD
:104FD00000F0FAFE94F9180002F020FA0022074BC4
:104FE00002F0D0F80022064B02F07EFA02F08EFCAE
:104FF000BDE810400146064800F0E6BE00006040F3
:105000000000703FC8180010081F00109018001012
:10501000101F0010F8B53C4C3C4A20463C49002388
:1050200040F8042B3B4AFFF7BBFE04F5827001F009
:10503000EBFF4FF46143C4F8003104F5827001F0D6
:10504000F3FF354A0023194684F8FC35C4F81026CE
:1050500084F81436C4F81C3684F82036C4F8283690
:1050600084F82C36C4F8343604F21C5204F5B063CC
:1050700042F8041F9342FBD12849002243F8042F31
:105080009942FBD1264A002102F5007302F8011F64
:105090009342FBD12349002203F8012F8B424FF0AA
:1050A0000004F9D1204A2149174802F045F8204967
:1050B000204800F019FE2049204800F015FE204944
:1050C000204800F011FE2049204800F00DFE204B42
:1050D000DFF894E01F4F204E204D2148214A012146
:1050E00083F8244083F8254083F8264083F827403E
:1050F0005C619C61DC61C3F800E0DF601E611D62E1
:105100009862D9629A60F8BDD0180010C0A600005D
:1051100002C0092003C0092078A60000B41E0010B8
:10512000EF190010EF1D0010C80000106D510000B5
:1051300032C00920101F001034C009209018001040
:1051400037C00920C818001035C00920081F0010FA
:1051500098180010A8A6000090A600005CA8000007
:10516000654F000060A80000D4A6000010B50446FA
:10517000034B40F8043BFFF7B5FD204610BD00BFD0
:10518000C0A60000074A084808B50021121A03F01B
:10519000B7FCAFF3008003F0FDFB01F0BBFD03F0B3
:1051A000FBF800BFF4210010D0010010022801DC40
:1051B0000120704701F076BDEFF3058303B100BE17
:1051C00003F05ABCEFF3058303B100BE04F0C8B985
:1051D000EFF3058303B100BE03F056BC08B5012010
:1051E00003F0DAF808B5FFF7F9FF00BF00B599B092
:1051F00072B61749684600F057F806A8154900F03E
:1052000053F80CA8144900F04FF812A8134900F005
:105210004BF8039A01990A9B11600799109A19603B
:105220000D99159B1160139A96201A6000F098F959
:10523000049A0199099B116007990F9A19600D99B9
:10524000169B1160139A96201A6000F089F9E0E726
:1052500032C0092034C0092035C0092037C00920D8
:105260000FB400B5064A83B004AB53F8041B1068B2
:105270001A46C068019303F027FE012003F08CF862
:10528000A001001038B50D46044600F0F1F90135D3
:1052900009D02046002100F00DFA2046BDE8384034
:1052A000032100F003BA38BD38B50D46044600F0BE
:1052B000DFF901350CD023696268204601211A60AC
:1052C00000F0F8F92046BDE83840022100F0EEB9C0
:1052D00038BD00BF70B50D461646044600F0C8F94B
:1052E000013511D066B9236962681A602046012130
:1052F00000F0E0F92046BDE87040022100F0D6B988
:10530000E36862681A60F1E770BD00BF00F082B820
:1053100008B500F07FF800B908BDBDE8084000F00E
:105320006FB800BF431C1CD00B685A1C1AD098429F
:1053300010B5044602D10AE09C4208D051F80C3F57
:105340005A1CF9D10948BDE81040FFF789BF204633
:10535000896800F07DFC2046BDE81040022100F085
:1053600093BC70470148FFF77BBF00BF14A9000042
:1053700088420AD0421C09D0013106D008B5044841
:10538000FFF76EFF4FF0FF3008BD704708467047CB
:1053900028A900000B685A1C08D0984202D107E0E7
:1053A000834205D051F80C3F5A1CF9D1184670477A
:1053B00048687047421C0ED008B50B685A1C04D1CF
:1053C0000AE051F80C3F5A1C06D09842F9D14868BF
:1053D000411C01D008BD70470248FFF741FF4FF064
:1053E000FF3008BD3CA9000030B585B018246D46DB
:1053F00020462946ABBE0446204605B030BD00BF5E
:1054000030B54FF48174002520462946ABBE0446D2
:10541000204630BD024B186800F00100704700BF05
:10542000F0ED00E038B504460D4603681B68984768
:1054300063681D6038BD00BF036870B5DB68054652
:1054400098476B685B6883B12A681C685368984703
:10545000201A00286A680DDC506811688368536060
:105460000029F0D040688847EBE72B68BDE8704022
:105470009B6818472B6852681B691068BDE870402C
:10548000184700BF30B583B072B644680A606568DB
:105490004B608DB12B68D31A002B05DA0CE01C6829
:1054A000141B002C03DB1D46AB68002BF7D1A96051
:1054B0008B6062B603B030BD036861601B69104643
:1054C000019198472B460199F2E700BF08B572B6E3
:1054D00043685A688A4211D04AB19368994208D009
:1054E0002BB19A68914205D01346002BF9D162B6D0
:1054F00008BD13468A689A6062B608BD92685A6011
:10550000036822B110681B69984762B608BD9B68A2
:105510009847ECE703685B68184700BF004870478E
:1055200090A900000148FFF787BF00BF90A90000C5
:1055300038B5054601F0C4F8044601F0C1F8001B77
:10554000A842FAD338BD00BF08B5044902F03CFBBD
:1055500002F000FDBDE80840FFF7EABF00247449EF
:105560004FF47A7303FB00F0FFF7E2BF0C4B30B44B
:105570009D689A682B46B2F1805F0CD2094AC43507
:1055800053F8044BAB4242F8044FF9D14FF080522C
:105590001346034CA260103043F8201030BC704713
:1055A00000ED00E0FCFFFF0F024B10309B6853F84A
:1055B0002000704700ED00E02B4A2023F0B4C2F831
:1055C000A031D2F8A031980645D4274B00251946C2
:1055D0000124AA20552202270B26C3F80471C3F820
:1055E000A851C3F8AC51C3F80C41C3F88460C3F8A8
:1055F0008C00C3F88C20C3F88040C3F88C00C3F83B
:105600008C20D1F88830184A5B01FAD51146032462
:10561000AA205523C2F88040C2F88C00C2F88C3012
:10562000D1F88830104A13F0407FF9D00F49002399
:105630000520C2F80801C2F8C410C2F8C8311368C6
:10564000F0BC23F4704323F03A0343F4405343F097
:105650003A0313607047D2F8A0315906B5D4D2F896
:10566000A0315906F7D5B0E700C00F40DE87280407
:105670004A1C016018D038B50C460546002120466A
:1056800000F0E6FA24F01F0104F01F02012393400A
:1056900001F1180401F11C0001F11402A9606B6012
:1056A000EC6028616A6138BD704700BF006800F097
:1056B000EBBA00BF41B1012905D182684368116886
:1056C0000B4313607047704782684168136823EA90
:1056D00001031360704700BF2DE9F04F434B83B0C7
:1056E0005C689F685E6A9D6A14B39946DFF8008122
:1056F000DFF800B14FF0010A05E00AFA03F3E41AFB
:10570000C9F80C3014D0B4FA84F3C3F11F03DBB230
:1057100058F823000028F0D0DBF800200121019385
:105720009047019B0AFA03F3E41AC9F80C30EAD156
:10573000DFB1DFF8BC80DFF8BCA0DFF8B09006E096
:10574000012303FA04F43F1BC9F80C400DD0B7FA4B
:1057500087F4C4F11F04E4B258F824000028EFD005
:10576000DAF8003002219847EAE7EEB1DFF88080EE
:10577000DFF880901D4F05E0012303FA04F4361B87
:10578000FC6211D0B6FA86F4C4F11F04E4B20F2C07
:1057900004F12003F0D858F823000028ECD0D9F801
:1057A000003001219847E7E7E5B1114FDFF8448069
:1057B0000E4E05E0012303FA04F42D1BF46211D010
:1057C000B5FA85F4C4F11F04E4B20F2C04F12003F0
:1057D000F0D857F823000028ECD0D8F80030022188
:1057E0009847E7E703B0BDE8F08F00BF8080024034
:1057F000241F0010201F0010B1F1FF3F29D070B509
:105800000446154E1D46154821F01F03B34201F012
:105810001F0102602360616019D0114A934206D0D3
:105820001048FFF71DFD23686168B3420FD001F1F6
:1058300020020D4BA2600D49152043F82250FFF7BE
:1058400095FE0B4B4FF400121A60002070BD0A4603
:10585000EFE70846704700BF00C00920201F001076
:1058600040C0092098A90000241F0010D95600004C
:1058700000E100E08268024B002143F822107047EB
:10588000241F001030B403682E4CA3421CD02E4DB0
:10589000AB4207D0012934D0A3421CD0AB4208D080
:1058A00030BC704745680123284CAB400129E362B6
:1058B0002ED0264940680123F2B930BC4A6B8340A0
:1058C00022EA03034B637047456801231F4CAB403A
:1058D0000129E36025D01D49406801232AB130BC6D
:1058E0004A69834013434B6170474A69834022EA07
:1058F00003034B6130BC70474A6B834013434B63D7
:10590000CEE7A3420AD0AB42CAD1436801FA03F3FF
:105910000E498AB10A6B13430B63C1E7436801FA6E
:1059200003F30A491AB10A6913430B61B8E70A691C
:1059300022EA03030B61B3E70A6B22EA03030B635A
:10594000AEE700BF00C0092040C0092080800240AF
:10595000F8B50D460646254928461446FFF72AFDA8
:10596000234907462046FFF725FD01463846FFF745
:10597000FFFC204B0246984230602ED003F588236E
:10598000984222D0A3F50423984216D01A4B1B4903
:105990001B683C271B0AA1FB031340261B0953610C
:1059A00028461361114997611660FFF7BBFC20463A
:1059B000BDE8F8400E49FFF7B5BC1149D1F8C43035
:1059C00043F08003C1F8C430E0E70D49D1F8C4309A
:1059D00043F08063C1F8C430D8E70949D1F8C43036
:1059E00043F40023C1F8C430D0E700BFC8A90000C9
:1059F00004AA000000C005401C010010598B4F0193
:105A000000C00F40044B49001B6802689B08B3FBB1
:105A1000F1F15161116170471C0100102DE9F04353
:105A200004683C2507462420A5614E4D206001E016
:105A3000013D02D026683607FAD560682025102877
:105A4000A56110D008280ED0102308222360454BF2
:105A5000A26101E0013B02D02268D506FAD46FF0C2
:105A60000100BDE8F08341F001010820A1603D493B
:105A7000A06101E0013902D025682807FAD56168E4
:105A800040290ED0102308222360364BA26101E08A
:105A9000013B02D02268D606FAD44FF0FF30BDE8B1
:105AA000F083581E002859DD844602F1FF3E00268F
:105AB0004FF004094FF00808C4F800902949C4F8D1
:105AC000188001E0013902D025682D07FAD5A568B4
:105AD0006168502921D101360EF8015F86423C6889
