:100000000080001025190000551900005719000044
:10001000591900005B1900005D1900000000000084
:100020000000000000000000000000005F19000058
:10003000611900000000000063190000651900004C
:1000400067190000671900006719000067190000B0
:1000500067190000671900006719000067190000A0
:100060006719000067190000671900006719000090
:100070006719000067190000671900006719000080
:100080006719000067190000671900006719000070
:100090006719000067190000671900006719000060
:1000A0006719000067190000671900006719000050
:1000B0006719000067190000671900006719000040
:1000C000671900006719000067190000044B054814
:1000D0001B1A062B02D9044B03B11847704700BF07
:1000E000630100106001001000000000054906488F
:1000F000091A891001EBD171491002D0034B03B1E9
:1001000018477047600100106001001000000000F7
:1001100010B5064C237843B9FFF7D8FF044B13B151
:100120000448AFF300800123237010BD600100106C
:10013000000000005041000008B5084B1BB1084901
:100140000848AFF300800848036813B9BDE80840C9
:10015000CCE7064B002BF9D09847F7E700000000EA
:100160006401001050410000600100100000000018
:1001700084B02DE9F84F0446109E00200BAD85E8B1
:100180000E0020606060A060E06020613146304673
:1001900002F012F981460F9D2946284602F00CF91B
:1001A000494602F001F8014601F0FEFF01464FF01A
:1001B0007E5001F0F7FFDDF8388082462946404640
:1001C00002F0FAF80D9F83463146384602F0F4F803
:1001D0000146584601F0E8FF014601F0E5FF5146AF
:1001E00003F072FA3146A060404602F0E5F8294675
:1001F0008246384602F0E0F80146504601F0D2FF50
:10020000014601F0D1FF03F00FFA3946E0603846AD
:1002100002F0D2F8494601F0C7FF014601F0C4FFE1
:1002200001464FF07E5001F0BDFF41468146384601
:1002300002F0C2F831460746284602F0BDF80146F2
:10024000384601F0B1FF014601F0AEFF494603F028
:100250003BFA20612046BDE8F84F04B0704700BF6C
:1002600070B531488AB000F0B7F82F4E06F184051A
:1002700006F178042C4800F049F92B4800F0E4F826
:1002800095E807008DE8070005A894E80E00FFF741
:100290006FFF079801F0CCFC21A3D3E9002301F004
:1002A00045FE21F00043194601F028FF01461F4892
:1002B00001F08AF9089801F0BBFC19A3D3E90023E7
:1002C00001F034FE21F00043194601F017FF01460A
:1002D000174801F079F9099801F0AAFC10A3D3E9B5
:1002E000002301F023FE21F00043194601F006FF30
:1002F0000146104801F068F996F8900002F004F801
:100300004FF07A5102F058F801460B4801F05CF9C1
:100310004FF07E5000F07CF9ACE700BFAFF30080F7
:10032000182D4454FB2109408C0100108401001059
:100330007C010010840200108C02001008B50B49EB
:100340000B4801F0D1F80B490B4801F0CDF80B49EF
:100350000B4801F0C9F80B490B4801F0C5F8BDE89E
:1003600008400A4A0A490B4800F016B832C0092072
:100370008C02001034C009207C01001035C0092017
:100380008401001037C00920840200100BC009202E
:100390000AC009208C01001038B5044600F1C405DC
:1003A000284601F089F92846094901F095F90949DB
:1003B00050204FF07653012284F8CF00C4F8E810A3
:1003C000C4F8F420C4F8EC30C4F8F030204638BD4E
:1003D000801A06006F12833A2DE9F043044683B079
:1003E00000F1C40500F1CD0901264FF03F0890F857
:1003F000CF104A4684F8CD80334600272846009621
:1004000001F074F994F8CF10334604F1CC02284679
:10041000009701F08DF994F8CC3094F8CF1043F0A8
:10042000200384F8CD804A460097284684F8CC30D3
:1004300084F8CE30022301F059F940F2A32003B032
:10044000BDE8F04300F0F0B8F0B5044683B000F129
:10045000C4050123202290F8CF1080F8CD2004F1AC
:10046000CD020093284601F041F994F8CF10002303
:1004700004F1D002009328460131082301F058F915
:1004800094F8D03094F8D10094F8D42094F8D21095
:1004900043EA002094F8D37094F8D63094F8D560ED
:1004A00094F8D75042EA062643EA052541EA072791
:1004B000A4F87800A4F87A70A4F87C60A4F87E50C0
:1004C00000B201F025FF4FF0625101F075FFC4F852
:1004D000800038B201F01CFF4FF0625101F06CFF58
:1004E000C4F8840030B201F013FF4FF0625101F004
:1004F00063FFC4F8880028B201F00AFF4FF0625190
:1005000001F05AFFC4F88C0003B0F0BDF0B504460A
:1005100083B0012500F1C406352390F8CF1080F890
:10052000CD3004F1CD022B4630460095002701F076
:10053000DDF894F8CF102B46304604F1CC0200973A
:1005400001F0F6F894F8CC3084F8903003B0F0BDA8
:10055000074A084808B50021121A02F05FFBAFF302
:10056000008002F0DBFA01F0A5F902F037F900BFD4
:10057000A404001060010010022801DC0120704773
:1005800001F060B9036870B5DB68054698476B6891
:100590005B6883B12A681C6853689847201A002852
:1005A0006A680DDC50681168836853600029F0D0D8
:1005B00040688847EBE72B68BDE870409B681847A8
:1005C0002B6852681B691068BDE87040184700BF6F
:1005D00030B585B018246D4620462946ABBE04468A
:1005E000204605B030BD00BF024B186800F0010086
:1005F000704700BFF0ED00E038B5054600F0CEFDD5
:10060000044600F0CBFD001BA842FAD338BD00BF62
:1006100008B5044901F0D0FE02F094F8BDE80840A6
:10062000FFF7EABF002474494FF47A7303FB00F02C
:10063000FFF7E2BF0FB400B5064A83B004AB53F82E
:10064000041B10681A46C068019302F0CBFC01201D
:1006500002F0C4F84C01001000B599B072B6174909
:10066000684600F04DF806A8154900F049F80CA8B6
:10067000144900F045F812A8134900F041F8039A14
:1006800001990A9B11600799109A19600D99159BA1
:100690001160139A96201A60FFF7C6FF049A019919
:1006A000099B116007990F9A19600D99169B1160AB
:1006B000139A96201A60FFF7B7FFE0E732C00920CF
:1006C00034C0092035C0092037C009200148FFF790
:1006D00059BF00BFD03D0000FFF786BF38B50D46BB
:1006E000044600F01BF9013509D02046002100F036
:1006F00037F92046BDE83840032100F02DB938BD58
:1007000038B50D46044600F009F901350CD02369CF
:100710006268204601211A6000F022F92046BDE8F7
:100720003840022100F018B938BD00BF70B50D4641
:100730001646044600F0F2F8013511D066B9236977
:1007400062681A602046012100F00AF92046BDE8DF
:100750007040022100F000B9E36862681A60F1E7B6
:1007600070BD00BF431C1CD00B685A1C1AD09842A5
:1007700010B5044602D10AE09C4208D051F80C3F63
:100780005A1CF9D10948BDE81040FFF753BF204675
:10079000896800F045FF2046BDE81040022100F0C6
:1007A0005BBF70470148FFF745BF00BFD83D000061
:1007B00088420AD0421C09D0013106D008B504484D
:1007C000FFF738FF4FF0FF3008BD7047084670470D
:1007D000EC3D00000B685A1C08D0984202D107E09B
:1007E000834205D051F80C3F5A1CF9D11846704786
:1007F00048687047421C0ED008B50B685A1C04D1DB
:100800000AE051F80C3F5A1C06D09842F9D14868CA
:10081000411C01D008BD70470248FFF70BFF4FF0A5
:10082000FF3008BD003E00000C4B30B49D689A6854
:100830002B46B2F1805F0CD2094AC43553F8044B01
:10084000AB4242F8044FF9D14FF080521346034CAB
:10085000A260103043F8201030BC704700ED00E07B
:10086000FCFFFF0F2B4A2023F0B4C2F8A031D2F8CE
:10087000A031980645D4274B002519460124AA200B
:10088000552202270B26C3F80471C3F8A851C3F8F8
:10089000AC51C3F80C41C3F88460C3F88C00C3F8B2
:1008A0008C20C3F88040C3F88C00C3F88C20D1F8AA
:1008B0008830184A5B01FAD511460324AA20552333
:1008C000C2F88040C2F88C00C2F88C30D1F8883071
:1008D000104A13F0407FF9D00F4900230520C2F8D9
:1008E0000801C2F8C410C2F8C8311368F0BC23F480
:1008F000704323F03A0343F4405343F03A03136048
:100900007047D2F8A0315906B5D4D2F8A0315906B3
:10091000F7D5B0E700C00F40DE8728044A1C01600D
:1009200018D038B50C4605460021204600F078FE68
:1009300024F01F0104F01F020123934001F1180469
:1009400001F11C0001F11402A9606B60EC602861E8
:100950006A6138BD704700BF006800F07DBE00BF0F
:1009600041B1012905D18268436811680B431360C6
:100970007047704782684168136823EA0103136077
:10098000704700BF154B9968C1F34201012918D087
:10099000022914D1124A516F013106D0D2F88010C9
:1009A000906F086092F8A61089B1106F0C4B38B1A7
:1009B00093F8A63023B10B4B00211B6818477047F2
:1009C0007047074B186F38B1064B1B6818475968BA
:1009D00021F001015960E8E7704700BF008009403D
:1009E000A4020010A0020010F8B5294C0368A3422D
:1009F00047D03FDD274CA34229D004F58044A342D1
:100A000042D1254D082632BB01290BD04268234C28
:100A1000C2EBC20204EBC20292F8364092F83520D3
:100A2000D44213D1B1FA81F25D68012404FA01F1D4
:100A300025EA01015960036852095B6804FA02F271
:100A40001A4203D1164BB440C3F88040F8BD154D8F
:100A50000726002AD8D05868012707FA01F2024376
:100A600074B25A6029462046FFF7DEFE0C4BA740C1
:100A70001F60F8BDA4F58044A34205D10A4D0526A8
:100A8000C1E70A4D0626BEE700252E46BBE700BF9C
:100A90000000014000800940B10A0000A4020010DB
:100AA00000E100E0850900001D0B00007D0B000047
:100AB000174B9968C1F3420101291BD0022917D1B4
:100AC000144AD2F8AC10013107D0D2F8B810D2F8DD
:100AD000B000086092F8DE1099B1D2F8A8000D4B72
:100AE00038B193F8DE3023B10B4B00211B68184757
:100AF00070477047074BD3F8A80038B1064B1B6806
:100B00001847596821F001015960E6E7704700BFB6
:100B100000C00940A4020010A0020010144B996804
:100B2000C1F34201012917D0022913D1114A51689A
:100B3000013105D011699068086092F8361089B1CA
:100B400010680C4B38B193F8363023B10A4B0021B2
:100B50001B68184770477047064B186838B1064B3A
:100B60001B681847596821F001015960E8E7704790
:100B700000C00040A4020010A0020010144B9968AD
:100B8000C1F34201012917D0022913D1114AD16BB7
:100B9000013105D0916C106C086092F86E1089B12B
:100BA000906B0C4B38B193F86E3023B10A4B002197
:100BB0001B68184770477047064B986B38B1064B57
:100BC0001B681847596821F001015960E8E7704730
:100BD00000000140A4020010A00200102DE9F04F17
:100BE00002686E4B89B09A420790069200F0C88066
:100BF00040F3B4806A4B0698984272D003F5804364
:100C0000984240F09D80674BD3F8AC2122F44022FB
:100C1000C3F8AC21D3F8AC2142F48022C3F8AC2154
:100C2000614A0B011268B2FBF3F003FB102303923D
:100C300080B2002B00F09080039B4FF001085A0017
:100C40009C009446A246C3468E46994600230592D0
:100C5000049400900291019300242546029E5FFABD
:100C600088F7BCF1000FB5BFBCFBF6F0BAFBF6F09D
:100C7000000940090130C0F34F0008EB04020028CE
:100C80003DD00CB101283BD0034603FB02F3DB004F
:100C9000B9FBF3F30133C1EB5303002BB8BF5B4245
:100CA000734505DA994230D09E46BB468DE8210057
:100CB0000134E5B2AF420E44D3D8039B08F10108DA
:100CC0009944059BB8F1100F9C44049B9A44029BE5
:100CD0000B440293C0D1019B009843EA0B15EDB27F
:100CE00016E0304BD3F8AC2122F44032C3F8AC21EB
:100CF000D3F8AC2142F48032C3F8AC2190E714B1B0
:100D000002200346C1E70120BEE745EA0715EDB220
:100D10000699C0F307220B7BC0B243F080030B732C
:100D200007990B681A710B6818700B6883F82850C4
:100D30000A68137B03F07F03137309B0BDE8F08FDB
:100D4000194A0B011268B2FBF3F003FB1023039264
:100D500080B2002B7FF470AF1025D9E7A3F5804354
:100D60009A42EDD10F4BD3F8A82122F0C002C3F86C
:100D7000A821D3F8A82142F04002C3F8A8214FE7E8
:100D8000084BD3F8A82122F44072C3F8A821D3F865
:100D9000A82142F48072C3F8A82141E70000014075
:100DA0000080094000C00F40C80000100268137D99
:100DB000DB07FCD543680949C3EBC30301EBC3035D
:100DC000596810780131C0B206D059699B680B6030
:100DD000536843F001035360704700BFA402001042
:100DE0004368154AC3EBC303DB00D11810B4CC69C8
:100DF00001340FD00B460A6B1C335B6812681A4231
:100E000005D1036810BC187DC0F380107047002026
:100E100010BC704703681B7D9B0607D491F8340013
:100E200010BC0F288CBF002001207047002381F8E0
:100E30003430012010BC7047A402001038B50446BD
:100E40000D462046FFF7CCFF0028FAD02368EDB20C
:100E50001D706368054AC3EBC30302EBC30393F839
:100E60003420013283F8342038BD00BFA4020010C2
:100E70002DE9F04F054644482C6883B084420F4664
:100E800091469A461DD06E6800243246DFF804B1C0
:100E90004FEAC608C2EBC201C6EB08000BEBC0006C
:100EA00000220BEBC1014FF0FF3381F83520C36105
:100EB000436011462846FFF797FD4FB903B0BDE8E0
:100EC000F08F237C6E6803F03F0323746A68DDE7CC
:100ED0002E494846FFF77EFC2D4901905046FFF70A
:100EE00079FCBA1E012A30D9012FE7D1B9F1FF3FB1
:100EF000E4D0254A019B29680720934208720BD150
:100F000054B14846237C214943F04003237403B085
:100F1000BDE8F04FFFF726BCC6EB08060BEBC6009A
:100F2000494604300022FFF701FC6A680124C2EB45
:100F3000C2020BEBC20328462246002183F835404B
:100F400003B0BDE8F04FFFF74FBDBAF1FF3F0AD045
:100F50000D4A90420DD0C6EB08000BEBC000514685
:100F60001C30FFF7BBFB032FA8D1B9F1FF3FC0D165
:100F7000A4E7002CEFD0227C504642F0800222747D
:100F80000349FFF7EFFBEEE700000140403E0000A1
:100F90003C3F0000A40200102DE9F0410F46054639
:100FA000594938461646FFF725FC5849044630464D
:100FB000FFF720FC01462046FFF7FAFB544B04469E
:100FC000984228607FD06FD9524B98424BD003F59E
:100FD0008043984206D1504AD2F8C43043F000739F
:100FE000C2F8C430012323722B684FF00008C3F805
:100FF00004804FF416512846FFF7F0FD2B680322BA
:101000001A7341493846FFF7ADFB40493046FFF7B8
:10101000A9FB7A1C03D04146384600F01DFB731C27
:1010200003D03046002100F017FB394B9C4247D0DB
:1010300021D9384B9C4263D003F580439C424AD16E
:1010400003236B60354CC3EBC3034FF0FF3604EB57
:10105000C3042846334632466660E6610021BDE897
:10106000F041FFF705BF2C4AD2F8C43043F080733B
:10107000C2F8C430B6E7A3F580439C422BD1274E7B
:101080004FF0FF34002169602346224628467460F1
:10109000F461FFF7EDFE224B01221A6028686968AF
:1010A000204B03C3BDE8F081A3F58043984299D15A
:1010B000194AD2F8C43043F00803C2F8C43091E7AB
:1010C00001236B60BEE7144AD2F8C43043F010032A
:1010D000C2F8C43086E76E68104BC6EBC6064FF008
:1010E000FF3703EBC6063A463B46002128467760A9
:1010F000F761FFF7BDFE0C4B9C42CCD0BDE8F08100
:1011000002236B609EE700BFD03E0000643E0000FB
:10111000000001400080094000C00F40A402001000
:101120009C0200109804001000C0004038B510491F
:10113000104B01241C60D1F8C4300F4A43F4000363
:101140000E480025C1F8C430156703680C48022119
:10115000A0FB03031B0D013B51600420D360094930
:101160005460FFF761FB084B10221A6038BD00BFC6
:1011700000C00F408403001000400940C800001068
:1011800083DE1B43CD06000000E100E0024B1B683C
:1011900003B17047FFF7CABF8403001008B5044BC2
:1011A0001B680BB9FFF7C2FF024B986808BD00BF70
:1011B0008403001000400940034B98615A6942F0D3
:1011C00001025A61704700BF00400940024A53695A
:1011D00023F001035361704700400940014B012295
:1011E0001A60704700400940F8B50D46064625498B
:1011F00028461446FFF7FEFA234907462046FFF724
:10120000F9FA01463846FFF7D3FA204B02469842D6
:1012100030602ED003F58823984222D0A3F5042312
:10122000984216D01A4B1B491B683C271B0AA1FB8E
:10123000031340261B095361284613611149976126
:101240001660FFF78FFA2046BDE8F8400E49FFF719
:1012500089BA1149D1F8C43043F08003C1F8C430D1
:10126000E0E70D49D1F8C43043F08063C1F8C430E1
:10127000D8E70949D1F8C43043F40023C1F8C43099
:10128000D0E700BF603F00009C3F000000C0054069
:10129000C8000010598B4F0100C00F40044B49009B
:1012A0001B6802689B08B3FBF1F151611161704743
:1012B000C80000102DE9F04304683C2507462420AF
:1012C000A5614E4D206001E0013D02D02668360741
:1012D000FAD5606820251028A56110D008280ED006
:1012E000102308222360454BA26101E0013B02D09C
:1012F0002268D506FAD46FF00100BDE8F08341F012
:1013000001010820A1603D49A06101E0013902D03E
:1013100025682807FAD5616840290ED010230822D5
:101320002360364BA26101E0013B02D02268D60661
:10133000FAD44FF0FF30BDE8F083581E002859DD85
:10134000844602F1FF3E00264FF004094FF00808E2
:10135000C4F800902949C4F8188001E0013902D08E
:1013600025682D07FAD5A5686168502921D1013675
:101370000EF8015F86423C68EAD108210425A56188
:10138000A1611E4901E0013902D025682E07FAD576
:10139000A568616858291AD0102308222360174BCA
:1013A000A26101E0013B10D02268D506FAD4BDE865
:1013B000F083102308222360104BA26101E0013B5F
:1013C00002D02268D706FAD43046BDE8F08302F88E
:1013D0000C50079A5AB13868102208210260074A57
:1013E000816101E0013A02D00168C906FAD41846C9
:1013F000BDE8F0834FF0000CBFE700BFA1860100FD
:1014000070B404683C252420A561364D206001E0BD
:10141000013D02D026683007FAD5606820251028E3
:10142000A56110D008280ED01023082223602D4B70
:10143000A26101E0013B02D02268D606FAD46FF027
:10144000010070BC704701F0FE010820A160254931
:10145000A06101E0013902D025682D07FAD5616845
:1014600018290ED01023082223601E4BA26101E030
:10147000013B02D02268D006FAD44FF0FF3070BC96
:101480007047002B13DD551E0020082615F8011F9C
:10149000144AA160A66101E0013A02D0216809075F
:1014A000FAD56268282A11D101308342EED1039A1D
:1014B00052B11022082122600A4AA16101E0013ADA
:1014C00002D02168C906FAD41846BAE710230822C8
:1014D0002360044BA26101E0013BB2D02268D50633
:1014E000FAD4AEE7A1860100F8B50D4604462F49AF
:1014F0002846FFF77FF944F620612D4A2D4FD2F898
:10150000C430C6B257F8267043F0400320712760FC
:10151000C2F8C430D2F8A801274B20F440504FF055
:10152000000E0224C2F8A801C3F80CE05C61D86C7C
:1015300006F1080E012202FA0EF202431F48DA6495
:101540000268DFF880E01E48AEFB02E2120D01FBEC
:1015500002F102605C6099619A6932B13A689B69F4
:1015600002FB01F1B1FBF3F13960134C0922236D49
:1015700043F0010323656260A06900F0C5FE00210D
:1015800000F01AFF01F004F9A3690B49984208BF63
:10159000013038600B6D012202FA06F61E430E651B
:1015A0002846BDE8F8400149FFF7DCB8D83F000005
:1015B00000C00F40CC00001000800140C8000010A7
:1015C0008803001083DE1B4370B50C4605460021DE
:1015D000204601F08FF8F0B94FF07E51204601F01F
:1015E000A7F808B14FF07E540C4EB06900F08CFEA5
:1015F000214600F0E1FE01F0CBF8B36907499842BB
:101600002B6808BF0130186028790A6D01238340D8
:1016100013430B6570BD0024E6E700BF0080014066
:1016200000F16040A0F51C2003099B0003F18043FA
:1016300003F53033400010B400F01E001C68032294
:10164000824024EA02021A601A68814041EA0200DC
:10165000186010BC704700BF00F16040A0F51C206E
:1016600043099B0003F1804303F5303330B400F0AD
:101670001F029C6EC1F3800505FA02F224EA0204FF
:101680009C669C6E22439A669DB903099B0003F1F8
:10169000804303F5303340001C6C00F01E00032231
:1016A000824024EA02021A641A6C01FA00F0104324
:1016B000186430BC704700BF38B50446044B0025A1
:1016C00005604360FFF790FD024B20461C6038BD6B
:1016D000A08601008C03001010B504464160FFF79E
:1016E000DDFD014B1C6010BD8C0300102DE9F043A3
:1016F0000E4F8846396883B08842044691461E469C
:101700009DF8285003D04168FFF7C8FD3C6085F084
:10171000010500954A46414620463346FFF770FED4
:10172000301A18BF012003B0BDE8F0838C0300100D
:101730002DE9F0430E4F8846396883B0884204464D
:1017400091461E469DF8285003D04168FFF7A6FD3C
:101750003C6085F0010500954A46414620463346E7
:10176000FFF7A8FD301A18BF012003B0BDE8F083D1
:101770008C030010024A03490348FFF70DBC00BF69
:1017800003C0092002C009209804001002280ADDC5
:10179000074AC31E52F82300002142F8231020B14B
:1017A00003685B681847002070474FF0FF307047B0
:1017B00090030010022812DC0E4B70B51B680C461B
:1017C00016460BB9FFF7D6FFA51936B114F8011B61
:1017D0000948FFF733FBAC42F8D1304670BD074BE8
:1017E000033853F8200010B103681B6818474FF006
:1017F000FF3070479C020010980400109003001006
:1018000002280DDC0C4B10B51B680C460BB9FFF71A
:10181000B1FF0A48FFF7CAFA01232070184610BD2D
:10182000074B033853F8200010B103689B68184732
:101830004FF0FF33184670479C02001098040010C8
:1018400090030010022807DD064B033853F82000F0
:1018500020B10368DB681847012070474FF0FF3064
:10186000704700BF90030010022807DD064B0338C5
:1018700053F8200020B103681B6918470020704707
:101880004FF0FF30704700BF90030010022808B5EA
:1018900004D84FF400534B60002008BD00F098FFBF
:1018A000092303604FF0FF3008BD00BF704700BF41
:1018B000704700BF08B5FFF7FBFFFFF7F7FFBDE874
:1018C0000840FEF7CDBC00BF074A13681918EFF3B4
:1018D0000880814202D2184611607047034B0C22E7
:1018E0001A604FF0FF307047E8000010A0040010AD
:1018F0000B4C08B523680546986801F033F8236857
:10190000D86801F02FF8FEF7E7FE20B905B9FEE729
:10191000FEF7A2FEFBE7FEF75BFE002DF7D0F7E730
:101920004C0100100649074A074B9A42BEBF51F8C6
:10193000040B42F8040BF8E70448804704480047CA
:1019400054410000C800001060010010650800004C
:1019500051050000FEE7FEE7FEE7FEE7FEE7FEE7D3
:10196000FEE7FEE7FEE7FEE781F0004102E000BF90
:1019700083F0004330B54FEA41044FEA430594EA4F
:10198000050F08BF90EA020F1FBF54EA000C55EA8A
:10199000020C7FEA645C7FEA655C00F0E2804FEA5B
:1019A0005454D4EB5555B8BF6D420CDD2C4480EA3D
:1019B000020281EA030382EA000083EA010180EA6D
:1019C000020281EA0303362D88BF30BD11F0004FBB
:1019D0004FEA01314FF4801C4CEA113102D04042F1
:1019E00061EB410113F0004F4FEA03334CEA13332C
:1019F00002D0524263EB430394EA050F00F0A78044
:101A0000A4F10104D5F1200E0DDB02FA0EFC22FA3E
:101A100005F2801841F1000103FA0EF2801843FA32
:101A200005F359410EE0A5F120050EF1200E012A23
:101A300003FA0EFC28BF4CF0020C43FA05F3C01861
:101A400051EBE37101F0004507D54FF0000EDCF1DA
:101A5000000C7EEB00006EEB0101B1F5801F1BD383
:101A6000B1F5001F0CD349085FEA30004FEA3C0C87
:101A700004F101044FEA445212F5800F80F09A807D
:101A8000BCF1004F08BF5FEA500C50F1000041EB81
:101A9000045141EA050130BD5FEA4C0C404141EB85
:101AA000010111F4801FA4F10104E9D191F0000FAC
:101AB00004BF01460020B1FA81F308BF2033A3F12F
:101AC0000B03B3F120020CDA0C3208DD02F1140C26
:101AD000C2F10C0201FA0CF021FA02F10CE002F161
:101AE0001402D8BFC2F1200C01FA02F120FA0CFC5A
:101AF000DCBF41EA0C019040E41AA2BF01EB0451A3
:101B0000294330BD6FEA04041F3C1CDA0C340EDCA0
:101B100004F11404C4F1200220FA04F001FA02F3E3
:101B200040EA030021FA04F345EA030130BDC4F1A1
:101B30000C04C4F1200220FA02F001FA04F340EA96
:101B40000300294630BD21FA04F0294630BD94F047
:101B5000000F83F4801306BF81F480110134013D2E
:101B60004EE77FEA645C18BF7FEA655C29D094EA9F
:101B7000050F08BF90EA020F05D054EA000C04BF1D
:101B80001946104630BD91EA030F1EBF0021002008
:101B900030BD5FEA545C05D14000494128BF41F0A7
:101BA000004130BD14F580043CBF01F5801130BD0B
:101BB00001F0004545F0FE4141F470014FF0000096
:101BC00030BD7FEA645C1ABF194610467FEA655C47
:101BD0001CBF0B46024650EA013406BF52EA0335E9
:101BE00091EA030F41F4002130BD00BF90F0000FD7
:101BF00004BF0021704730B54FF4806404F1320413
:101C00004FF000054FF0000150E700BF90F0000FCB
:101C100004BF0021704730B54FF4806404F13204F2
:101C200010F0004548BF40424FF000013EE700BFC2
:101C300042004FEAE2014FEA31014FEA02701FBF52
:101C400012F07F4393F07F4F81F06051704792F024
:101C5000000F14BF93F07F4F704730B54FF460749E
:101C600001F0004521F0004120E700BF50EA0102E9
:101C700008BF704730B54FF000050AE050EA010296
:101C800008BF704730B511F0004502D5404261EB06
:101C900041014FF4806404F132045FEA915C3FF447
:101CA000DCAE4FF003025FEADC0C18BF03325FEAE0
:101CB000DC0C18BF033202EBDC02C2F1200300FA95
:101CC00003FC20FA02F001FA03FE40EA0E0021FABA
:101CD00002F11444C1E600BF70B54FF0FF0C4CF4A4
:101CE000E06C1CEA11541DBF1CEA135594EA0C0F5A
:101CF00095EA0C0F00F0DEF82C4481EA030621EA95
:101D00004C5123EA4C5350EA013518BF52EA0335CF
:101D100041F4801143F4801338D0A0FB02CE4FF081
:101D20000005E1FB02E506F00042E0FB03E54FF0B1
:101D30000006E1FB03569CF0000F18BF4EF0010EA9
:101D4000A4F1FF04B6F5007F64F5407404D25FEAA5
:101D50004E0E6D4146EB060642EAC62141EA555158
:101D60004FEAC52040EA5E504FEACE2EB4F1FD0C9A
:101D700088BFBCF5E06F1ED8BEF1004F08BF5FEA18
:101D8000500E50F1000041EB045170BD06F00046CA
:101D900046EA010140EA020081EA0301B4EB5C0477
:101DA000C2BFD4EB0C0541EA045170BD41F480116F
:101DB0004FF0000E013C00F3AB8014F1360FDEBF94
:101DC000002001F0004170BDC4F10004203C35DA70
:101DD0000C341BDC04F11404C4F1200500FA05F3F3
:101DE00020FA04F001FA05F240EA020001F0004294
:101DF00021F0004110EBD37021FA04F642EB06010A
:101E00005EEA430E08BF20EAD37070BDC4F10C0433
:101E1000C4F1200500FA04F320FA05F001FA04F2F7
:101E200040EA020001F0004110EBD37041F10001E3
:101E30005EEA430E08BF20EAD37070BDC4F12005EE
:101E400000FA05F24EEA020E20FA04F301FA05F256
:101E500043EA020321FA04F001F0004121FA04F2FE
:101E600020EA020000EBD3705EEA430E08BF20EACE
:101E7000D37070BD94F0000F0FD101F00046400008
:101E800041EB010111F4801F08BF013CF7D041EA8A
:101E9000060195F0000F18BF704703F0004652008E
:101EA00043EB030313F4801F08BF013DF7D043EA5F
:101EB0000603704794EA0C0F0CEA135518BF95EA15
:101EC0000C0F0CD050EA410618BF52EA4306D1D19C
:101ED00081EA030101F000414FF0000070BD50EABB
:101EE000410606BF1046194652EA430619D094EA45
:101EF0000C0F02D150EA013613D195EA0C0F05D12F
:101F000052EA03361CBF104619460AD181EA030182
:101F100001F0004141F0FE4141F470014FF000003A
:101F200070BD41F0FE4141F4780170BD70B54FF0D5
:101F3000FF0C4CF4E06C1CEA11541DBF1CEA135555
:101F400094EA0C0F95EA0C0F00F0A7F8A4EB050437
:101F500081EA030E52EA03354FEA013100F088802E
:101F60004FEA03334FF0805545EA131343EA1263F7
:101F70004FEA022245EA111545EA10654FEA0026AC
:101F80000EF000419D4208BF964244F1FD0404F565
:101F9000407402D25B084FEA3202B61A65EB0305C1
:101FA0005B084FEA32024FF480104FF4002CB6EB7E
:101FB000020E75EB030E22BFB61A754640EA0C00FE
:101FC0005B084FEA3202B6EB020E75EB030E22BF3E
:101FD000B61A754640EA5C005B084FEA3202B6EB7F
:101FE000020E75EB030E22BFB61A754640EA9C003E
:101FF0005B084FEA3202B6EB020E75EB030E22BF0E
:10200000B61A754640EADC0055EA060E18D04FEACB
:10201000051545EA16754FEA06164FEAC30343EA6B
:1020200052734FEAC2025FEA1C1CC0D111F4801F38
:102030000BD141EA00014FF000004FF0004CB6E731
:1020400011F4801F04BF01430020B4F1FD0C88BFD0
:10205000BCF5E06F3FF6AFAEB5EB030C04BFB6EBDB
:10206000020C5FEA500C50F1000041EB045170BDCE
:102070000EF0004E4EEA113114EB5C04C2BFD4EBFB
:102080000C0541EA045170BD41F480114FF0000E7F
:10209000013C90E645EA060E8DE60CEA135594EAFB
:1020A0000C0F08BF95EA0C0F3FF43BAF94EA0C0FFE
:1020B0000AD150EA01347FF434AF95EA0C0F7FF473
:1020C00025AF104619462CE795EA0C0F06D152EAC7
:1020D00003353FF4FDAE1046194622E750EA4106AB
:1020E00018BF52EA43067FF4C5AE50EA41047FF4BC
:1020F0000DAF52EA43057FF4EBAE12E74FEA41021F
:10210000B2F1E04324BFB3F5001CDCF1FE5C0DD955
:1021100001F0004C4FEAC0024CEA5070B2F1004F9F
:1021200040EB830008BF20F00100704711F0804FA2
:1021300021D113F13872BCBF01F00040704741F467
:1021400080114FEA5252C2F11802C2F1200C10FA6B
:102150000CF320FA02F018BF40F001004FEAC1234F
:102160004FEAD32303FA0CFC40EA0C0023FA02F3F3
:102170004FEA4303CCE77FEA625307D150EA0133C9
:102180001EBF4FF0FE4040F44000704701F0004099
:1021900040F0FE4040F40000704700BF80F0004077
:1021A00002E000BF81F0004142001FBF5FEA41032F
:1021B00092EA030F7FEA226C7FEA236C6AD04FEA2F
:1021C0001262D2EB1363C1BFD21841404840414074
:1021D000B8BF5B42192B88BF704710F0004F40F426
:1021E000000020F07F4018BF404211F0004F41F442
:1021F000000121F07F4118BF494292EA030F3FD00E
:10220000A2F1010241FA03FC10EB0C00C3F1200320
:1022100001FA03F100F0004302D5494260EB4000AF
:10222000B0F5000F13D3B0F1807F06D340084FEA1A
:10223000310102F10102FE2A51D2B1F1004F40EB0F
:10224000C25008BF20F0010040EA03007047490077
:1022500040EB000010F4000FA2F10102EDD1B0FA42
:1022600080FCACF1080CB2EB0C0200FA0CF0AABF37
:1022700000EBC25052421843BCBFD04018437047D5
:1022800092F0000F81F4000106BF80F400000132DB
:10229000013BB5E74FEA41037FEA226C18BF7FEAB2
:1022A000236C21D092EA030F04D092F0000F08BFF4
:1022B0000846704790EA010F1CBF0020704712F0DB
:1022C0007F4F04D1400028BF40F00040704712F11A
:1022D00000723CBF00F50000704700F0004343F07F
:1022E000FE4040F4000070477FEA226216BF0846B5
:1022F0007FEA23630146420206BF5FEA412390EA78
:10230000010F40F4800070474FF0000304E000BF6D
:1023100010F0004348BF40425FEA000C08BF70471E
:1023200043F0964301464FF000001CE050EA0102E2
:1023300008BF70474FF000030AE000BF50EA0102F7
:1023400008BF704711F0004302D5404261EB4101E4
:102350005FEA010C02BF84460146002043F0B64309
:1023600008BFA3F18053A3F50003BCFA8CF2083A2E
:10237000A3EBC25310DB01FA02FC634400FA02FC37
:10238000C2F12002BCF1004F20FA02F243EB02003E
:1023900008BF20F00100704702F1200201FA02FCA0
:1023A000C2F1200250EA4C0021FA02F243EB020093
:1023B00008BF20EADC7070474FF0FF0C1CEAD052D7
:1023C0001EBF1CEAD15392EA0C0F93EA0C0F6FD098
:1023D0001A4480EA010C400218BF5FEA41211ED076
:1023E0004FF0006343EA501043EA5111A0FB013162
:1023F0000CF00040B1F5000F3EBF490041EAD37137
:102400005B0040EA010062F17F02FD2A1DD8B3F1B2
:10241000004F40EBC25008BF20F00100704790F021
:10242000000F0CF0004C08BF49024CEA502040EA73
:1024300051207F3AC2BFD2F1FF0340EAC250704739
:1024400040F400004FF00003013A5DDC12F1190F77
:10245000DCBF00F000407047C2F10002410021FAE9
:1024600002F1C2F1200200FA02FC5FEA310040F101
:10247000000053EA4C0308BF20EADC70704792F07A
:10248000000F00F0004C02BF400010F4000F013AB2
:10249000F9D040EA0C0093F0000F01F0004C02BFAD
:1024A000490011F4000F013BF9D041EA0C018FE71C
:1024B0000CEAD15392EA0C0F18BF93EA0C0F0AD022
:1024C00030F0004C18BF31F0004CD8D180EA010048
:1024D00000F00040704790F0000F17BF90F0004FE1
:1024E000084691F0000F91F0004F14D092EA0C0FC3
:1024F00001D142020FD193EA0C0F03D14B0218BF56
:10250000084608D180EA010000F0004040F0FE409B
:1025100040F40000704740F0FE4040F44000704737
:102520004FF0FF0C1CEAD0521EBF1CEAD15392EAB6
:102530000C0F93EA0C0F69D0A2EB030280EA010CA6
:1025400049024FEA402037D04FF0805343EA11113F
:1025500043EA10130CF000408B4238BF5B0042F19D
:102560007D024FF4000C8B4224BF5B1A40EA0C0042
:10257000B3EB510F24BFA3EB510340EA5C00B3EB74
:10258000910F24BFA3EB910340EA9C00B3EBD10F62
:1025900024BFA3EBD10340EADC001B0118BF5FEAB4
:1025A0001C1CE0D1FD2A3FF650AF8B4240EBC250DD
:1025B00008BF20F0010070470CF0004C4CEA50209E
:1025C0007F32C2BFD2F1FF0340EAC250704740F4ED
:1025D00000004FF00003013A37E792F0000F00F0DF
:1025E000004C02BF400010F4000F013AF9D040EA5D
:1025F0000C0093F0000F01F0004C02BF490011F4F1
:10260000000F013BF9D041EA0C0195E70CEAD153E8
:1026100092EA0C0F08D142027FF47DAF93EA0C0FCF
:102620007FF470AF084676E793EA0C0F04D14B02B3
:102630003FF44CAF08466EE730F0004C18BF31F065
:10264000004CCAD130F000427FF45CAF31F000435F
:102650007FF43CAF5FE700BF4FF0FF3C06E000BFF8
:102660004FF0010C02E000BF4FF0010C4DF804CD1B
:102670004FEA40024FEA41037FEA226C18BF7FEA2B
:10268000236C11D001B052EA530C18BF90EA010F2D
:1026900058BFB2EB030088BFC81738BF6FEAE170BC
:1026A00018BF40F0010070477FEA226C02D15FEA58
:1026B000402C05D17FEA236CE4D15FEA412CE1D0C4
:1026C0005DF8040B704700BF844608466146FFE78B
:1026D0000FB5FFF7C9FF002848BF10F1000F0FBD6D
:1026E0004DF808EDFFF7F4FF0CBF012000205DF866
:1026F00008FB00BF4DF808EDFFF7EAFF34BF0120EB
:1027000000205DF808FB00BF4DF808EDFFF7E0FF83
:1027100094BF012000205DF808FB00BF4DF808EDD4
:10272000FFF7D2FF94BF012000205DF808FB00BF37
:102730004DF808EDFFF7C8FF34BF012000205DF819
:1027400008FB00BF4FEA4002B2F1FE4F0FD34FF03B
:102750009E03B3EB12620DD94FEA002343F000430E
:1027600010F0004F23FA02F018BF404270474FF0BC
:102770000000704712F1610F01D1420205D110F043
:10278000004008BF6FF0004070474FF000007047F6
:1027900042000ED2B2F1FE4F0BD34FF09E03B3EBCB
:1027A000126209D44FEA002343F0004323FA02F0F7
:1027B00070474FF00000704712F1610F01D14202E3
:1027C00002D14FF0FF3070474FF00000704700BF5C
:1027D000014B1868704700BF4C01001008B5074B4B
:1027E000044613B10021AFF30080054B1868836ADB
:1027F00003B198472046FFF77BF800BF00000000B8
:10280000F04000008A892DE9F041054610070C468A
:1028100059D44B68002B02DC0B6C002B17DDE66AE9
:10282000AEB102F48052002392B22F682B600AB13D
:10283000606D15E0216A01232846B047411C0FD185
:102840002B686BB11D2B01D0162B03D12F600020FC
:10285000BDE8F081A38943F04003A381BDE8F08186
:10286000A3895A0705D56368C01A636B0BB1236C43
:10287000C01A00230246E66A216A2846B047431C74
:10288000A38906D129681D2939D8204ACA40D6070C
:1028900035D5002262602269D904226004D5421C29
:1028A00001D12B6803B96065616B2F600029CED020
:1028B00004F14403994202D0284600F0B7F9002001
:1028C0006063BDE8F0810F69002FC0D093070E68E8
:1028D0000CBF4B690023C7EB06080F608B6002E05A
:1028E0000744C0EB0808B8F1000FB0DD43463A4694
:1028F000216A2846A66AB0470028F1DCA38943F084
:102900004003A3814FF0FF30BDE8F081010040207B
:1029100038B50B6905460C46DBB118B183690BB9B4
:1029200000F072F80C4B9C4201D16C6808E00B4B34
:102930009C4201D1AC6803E0094B9C4208BFEC68A3
:10294000B4F90C302BB121462846BDE83840FFF7DA
:1029500059BF002038BD00BF8C400000AC400000D3
:10296000CC400000014620B9044B0549186800F02E
:10297000B7B8044B1868FFF7CBBF00BFF0400000AA
:10298000112900004C010010014900F0A9B800BF56
:102990001129000010B504460023036043608360E2
:1029A00081814366C28103614361836119460822C4
:1029B0005C3000F033F9054B24626362044BA36280
:1029C000044BE362044B236310BD00BF513300008E
:1029D00073330000AB330000CF33000070B56823C1
:1029E0004D1E5D430E4605F1740100F063F9044687
:1029F00040B1002180E842000C30A06005F168027F
:102A000000F00CF9204670BD836910B5044633BB55
:102A10008364C3640365124B124A1B688262984246
:102A200004BF0123836100F01FF86060204600F0BE
:102A30001BF8A060204600F017F80022E060042197
:102A40006068FFF7A7FF01220921A068FFF7A2FF36
:102A500002221221E068FFF79DFF0123A36110BD50
:102A6000F040000089290000F8B51C4B07461E689D
:102A7000B36913B93046FFF7C7FF4836B4687368C7
:102A8000013B04D4B4F90C507DB16834F8E73368E5
:102A90000BB13668F2E704213846FFF79FFF30603C
:102AA0000028F6D10C233B60F8BD4FF6FF73E3819D
:102AB0000123A38165662560A56065602561656168
:102AC000A5610822294604F15C0000F0A7F86563BF
:102AD000A563A564E5642046F8BD00BFF040000092
:102AE0002DE9F8438046894600F14804002694B158
:102AF000A5686768013F0CD4AB89012B07D9B5F9EC
:102B00000E30013303D029464046C8470643683596
:102B1000F0E72468EBE73046BDE8F8830E4B70B56C
:102B20001E460E4C0025E41AA410A54204D056F807
:102B3000253098470135F8E701F034F9084B094C86
:102B40001E46E41AA4100025A54204D056F82530EC
:102B500098470135F8E770BD54010010540100108A
:102B6000540100105C010010F0B58B8991B09D07F5
:102B700006460C4625D4B1F90E10002908DAA389BF
:102B8000002513F0800F14BF40274FF480670DE03D
:102B900001AA00F003FD0028F1DB029D4FF48067DD
:102BA00005F47045A5F500514D424D41394630467A
:102BB00000F080F860B9A3899A051DD443F00203A0
:102BC000A38104F14703236023610123636113E0C0
:102BD0000A4BB362A389206043F08003A381206184
:102BE00067614DB1B4F90E10304600F0E9FC18B140
:102BF000A38943F00103A38111B0F0BD892900002E
:102C000010B5C9B202449042034605D01C78013089
:102C10008C42F8D1184610BD002010BD0346024476
:102C2000934202D003F8011BFAE7704730B5002940
:102C30003CD051F8042C0B1F1D49002AB8BF9B182B
:102C40000A680C4612B95A600B6030BD9A420DD921
:102C500019685818824201BF106852680918196033
:102C60005A60236030BD994203D80A465168002952
:102C7000F9D1146815199D420AD11B682344D01854
:102C80008142136012D10868034413604B680CE062
:102C900002D90C23036030BD18681C18A14201BF83
:102CA0000C684968001918605960536030BD00BF56
:102CB0009404001070B5CD1C25F0030508350C2DCB
:102CC00038BF0C25002D064603DA0C2333600020A4
:102CD00070BDA942F9D81F4B1C681A462146A1B104
:102CE0000B685B1B0ED40B2B03D90B60CC18CD509B
:102CF0001EE08C420BBF63684B681360636018BFB3
:102D00000C4615E00C464968E9E7134C23681BB9EB
:102D1000304600F00DFB20602946304600F008FBED
:102D2000431CD2D0C41C24F00304A0420AD1256065
:102D300004F10B00231D20F00700C31A09D05A42EA
:102D4000E25070BD211A304600F0F2FA0130EED1A7
:102D5000BBE770BD9404001090040010936810B499
:102D6000013B002B936008DA9469A34202DBCBB2EB
:102D70000A2B02D110BC00F02FBB1368581C106046
:102D80001970C8B210BC7047F8B506460F46144615
:102D9000D518AC4208D03A4614F8011B3046FFF76C
:102DA000DDFF431CF5D100E00020F8BD2DE9F04F18
:102DB0009DB00C4617460393064618B183690BB9BC
:102DC000FFF722FE7F4B9C4201D1746808E07E4BE6
:102DD0009C4201D1B46803E07C4B9C4208BFF4687C
:102DE000A38918070CD5236953B100230993202325
:102DF0008DF8293030238DF82A30DFF8D4B144E043
:102E00002146304600F04EFB0028EED04FF0FF3058
:102E1000D5E0039A111D12680391002A80F28C807C
:102E2000524243F002000792049098F800302E2B93
:102E300000F08480032298F800106548FFF7E0FE58
:102E400048B14023CBEB000003FA00F0049B08F1EB
:102E500001081843049098F8001006225D4808F114
:102E600001078DF82810FFF7CBFE002800F09580B1
:102E7000594B002B40F08880039B073323F0070356
:102E800008330393099B53440993B846454615F804
:102E9000013B1BB9B8EB07090FD003E0252BF9D094
:102EA000A846F3E74B463A4621463046FFF76CFF0B
:102EB00001307FD0099B4B44099398F80030002BD8
:102EC00078D000234FF0FF320493079305920693C6
:102ED0008DF853301A930127052229783F48FFF7D0
:102EE0008FFE05F10108049B38B13C4A4546801A23
:102EF00007FA00F018430490EEE7D90644BF2022F9
:102F00008DF853201A0744BF2B228DF853202A78BE
:102F10002A2A3FF47EAF079A00210A20A84698F893
:102F200000300135303B092B03D800FB0232012170
:102F3000F4E700293FF479AF079276E798F801307B
:102F40002A2B0BD1039B08F102081A1D1B68039260
:102F5000002BB8BF4FF0FF3305936BE700231946F2
:102F6000059308F101000A25804698F800200130F9
:102F7000303A092A03D805FB01210123F4E7002B8D
:102F80003FF458AF059155E703AB00932246144B2D
:102F900004A93046AFF3008007E003AB009322465C
:102FA0000F4B04A9304600F09DF8B0F1FF3F824678
:102FB0007FF468AFA3895B063FF528AF09981DB081
:102FC000BDE8F08F8C400000AC400000CC40000019
:102FD000FA400000FE40000000000000F440000045
:102FE000892D000013460A46014602480068FFF793
:102FF000DDBE00BF4C0100102DE9F04791461F4691
:103000000A698B6806469342B8BF1346C9F8003078
:1030100091F843200C46DDF8208012B10133C9F845
:1030200000302368990642BFD9F800300233C9F84E
:103030000030256815F0060510D104F1190A07E0E3
:103040000123524639463046C04701301AD0013577
:10305000E368D9F800209B1A9D42F1DB94F84330D5
:103060002268003318BF012392060FD5E1183020E3
:1030700081F843005A1C94F845102244023382F828
:10308000431003E04FF0FF30BDE8F08704F1430246
:1030900039463046C0470130F4D02268D9F8005094
:1030A000E36802F00602042A08BF5D1B2269A368D8
:1030B0000CBF25EAE57500259342C4BF9B1AED18A5
:1030C0004FF000091A344D4509D0012322463946F4
:1030D0003046C0470130D5D009F10109F3E700209F
:1030E000BDE8F0872DE9F04317460A7E85B06E2AC9
:1030F000984606460C460C9B01F1430E00F0AE804C
:1031000011D8632A22D009D8002A00F0BB80582A9F
:1031100040F0CA8081F84520834955E0642A1ED0DA
:10312000692A1CD0C0E0732A00F0B08009D86F2A49
:103130002ED0702A40F0B8800A6842F020020A605F
:103140003EE0752A24D0782A3AD0ADE01A6801F121
:103150004205111D1960136884F84230A8E0216807
:103160001A6811F0800F02D0111D196008E011F0EB
:10317000400F02F10401196002D0B2F9003000E002
:103180001368002B3CDA2D225B4284F8432037E0A1
:1031900021681A6811F0800F02D0111D196007E034
:1031A00011F0400F02F10401196001D0138800E012
:1031B0001368227E5C496F2A14BF0A2208221BE092
:1031C00078225A4984F845202268186812F0800F46
:1031D00000F104051D6003D1550601D5038800E008
:1031E0000368D00744BF42F0200222601BB9226866
:1031F00022F0200222601022002084F8430001E027
:1032000049490A226568002DA56008DB206820F086
:10321000040020602BB9002D7DD175460CE0002BF9
:1032200079D07546B3FBF2F002FB1033CB5C05F8A6
:10323000013D03460028F5D1082A0BD12368DA079F
:1032400008D5236962689A42DEBF302305F8013C45
:1032500005F1FF35C5EB0E0323612EE008681A68FF
:1032600010F0800F496903D0101D1860136808E042
:1032700010F0400F02F104001860136801D01980AB
:1032800000E0196000232361754616E01A68111DDD
:1032900019601568002162682846FFF7B1FC08B183
:1032A000401B6060636804E004F1420584F842203A
:1032B00001232361002384F84330CDF800803B468E
:1032C00003AA21463046FFF797FE013002D14FF0A6
:1032D000FF3026E023692A4639463046C047013090
:1032E000F5D023689B0710D5002504F1190907E0E4
:1032F00001234A4639463046C0470130E7D0013500
:10330000E368039A9B1A9D42F2DBE068039B9842B4
:10331000B8BF184605E00B7804F1420584F8423046
:103320008AE705B0BDE8F0830541000016410000C2
:1033300038B5064C0023054608462360FEF7C4FA5C
:10334000431C02D1236803B12B6038BDA0040010D8
:1033500010B50C46B1F90E1000F054F90028ABBFBF
:10336000636DA3891B1823F48053ACBF6365A381ED
:1033700010BD2DE9F0411F468B890546DB050C4643
:10338000164605D502230022B1F90E1000F028F9E7
:10339000A389324623F48053A381B4F90E103B462F
:1033A0002846BDE8F04100F06BB810B50C46B1F905
:1033B0000E1000F015F9431CA38915BF606523F4B6
:1033C000805343F48053A38118BFA38110BDB1F98A
:1033D0000E1000F0D3B80000F8B50F4614460646AC
:1033E00018B183690BB9FFF70FFB224B9C4201D147
:1033F000746808E0204B9C4201D1B46803E01F4B85
:103400009C4208BFF468A369A360A3891A0709D581
:1034100023693BB123682069FDB2181A6369984299
:103420000FDB08E02146304600F03CF80028F1D0E0
:103430004FF0FF30F8BD21463046FFF769FA00280B
:10344000F6D1A368013BA36023685A1C22601F7059
:103450006269431C934204D0A389DB0707D50A2D78
:1034600005D121463046FFF753FA0028E0D128461F
:10347000F8BD00BF8C400000AC400000CC40000014
:1034800038B5074C054608461146002222601A4608
:10349000FEF790F9431C02D1236803B12B6038BDBD
:1034A000A0040010314B70B51D6806460C4625B1CE
:1034B000AB6913B92846FFF7A7FA2D4B9C4201D1FF
:1034C0006C6808E02B4B9C4201D1AC6803E02A4BAE
:1034D0009C4208BFEC68A3899AB211071DD4D50697
:1034E00002D40922326038E0500712D5616B41B135
:1034F00004F14403994202D03046FFF797FB0023C2
:103500006363A38923F02403A381002363602369F9
:103510002360A38943F00803A38123694BB9A389DE
:1035200003F42073B3F5007F03D021463046FFF744
:103530001BFBA38913F0010205D00022A26062697F
:103540005242A26103E0990758BF6269A2602269F2
:103550004AB903F0800080B230B143F04003A38148
:103560004FF0FF3070BD002070BD00BF4C01001057
:103570008C400000AC400000CC40000038B5064C48
:103580000023054608462360FEF700F9431C02D1DC
:10359000236803B12B6038BDA004001038B5074C78
:1035A00000230546084611462360FEF76FF9431CC9
:1035B00002D1236803B12B6038BD00BFA004001006
:1035C00038B5064C0023054608462360FCF7D4FFB7
:1035D000431C02D1236803B12B6038BDA004001046
:1035E00038B5074C054608461146002222601A46A7
:1035F000FEF73AF9431C02D1236803B12B6038BDB2
:10360000A004001038B5074C0546084611460022B4
:1036100022601A46FEF7F4F8431C02D1236803B176
:103620002B6038BDA004001070B58AB0064600F0CB
:103630004DF8224D044695F90030013303D0304651
:1036400000F096FB10B920460AB070BD304600F07D
:103650008BFB4FF07E51FFF76BF80028F3D0184931
:10366000012200233046009208930191FEF7E0FA10
:1036700002460B461348CDE90423CDE9022300F0AE
:1036800057FA95F90030CDE90601022B0BD06846B8
:1036900000F04CFA38B1089B53B9DDE90601FEF79A
:1036A0002DFD0AB070BDFFF793F821230360F2E708
:1036B000FFF78EF8089B0360EFE700BF5001001092
:1036C00028410000FC3D000000F04AB92DE9F84314
:1036D00020F00045B5F17E5F044600F0C68012DCA4
:1036E000B5F17C5F064616DAB5F1485F80F2CB8013
:1036F0008B49FEF759FD4FF07E51FFF719F850B195
:103700002046BDE8F8830146FEF74CFD0146FEF772
:1037100007FFBDE8F883204600F026FB01464FF086
:103720007E50FEF73FFD4FF07C51FEF745FE04460C
:103730007C49FEF741FE7C49FEF736FD2146FEF747
:103740003BFE7A49FEF72EFD2146FEF735FE78490D
:10375000FEF72AFD2146FEF72FFE7649FEF722FDF1
:103760002146FEF729FE7449FEF71EFD2146FEF7AD
:1037700023FE724980462046FEF71EFE7049FEF782
:1037800011FD2146FEF718FE6E49FEF70DFD21469C
:10379000FEF712FE6C49FEF705FD2146FEF70CFE12
:1037A0004FF07E51FEF700FD8146204600F06AF999
:1037B000664B07469D424946404643DCFEF7B0FE55
:1037C000394680463846FEF7EFFC01464046FEF794
:1037D000F3FD27F47F6525F00F058046294628462E
:1037E000FEF7EAFD01462046FEF7DCFC29460446CA
:1037F0003846FEF7D9FC01462046FEF791FE014609
:10380000FEF7D2FC01465248FEF7CCFC014640468A
:10381000FEF7C8FC294604462846FEF7C5FC0146CB
:103820004C48FEF7BFFC01462046FEF7BBFC0146B4
:103830004848FEF7B7FC002E3FF763AF00F10040A9
:10384000BDE8F883FEF76CFE3946FEF7B5FD394654
:10385000FEF7AAFC0146FEF7A7FC3F49FEF7A4FCD1
:1038600001463E48FEF79EFCE5E73C49FEF7A4FD15
:10387000374905462046FEF79FFD01462846FEF7DC
:1038800093FCBDE8F8830146FEF796FD0546254901
:10389000FEF792FD2449FEF787FC2946FEF78CFDD2
:1038A0002249FEF77FFC2946FEF786FD2049FEF7F8
:1038B0007BFC2946FEF780FD1E49FEF773FC294676
:1038C000FEF77AFD1C49FEF76FFC2946FEF774FDF2
:1038D0001A4906462846FEF76FFD1949FEF762FCB5
:1038E0002946FEF769FD1749FEF75EFC2946FEF7FB
:1038F00063FD1549FEF756FC2946FEF75DFD4FF0C6
:103900007E51FEF751FC01463046FEF709FE214686
:10391000FEF752FD2146FEF747FCBDE8F88300BFE5
:10392000CAF2497108EF1138047F4F3A4611243D1D
:10393000A80A4E3E90B0A63EABAA2A3E2EC69D3D9A
:103940006133303F2D57014039D119409999793F62
:103950002EBD3BB3DB0F493F2EBD3B33DB0FC93FD1
:10396000F8B50C4621F00041B1F1FF4F034614DCDD
:1039700020F00046B6F1FF4F07460EDCB4F17E5F43
:103980003DD0A51705F0020545EAD07556B9022DC0
:1039900031D0032D2CD13248F8BD19462046FEF710
:1039A00003FCF8BD01B3B1F1FF4F2CD0B6F1FF4FCE
:1039B0001AD0711AC9153C291BDC002C39DB2146B1
:1039C0001846FEF7ADFD00F0CFF900F0B7F8012D75
:1039D0002CD0022D22D0002D2FD02249FEF7E4FB5F
:1039E0002149FEF7DFFBF8BD002F06DB1F48F8BDBD
:1039F000F8BD1E48EBE71C48F8BD1D48F8BDBDE802
:103A0000F84000F09BB8B6F1FF4F17D0022DF2D06E
:103A1000032DC0D0012D19D00020F8BD1149FEF7AB
:103A2000C3FB01461048FEF7BDFBF8BD00F10040A6
:103A3000F8BD3C31C3DA0020C9E7F8BD022D0CD037
:103A4000032D08D0012D04D00A48F8BD4FF00040E6
:103A5000F8BD0948F8BD0948F8BD0948F8BD00BFE0
:103A6000DB0F49C02EBDBB33DB0F4940DB0FC93F25
:103A7000DB0FC9BFDB0F493FDB0F49BFE4CB16C0EB
:103A8000E4CB164020F00042B2F1FF4F70B504467F
:103A90002ED262B3002803463DDBB2F5000F4FEA99
:103AA000E0502CD3002631467F38C3F31603C207FB
:103AB00043F4000348BF5B0040105B0019244FF043
:103AC00080728D189D4202DC5B1BA9181644013CD4
:103AD0004FEA43034FEA5202F3D113B106F0010358
:103AE0001E44761006F17C5606EBC05070BD70BDCA
:103AF0000146FEF761FC2146FEF756FB70BD14F44B
:103B0000000201D00EE00A465B001C0202F1010136
:103B1000F9D5801AC6E70146FEF744FB0146FEF7D9
:103B2000FFFC70BD4FF0FF32F3E700BF002070478D
:103B300000200149704700BF0000F87F2DE9F041E7
:103B400020F00045B5F1A14F0446064608DBB5F16B
:103B5000FF4F6FDC002840F3A0806F48BDE8F08184
:103B60006E4B9D4277DCB5F1445F68DB4FF0FF3769
:103B700021462046FEF720FC01468046FEF71CFC4D
:103B800005466749FEF718FC6649FEF70DFB294616
:103B9000FEF712FC6449FEF707FB2946FEF70CFC12
:103BA0006249FEF701FB2946FEF706FC6049FEF775
:103BB000FBFA2946FEF700FC5E49FEF7F5FA41469E
:103BC000FEF7FAFB5C4980462846FEF7F5FB5B49A9
:103BD000FEF7E8FA2946FEF7EFFB5949FEF7E2FA4D
:103BE0002946FEF7E9FB5749FEF7DCFA2946FEF7BE
:103BF000E3FB5549FEF7D6FA2946FEF7DDFB7B1CB1
:103C0000014640464CD0FEF7CFFA2146FEF7D4FBE2
:103C10004E4B4F4D53F82710FEF7C4FA2146FEF7DE
:103C2000C1FA014655F82700FEF7BCFA002E30DB3A
:103C3000BDE8F0810146FEF7B7FABDE8F0814549DD
:103C4000FEF7B2FA4FF07E51FEF772FD00288DD0DC
:103C50002046BDE8F08100F087F83F4B04469D42C6
:103C600029DCA3F5D0039D4244DC0146FEF79CFA13
:103C70004FF07E51FEF796FA4FF080410546204600
:103C8000FEF792FA01462846FEF74AFC0027044652
:103C90006EE700F10040BDE8F0813048BDE8F081FA
:103CA000FEF782FA2146FEF787FB01462046FEF723
:103CB00079FABDE8F0812A4B9D4214DC4FF07F5128
:103CC000FEF770FA4FF07F5105462046FEF774FB71
:103CD0004FF07E51FEF768FA01462846FEF720FCB9
:103CE0000227044644E701461E48FEF719FC032755
:103CF00004463DE74FF07E51FEF754FA4FF07E51F7
:103D000005462046FEF750FA01462846FEF708FC15
:103D1000012704462CE700BFDB0FC93FFFFFDF3E52
:103D2000D769853C59DA4B3D356B883D6E2EBA3DDF
:103D30002549123EABAAAA3E21A215BD6BF16E3DEC
:103D400095879D3D388EE33DCDCC4C3E3041000003
:103D500040410000CAF24971FFFF973FDB0FC9BF26
:103D6000FFFF1B40000080BF20F00040704700BFF5
:103D700030F0004001D102207047A0F50003B3F1FC
:103D8000FE4F01D204207047054B421E9A4201D8D3
:103D900003207047A0F1FF40B0FA80F0400970475F
:103DA000FEFF7F00F8B500BFF8BC08BC9E46704718
:103DB000F8B500BFF8BC08BC9E4670478D110000E6
:103DC0009D110000CD110000DD110000B9110000AF
:103DD000BC3D000094020010636F756C64206E6F30
:103DE000742070696E6F75740000000070696E6DEC
:103DF0006170206D69732D6D61746368000000004F
:103E000070696E6D6170206E6F7420666F756E6480
:103E100020666F72207065726970686572616C00EF
:103E200070696E6D6170206E6F7420666F756E6460
:103E300020666F722066756E6374696F6E00000095
:103E400016C00920000001400100000047C0092001
:103E50000000014002000000FFFFFFFFFFFFFFFF27
:103E60000000000001C0092000C00940020000005D
:103E700003C0092000C00040010000000BC0092061
:103E8000008009400100000010C00920000001402E
:103E9000010000001AC0092000C009400300000012
:103EA00041C00920000001400200000049C0092073
:103EB00000800940020000009DC0092000C00940A8
:103EC00003000000FFFFFFFFFFFFFFFF00000000F7
:103ED00000C0092000C009400200000002C0092003
:103EE00000C00040010000000AC009200080094015
:103EF000010000000FC00920000001400100000087
:103F000019C0092000C009400300000040C009207A
:103F1000000001400200000048C009200080094064
:103F2000020000009CC0092000C0094003000000FE
:103F3000FFFFFFFFFFFFFFFF0000000011C009208F
:103F4000000001400100000042C0092000000140C3
:103F500002000000FFFFFFFFFFFFFFFF0000000067
:103F600000C0092000C00540030000000AC009206D
:103F700000000A400200000013C0092000C00540F4
:103F8000030000001BC0092000C001400100000028
:103F9000FFFFFFFFFFFFFFFF0000000001C009203F
:103FA00000C00540030000000BC0092000000A40CB
:103FB0000200000014C0092000C0054003000000FA
:103FC0001CC0092000C0014001000000FFFFFFFFEE
:103FD000FFFFFFFF0000000032C0092001000000C9
:103FE0000200000034C009200200000002000000AE
:103FF00035C00920030000000200000037C009207E
:10400000040000000200000038C009200500000084
:10401000020000003AC00920060000000200000073
:1040200040C00920010000000100000041C009203B
:10403000020000000100000042C00920030000004F
:104040000100000043C0092004000000010000003E
:1040500044C00920050000000100000045C00920FF
:10406000060000000100000079C0092002000000E5
:10407000030000007AC009200300000003000000D4
:10408000FFFFFFFFFFFFFFFF000000000000000038
:104090000000000000000000000000000000000020
:1040A0000000000000000000000000000000000010
:1040B0000000000000000000000000000000000000
:1040C00000000000000000000000000000000000F0
:1040D00000000000000000000000000000000000E0
:1040E000000000000000000000000000430000008D
:1040F000EC000010232D302B2000686C4C0065660E
:104100006745464700303132333435363738394128
:10411000424344454600303132333435363738393E
:1041200061626364656600006173696E6600000029
:104130006937AC3168212233B40F14336821A233BC
:104140003863ED3EDA0F493F5E987B3FDA0FC93F97
:04415000000000006B
:1041540000D8B805188001401C800140208001402F
:104164002480014040800140448001404880014057
:10417400A8040010000000008C400000AC400000C7
:10418400CC4000000000000000000000000000001F
:1041940000000000EC4000000000000000000000EF
:1041A400000000000000000000000000000000000B
:1041B40000000000000000000000000000000000FB
:1041C40000000000000000000000000000000000EB
:1041D40000000000EC0000100100000039010000A4
:0841E4003D0300001101000081
:0400000300001925BB
:00000001FF
