:020000040800F2
:1000000000800120094400085544000855440008B8
:1000100055440008554400085544000800000000FD
:10002000000000000000000000000000554400082F
:1000300055440008000000005544000855440008DD
:10004000554400085544000855440008554400082C
:10005000554400085544000855440008554400081C
:10006000554400085544000855440008554400080C
:1000700055440008554400085544000855440008FC
:10008000554400085544000855440008000000008D
:1000900000000000000000000000000055440008BF
:1000A00055440008554400085544000855440008CC
:1000B00055440008554400085544000855440008BC
:1000C00055440008554400085544000855440008AC
:1000D000554400085544000855440008000000003D
:1000E000554400085544000855440008000000002D
:1000F000000000000000000000000000554400085F
:10010000000000005544000855440008554400080C
:1001100000000000000000000000000000000000DF
:10012000554400085544000855440008554400084B
:10013000554400080000000000000000000000001E
:10014000000000000000000000000000554400080E
:10015000554400085544000855440008554400081B
:10016000554400085544000800000000000000004D
:10017000000000000000000000000000000000007F
:1001800000000000554400080000000000000000CE
:1001900055440008044B05481B1A062B02D9044B92
:1001A00003B11847704700BF1B020020180200204F
:1001B0000000000005490648091A891001EBD171B9
:1001C000491002D0034B03B11847704718020020B2
:1001D000180200200000000010B5064C237843B937
:1001E000FFF7D8FF044B13B10448AFF3008001239D
:1001F000237010BD1802002000000000146D0008DC
:1002000008B5084B1BB108490848AFF300800848FF
:10021000036813B9BDE80840CCE7064B002BF9D0C2
:100220009847F7E7000000001C020020146D00084A
:10023000140200200000000043680B7043681B0A92
:100240004B70C3888B70C379CB7083680B718368E4
:100250001B0A4B7143898B71C37ACB71082070479D
:100260000B7843604A7843EA022343608A7843EA82
:1002700002434360CA7843EA026343600B798360B8
:100280004A7943EA022383608A7943EA024383601E
:10029000CA7943EA026383600820704700487047C8
:1002A000646600080048704774660008004870479C
:1002B0009866000800487047B46600080048704718
:1002C000D866000800487047EC6600080048704790
:1002D000B0670008004870471067000800207047AA
:1002E0000020704700487047346700080048704796
:1002F00044670008044A916853680968D2680B4251
:1003000018BF1B04136070473402002003460C30F2
:100310001B691847406970470048704734670008F8
:10032000004870474467000890F81006704700BF07
:100330002DE9F043002203790B704A708A70CA706D
:10034000037983B0002B63D00C460425C36853F8AF
:10035000223023711F0A1E0C1B0E6771A671E371F8
:1003600001320379D2B2934205F1040504F1040489
:10037000ECD82A1D134605F1010EAF1CEE1C047CBF
:100380004C55002401F80E40CC558C55057CA5B188
:10039000CD18826952F82420CA54170A160C120E7E
:1003A0006F70AE70EA700134027CE4B2A24203F1D5
:1003B000040305F10405ECD81A46047F8C54CA18CE
:1003C000002555709570D570027F1C1DE2B10F4657
:1003D0008146D9F824302EB2013553F8260005F0B5
:1003E000FEFA0190804601983851D9F8243004343F
:1003F00053F826103819424604F022FC99F81C30B4
:10040000EDB2AB424444E4D8204603B0BDE8F083EB
:1004100008221346072606274FF0050E0425AEE7EF
:1004200070B503790B7082B0064680680D4605F002
:10043000D6FA02AB044643F8040D02461868C5F824
:100440000100B168681D04F0FBFB601D02B070BDC7
:1004500083882DE9F0410B7083881B0A4B7084B0B0
:10046000064680680D4605F0BAFA04AB024643F82A
:100470000C0D04461868C5F80200B168A81D04F008
:10048000DFFBF06805F0ABFA04ABA21D43F8080DE2
:1004900080461868A8500A34F1684246281904F0CA
:1004A000CFFB306905F09BFA04AB444443F8040DDC
:1004B0000746186828510434316928193A4604F06F
:1004C000BFFB381973692B540544190A1A0C043000
:1004D0001B0E6970AA70EB7004B0BDE8F08100BF1C
:1004E000F0B40B4682B013F8012B0271064618686F
:1004F0000190019D681D052801F1040708D92C1DF4
:100500003B460C4413F8012F03F8012CA342F9D108
:100510000D4400232B71B76002B0F0BC704700BFE0
:10052000F0B40B7883804A7843EA022384B0838056
:100530000546D1F802000190019A961D062E01F1A0
:10054000050708D9541D3B460C4413F8010F03F866
:10055000010C9C42F9D18B1800205871AF6088596A
:100560000290029B043633449E4209D209320A4467
:100570003046013012F8014F02F8014C9842F8D38E
:10058000CA18013E0E44002002F8010CEE6010680B
:10059000039003981E1D3044864209D203330B4456
:1005A0003246013213F8014F03F8014C8242F8D36E
:1005B0000F18013E0E44002307F8013C2E61BC7861
:1005C0007B780A5CFE78210441EA0323134343EA63
:1005D000066304306B6104B0F0BC70472DE9F04154
:1005E00003790C78A34282B005460E46C0F08380A2
:1005F0002C71002C00F0888005F1080C3246002395
:100600004FF0040E97795179107992F80780EC68D1
:100610003F0447EA0121014341EA0861A960DCF88F
:10062000001044F8231001332979DBB299420EF10E
:10063000040E02F10402E5D816F80E802B7C0EF1B0
:10064000040743453C4668D385F81080B8F1000F95
:1006500020D005F1140C3219002392F802E05178F1
:10066000177892F80380A8694FEA0E4E4EEA0121EE
:10067000394341EA08616961DCF8001040F8231051
:100680000133297CDBB2994204F1040402F1040233
:10069000E3D82746F75D2B7FBB4245D3231D2F7739
:1006A0002FB30027BC4605F1200EF05801900198A9
:1006B0001C1D2044844209D20333334422460132B4
:1006C00013F8011F03F8011C8242F8D33318013CD0
:1006D00003F801CC34446B6A2C62DEF8002043F846
:1006E000272001372A7FFFB2BA420346DDD81846D9
:1006F00002B0BDE8F081A100C06801F01FFC2C71C0
:10070000E860002C7FF478AF4FF0040E2B7C16F8D5
:100710000E80082743453C4696D24FEA8801A869D7
:1007200001F00CFCA8618FE7B900686A01F006FCD3
:100730006862B3E72DE9F041632984B003DD90F8E6
:100740001066002E4BD0136805460E4610461B68F7
:1007500005F23B319847C2B2C0F307215418E44375
:1007600080B200F23A334FF0FF0C85F836234FF099
:10077000FE0E46F3072285F8384305F23937F4B206
:1007800085F8371385F83A23E91885F834C385F8D6
:1007900035E385F839433B46002201E013F8014F69
:1007A0008B422244FAD1C31D00F1080615FA83F3E7
:1007B000B6B2D243B6F5007F83F8342313D805F5DB
:1007C0004D7766B1731E1F4405F1580805F23334A6
:1007D00014F8011F404603F0D5FDA742F8D130467A
:1007E00004B0BDE8F0812F4A01922F4C2B6803948E
:1007F00003228DF808201B682C498B424AD104AB98
:10080000382143F8101D186885F83B23C5F83C03D0
:1008100004F1300C05F55076A646BEE80F00E6451B
:1008200030607160B260F360744606F11006F3D177
:1008300003CC002371604FF0FF0CC2214FF0FE0E7D
:100840003D240722306085F8381385F834C385F8D5
:1008500035E385F8364385F8373385F83A3385F83C
:10086000392305F2773101E017F8012F8F42134445
:10087000FAD1DB4385F8783305F1580705F23336B2
:1008800005F55E7416F8011F384603F07BFDB4428F
:10089000F8D103E0284601AA072198474FF0FF3618
:1008A0009DE700BFF8650008686700083507000885
:1008B0002DE98048DFF84CB389B0DBF814110BF157
:1008C000040003F089FC00230BF29452CBF8FC35B2
:1008D000CBF80036CBF80836CBF8043652F8041FB4
:1008E00019B10133192BF9D106E003F5B371C34AED
:1008F0004BF8212064335360DFF818A3AAF54D7438
:100900000DE09BF810363BB1D4F8143640F6C41213
:10091000EB1A934200F22281012001F08BFFB848CC
:1009200003F060FDDBF8183642F6F822C31A934252
:1009300084BF002384F81036DBF8FC35054633B15C
:10094000D4F81C36984284BF0023C4F8FC35AD4E61
:10095000301D01F0A7FC80460028D2D10121301DB6
:1009600001F014FB0028CCDBD4F80C36D4F8FC756D
:100970000344072FC4F80C3646D04FB9FF2856D190
:10098000012205F11403C4F8FC25C4F81C36DEE787
:10099000012F56D0022F00F0A280032F00F0A98073
:1009A000042F00F0B080052F00F0BC80062F00F06F
:1009B000C180082FCBD1944A1A4000239A42CBF829
:1009C000FC35C0F21281FF2AC1D1DBF804368D4E0E
:1009D000002B00F011820A2B00F0D181062B00F0D1
:1009E0001B810B2B00F0068103F5817354F8230063
:1009F0000028ACD00368854A1B68934240F0CB8343
:100A000003690C309847A2E7D4F80826D4F80036DA
:100A1000A118013B013281F83401C4F80826C4F85A
:100A20000036002B93D10823CBF8FC358FE706F571
:100A30008C7003F0D7FC401B052888D986F8107607
:100A40006AE7FE286AD094F81026C4F8FC85002ACC
:100A50007FF47DAFFF23FE21082084F8343384F82F
:100A60003513F7230A2184F8383384F83B2306F240
:100A7000393384F83C2384F83D2384F83E2384F8FA
:100A80003F2384F8402384F8412384F8422384F8E8
:100A9000372384F83A2384F8360384F8391306F2AE
:100AA000423601E013F8011FB3420A44FAD1D2439F
:100AB0008BF8432356460AF10F08FF2101E016F890
:100AC000011F504F07F1580003F05CFC4645F6D17A
:100AD00007F58C7003F086FCC7F8280137E703237D
:100AE000C4F80006C4F80886C4F80C06C4F8FC353F
:100AF0002DE7D4F8003603EB00200423C4F80006E9
:100B0000C4F8FC3523E7404A1A40002A21DBFF2ABB
:100B10000CBF05230023CBF8FC3518E70223C4F8EB
:100B2000FC3514E70623C4F80406C4F80C06C4F820
:100B3000FC350CE7DBF80436DBF8002603EB00237A
:100B40000721CBF80436CBF8FC15002A3FF46BAF35
:100B5000FDE6013A62F0FF020132D8E7FF21FE26EE
:100B60002B4B84F834130821002284F8356384F871
:100B70003613F7260A2103F1090084F83B2384F891
:100B80003C2384F83D2384F83E2384F83F2384F8F3
:100B9000402384F8412384F8422384F8372384F8DF
:100BA0003A2384F8386384F8391301E013F8011FFD
:100BB00083420A44FAD1D2438BF8432356460AF1C2
:100BC0000F08FF2101E016F8011F0E4F07F1580032
:100BD00003F0D8FB4645F6D107F58C7003F002FC14
:100BE000C7F81456C7F8280196E6013A62F0FF02EA
:100BF0000132E8E6002384F81036A8E690080020C9
:100C00005C03002044020020FF0000800D03000868
:100C10007D0500207805002094F8346194F828368A
:100C2000B34206D2B100D4F8300601F087F9C4F817
:100C300030068BF82866002E00F0B282D54F4FF0B8
:100C4000040E002697F83A3197F8391197F83821B1
:100C50001B0443EA012397F83B11134343EA016362
:100C6000CD4ACBF82C36DBF83036106843F8260036
:100C700001369BF82836F6B2B3420EF1040E07F1A6
:100C80000407DFD80EF104073E46DE449BF83436F5
:100C90009EF83481434507D24FEA8801D4F83C06D8
:100CA00001F04CF9C4F83C068BF83486B8F1000F1B
:100CB00022D004EB060E00279EF836319EF835113F
:100CC0009EF834211B0443EA01239EF83711134395
:100CD000B24A43EA01631360DBF83C36106843F81C
:100CE000270001379BF83436FFB2BB4206F10406F9
:100CF0000EF1040EE0D837465F449BF8403697F873
:100D00003471BB4206D2B900D4F8480601F016F996
:100D1000C4F8480604368BF8407667B34FF0000EEF
:100D2000F4469F4B98590790079F301D0744874210
:100D300009D906F23713234402460132597803F8E1
:100D4000011B9742F9D80BEB0702954982F833C192
:100D5000431E0B44CBF84436DBF84826D1F8100587
:100D600042F82E000EF1010E9BF840365FFA8EFE1F
:100D700073453E46D5D801238BF82036E7E506F5C6
:100D80008C7003F02FFBD4F82831D4F83421D4F838
:100D90003811844FC3EB000806F58C7002F1FF395F
:100DA0000F4403F01FFB804BDFF80CC2A3FB08319C
:100DB00089094FF47A7202FB118301EB090E7A491B
:100DC000A1FB0081890902FB11020CFB03730CFBE0
:100DD000123306F59670C1EB0E0206F59871C4F851
:100DE0003031C4F82C2101F0BDF806F58C7003F009
:100DF000F9FAC4F81806AAE586F83423F721FE2785
:100E000008200A2286F8381386F83B3386F83C33EC
:100E100086F83D3386F83E3386F83F3386F8403314
:100E200086F8413386F8423386F8373386F83A330A
:100E300086F8357386F8360386F8392306F2423190
:100E400006F2393601E016F8012FB1421344FAD107
:100E5000DFF868A1DB438BF843335746FF2101E0FD
:100E600017F8011F4B4E06F1580003F08BFA06F2FB
:100E700043339F42F4D106F58C7003F0B3FA06F5C4
:100E80005E738DE82804C6F8280106F5A66959F8AE
:100E9000043F002B00F0B28058689E680268D3F8C7
:100EA00000A093689847D9F80030804658680368D6
:100EB000DB689847D9F800301F69632F054604DDC9
:100EC0009BF81036002B00F09980C6F3072350469C
:100ED0008BF83B638BF83C3304F081FD334B05907A
:100EE00006460598186032465146181D03F0A8FEC4
:100EF000404604F074FDB21D06902D490346069845
:100F000088502B4A03930A36414690191A4603F03B
:100F100097FE284604F063FD039B07901E44244B74
:100F2000804607989851043698194246294603F09E
:100F300087FE08EB06010E1DC6F307235FFA86F84D
:100F4000594408EB030E002202206FEA0E0EB6B2DF
:100F500081F83C0381F83B2381F83D2381F83E234F
:100F600006F23A30F9B24FF0FF0C8BF838E347F352
:100F700007274FF0FE0E8BF837338BF836830D4B77
:100F80008BF834C358448BF835E38BF839138BF85E
:100F90003A7317E044020020700800207C0800200B
:100FA0007803002000CA9A3BD34D621081050020CF
:100FB0007F0500207D05002040420F0078050020BD
:100FC00013F8011F83420A44FAD1F11D06F1080308
:100FD0001BFA81F19BB2D243B3F5007F81F8342331
:100FE00000F2E38053B103F23333B44EE71816F83E
:100FF000011FB34803F0C6F9B742F8D1B14B994588
:101000007FF445AF019DDDF808A000951D4655F819
:10101000040F002800F0A48090E80802AA499A680A
:10102000D0F808808A4240F0B180A84FDA68A84919
:101030008A4240F0A680A74E5B68A74A934240F0E0
:101040009D804369632B04DD9BF81026002A00F085
:101050008780C9F30722404601938BF83B938BF8B6
:101060003C2304F0BCFC9D4B05908146059818601C
:1010700041464A46181D03F0E3FD384604F0AFFC34
:10108000974B069009F10602804609F10A09069875
:101090009850394603EB0900424603F0D1FD304633
:1010A00004F09DFCC8448E4B07900746079843F810
:1010B000080008F1040831463A4603EB080003F043
:1010C000BFFD07EB0800071DC7F307225FFA87F98A
:1010D000584409EB020E019B002102266FEA0E0E16
:1010E000BFB280F83C6380F83B1380F83D1380F872
:1010F0003E1307F23A36D8B24FF0FF0C8BF838E3C4
:1011000043F307234FF0FE0E8BF837238BF836930B
:10111000744A8BF834C35E448BF835E38BF839039B
:101120008BF83A3301E012F8010FB2420144FAD1D0
:10113000FA1D07F108031BFA82F29BB2C943B3F50B
:10114000007F82F8341374D853B103F233335B4E0B
:10115000E71816F8011F5A4803F014F9B742F8D1FE
:10116000614B9D427FF453AF009DCBF81456012391
:10117000CBF818568BF81036FFF7CEBB98470346CE
:1011800060E7904706462868036855E7904707469A
:10119000286803684AE706F59A719847FFF7D7BBB6
:1011A00008273E464FF0040E6FE5504F504E0FCFCC
:1011B0000FC60FCF0FC60FCF0FC697E803004FF033
:1011C000030E3827FF2286E80300FE2384F83BE362
:1011D000C4F83C734FF0000E84F834233D20C2273E
:1011E000072284F83533F11D84F83603373E734601
:1011F00084F837E384F83AE384F8387384F83923C1
:1012000001E016F8012FB1421344FAD1DB43394E05
:101210008BF87833FF2101E016F8011F284803F00E
:10122000B1F8009B9E42F7D1264B99457FF42FAE33
:10123000E8E62E4F2E4E0FCF0FC60FCF0FC60FCFA3
:101240000FC697E803004FF0030E3827FF2286E809
:101250000300FE2384F83BE3C4F83C734FF0000E18
:1012600084F834233D20C227072284F83533F11D4A
:1012700084F83603373E734684F837E384F83AE35C
:1012800084F8387384F8392301E016F8012F8E4270
:101290001344FAD1DB43174E8BF87833FF2101E07A
:1012A00016F8011F064803F06DF8134B9E42F7D164
:1012B0000D4B9D427FF4ABAE56E700BF7705002093
:1012C0009C020020D807002019030008346700089A
:1012D0002103000844670008150300088105002069
:1012E0007F0500207D0500203C080020686700087D
:1012F0008405002078050020BC0500202DE9F04F72
:1013000091B0C34AC34B0A9200F29458002204469B
:1013100000F5A66AADF82C200F920C930D930E9356
:10132000CDF800805AF8043F002B00F0BC805868CC
:101330001D6801689A680C958B68ADF82C20984759
:10134000DAF800300D9058680368DB689847236826
:10135000DAF800100E904FF400721B680E690F92BD
:10136000AD4A9342814640F08F81632E04DD94F8AC
:101370001036002B00F09780BDF82C300C9F84F8BD
:101380003B331B0A84F83C33384604F028FB10AB8F
:10139000054643F82C0D1868C4F83D0339462A4623
:1013A00004F2413003F04CFC0D9F384604F017FB6B
:1013B00010AA114604F23B38AA1D069003460A35CE
:1013C00051F8280D48F8020002911A46394608EBF8
:1013D0000500019303F034FC484604F000FB019B38
:1013E000079010AF1D44834657F8240D48F80500B8
:1013F0000435494608EB05005A46AB4403F020FC8F
:101400000BF104005FFA80FCC0F3072E08EB0B021F
:101410000CEB0E050023ED434FF0020980B208F8F3
:101420000B3000F23A3182F801909370D3704FF094
:10143000FF08F2B24FF0FE0946F3072684F838534E
:1014400004F2393584F83A6384F836C384F837E314
:10145000214484F8348384F8359384F839232E4664
:1014600001E016F8012FB1421344FAD1C11D00F179
:10147000080214FA81F192B2DB43B2F5007F81F8E1
:10148000343300F2228104F54D7662B1013A1644FC
:1014900004F1580704F2333515F8011F384602F0FD
:1014A00071FFAE42F8D1009B9A457FF43BAF98465E
:1014B00004F5BF63009358F8040F002800F0DA80A9
:1014C0000368826841680C929A68ADF82C10534901
:1014D0008A4240F0F480524A0D92DA6851498A42B9
:1014E00040F0E780504A21680E924FF400725B682A
:1014F0000E680F924D4A934240F0D8804569464F9E
:10150000BE4240F0CA80632D04DD94F81036002BF3
:1015100000F0B080BDF82C300C9E84F83B331B0AE1
:1015200084F83C33304604F05AFA10AB824643F854
:101530002C0D1868C4F83D033146524604F2413080
:1015400003F07EFBDDF83490484604F048FA10AA18
:10155000114604F23B360AF10602069003460AF1F0
:101560000A0A51F8280DB05003911A46494606EB75
:101570000A00029303F064FB0E990191084604F0FF
:101580002EFA029B07900DF140099A44834659F8C0
:10159000240D46F80A000AF1040A06EB0A005A462E
:1015A000019903F04DFB0BEB0A030F9AF254191D3E
:1015B0005FFA81FC3344C1F3072E4FEA122B4FEA46
:1015C000124A160E89B20CEB0E0083F801B083F8B4
:1015D00002A0DE70C043EBB201F23A3245F30725B8
:1015E0004FF0FF0B4FF0FE0A04F2393684F838034F
:1015F00084F83A5384F836C384F837E3224484F8F5
:1016000034B384F835A384F839333046002511E02B
:10161000E065000850690008350700081903000854
:101620003467000821030008446700081503000818
:1016300010F8013F82421D44FAD1CA1D01F108038E
:1016400014FA82F29BB2ED43B3F5007F82F8345373
:1016500000F2958004F54D7663B1013B1E4404F120
:10166000580704F2333515F8011F384602F08AFE98
:10167000AE42F8D1009B43457FF41DAF012384F8AF
:10168000103611B0BDE8F08F31460AAA20469847BF
:10169000009B9A457FF446AE09E729460AAA2046F0
:1016A000B047009B43457FF406AFE7E79847054600
:1016B00025E790470246D8F80000036813E79047F3
:1016C0000246D8F80000036806E75D490791032247
:1016D0005C49236809918DF820201B685A498B4288
:1016E00040F0A48038230693029B564E186884F875
:1016F0003B23C4F83C0306F1300C04F55077B646A2
:10170000BEE80F00E64538607960BA60FB60764657
:1017100007F11007F3D103CEFE2238607960002371
:10172000C221FF263D2084F83523072284F8381390
:1017300084F8346384F8360384F8373384F83A3312
:1017400084F8392304F2773101E015F8012FA9421A
:101750001344FAD1DB4384F8783304F1580704F2D8
:10176000333504F55E7615F8011F384602F00AFE9F
:10177000B542F8D1009B9A457FF4D4AD97E6304A44
:101780000792304D2368099503228DF820201B68AD
:10179000BB4250D138230693039B84F83B2318683F
:1017A000C4F83C0305F1300C04F55077AE46BEE8B2
:1017B0000F00E64538607960BA60FB60754607F156
:1017C0001007F3D103CDFE22386079600023C221D7
:1017D000FF253D2084F83523072284F8381384F848
:1017E000345384F8360384F8373384F83A3384F872
:1017F000392304F2773101E016F8012F8E421344A9
:10180000FAD1DB4384F8783304F1580704F2333516
:1018100004F55E7615F8011F384602F0B3FDAE42BE
:10182000F8D1009B43457FF446AE27E73A460721AF
:101830002046984737E64A4607212046984719E749
:10184000F865000868670008350700082DE9F04FC3
:1018500000F58C7387B004461846019302F0C2FD70
:10186000D4F8183642F6F822C31A934284BF0023F4
:1018700084F81036D4F8FC35064633B1D4F81C365B
:1018800083423CBF0023C4F8FC35DFF89C93251D40
:10189000284600F007FD804670B194F8100640B16C
:1018A000D4F8143640F6C412F31A934200F20A81B7
:1018B000002007B0BDE8F08F0121284600F066FB4C
:1018C0000028EADBD4F80C36D4F8FC750344072F63
:1018D000C4F80C3645D04FB9FF2855D1012206F186
:1018E0001403C4F8FC25C4F81C36D1E7012F59D0E5
:1018F000022F00F0AD80032F00F0B480042F00F021
:10190000BB80052F00F0C780062F00F0CC80082F89
:10191000BED1C04A1A4000239A42C4F8FC35C0F236
:101920003281FF2AB4D1D4F80436002B00F03C8277
:101930000A2B00F03681062B00F07A810B2B00F089
:101940002C8103F5817354F823000028A0D003688C
:10195000B14A1B68934240F0238203690C309847D8
:1019600096E7D4F80836E2180133C4F8083682F84E
:101970003401D4F80036013BC4F80036002B87D17F
:101980000823C4F8FC3583E7019802F02BFD801B87
:1019900005287FF67DAF6FF0010084F8107607B060
:1019A000BDE8F08FFE2872D094F81026C4F8FC85AC
:1019B000002A7FF46DAF9949236803911B68984909
:1019C00004928B42059240F0D480FF210820F72337
:1019D000FE2784F834130A2184F8360384F8383358
:1019E00084F83B2384F83C2384F83D2384F83E2389
:1019F00084F83F2384F8402384F8412384F8422369
:101A000084F8372384F83A2384F8357384F839133B
:101A100004F2393304F2423001E013F8011F984216
:101A20000A44FAD1D24384F8432304F1580A04F259
:101A3000333704F2433817F8011F504602F0A2FC76
:101A40004745F8D1019802F0CDFCC4F828011FE702
:101A50000323C4F80006C4F80886C4F80C06C4F8CA
:101A6000FC3515E7D4F8003603EB00200423C4F856
:101A70000006C4F8FC350BE7664A1A40002A73DBFF
:101A8000FF2A0CBF05230023C4F8FC3500E702231E
:101A9000C4F8FC35FCE60623C4F80406C4F80C06BA
:101AA000C4F8FC35F4E6D4F80436D4F8002603EB89
:101AB00000230721C4F80436C4F8FC15002A3FF4BB
:101AC0005FAFE5E6554A236803921B68544900223C
:101AD0008B42049205925BD1FF210820F723FE255B
:101AE00084F834130A2184F8360384F8383384F8F0
:101AF0003B2384F83C2384F83D2384F83E2384F878
:101B00003F2384F8402384F8412384F8422384F857
:101B1000372384F83A2384F8355384F8391304F2D0
:101B2000393304F2423001E013F8011F83420A44C2
:101B3000FAD1D24384F8432304F1580904F233352F
:101B400004F2433815F8011F484602F01BFCA84573
:101B5000F8D1019802F046FCC4F828010020C4F82E
:101B6000146607B0BDE8F08F013A62F0FF0201325F
:101B700086E703AA0A2120469847019802F032FC22
:101B8000C4F8280184E6013A62F0FF020132C8E697
:101B900003AA0A2120469847DBE7002384F8103681
:101BA00076E6DDF804B0DFF884A0584602F01AFCAF
:101BB000D4F82871D4F83831D4F83481C71B58468A
:101BC0009A4402F00FFCA9FB073292094FF47A7392
:101BD00008F1FF3803FB12779044124AA9FB00E199
:101BE000890902FB07A20F4F03FB110307FB132315
:101BF000C1EB0802C4F83031C4F82C2104F5987107
:101C000004F5967000F0AEF9584602F0EBFBC4F80C
:101C100018063DE6FF0000800D030008C8650008B7
:101C20003507000840420F00D34D621000CA9A3BAE
:101C300094F8347194F82836BB4204F59A7806D2A9
:101C4000B900D4F8300600F079F9C4F8300684F809
:101C50002876002F00F0C18004F22C6E4046042745
:101C60000021837990F805C002791B0443EA0C2314
:101C700090F807C0134343EA0C63C4F82C36D4F839
:101C80003036DEF8002043F82120013194F8283660
:101C9000C9B28B4207F1040700F10400E1D807F153
:101CA000040A3B46574618F803B094F834365B45AF
:101CB00007D24FEA8B01D4F83C0600F03FF9C4F894
:101CC0003C0684F834B6BBF1000F25D004F5C76C90
:101CD00008EB0700002104F2246E837890F801A03D
:101CE00002781B0443EA0A2390F803A0134343EA53
:101CF0000A63CEF81430D4F83C36DCF8002043F800
:101D00002120013194F83436C9B28B4207F104071F
:101D100000F10400E1D8BA4618F80AA094F8403659
:101D2000534507D24FEA8A01D4F8480600F006F975
:101D3000C4F84806043784F840A6BAF1000F2BD047
:101D400000218C4604F2446E58F807000390039B70
:101D5000381D00EB030A504509D2FB1C43440246E0
:101D6000013213F8017F03F8017C5245F8D308EBE8
:101D70000A03421E03F801CC4244D4F84836C4F8A2
:101D80004426DEF8002043F82120013194F8403643
:101D9000C9B28B425746D7D8012384F8203677E55D
:101DA00004F59A71984773E522680E4903910493EC
:101DB0000A2105932046136803AA9847019802F068
:101DC00011FBC4F828012046FFF798FAC4F81466FE
:101DD000C4F818664FF0FF306BE54FF0080A57461D
:101DE000042360E7C865000810B5304C304A20462F
:101DF0000221002340F8042B032200F02BFA04F503
:101E00008C7002F0D3FA4FF46143C4F8143104F536
:101E10008C7002F0DBFA0021264BC4F8243684F8DB
:101E2000101684F82816C4F8301684F83416C4F84E
:101E30003C1684F84016C4F8481604F5A66204F26D
:101E4000945342F8041F9342FBD11B49002243F8EC
:101E5000042F9942FBD1194A002102F5007302F8C0
:101E6000011F9342FBD11649002203F8012F8B4238
:101E70004FF00004F9D1134A13490C4802F0EBFA71
:101E8000124B052118461C605C609C60DC6000F011
:101E900027FC0F4B0F49104C1048114A19600121C3
:101EA000DC60186159619A6010BD00BF44020020D7
:101EB00040660008106600083C08002077030020F8
:101EC0007707002094010020E51E0008340200205E
:101ED000900800205466000828660008F5020008F3
:101EE000A467000810B5044B044640F8043B00F01A
:101EF00055F9204610BD00BF40660008074A084853
:101F000008B50021121A02F0C1FEAFF3008002F002
:101F1000BDFD02F0F9F802F0B9FA00BF200B002075
:101F200018020020022801DC0120704702F0B6B838
:101F3000EFF3058303B100BE02F01CBEEFF305838F
:101F400003B100BE03F0D4BBEFF3058303B100BEC1
:101F500002F018BE08B5012002F098FA08B5FFF7A4
:101F6000F9FF00BF70B40D68064B0468064E6A0A9C
:101F7000A3FB0232D3091C4406FB135304600B601D
:101F800070BC7047834B040000CA9A3BD0F8903075
:101F900070B5002B34D0826F002A31D0002936D0A2
:101FA000D0F89830002BFBD0D0F88830D55CD0F832
:101FB00088300133C0F88830D0F88820D0F89030CD
:101FC0009A42A4BF0023C0F88830D0F89820D0F8F7
:101FD00090309A42EDB2044609D0036FDE68DA68A9
:101FE00022F02002DA6000F019F8236FDE6072B68A
:101FF000D4F89830013BC4F8983062B6284670BDDA
:10200000026F13689B06FCD55068C0B270BDD0F853
:102010009830002BC8D14FF0FF3070BD036FDA68E5
:1020200070B5960658D5002B57D0D0F89020002ACE
:1020300053D0826F002A50D0044600F16C05002670
:1020400026E0A26FBAB1D4F8801094F87530DBB2F4
:102050005354D4F898300133C4F89830D4F8803011
:102060000133C4F88030D4F88020D4F890309A42FC
:10207000A8BFC4F88060D4F8AC30002B36D0284616
:10208000984794F8A82094F875309A421DD0236F91
:102090001A68920620D55B68DBB284F87530D4F8F4
:1020A0009820D4F890309A42CBD194F87530D4F877
:1020B000CC20DBB2C4F8A03042B32846904794F855
:1020C000A82094F875309A42E1D1D4F8FC30002B66
:1020D0003DD028469847DAE770BDD0F8AC3000F123
:1020E0006C0123B30846BDE870401847D4F8B0101F
:1020F0000029C6D0D4F8B420D4F8B80082B1C30700
:1021000010D401EB600029469047BAE7D4F8D0100C
:102110000029B6D0D4F8D420D4F8D800002AEED1C3
:10212000C307AED54310C818CB589A58EBE7D0F880
:10213000B040002CD0D0D0F8B420D0F8B83012B3D2
:10214000D80714D404EB6300BDE870401047D4F8FE
:10215000001100299BD0D4F80421D4F808315AB1D9
:10216000D8070BD401EB6300294690478FE75B103B
:10217000E018E3589A58E7E7D80788D55B10C818E5
:10218000CB589A58F0E7DD07F1D470BD704700BF17
:1021900010B5044602F064F9204610BD90F80C1109
:1021A000144AF8B54BB204465B09806F124E2260A8
:1021B000203301F01F01012502F1180705FA01F192
:1021C0004C326765A26546F8231008B1FFF7BCFEE4
:1021D000E06F08B1FFF7B8FE084B236003F1180267
:1021E0004C336265A36504F1540002F0B9F820464F
:1021F000F8BD00BFD467000800E100E0B46A000841
:10220000A0F15400FFF7CABFA0F15800FFF7C6BF06
:1022100010B50446FFF7C2FF204602F021F9204620
:1022200010BD00BFA0F15800FFF7F2BFA0F15400AD
:10223000FFF7EEBF0121FFF7A9BE00BFA0F15400D8
:10224000F8E700BF012200F033B800BFA0F154004E
:10225000F8E700BF38B50446154602F015F8104BF4
:10226000236003F1180100224C336165A365E26627
:1022700004F1BC0304F58E7143F8102C43F80C2CC8
:1022800043F8082C43F8042C10338B42F4D14FF45C
:10229000807220462B46114600F0A0F8204638BD3B
:1022A000D4670008D0F89800B0FA80F04009704771
:1022B000F8B5C56F044615B1D0F8943033B9226F24
:1022C00013681F06FCD551600020F8BD036F186825
:1022D000060604D5D4F89C0008B95960F8BD0E462E
:1022E000C2B1DF68DA6822F08002DA60D4F89C10AC
:1022F000D4F8942091420BD10021204600F0F8F848
:10230000D4F89C20D4F894309A42F5D0236FE56F2E
:10231000DF6005E0D4F89C10D4F89420914224D0DA
:10232000DA6822F08002DA60D4F88430F1B2E9543D
:1023300072B6D4F89C300133C4F89C3062B6D4F83D
:1023400084300133C4F88430D4F88420D4F8943035
:102350009A42A8BF0023226FA8BFC4F88430D36874
:1023600043F08003D3600020F8BDD4F8DC30C4F81B
:10237000A46004F16C001BB198474FF0FF30F8BD2A
:10238000D4F8E010A9B1D4F8E420D4F8E83072B160
:10239000DC0707D401EB63040146204690474FF069
:1023A000FF30F8BD5B10CC18CB589A58F4E7DD0726
:1023B000F8D44FF0FF30F8BD4B68DA0705D55B1055
:1023C0000A68C15818448A5810470A6800EB63002D
:1023D000104700BF012100F08BB800BFF8B590F89E
:1023E0000C513E4F6BB25B092033012605F01F05EF
:1023F000044606FA05F547F8235016460D4600F048
:1024000021F9236FE466002B64D0002EC4F890609D
:102410004CDDD4F89000FFF78BFD0021C4F880104C
:10242000A067C4F88810C4F89810C4F8A010002C55
:1024300044D02B4A2B4B6262261D2462A162636347
:102440003046012201F074FB002DC4F894503FDDAA
:10245000D4F89400FFF76CFD2349E0670023C4F82B
:102460008430C4F88C30C4F89C30C4F8A430F9B17E
:10247000F4B11C4DE1630122A46323643046E5649A
:10248000114601F055FB204600F000F994F80C319C
:1024900012485AB2012103F01F0301FA03F3520953
:1024A000002184F8A81040F82230F8BD0020B4E7DD
:1024B00030460022012101F03BFBE4E704263046D0
:1024C0002246214601F034FB002DC4F89450BFDCB5
:1024D0000020C1E7054800F0F1F8D4E700E100E092
:1024E0001D200008B9230008D5230008286800082B
:1024F000036FDA682DE9F041160607D4D0F89C4046
:10250000D0F89420944201D0BDE8F08113B3D0F804
:102510009430FBB1C36FEBB10E460446002700F1C7
:102520006C05D4F89C301BB1226F13681B061BD4BA
:10253000D4F89C30002B39D1226FD4F8EC50D368FA
:1025400023F08003D36004F16C008DB32B46BDE80B
:10255000F0411847D0F8BC3000F16C01002B3AD0A4
:102560000846BDE8F0411847D4F88C30E16FCB5CE9
:10257000DBB284F874305360D4F89C30013BC4F86B
:102580009C30D4F88C300133C4F88C30D4F88C20D3
:10259000D4F894309A4201DBC4F88C70002EC0D07D
:1025A000D4F8BC302BB328469847BAE7BDE8F08191
:1025B000D4F8F0100029A7D0D4F8F420D4F8F830DB
:1025C000002A3BD0DC0730D401EB630401462046EF
:1025D000BDE8F0411047D0F8C040002C94D0D0F8AE
:1025E000C420D0F8C8302AB3D80712D404EB630053
:1025F000EEE7D4F8C010002993D0D4F8C420D4F862
:10260000C8305AB1D8070BD401EB63002946904774
:1026100087E75B10E018E3589A58D9E7D80780D5C8
:102620005B10C818CB589A58F0E75B10CC18CB5801
:102630009A58CBE7DD07ECD4BDE8F081DD07F4D490
:10264000BDE8F0818368012B16D0022B0ED023B198
:102650000023036780F80C31704703F1804303F5D2
:1026600088330367252380F80C317047054B0367D7
:10267000472380F80C317047034B0367262380F80B
:102680000C3170470014014000440040704700BF07
:1026900000B585B072B60521684600F021F8039BAD
:1026A000019A1A60962000F0C5F8019B039A1B045A
:1026B0001360962000F0BEF8F1E700BF0FB400B53C
:1026C000064B83B004AA1B6852F8041BD868019219
:1026D00002F0C4FC012001F0D9FE00BF000200207E
:1026E00038B50D46044601F037F801350DD0636862
:1026F000E2681B0420461360012101F04DF82046DA
:102700000021BDE8384001F043B838BD431C1DD05E
:1027100091F900305A1C1AD0984210B5044602D1E3
:102720000AE09C4208D011F90C3F5A1CF9D1094823
:10273000BDE81040FFF7C2BF2046896801F0B2F83B
:1027400020460021BDE8104001F0D0B87047014894
:10275000FFF7B4BF5868000888420AD0421C09D06D
:10276000013106D008B50448FFF7A8FF4FF0FF304D
:1027700008BD7047084670476C680008421C0FD0BF
:1027800008B591F900305A1C04D10AE011F90C3F48
:102790005A1C06D09842F9D14868411C01D008BDA6
:1027A00070470348FFF78AFF4FF0FF3008BD00BFB6
:1027B00080680008036870B5DB68054698476B6859
:1027C0005B6883B12A681C6853689847201A002800
:1027D0006A680DDC50681168836853600029F0D086
:1027E00040688847EBE72B68BDE870409B68184756
:1027F0002B6852681B691068BDE87040184700BF1D
:1028000003685B68184700BF00487047D468000839
:102810000148FFF7CFBF00BFD468000838B50546B0
:1028200001F00EFA044601F00BFA001BA842FAD39D
:1028300038BD00BF4FF47A7303FB00F0FFF7EEBF23
:1028400008B50B4B1A6842F400721A601A6842F419
:1028500080621A601A6842F480721A60032000F0E5
:1028600017F80F2000F00AFE00F008F9002008BD5C
:10287000003C0240024A136801331360704700BFF6
:10288000B0080020014B1868704700BFB008002056
:10289000074AD1684FF6FF030B40000243F0BF63C5
:1028A00000F4E06043F400330343D360704700BF9B
:1028B00000ED00E02DE9F04FD1F800C0DFF8B48161
:1028C000DFF8B4E183B000254FF0010903E00135E2
:1028D000102D00F0828009FA05F232EA0C03F6D1DD
:1028E0004C6824F01006022E7AD04FEA450A0323E2
:1028F000076803FA0AF3DB4304F0030B1F400BFAEB
:102900000AFB013E4BEA0707012E076040F28B806D
:10291000C7688E683B4006FA0AF63343C360E3009B
:10292000D5D5D8F8443043F48043C8F84430D8F8BB
:10293000443025F0030606F1804603F4804306F593
:102940009C36019305F00303019FB7689B004FF08D
:102950000F0A0AFA03FA27EA0A0B424FB84272D06A
:1029600007F58067B84270D03F4FB84270D03F4FF4
:10297000B84272D03E4FB8420CBF4FF0040A4FF03D
:10298000050A0AFA03F343EA0B03B360DEF80030EA
:10299000D643E7034CBF13433340CEF80030DEF894
:1029A0000430A7034CBF13433340CEF80430DEF8A5
:1029B0000830E7024CBF13433340CEF80830DEF84E
:1029C0000C30A40205F1010554BF06EA03021A43C4
:1029D000102DCEF80C207FF47EAF03B0BDE8F08F51
:1029E0004FEAD50B00EB8B0B05F0070ADBF82060F4
:1029F0000F694FEA8A0A0F2303FA0AF326EA03064D
:102A000007FA0AF33343CBF820304FEA450A032391
:102A1000066803FA0AF3DB4304F003071E4007FAD3
:102A20000AF73E4306608668CF681E4007FA0AF739
:102A3000374387604668C4F3001726EA0206AF40B2
:102A40003E43466064E700239DE709FA03F39AE7F3
:102A50004FF0020A0AFA03F395E74FF0030A0AFA65
:102A600003F390E70000024000080240000C02401F
:102A70000010024000380240003C0140704700BF97
:102A8000F0B50368DE0783B0044633D5A0498A68F1
:102A900002F00C02042A00F0EB808A6802F00C02BB
:102AA000082A00F0E1809B4B994D00221A70FFF735
:102AB000E9FE064605E0FFF7E5FE801BC82800F2A8
:102AC000C2802B689903F6D4924B22791A706368FE
:102AD000002B00F00A81FFF7D5FE8D4D064605E07C
:102AE000FFF7D0FE801BC82800F2AD802B689A0348
:102AF000F6D523689F072FD5854A916811F00C0FF2
:102B000000F0A880916801F00C01082900F09E8077
:102B1000E368002B00F0D8807F4B7D4D01221A60C6
:102B2000FFF7B0FE064605E0FFF7ACFE801B642809
:102B300000F289802B68764A9807F5D51368F8214A
:102B400091FAA1F12069B1FA81F123F0F80300FABA
:102B500001F10B43136023681A0720D4590734D4BA
:102B6000A369CBB16A4DAA6802F00C02082A78D09A
:102B7000022B6A4B4FF000021A6000F0C480FFF78E
:102B800081FE2C46054604E0FFF77CFE401B6428CE
:102B900059D823689B01F7D4002003B0F0BD6369C6
:102BA000002B6FD05E4B5A4D01221A60FFF76AFE70
:102BB000064604E0FFF766FE801B642843D86B6F6F
:102BC0009F07F7D523685907CAD5514B554D1A6C45
:102BD00042F080521A641B6C03F080530193019BF6
:102BE0002B6843F480732B60FFF74CFE064604E02D
:102BF000FFF748FE801B642825D82B68DA05F7D537
:102C0000494B434D00221A70FFF73CFE064604E094
:102C1000FFF738FE801B642815D82B6F9B07F7D46D
:102C2000414B227A1A70A368002B00F0C180FFF795
:102C300029FE374D06462B6F9F0791D4FFF722FEE2
:102C4000801B6428F7D9032003B0F0BD52685602F8
:102C50003FF55EAF2E4A1268950723D5E268012A38
:102C600020D0012003B0F0BD4A6855027FF51BAFAC
:102C7000274A126890037FF53DAF6268002A7FF40F
:102C800039AFEEE7264A224D1360FFF7FBFD0646FB
:102C900004E0FFF7F7FD801B6428D4D86B6F98071A
:102CA000F7D48FE71A4DF822296892FAA2F2206928
:102CB000B2FA82F221F0F80100FA02F20A432A6025
:102CC0001A077FF54BAF6AE7134A114D1360FFF700
:102CD000D9FD064604E0FFF7D5FD801B6428B2D875
:102CE0002B689907F7D4236836E7FFF7CBFD084D2B
:102CF000064604E0FFF7C6FD801BC828A3D82B6852
:102D00009B03F7D4F5E6FFF7BDFD064613E000BFD1
:102D1000003802400238024000004742600047424B
:102D2000800E47420070004070380240FFF7AAFD55
:102D3000801B642887D82B68244A9901F6D447F66B
:102D4000C07696FAA6F64FF44033B6FA86F793FAB1
:102D5000A3F34FF07065B3FA83F395FAA5F5A16A72
:102D6000666AD4F81CC0D4F820E0E06A4908BE4086
:102D700001394CEA0E07B5FA85F401FA03F347EA84
:102D8000060500FA04F12B4311480B43012153605F
:102D900001601446FFF776FD054605E0FFF772FD7A
:102DA000401B64283FF64FAF23689A01F6D5F3E63F
:102DB000FFF768FD054D06462B6F98077FF5D0AEEF
:102DC000FFF760FD801B6428F6D93CE7003802401D
:102DD000600047427C4A136803F00F038B422DE9E1
:102DE000F0410C46054609D2CBB21370136803F0CC
:102DF0000F03994258D00120BDE8F08103689A077B
:102E000006D57248AA68816821F0F0010A43826001
:102E1000DF0727D56B68012B79D09A1E012A6B4AF0
:102E2000126840F287809107E5D5684EB26822F0BB
:102E300003021343B360FFF725FD6B68012B0746C0
:102E40007CD0022B00F08880032B65D041F28838BB
:102E500004E0FFF717FDC01B404565D8B36813F0C9
:102E60000C0FF6D1584BE2B21A701B6803F00F0337
:102E70009C42C0D12B685A0706D55448EA6881683D
:102E800021F4E0510A4382601B0707D54F4A2969A4
:102E9000936823F4604343EAC10393600F2000F07A
:102EA000EDFA0020BDE8F08103689F0706D547488A
:102EB000AA68816821F0F0010A438260DE07DAD552
:102EC0006B68012B56D09A1E012A404A12682ED9EF
:102ED000910790D53D4CA26822F003021343A360F2
:102EE000FFF7D0FC6B68012B064648D0022B54D06C
:102EF000032B60D041F2883704E0FFF7C3FC801B4E
:102F0000B84211D8A36813F00C0FF6D1B2E72F4ADC
:102F10001268960389D46EE741F28834B368FFF7EC
:102F2000B1FCC01BA042F9D90320BDE8F08190019B
:102F3000D0D460E790013FF578AF5CE741F2883884
:102F400004E0FFF79FFCC01B4045EDD8B36803F0D9
:102F50000C03042BF5D185E741F2883804E0FFF734
:102F600091FCC01B4045DFD8B36803F00C03082B6D
:102F7000F5D177E7154A12689403ABD43BE741F2E9
:102F8000883704E0FFF77EFC801BB842CCD8A368EA
:102F900003F00C03042BF5D16CE741F2883704E011
:102FA000FFF770FC801BB842BED8A36803F00C0387
:102FB000082BF5D15EE741F28835A368FFF762FC84
:102FC000801BA842F9D9AFE7003C0240003802401C
:102FD0001B4A936803F00C03042B2ED0082B2AD134
:102FE0005368516803F03F0311F4800F47F6C07037
:102FF000516890FAA0F047F6C07202EA0102B0FAF6
:1030000080F022FA00F014BF0E4A0F4AB2FBF3F32D
:103010000B4A03FB00F352684FF4403090FAA0F0E3
:1030200002F44032B0FA80F022FA00F001304000A1
:10303000B3FBF0F07047044870470248704700BF88
:103040000038024000127A000024F40008B5FFF7AF
:10305000BFFF084BF0229B6892FAA2F2B2FA82F20A
:1030600003F0F003D3400449044ACB5CD84010601D
:1030700008BD00BF00380240DC680008980100204D
:1030800008B5FFF7E3FF074B4FF4E0529B6892FA55
:10309000A2F2B2FA82F203F4E053D340024AD35CC4
:1030A000D84008BD00380240DC68000808B5FFF7CA
:1030B000CDFF074B4FF460429B6892FAA2F2B2FA3E
:1030C00082F203F46043D340024AD35CD84008BD87
:1030D00000380240DC680008704700BF0368012226
:1030E000186A02FA01F120EA010010B418621A6AA3
:1030F000084C1143A342196207D01A685DF8044BCB
:1031000042F0010200201A6070475A6C42F40042FB
:103110005A64F2E700000140FFF7E0BF264A036867
:10312000904270B434D0B0F1804F20D0A2F57C42F0
:1031300090421CD002F58062904218D002F5806265
:10314000904214D002F59A32904214D002F5806277
:10315000904210D002F5806290420CD08C680A68D0
:1031600003600123C462826270BC436170474A6895
:1031700023F070031343CA688C68096823F4407312
:10318000134303600123C462816270BC43617047D2
:103190004A68CC688E680D68096923F07003134390
:1031A00023F44073234303600123C66285620163F5
:1031B00070BC4361704700BF00000140B8B190F897
:1031C000393010B503F0FF0204465BB1022384F8E6
:1031D00039302068211DFFF7A1FF012384F8393021
:1031E000002010BD80F83820FFF776FFEEE70120C1
:1031F000704700BF2DE9F041046826690746C068A2
:10320000FD69D7F808E03A69796926F440563043F9
:103210002061E368B8694EEA020223F416430A43C8
:1032200023F00C032A431343E360636923F44073E0
:103230000343B5F5004F6361504B39D09C4200F019
:10324000818003F580639C427CD0FFF719FF7D6885
:103250004B4E00EB800000EB8000AD00B0FBF5F5BD
:10326000FFF70EFFA6FB05357A686D0900EB8000BD
:1032700000EB800092002D01B0FBF2F8FFF700FF99
:10328000796800EB800000EB80008900B0FBF1F171
:10329000A6FB01314909642202FB1182120132327C
:1032A000A6FB0223C3F343132B43A360BDE8F081C5
:1032B0009C4225D003F580639C4221D0FFF7E0FEBD
:1032C0007D682F4E00EB800000EB80006D00B0FBAE
:1032D000F5F5FFF7D5FE7A6800EB800000EB800083
:1032E0005200B0FBF2F8FFF7CBFEA6FB053579687C
:1032F0006D0900EB80002D0100EB80004900C5E75F
:10330000FFF7D4FE7D681E4E00EB800000EB8000CE
:103310006D00B0FBF5F5FFF7C9FE7A6800EB8000A1
:1033200000EB80005200B0FBF2F8FFF7BFFEA6FBF7
:10333000053579686D0900EB80002D0100EB8000F8
:103340004900A3E7FFF7B2FE7D680D4E00EB800059
:1033500000EB8000AD00B0FBF5F5FFF7A7FEA6FB84
:1033600005357A686D0900EB800092002D0100EBB5
:103370008000B0FBF2F8FFF799FE81E700100140F2
:103380001F85EB51704700BF50B338B590F8393006
:10339000044603F0FF02F3B12268022384F83930B7
:1033A000D36823F40053D3602046FFF723FF23683C
:1033B0001A6922F490421A615A6922F02A025A616B
:1033C000DA68002142F400520125DA600846E16320
:1033D00084F8395038BD80F83820FFF7D3FFDBE799
:1033E000012070470F4A30B493689468B4F1006FBD
:1033F00005D01A46103030BC42F8201070470A4AF7
:1034000003F5CA7553F8044B42F8044FAB42F9D1A7
:103410004FF00052034B10309A6030BC42F820103D
:10342000704700BF00ED00E0FCFFFF1F70B5114CBE
:103430002368DA68910715D4DA68520709D56FF066
:1034400004020D4E1A615D6A3368EB1AB3F57A7F98
:1034500000D270BDFFF70EFA2368356005F57A7566
:103460009D6370BD6FF002021A61FFF7D1F9236806
:10347000E2E700BF2C0A0020B4080020244B30B53E
:103480001A6C244C42F008021A641A6C83B002F0E1
:1034900008020192019A1A6A42F008021A621A6A34
:1034A00022F008021A6200F059F81B4B1B4A1B68F5
:1034B0001B492160A2FB03239B0C0025013B4FF01D
:1034C000FF3220466360E2602561A5606561FFF719
:1034D00075FE14493220FFF785FF134B4FF480220D
:1034E0005A6029462046FFF717FE20460421FFF7C1
:1034F00013FE23680D495A6A0A6002F57A729A63CC
:10350000DA68284642F00402DA6003B030BD00BF3A
:10351000003802402C0A00209801002083DE1B4363
:10352000000C00402D34000800E100E0B408002049
:1035300030B5022287B0002311460F254FF4805486
:1035400001A802920195039305930494FFF742FCAE
:10355000B0FA80F0400907B030BD00BF184883685A
:1035600003F00C03042B29D0082B0AD0154B144A66
:10357000154892681549C2F30312825CD3400B6070
:1035800070474368416813F4800F436818BF1048C0
:1035900001F03F020CBF0B49B0FBF2F1C3F38813FB
:1035A00008BFB1FBF2F101FB03F2054B5B68C3F30B
:1035B000014301335B00B2FBF3F3D8E7044BD6E7DA
:1035C000003802400024F400EC6800089801002054
:1035D00000127A001B4B1C4A196C70B541F08051E7
:1035E00019641B6C8EB003F080530093009B13682A
:1035F00023F4404343F400431360136803F440434F
:1036000001930123019A029300B105230824039337
:1036100002264FF480054FF4A871042207230DEB16
:103620000400089609950A940B910C920D93FFF7EC
:1036300027FA10B100200EB070BDFFF779FF0EB071
:1036400070BD00BF00380240007000401B4B1C4A98
:10365000196CF0B541F0805119641B6C8FB003F008
:1036600080530093009B136823F4404343F40043CA
:1036700013601368032003F44043019300241023D4
:10368000012702264FF4A87504210722029002A800
:10369000DDF804E005970394099406930A930896CD
:1036A0000B950C910D92FFF7EBF910B120460FB07E
:1036B000F0BDFFF73DFF0FB0F0BD00BF0038024086
:1036C0000070004008B50120FFF784FF00B108BD7D
:1036D000FFF780FF0028FAD1FFF7B8FF0028F6D1E6
:1036E000FEE700BF174A1848D2F8883070B543F497
:1036F0007003164CC2F888302368154E154D002112
:1037000043F001032360A160236823F0847323F452
:1037100080332360666023684FF0006623F48023C3
:103720002360E16096600560FFF78AF8FFF7CAFF43
:10373000236A43F008032362236A23F00803236209
:1037400070BD00BF00ED00E098010020003802408D
:10375000103000240024F4004B1C017017D070B509
:103760000546C1F303100C4600F026F8002106467A
:10377000204600F097F804F00F01012406F1100331
:1037800004FA01F118366960AB60EE6070BD7047F5
:1037900090F9000000F0AAB8012990F9000018BFC4
:1037A000002100F07FB800BF08B5FFF7D7FEBDE8E5
:1037B0000840FFF745B800BF00B587B0072859D8C3
:1037C000DFE800F012202E3C4A5858042D4B2E48BA
:1037D0001A6B42F080021A631B6B03F0800305939F
:1037E000059B07B05DF804FB264B28481A6B42F096
:1037F00001021A631B6B03F001030093009B07B0E7
:103800005DF804FB1F4B22481A6B42F002021A6358
:103810001B6B03F002030193019B07B05DF804FBEF
:10382000184B1C481A6B42F004021A631B6B03F01E
:1038300004030293029B07B05DF804FB114B16488A
:103840001A6B42F008021A631B6B03F00803039320
:10385000039B07B05DF804FB0A4B10481A6B42F05B
:1038600010021A631B6B03F010030493049B07B050
:103870005DF804FB0A48FEF721FF002007B05DF861
:1038800004FB00BF00380240001C02400000024060
:103890000004024000080240000C024000100240F8
:1038A0003069000870B50C4686B00546C0F30310B9
:1038B000FFF782FF04F00F010B4A012305F00F050B
:1038C00052F821600296C4F3021203FA05F5C4F31C
:1038D000C314032301A90195039205940493FEF7F1
:1038E000E9FF06B070BD00BFFC68000838B50346AC
:1038F000C0F303100D4603F00F04FFF75DFF022D28
:10390000C2684FEA44034FF0030198BF9D4001FA9B
:1039100003F322EA0303C360C16888BF00250D4397
:10392000C56038BDF8B590F91910124B0268876868
:10393000C668056944691A6001314FF000025F6092
:103940009E60DD601C619A61DA6110D090F91820E8
:1039500001320CBF04220C225A610648FFF714FD05
:1039600000B9F8BD0448BDE8F840FEF7A7BE08223C
:103970005A61F2E7680A00205469000870B5134DD7
:10398000134C55F82130206033B1026852060E46C0
:103990000ED403689B0600D470BD0E4B55F826006C
:1039A0001B680021984723686FF020021A6070BDE1
:1039B000084A184601211368984720686FF04003B1
:1039C000036003689B06E7D5E7E700BFB80800205F
:1039D000680A0020D808002000210148FFF7CEBF68
:1039E0000010014001210148FFF7C8BF004400401A
:1039F00005210148FFF7C2BF00140140F0B504469D
:103A000085B008460E463A491546FEF7B7FE3949D5
:103A100007462846FEF7B2FE01463846FEF79CFEF2
:103A2000354B2060984247D003F58063984236D0EA
:103A3000A3F55043984225D02D493046FEF766FE47
:103A40002C492846FEF762FE721C03D00121304645
:103A5000FFF74CFF6B1C03D001212846FFF746FF00
:103A600000234FF41652A260E3602361636126765F
:103A700065762046FFF756FF204B22689A4228D0F1
:103A800005B0F0BD1E4B1A6C42F400321A641B6C78
:103A900003F4003302930123029A6360CCE7184BCE
:103AA0005A6C42F020025A645B6C03F020030393CB
:103AB000039B05236360BFE7114B5A6C42F0100271
:103AC0005A645B6C03F0100301930023019A636056
:103AD000B2E70C486168A268E3680B4D01260660F6
:103AE00020680FC520696169A26907C505B0F0BDEE
:103AF000B46900086C6900080010014000440040EF
:103B000000380240DC080020000B00208160FFF735
:103B100009BF00BF10B4044B44680448196040F862
:103B200024205DF8044B7047D8080020B808002016
:103B300038B503682748284C8342236045D000F5F8
:103B4000806083423ED0A0F55040834217D00020D1
:103B50000446C2B1002930D1DA6865B242F02002D1
:103B6000DA6001462846FFF73DFC6D0904F00704C2
:103B700001231A4A03FA04F442F8254038BD1848D4
:103B80002624002AE6D1DA6881B922F02002DA6020
:103B9000DB681A061CD46309203304F007040122F1
:103BA0000E4902FA04F441F8234038BD22F08002A5
:103BB000DA60DB689B06EED538BDDA6865B242F0A4
:103BC0004002CDE707484724C3E707482524C0E75C
:103BD00038BD00BF00100140680A002000E100E08D
:103BE000E5390008F1390008D9390008026813687E
:103BF0009B06FCD5024B50681A60C0F30800704762
:103C0000680A0020026813681B06FCD5024BC1F34A
:103C1000080151601A607047680A0020054B186857
:103C200000B17047044A0549116001221A60FFF78C
:103C300025BC00BF1C090020E0080020000C00404B
:103C400008B5064B186830B9054A064911600122CB
:103C50001A60FFF713FC034B586A08BD1C090020CB
:103C6000E0080020000C0040034B1B685863DA6832
:103C700042F00202DA607047E0080020034B1A6845
:103C8000D36823F00203D360704700BFE008002030
:103C9000024B1B686FF002021A617047E0080020B7
:103CA0008368094A026053B1084B1A68904201D1F7
:103CB00006E01A4653689842FBD143685360704748
:103CC00042681A60704700BF046A0008200900209B
:103CD00083680C4A10B50446026053B10A4B1A6857
:103CE000904201D10AE01A4653689C42FBD16368B6
:103CF0005360204600F0B4FB204610BD42681A60B5
:103D0000F7E700BF046A00082009002010B4002370
:103D1000064C027381600460436019B1044B1A6859
:103D2000426018605DF8044B704700BF046A0008E9
:103D300020090020F8B50B4B1C688CB107460E46D5
:103D4000A5683246394628463DB101F050FE20B9FB
:103D5000284601F044FE864202D06468002CEFD170
:103D60002046F8BD20090020007B7047036870B52D
:103D7000012200211B6904469847064601300ED0F7
:103D8000236802221B6900212046984723680546C4
:103D900031461B69204600229847284670BD3046B0
:103DA00070BD00BF10B5074B0446002240F8043B2D
:103DB000FFF7ACFF044B03F10802343384E80C0036
:103DC000204610BD686A00080C6A000810B5074B51
:103DD00003F1080234330446026040F8043FFFF761
:103DE0005FFF204600F068F8204610BD0C6A00080E
:103DF00038B50023036043600A782F2A044601D0B7
:103E0000204638BD4A78002AFAD0481C20604D78F8
:103E10002F2D13D085B1034600E06AB15D1A01333E
:103E200023601A782F2AF8D1294601332360FFF73F
:103E300081FF6060204638BD2946F8E719460346F1
:103E4000F3E700BF00687047436843B110B504460C
:103E50001846FFF789FF012803D1606810BD0020D4
:103E60007047002010BD00BF406830B108B5FFF7B3
:103E70007BFFB0FA80F0400908BD704743684BB142
:103E800010B504461846FFF76FFF28B9606818B1EF
:103E9000043810BD00207047002010BD406800307D
:103EA00018BF0120704700BF032202210148FFF71D
:103EB000A5BD00BF000B0020084B094A026010B4EA
:103EC00003F58071002453F8042F904208BF1C6052
:103ED0008B42F8D15DF8044B704700BF20090020E9
:103EE000686A0008F0B50E4685B03749054601F00E
:103EF0006CFD28B9354B1B68002B42D005B0F0BDD6
:103F00003349284601F061FD30B9304B1B68002B66
:103F100042D0012005B0F0BD2E49284601F055FDE4
:103F2000002834D02C4B002402E00134402C3CD03B
:103F300053F8042F002AF8D12B783A2B3CD029468D
:103F400002A8FFF755FF02A8FFF7A8FF68B302A871
:103F5000FFF78AFF20BB02A8FFF776FF054620B3D4
:103F6000036802A89F68FFF76DFF324601462846A6
:103F7000B8470346CBB1194AE01C42F8243005B0DB
:103F8000F0BD0190FFF790FF019805B0F0BD0F4B19
:103F90001B686BB10220B1E7FFF786FF0120ADE798
:103FA00002A8FFF76BFF0346E4E74FF0FF30A5E7F9
:103FB000FFF77AFF0220A1E7284602AA084901F08C
:103FC00095FC029BD6E700BF486A0008DC08002089
:103FD000586A0008506A00082009002024090020BF
:103FE0008C6A000802280ADDC31E074A52F8230023
:103FF000002142F8231020B103685B6818470020B5
:1040000070474FF0FF30704724090020022812DC6F
:104010000E4B1B6870B50C4616460BB9FFF744FFF4
:10402000A51936B114F8011B0948FFF7EBFDAC42A6
:10403000F8D1304670BD0338064B53F8200010B15C
:1040400003681B6818474FF0FF307047DC080020FA
:10405000000B00202409002002280DDC0C4B1B68FB
:1040600010B50C460BB9FFF71FFF0A48FFF7BEFD5E
:1040700001232070184610BD0338074B53F8200069
:1040800010B103689B6818474FF0FF33184670471C
:10409000DC080020000B002024090020022807DD96
:1040A0000338064B53F8200020B10368DB6818473B
:1040B000012070474FF0FF30704700BF24090020F7
:1040C000022807DD0338064B53F8200020B10368AF
:1040D0001B691847002070474FF0FF30704700BF42
:1040E00024090020022808B504D84FF400534B607F
:1040F000002008BD00F0C4F9092303604FF0FF3031
:1041000008BD00BF704700BF08B5FFF74DFBFFF7C4
:10411000F9FFBDE80840FCF7CBBB00BF074A1368B6
:104120001844EFF30881884202D2106018467047A5
:10413000034B0C221A604FF0FF3070479C010020A7
:104140001C0B0020074C08B523680546986800F052
:10415000BDFA2368D86800F0B9FA05B9FEE7FEF7A2
:1041600097FAFBE700020020002101F00ABB00BF24
:1041700001EB4101C90043185A6B1B6A2AB11BB1FC
:1041800001442431184610477047002BFCD01847D3
:1041900070B504460E4B44F8043B054600234FF42B
:1041A000165643606360A360E36023616361A361AB
:1041B00020462B626B63AB63EB642E65FFF71EFC3E
:1041C00020462A460349FFF7A5FC284670BD00BFDC
:1041D000A46A00087141000838B504460D46043051
:1041E000FFF794FC256538BD0430FFF7FFBC00BF26
:1041F00010B504300C46FFF705FD204610BD00BF8A
:10420000FFF7F2BFA0F15400FFF7FABFFFF7F0BFCE
:10421000A0F15400FFF7FABF10B5074B03F10801F6
:1042200003F1200254330446016042658365543033
:1042300000F096F8204610BDAC6A0008A0F15400CA
:10424000EAE700BFA0F15800E6E700BF10B5094B50
:1042500003F1080103F12002543304460160426572
:104260008365543000F07CF8204600F0F9F82046D1
:1042700010BD00BFAC6A0008A0F15400E6E700BF23
:10428000A0F15800E2E700BF38B504461D46FFF72D
:104290007FFF294604F1540000F040F8054B03F17C
:1042A000080103F12002543321606265A3652046B2
:1042B00038BD00BFAC6A0008F8B58E18B1420F4691
:1042C0000ED005460C4601E0A64207D02B6814F834
:1042D000011B5B6A284698470130F5D1E01BF8BD09
:1042E0000C46FBE7F8B58E18B1420F460ED00546D6
:1042F0000C4603E004F8010BA64205D02B682846C3
:104300009B6A9847431CF5D1E01BF8BD0C46FBE7C0
:1043100000207047002070470020704710B584B01F
:104320000446FFF73FFD0B4B0B4903F10800002249
:104330003C3384E80900626101A8224601F0B2FA28
:10434000064901A800F0C2FA6061FFF70DFF2046A0
:1043500004B010BD086B00088C6A00084C6B0008A4
:1043600010B5074B03F108023C33044680E80C000B
:10437000406900F0F1F82046FFF728FD204610BD07
:10438000086B000838B504460D46406900F09EF9F8
:1043900061692846BDE8384000F0C4BA10B504464B
:1043A000C068FEF72DFA6368C01A10BD38B5002545
:1043B0000560456085600446FEF726FAE060FEF77A
:1043C0001FFAA5606060204638BD00BF036803B1D6
:1043D000704710B50446C068FEF712FA012360600A
:1043E000236010BD036810B5846813B1FFF7D6FFD2
:1043F00003460448234480FB0320DB17C3EBA010D3
:1044000010BD00BFD34D6210DFF830D0002103E0B3
:104410000B4B5B58435004310A480B4B42189A42ED
:10442000F6D30A4A02E0002342F8043B084B9A42C2
:10443000F9D3FFF757F9FDF761FD704700800120C0
:10444000186D0008940100201802002018020020B6
:10445000200B0020FEE70B460146184600F002B88C
:10446000FDF772BD10B5054C13462CB10A46014646
:104470000220AFF3008010BD204610BD00000000F8
:10448000014B1868704700BF0002002008B5074BB9
:10449000044613B10021AFF30080054B1868836A0E
:1044A00003B198472046FFF74DFE00BF0000000013
:1044B000B46B000870B505460C4609B9002070BD04
:1044C00018B183690BB900F053F9204B9C4201D11C
:1044D0006C6808E01E4B9C4201D1AC6803E01D4BA8
:1044E0009C4208BFEC68B4F90C30002BE6D02146A2
:1044F000284600F039F8236B064633B1216A284676
:1045000098470028B8BF4FF0FF36A3891B0603D594
:104510002169284600F0C2FB616B41B104F14403FC
:10452000994202D0284600F0B9FB00236363A16CD6
:1045300021B1284600F0B2FB0023A36400F084F907
:104540000023A38100F081F9304670BD506B000854
:10455000706B0008906B0008024B01461868FFF76B
:10456000A9BF00BF000200208A892DE9F04105465D
:1045700010070C4659D44B68002B02DC0B6C002B47
:1045800017DDE66AAEB102F48052002392B22F68C2
:104590002B600AB1606D15E0216A01232846B047FF
:1045A000411C0FD12B686BB11D2B01D0162B03D1F1
:1045B0002F600020BDE8F081A38943F04003A38170
:1045C000BDE8F081A3895A0705D56368C01A636BFB
:1045D0000BB1236CC01A00230246E66A216A284602
:1045E000B047431CA38906D129681D293AD8214A1E
:1045F000CA40D60736D500226260D90422692260FB
:1046000004D5421C01D12B6803B96065616B2F6032
:104610000029CED004F14403994202D0284600F08C
:104620003DFB00206063BDE8F0810F69002FC0D022
:1046300093070E6808BF4B690F6018BF0023C7EBD4
:1046400006088B6002E00744C0EB0808B8F1000FD1
:10465000AFDD43463A46216AA66A2846B04700289D
:10466000F1DCA38943F04003A3814FF0FF30BDE8A4
:10467000F08100BF0100402038B50B6905460C46AB
:10468000DBB118B183690BB900F072F80C4B9C4296
:1046900001D16C6808E00B4B9C4201D1AC6803E08F
:1046A000094B9C4208BFEC68B4F90C302BB1214691
:1046B0002846BDE83840FFF757BF002038BD00BF8F
:1046C000506B0008706B0008906B0008014620B921
:1046D000044B0549186800F0BBB9044B1868FFF794
:1046E000CBBF00BFB46B0008794600080002002071
:1046F000014900F0ADB900BF79460008002310B5AC
:10470000044603604360836081814366C281036124
:1047100043618361194608225C3000F0B7FA054B0B
:104720006362054BA362054BE362054B246223637E
:1047300010BD00BF41590008675900089F59000883
:10474000C359000870B568234D1E5D430E4605F140
:10475000740100F0E9FA044640B1002180E842000B
:104760000C30A06005F1680200F090FA204670BDA0
:10477000836910B5044633BB8364C3640365124B7D
:10478000124A1B688262984204BF0123836100F0D1
:104790001FF86060204600F01BF8A060204600F083
:1047A00017F80022E06004216068FFF7A7FF0122EC
:1047B0000921A068FFF7A2FF02221221E068FFF79B
:1047C0009DFF0123A36110BDB46B0008F1460008F2
:1047D000F8B51C4B1E68B369074613B93046FFF79E
:1047E000C7FF4836B4687368013B04D4B4F90C5071
:1047F0007DB16834F8E733680BB13668F2E704211D
:104800003846FFF79FFF30600028F6D10C233B604D
:10481000F8BD4FF6FF73E3810123A3816566256030
:10482000A560656025616561A5610822294604F1DE
:104830005C0000F02BFA6563A563A564E56420467F
:10484000F8BD00BFB46B000870477047F7B50F465E
:10485000114601AA054601F001FB064608B90020F1
:1048600029E02846FFF7B4FF04460028F7D04FF4AC
:10487000DB73019A3946284600F0ECFE002806DA80
:104880000025FFF7E1FFA581FFF7DFFFE7E70B4B0F
:1048900063620B4BA3620B4BE3620B4B2363F30589
:1048A000E081A681246205D5022300222146284604
:1048B00000F040F8204603B0F0BD00BF41590008A9
:1048C000675900089F590008C3590008024B0A465F
:1048D00001461868FFF7BABF0002002070B50E4607
:1048E0001446054618B183690BB9FFF741FF0A4B1F
:1048F0009C4201D16C6808E0084B9C4201D1AC6835
:1049000003E0074B9C4208BFEC682246314628462C
:10491000BDE8704000F0B0BE506B0008706B00083E
:10492000906B0008024B0A4601461868FFF7D6BF95
:104930000002002000F000B82DE9F8430C46904634
:104940001E46054618B183690BB9FFF711FF3D4BB1
:104950009C4201D16C6808E03B4B9C4201D1AC68A1
:1049600003E03A4B9C4208BFEC68A38903F48473CC
:10497000B3F5847F03D121462846FFF77DFEE76A21
:104980000FB91D232BE0012E04D0022E2BD056B3DD
:10499000162324E021462846FFF76EFEA28902F482
:1049A000805292B20AB1606D05E0216A3346284612
:1049B000B847411C14D0A3895A0706D56368C01AAA
:1049C000636B4BB1236CC01A06E01B0704D5236848
:1049D00013B122699B1A18448044002603E02B601F
:1049E0004FF0FF392BE023691BB92146284600F020
:1049F00073F821462846FFF73FFE81460028EFD195
:104A000033464246216A2846B8470130E8D0616BF8
:104A100041B104F14403994202D0284600F03EF926
:104A20000023636323692360A389002123F40263C5
:104A30006160A381082204F15C0000F027F9484678
:104A4000BDE8F883506B0008706B0008906B00089D
:104A50002DE9F8438046894600F14804002694B1C8
:104A6000A5686768013F0CD4AB89012B07D9B5F95C
:104A70000E30013303D029464046C8470643683507
:104A8000F0E72468EBE73046BDE8F88370B50E4BDD
:104A90000E4CE41AA41000251E46A54204D056F878
:104AA000253098470135F8E701F07EFD084C094BA9
:104AB000E41AA41000251E46A54204D056F825305D
:104AC00098470135F8E770BD080200200802002071
:104AD0001002002008020020F0B58B899D0791B0DC
:104AE00006460C4626D4B1F90E10002909DAA3892E
:104AF00013F0800F4FF0000514BF40274FF480677C
:104B00000DE001AA01F0E2F90028F0DB029D05F4B6
:104B10007045A5F500514D424D414FF4806739462F
:104B2000304600F001F960B9A3899A051DD443F01D
:104B30000203A38104F1470323602361012363611E
:104B400013E00B4BB362A389206043F08003A38181
:104B5000206167614DB1B4F90E10304601F0C8F91B
:104B600018B1A38943F00103A38111B0F0BD00BFC8
:104B7000F1460008024B0146186800F0D5B800BFA6
:104B800000020020024B0146186800F087B800BF01
:104B900000020020000000000000000000000000F3
:104BA00001F0FF01102A2BDB10F0070F08D010F8DE
:104BB000013B013A8B422DD010F0070F42B3F6D1E2
:104BC000F0B441EA012141EA014122F007047FF0FB
:104BD00000070023F0E80256083C85EA010586EA52
:104BE000010685FA47F5A3FA87F586FA47F6A5FA8E
:104BF00087F68EB9EED1F0BC01F0FF0102F007029A
:104C000032B110F8013B013A83EA010313B1F8D144
:104C10000020704701387047002D06BF3546033825
:104C2000073815F0010F07D1013015F4807F02BF5E
:104C3000013015F4C03F0130F0BC0138704700BFAF
:104C400010B5431E0A44914204D011F8014B03F8F9
:104C5000014FF8E710BD884210B501EB020301D8FF
:104C6000421E0BE09842FBD28118D21AD34204D0E4
:104C700013F8014D01F8014DF8E710BD994204D039
:104C800011F8014B02F8014FF8E710BD024403464A
:104C9000934202D003F8011BFAE7704730B50029B0
:104CA0003ED051F8042C0B1F1E49002AB8BF9B1898
:104CB0000A680C4612B95A600B6030BD9A420ED990
:104CC00019685818824204BF106852685A6004BFBD
:104CD00009181960236030BD994203D80A4651680B
:104CE0000029F9D1146815199D420AD11B68234483
:104CF000D0188142136013D10868034413604B68D5
:104D00000DE002D90C23036030BD18681C18A142C5
:104D100004BF0C684968596004BF001918605360EB
:104D200030BD00BF280A002070B5CD1C25F003055A
:104D300008350C2D38BF0C25002D064603DA0C2350
:104D40003360002070BDA942F9D81F4B1C681A4679
:104D50002146A1B10B685B1B0ED40B2B03D90B6052
:104D6000CC18CD501EE08C420DBF63684B68636069
:104D7000136018BF0C4615E00C464968E9E7134C70
:104D800023681BB9304600F0BBFC20602946304642
:104D900000F0B6FC431CD2D0C41C24F00304A04293
:104DA0000AD1256004F10B00231D20F00700C31A6F
:104DB00009D05A42E25070BD211A304600F0A0FCE2
:104DC0000130EED1BBE770BD280A0020240A002084
:104DD0009368013B002B10B4936009DA9469A342F5
:104DE00002DBCBB20A2B03D15DF8044B00F054BFB9
:104DF0001368581C10601970C8B25DF8044B7047F6
:104E0000F8B506460F461446D518AC4208D03A46C7
:104E100014F8011B3046FFF7DBFF431CF5D100E01F
:104E20000020F8BD2DE9F04F9DB00C4617460393C6
:104E3000064618B183690BB9FFF79AFC7F4B9C4279
:104E400001D1746808E07E4B9C4201D1B46803E054
:104E50007C4B9C4208BFF468A38918070CD52369D2
:104E600053B10023099320238DF8293030238DF886
:104E70002A30DFF8D4B144E02146304600F072FF1A
:104E80000028EED04FF0FF30D5E0039A111D1268D4
:104E90000391002A80F28C80524243F00200079274
:104EA000049098F800302E2B00F08480032298F8AC
:104EB00000106548FFF774FE48B14023CBEB0000BB
:104EC00003FA00F0049B1843049008F1010898F8D5
:104ED00000105E488DF82810062208F10107FFF740
:104EE0005FFE002800F09580594B002B40F0888031
:104EF000039B073323F0070308330393099B5344B1
:104F00000993B846454615F8013B1BB9B8EB0709AC
:104F10000FD003E0252BF9D0A846F3E74B463A46DD
:104F200021463046FFF76CFF01307FD0099B4B4490
:104F3000099398F80030002B78D000234FF0FF320F
:104F400004930793059206938DF853301A93012723
:104F5000052229783F48FFF723FE05F10108049B4D
:104F600038B13C4A801A07FA00F0184304904546CD
:104F7000EEE7D90644BF20228DF853201A0744BF1C
:104F80002B228DF853202A782A2A3FF47EAF079AE5
:104F900000210A20A846013598F80030303B092B43
:104FA00003D800FB02320121F4E700293FF479AF76
:104FB000079276E798F801302A2B0BD1039B1A1D34
:104FC0001B680392002BB8BF4FF0FF3308F10208B3
:104FD00005936BE70023059308F1010019460A25A4
:104FE0008046013098F80020303A092A03D805FBA2
:104FF00001210123F4E7002B3FF458AF059155E759
:1050000003AB00932246144B04A93046AFF3008053
:1050100007E003AB009322460F4B04A9304600F093
:105020009DF8B0F1FF3F82467FF468AFA3895B062D
:105030003FF528AF09981DB0BDE8F08F506B000810
:10504000706B0008906B0008BE6B0008C26B000814
:1050500000000000B86B0008014E000813460A4625
:10506000014602480068FFF7DDBE00BF00020020D5
:105070002DE9F04791461F460A698B68DDF82080CC
:105080009342B8BF1346C9F8003091F84320064652
:105090000C4612B10133C9F800302368990642BFAB
:1050A000D9F800300233C9F80030256815F006053C
:1050B00010D104F1190A07E001235246394630465F
:1050C000C04701301AD00135E368D9F800209B1A97
:1050D0009D42F1DB94F843302268003318BF01236E
:1050E00092060FD5E1185A1C302081F84300224463
:1050F00094F8451082F84310023303E04FF0FF307C
:10510000BDE8F08704F1430239463046C04701301C
:10511000F4D02268D9F80050E36802F00602042AAD
:1051200008BF5D1B2269A3680CBF25EAE575002551
:105130009342C4BF9B1AED184FF000091A344D4535
:1051400009D00123224639463046C0470130D5D028
:1051500009F10109F3E70020BDE8F0872DE9F043EC
:1051600017460A7E85B06E2A984606460C460C9B6A
:1051700001F1430E00F0AE8011D8632A22D009D885
:10518000002A00F0BB80582A40F0CA8081F84520F0
:10519000834955E0642A1ED0692A1CD0C0E0732AD6
:1051A00000F0B08009D86F2A2ED0702A40F0B88065
:1051B0000A6842F020020A603EE0752A24D0782A6C
:1051C0003AD0ADE01A6801F14205111D196013686B
:1051D00084F84230A8E021681A6811F0800F02D0EC
:1051E000111D196008E011F0400F02F1040119606F
:1051F00002D0B2F9003000E01368002B3CDA2D2217
:105200005B4284F8432037E021681A6811F0800F70
:1052100002D0111D196007E011F0400F02F10401E6
:10522000196001D0138800E01368227E5C496F2A60
:1052300014BF0A2208221BE078225A4984F845202C
:105240002268186812F0800F00F104051D6003D178
:10525000550601D5038800E00368D00744BF42F03B
:10526000200222601BB9226822F020022260102254
:10527000002084F8430001E049490A226568A560DE
:10528000002D08DB206820F0040020602BB9002DE1
:105290007DD175460CE0002B79D07546B3FBF2F05A
:1052A00002FB1033CB5C05F8013D03460028F5D125
:1052B000082A0BD12368DA0708D5236962689A4265
:1052C000DEBF302305F8013C05F1FF35C5EB0E03C9
:1052D00023612EE008681A68496910F0800F03D036
:1052E000101D1860136808E010F0400F02F1040070
:1052F0001860136801D0198000E019600023236151
:10530000754616E01A68111D19601568626800215B
:105310002846FFF745FC08B1401B6060636804E065
:1053200004F1420584F8422001232361002384F81C
:105330004330CDF800803B4603AA21463046FFF7B4
:1053400097FE013002D14FF0FF3026E023692A4654
:1053500039463046C0470130F5D023689B0710D549
:10536000002504F1190907E001234A463946304671
:10537000C0470130E7D00135E368039A9B1A9D428C
:10538000F2DBE068039B9842B8BF184605E00B7853
:1053900084F8423004F142058AE705B0BDE8F083A5
:1053A000C96B0008DA6B00082DE9F84315468A68D6
:1053B00080460C4632B98A69002A0CBF01224FF0A0
:1053C000FF328A602268DFF8A490D1065FBF1A68B6
:1053D000111D196017680026A06900BB2368DA0652
:1053E0005EBF2B681B783B702A686B6802F1010274
:1053F0002A60A26803F1FF3302F1FF326B6006F10D
:10540000010658BF0137A260E2B1002BE4DCD4F8FA
:1054100080312946404698470028DDD012E0012817
:1054200006D12B681A7863699B5C002BD6D119E0F2
:10543000022807D12B68D9F800201B7813445B7829
:105440001B07CBD5236813F0100305D1E2680132A6
:10545000E260A26902B13B7023691E44266100200C
:10546000BDE8F883002EEDD1BDE8F88304020020EA
:105470002DE9F04F9A46734B0C468346164693E847
:10548000070087B003ABA76883E807006E4BA169EC
:105490006E4A032918BF1A467B1EB3F5AE7F84BF40
:1054A00040F25D13A3602368009243F4506388BF09
:1054B0006FF4AE7504F11C0923608CBF7F190027BF
:1054C0004B464FF000080193316803AB022253F8BA
:1054D00028000978FFF764FB019B002833D0B8F15E
:1054E000010F0BD162682AB908226260226842F477
:1054F00000722260226822F4A0620CE0B8F1020F70
:105500000AD1226802F4C061B1F5007F1BD11021DD
:10551000616042F480722260A268511EA16092B163
:105520003268511C316012781A705D1C7368013B3F
:10553000002B736006DCD4F880313146584698471A
:10554000002840D12B4608F10108B8F1030FBAD169
:1055500062680AB90A22626062683D496069019323
:10556000891A00F0DDF8019B4FF000081D46A36882
:105570005BB3316860690A78805C30B3302A226896
:1055800008D1100506D508F101084FB10133013FDC
:10559000A36005E022F4106222600B782B700135C5
:1055A0007368013B002B736003DD336801333360A4
:1055B00005E0D4F8803131465846984728B9A368A9
:1055C000013BA360D3E74FF000082368D9050CD551
:1055D0004D4508D915F8011CD4F87C31324658469F
:1055E00098476F1E3D464D4527D0226812F01002A5
:1055F0001BD12A706368009E49465846B04722680E
:10560000DAF8003012F0200F07D1D20705D51A1DA5
:10561000CAF800201B68188004E01A1DCAF8002090
:105620001B681860E3680133E3602369C9EB050573
:1056300045441D442561002000E0012007B0BDE87D
:10564000F08F00BFEC6B0008255B0008195A0008BA
:10565000086C000838B5074C05460846114600227C
:1056600022601A46FEF73EFC431C02D1236803B1B8
:105670002B6038BD1C0B002070B50E461446054645
:1056800018B183690BB9FFF773F8164B9C4201D12F
:105690006C6808E0144B9C4201D1AC6803E0134BEA
:1056A0009C4208BFEC68A368013B002BA36011DAA1
:1056B000A269934207DB23681E70236819780A29C0
:1056C0000BD1224601E0224631462846BDE8704013
:1056D00000F0E2BA23681E7023685A1C2260187812
:1056E00070BD00BF506B0008706B0008906B000825
:1056F000024B0A460146186800F01CBC000200205C
:1057000038B5064C0023054608462360FEF706FD23
:10571000431C02D1236803B12B6038BD1C0B002051
:1057200070B50B785E2B13BF4A1C8A1C4B78002186
:1057300008BF0121441E00F1FF0504F8011FAC421F
:10574000FBD10BB9501E70BD81F00104C454114649
:105750000D782D2D01F1010206D05D2D0FD00DB178
:105760002B46F3E7084670BD4E785D2EF8D0B34265
:10577000F6DC023101339E42C454FBDCE8E71046FC
:1057800070BD00294FF480630CBF0222002200F09C
:1057900001B800002DE9F0411D463D4B1E6804464E
:1057A0000F46904626B1B36913B93046FEF7E0FFC5
:1057B000384B9C4201D1746808E0374B9C4201D1C0
:1057C000B46803E0354B9C4208BFF468B8F1020F9F
:1057D00059D8002D57DB21463046FEF74DFF0023F8
:1057E0006360A361A3891B0603D521693046FFF7D7
:1057F00055FAA389B8F1020F23F08303A38112D0D5
:1058000037BB002D08BF4FF480652846FCF790FB9E
:105810000746C8B94FF48060FCF78AFB074688B991
:105820004FF0FF3000E00020A38943F00203A38182
:105830000023A36004F14703236023610123636114
:10584000BDE8F0814FF48065A38943F08003A38114
:10585000B8F1010F05D1A38943F00103A3816B4285
:10586000A3610F4BB362A389276003F0080080B2E5
:105870002761656148B113F0030F18BF0025A560CB
:105880000020BDE8F0814FF0FF30BDE8F08100BF9F
:1058900000020020506B0008706B0008906B00083D
:1058A000F14600080EB400B59CB04FF402711DAB78
:1058B000ADF81410029006906FF000410A48049170
:1058C00007914FF6FF7153F8042BADF816100068DE
:1058D000019302A900F0AEFB029B00221A701CB0DB
:1058E0005DF804EB03B07047000200200EB430B541
:1058F0009CB01FAC4FF4017254F8045BADF8142057
:105900000290069000F06BF80B4B039007900B93FE
:105910000A48019400230F9314934FF6FF73ADF8D8
:1059200016302A46234602A9006800F0D3FC1CB0BA
:10593000BDE8304003B07047635900080002002002
:1059400010B50C46B1F90E1000F012FE0028ABBFE6
:10595000636DA3891B1823F48053ACBF6365A381D7
:1059600010BD002070472DE9F0411F468B89DB05F3
:1059700005460C46164605D502230022B1F90E1045
:1059800000F0C6FAA389B4F90E1023F48053A38162
:1059900032463B462846BDE8F04100F0D1B910B58B
:1059A0000C46B1F90E1000F0B3FA431CA38915BFE1
:1059B000606523F4805343F48053A38118BFA3810F
:1059C00010BDB1F90E1000F039BA10F8012B11F822
:1059D000013B012A28BF9A42F7D0D01A70470346EC
:1059E00013F8012B002AFBD1181A0138704730B583
:1059F00082B1451E013915F8013F11F8014FA3424C
:105A000006D1EC431444E04201D0002BF3D11C46F4
:105A1000181B30BD104630BD2DE9F0478046404888
:105A2000D0F800900F463D4615F8014B09EB0400F5
:105A3000407800F0080000F0FF0608B12F46F2E7BA
:105A40002D2C03D1BD1C7C78012603E02B2C04BF38
:105A50007C78BD1C13B1102B0AD15BE0302C57D1E0
:105A6000287800F0DF0058284DD16C7810230235DB
:105A7000002E14BF4FF0004C6FF0004C0027BCFB11
:105A8000F3FA384603FB1ACC09EB040E9EF801E04A
:105A90001EF0040F01D0303C0BE01EF0030E1BD0B3
:105AA000BEF1010F0CBF4FF0370E4FF0570ECEEB8B
:105AB0000404A34210DDB7F1FF3F0AD0504506D8D9
:105AC00001D1644503DC03FB0040012701E04FF0F6
:105AD000FF3715F8014BD7E77B1C0CD1002E4FF098
