:1000000000300020C1000000ED330000A7410000D7
:1000100000000000000000000000000000000000E0
:10002000000000000000000000000000A9410000E6
:100030000000000000000000AB410000AD410000E6
:10004000AF410000AF410000AF410000AF410000F0
:10005000AF410000AF410000AF410000AF410000E0
:10006000AF410000AF410000AF410000AF410000D0
:10007000AF410000AF410000AF410000AF410000C0
:10008000AF410000AF410000AF410000AF410000B0
:10009000AF410000AF410000AF410000AF410000A0
:1000A000AF410000AF410000AF410000AF41000090
:1000B000AF410000AF410000AF410000AF41000080
:1000C0000749084A084B9B1A05DD002408591051BE
:1000D00004349C42FADB054880470548004700008D
:1000E000C46D0000C0F0FF1F44F1FF1FF92E000097
:0400F000492500009E
:10040000FFFFFFFFFFFFFFFFFFFFFFFFFEFFFFFFFD
:10041000054B0648033310B51B1A062B03D9044BB2
:10042000002B00D0984710BD44F1FF1F44F1FF1F7F
:10043000000000000648074910B5091A8910CB0FC3
:100440005918491003D0044B002B00D0984710BD19
:1004500044F1FF1F44F1FF1F0000000010B5074CDE
:100460002378002B09D1FFF7D3FF054B002B02D0D7
:10047000044800E000BF0123237010BD44F1FF1FBA
:1004800000000000C06D0000094B10B5002B03D028
:100490000849094800E000BF08480368002B02D162
:1004A000FFF7C8FF10BD064B002BF9D09847F7E7C0
:1004B0000000000048F1FF1FC06D000044F1FF1F65
:1004C0000000000003790B7043681B0A4B70C3885F
:1004D0008B70C379CB70037A0B7183681B0A4B71E5
:1004E00043898B71C37A0820CB71704710B50C78A3
:1004F00044604B781B0223431A0043608B781B0433
:1005000013434360CA781206134343600C79846036
:100510004B791B0223431A0083608B791B0413431E
:100520008360CA79120613438360082010BDC04659
:10053000004870475867000000487047686700002F
:10054000004870478C67000000487047A8670000AB
:1005500000487047CC67000000487047E067000023
:1005600000487047A4680000004870470468000015
:10057000002070470020704700487047286800003E
:100580000048704738680000054B59695A68096887
:10059000114202D1DB681A6070471B691A60FBE7E1
:1005A00060F1FF1F030010B50C301B69984710BDA8
:1005B000406970470048704728680000004870474D
:1005C00038680000014BC05C7047C046FC05000065
:1005D000F0B546464F46C0B4037983B00B70002394
:1005E0004B708B70CB70037905000E00002B66D02A
:1005F00004240B1D0021A41BE8688A001258013155
:10060000100A1A705870100C120E9870DA702A794D
:10061000C9B2E01804338A42EED8431C021D9C463E
:100620001400871CC11C2B7C3354002360463354B8
:10063000F35573542B7C002B13D000223119A86979
:1006400093001B580132180A0B704870180C1B0ECF
:100650008870CB702B7CD2B2043404319342EED834
:1006600022002B7FB354002233195A709A70DA702B
:100670002B7F0434002B1CD00027BB0099464A4630
:100680006B6A0137985805F0BFF904228046019043
:1006900001A9301904F0E3FA4A466B6A0434995808
:1006A0003019424604F0DBFA2B7FFFB24444BB42D0
:1006B000E3D8200003B00CBC90469946F0BD05235A
:1006C00008220721082406279C460420ABE7C046E1
:1006D00070B5037982B00B70060080680D0005F0DC
:1006E00093F90400019001A9681C042204F0B7FAF0
:1006F000681DB168220004F0B2FA601D02B070BD3E
:10070000F0B5474680B4838884B00B7083880600B8
:100710001B0A4B7080680D0005F076F9040001900B
:1007200001A9A81C042204F09AFA2200B168A81DAD
:1007300004F095FAA31D9846F06805F065F9434664
:100740000700029002A9E81804220A3404F087FA8C
:100750003A00F168281904F082FA306905F054F97A
:100760003C190700039003A928190422043404F05B
:1007700076FA28193A00316904F071FA7369381968
:100780002B541A0A2D186A7004301A0C1B0EAA700A
:10079000EB7004B004BC9046F0BDC04630B50C0010
:1007A0000B7883B0037101310500042201A804F025
:1007B00056FA01992300481D6118052804D95A7971
:1007C0000133DA709942FAD1002304340B71AC6022
:1007D00003B030BDF0B50D000A7885B082804B784B
:1007E00006001B02134383800422023101A804F097
:1007F00036FA019B2A009F1DEC18062F04D9937925
:10080000013213719442FAD1002363716B1DB360FE
:10081000E919042202A804F022FA029B381DC71825
:1008200002002300B84205D2997A0132597201338D
:10083000BA42F9D30022EC190138631E28181A7045
:100840002100F060043203A804F009FA039B043786
:10085000F81821003B1E834205D20A790133CA7081
:1008600001318342F9D300212A18013F531EEF19A9
:1008700019703761537819029378D2781B040B43AF
:10088000295C12060B4313430430736105B0F0BDBD
:10089000F0B5574645464E46E0B40C78037982B031
:1008A00005000F00A34200D29AE02C710823002C0F
:1008B00000D19FE09946043BDB1B00269846A944E3
:1008C0003C1D6378A2461A02A378B0001B041343B0
:1008D000227849461343E278013612061343AB608F
:1008E000EB6804229C46604404F0B9F92B79F6B217
:1008F000C2440434B342E4D853461A1DFE5C2B7C38
:1009000090469246B34200D27CE02E74002E22D054
:100910001423994653460026A944FC186378B00076
:100920001A02A37849461B04134322780136134365
:10093000E278F6B2120613436B6104239C46AB695E
:10094000E2449C460422604404F089F92B7C043480
:10095000B342E3D8D0464346FE5C2B7FB34257D325
:1009600004239C462E77E244002E32D01C33994655
:10097000002300269846A9445346FC18210004226F
:1009800001A804F06CF904239C46019BE244534403
:10099000180021005346824505D20A790133CA70F6
:1009A00001318342F9D342463B18013B1A7053464A
:1009B000013BFB182B626B6A82469C46B000604488
:1009C0000422494604F04BF901362B7FF6B2B342BC
:1009D000D2D8504602B01CBC90469946A246F0BD03
:1009E000A100C06801F0D2FD2C71E8600823002C42
:1009F00000D05FE798469A46043BFE5C2B7CB342EE
:100A000000D382E7B100A86901F0C0FDA8617CE7CE
:100A1000B100686A01F0BAFD6862A1E7F0B5474627
:100A200080B4050084B00E1E632E05DD0021584BF6
:100A30008846C35C002B4CD0136856491B68691864
:100A40001000984783B29C46C823FF229B00EA54BB
:100A5000514B013AEA54514BC1B20212E954D3B29C
:100A60004F4AF4B2AB54CB18DB430132AB54494A82
:100A70004C4B9046EC5401044B4B360A090CEE5497
:100A80004144EE1833006918002201E01C7801335C
:100A900012199942FAD1C8216346890067468C46EB
:100AA000D24307339BB2EB1863441A708023083794
:100AB000BFB29B009F4211D86E18B846002F08D0D5
:100AC00000244435315D2800013403F02DFBA7429A
:100AD000F8DC404604B004BC9046F0BD0321334B23
:100AE000334C01AA01932B68117194601B68314843
:100AF000834248D1274B0422E95438230093CA2368
:100B00009B006946E81804F0AAF8CB239B00382222
:100B10002100E81804F0A3F8C823FF229B00EA5440
:100B20001D4B013AEA541D4BC13AEA540023C2213D
:100B30001B4AAB540132A9541A4ABB39A9541A4A68
:100B4000AB54D9239B00E9180722002301E0327837
:100B500001369B188E42FAD1D922DB439200AB5466
:100B6000C8239B00EC18144B2E009C464436654469
:100B700021783000013403F0D7FAAC42F8D10123D8
:100B80005B429846A5E7072128009847F7E7C0464B
:100B9000FC050000270300002103000022030000E1
:100BA000230300002503000026030000EC6600007C
:100BB0005C6800001D0A000065030000F0B55646A1
:100BC0005F464D4644468023F0B4D54E5B00F15855
:100BD00089B0301D03F0B4F9BD220023D200B35018
:100BE000D04AB350D04AB350043AB350CF4A1168F8
:100BF000002904D001330432192BF8D108E01A007F
:100C00006132FF32CA499200B218643351604B60BE
:100C1000C84B9B46C84803F0B7FA5B46C74AF3582F
:100C20008246C31A934202D90022C54BF254BD2317
:100C3000DB00F258002A06D0C122D200B2589245F9
:100C400001D90022F2503400351D280001F05EFE6B
:100C5000071E10D0BA4BF35C002B08D0C0235246BD
:100C6000DB00F358D31AB74A934200D908E10120B8
:100C700002F020F9CEE70121280001F0ABFC0028AA
:100C8000E8DBBF22BD21D200A358C9006558C318B4
:100C9000A350072D4CD0002D09D1FF285CD1012392
:100CA000C12263505346D2001433A350CCE7012D28
:100CB0005ED0022D00D1ABE0032D00D1B0E0042DB9
:100CC00000D1B6E0052D00D1C0E0062D00D1C4E072
:100CD000082DB9D1BD220021FF20D200B150DA1772
:100CE000120E9B1803409B1AFF2BADD1BE22D200DF
:100CF000A258002A00D161E20A2A00D116E2062A8F
:100D000000D13BE10B2A00D106E11300FC339B002C
:100D1000E3185B68002B97D01A688B4912688A42E7
:100D200001D000F065FC18001B690C3098478BE778
:100D30007D4AA358591CE318A1502133794AFF3347
:100D40001870A358013BA350002B00D07CE7BD23B3
:100D50000822DB00F25077E7601DFF3003F014FA41
:100D60005346C01A052800D86EE7754BF5547EE748
:100D7000FE2868D0724B6750E35C002B00D063E71D
:100D8000FF21724AA3540132A354714AA354714AF9
:100D9000A354714AA3540132A354704AA354704A15
:100DA000A3540E3AA1546F4A0139A1546E4AF63940
:100DB000A1546E4AEF31A3540132A1546C4AED396B
:100DC000A1546C4AA354A3186B4AA018002201E056
:100DD0001978013352188342FAD1D243664B370057
:100DE000F254604BFF21F5180F3398464437B04456
:100DF00001E029780135380003F096F94545F8D12E
:100E0000601DFF3003F0C0F98A235B00E0501BE750
:100E1000444BA050E050444BE7500323635013E78A
:100E2000404B0002E25894466044E0500423635073
:100E30000AE7FF20DA17120E9B1803409B1AFF2BBC
:100E40001BD0675000E702236350FDE6BE23DB00A2
:100E5000E0500623A0506350F6E6BE23DB00F258B4
:100E60000002944607226044F050083BF2502D4B9C
:100E7000F358002B00D16AE7E6E6FA3B6350E3E65D
:100E80000023FF21314AB3540132B354304AB354E2
:100E9000304AB354304AB3540132B3542F4AB35496
:100EA0002F4AB3540E3AB1542E4A0139B1542E4A46
:100EB000F639B1542D4AEF31B3540132B1542C4AB2
:100EC000ED39B1542B4AB354B3182B4AB018002251
:100ED00001E01978013352188342FAD1D243350028
:100EE000254BFF21F2541F4B4435F4180F33F718EC
:100EF00001E021780134280003F016F9BC42F8D152
:100F0000701DFF3003F040F98A235B00F050C023CE
:100F10005246DB00F250AAE6094BE15494E6C04683
:100F200078F1FF1FEC050000F4050000FCF6FF1F40
:100F3000B0F7FF1F040600007CF2FF1FF82A000034
:100F4000FC050000C4090000A505000027030000FF
:100F5000290300002A0300002B0300002D030000DA
:100F60002E030000210300002203000023030000E1
:100F700025030000260300002F03000090235B00E0
:100F8000E55CA94BE35CAB4205D2A84FA900E05950
:100F900001F0FCFAE051A44BF554002D00D12CE3F4
:100FA000042325009846A14B002799462535FF3597
:100FB0006B78B8001A02AB789D491B0413432A785A
:100FC00001371A43EB78FFB21B061343C322D2004A
:100FD000B35004239C464B46F358E0449C460422FD
:100FE000604403F03CFE904B0435F35CBB42DFD819
:100FF00045462B1D98461F00C42375192135FF3522
:10100000DB002D78F35CAB4208D2C523DB009946A8
:10101000E058A90001F0BAFA4B46E050C423DB00C7
:10102000F554002D2DD000233D009846C5232135D1
:10103000FF356519DB0099462B004546B8461F0071
:101040007B78A8001A02BB787A491B0413433A78CC
:1010500001351A43FB78EDB21B061343764A043779
:10106000B35004239C464B46F358E0449C4604226C
:10107000604403F0F4FDC423DB00F35CAB42DFD833
:1010800047464346F3182133FF331B7898466B4B92
:10109000F35C434506D24346694D9900605901F01F
:1010A00075FA60514246654B0437F25490235B0059
:1010B000994643460025B144002B33D04B460422C9
:1010C000D91907A803F0CBFD3B1D9C46079B634441
:1010D000181E60450AD93B0062462433FF33E318EB
:1010E00059780132197001339042F9D8002233182F
:1010F0002033FF331A706346C622013B4B44D200B3
:10110000B3504F4A0700B058AB00C018C623DB00ED
:10111000F118042203F0A3FD484B0135F35CEDB256
:10112000AB42CBD80122474BF2548DE5631DFF3310
:101130001800984603F028F88A235B00E358424AD7
:10114000C71A902394465B00E5580433E3584046A1
:101150006344019303F018F8FA21814689003800AE
:1011600003F032F8FA21013D45198900484603F0A1
:101170002BF88C23FA212D1A5B00E55038008900EA
:1011800003F0A8F8314D019B69430F00FA219C46FA
:1011900089004846674403F09DF88E2320004D43A4
:1011A0005B001930E118FF307D1BE55001F0FEF9BE
:1011B000404602F0E9FF5B46E05045E524497254A1
:1011C0000131725423497254234972542349725491
:1011D0000131725422497254224972540E397354A7
:1011E000FE21214BF154214B0739F554204BF25489
:1011F0000133F1541F4BED39F1541F4BF2541F4B87
:101200009C461F4B644401E01978013352189C42FC
:10121000FAD1D2433500194B1A4CF2540133F71866
:10122000FF21443532E0C046140600001C060000D1
:1012300090F7FF1F9CF7FF1F240600002C060000FC
:10124000340600000C06000000CA9A3B40420F0022
:1012500027030000290300002A0300002B030000DD
:101260002D0300002E0300002103000022030000D4
:101270002303000025030000260300002F030000C5
:101280009EF4FF1F99F4FF1F21780134280002F01B
:101290004BFFBC42F8D1701DFF3002F075FF8A236E
:1012A0005B00F050A423DB009946B144B0464D46A4
:1012B0002B68002B00D1B4E058689C681F68036855
:1012C0009B6898472B68019058680368DB689847CB
:1012D0002B6802901B690393632B04DDE74BF35CDF
:1012E000002B00D19DE0E64B3800F4540133240A72
:1012F000F45404F089FB0400E24B05900422F0183A
:1013000005A903F0ACFCE04B22003900F01803F013
:10131000A6FC019804F078FBD94AA31D9146B1447C
:101320004B4407000690180006AB1900042203F096
:1013300096FC4B460A3418193A00019903F08FFCC9
:10134000029804F061FB4B463C19079007001819FE
:1013500007AB1900042203F082FC4B460434181931
:101360003A00029903F07BFC3C19C54A33199918DD
:1013700000220A70CA210220890059180870C14948
:10138000043459180A70C14920048C4663441A7009
:10139000C823FF329B00F254BD4B013AF254BD4BBF
:1013A000E1B22212F154D3B2BB4A000CB354CB18B1
:1013B000DB430132B354039AB84BD1B2F154130A50
:1013C000B74AA7B2B354AE4B00229C4660443018D3
:1013D000B44B01E01978013352188342FAD1C82185
:1013E00089008C46D243FB1D9BB23C00F31863443A
:1013F0001A7080230834A4B29B009C4200D901E1FA
:10140000002C0ED0BD3BFF3B99460027B144C823BA
:101410009B00FB18F15C4846013702F085FEBC4298
:10142000F5DCA14B04359D4200D041E7B0461D00DC
:101430002868002800D1BFE09C49036801919A68A0
:101440009B49446887688A4200D0CCE09949DA68B1
:10145000029199498A4200D0C0E05B68974A934262
:1014600000D0B8E0436999464B46632B04DD834BBB
:10147000F35C002B00D19FE0814B3800F454013322
:10148000240AF45404F0C0FA04007E4B05900422B0
:10149000F01805A903F0E3FB7B4B22003900F0189C
:1014A00003F0DDFB019804F0AFFA854A070094468B
:1014B000A31D63440690180006AB1900042203F034
:1014C000CEFB7F4B0A3418193A00019903F0C7FB91
:1014D000029804F099FA3C190700794B0790181903
:1014E00007AB1900042203F0BAFB754B043418193A
:1014F0003A00029903F0B3FB3C19614A3319991879
:1015000000220A70CA2102208900591808705D491A
:10151000043459180A705D4920048C4663441A70DB
:10152000C823FF329B00F254594B013AF254594BF5
:10153000E1B22212F154D3B2574A000CB354CB1883
:10154000DB430132B3546A464B4613711179534B56
:10155000534AF1544B461B0AB354494BA7B29C461D
:10156000604430184F4B002201E0197801335218C3
:101570008342FAD1C82189008C46D243FB1D9BB21D
:101580003C00F31863441A7080230834A4B29B0013
:101590009C4200D9AFE0002C0ED0BD3BFF3B9946EA
:1015A0000027B144C8239B00FB18F15C4846013773
:1015B00002F0BAFDBC42F5DC424B04359D4200D03E
:1015C00036E701222D4BF25452460433F2505B466B
:1015D000F250FFF74CFB9847814645E79047029051
:1015E0002868036839E790470190286803682DE769
:1015F000354918009047FFF727FB0823082798462E
:101600000425F9E4032342461D4930485354CA23B4
:10161000382241469B00CA502D4903F020FBC823C5
:101620004146FF229B00CA54194B013ACA54194B38
:10163000C13ACA540023184A40468B54C221013291
:101640008154164ABB398154154A07218354D92045
:1016500080004044134A01E0117801325B18904247
:10166000FAD1D922DB439200B3541A4B3700994682
:10167000194CB144FF21443732E0C046FC0500005C
:1016800027030000290300002D0300002A030000A7
:1016900021030000220300002303000025030000B3
:1016A000260300009EF4FF1FFCF6FF1F28680000C1
:1016B000B505000038680000BD050000B105000058
:1016C0009FF4FF1F60F7FF1F98F2FF1FA4F4FF1F96
:1016D0005C6800006503000099F4FF1F2178013465
:1016E000380002F021FD4C45F8D1274B04359D42CE
:1016F00000D0DDE59AE603234246244924485354AA
:10170000CA23382241469B00CA50224903F0A7FA57
:10171000C8234146FF229B00CA541F4B013ACA54BA
:101720001E4BC13ACA5400231D4A40468B54C22165
:10173000013281541B4ABB3981541B4A072183540F
:10174000D92080004044194A01E0117801325B1829
:101750008242FAD1D922DB439200B354144B3700B2
:101760009946144CB144FF21443701E021780134FB
:10177000380002F0D9FC4C45F8D10F4B04359D429E
:1017800000D055E61DE7C046FCF6FF1F270300000A
:10179000A4F4FF1F5C680000210300002203000086
:1017A0002303000025030000260300009EF4FF1F12
:1017B0006503000099F4FF1F60F7FF1FF0B55F4657
:1017C00056464D4644468346F0B4A4260022050002
:1017D000C64B91B00A93C64B0AAFBB60FB603B613E
:1017E000C44BF6005B44BA807A615E44029333686E
:1017F000002B00D1C8E01A895868BA801A680368BB
:10180000BA609B6898473368F86058680368DB687B
:10181000984780239B007B6132682B68386112698E
:101820001B68B549804601928B4200D0BFE1632A14
:1018300004DDB24BEB5C002B00D1A5E0BB88B04AC5
:10184000AB5401321B0AAB54BB681800994604F034
:10185000DBF80400AB4B0590042205A9E81803F05F
:10186000FEF9A94B49462200E81803F0F8F9FA6896
:101870001000934604F0C8F8A14AA31D9146A9445C
:101880004B4482460690180006AB190004220393CD
:1018900003F0E5F94B460A3418195246594603F04D
:1018A000DEF9404604F0B0F84B46544407908246B7
:1018B000181907AB190004229B4603F0D0F94B46D8
:1018C000043418194146524603F0C9F900224B4628
:1018D000022154441A551B199A70DA70221D59704E
:1018E00093B29C46C823FD319B00E954874B0139D4
:1018F000E954874BD0B21112E854CBB285496B54EE
:10190000C318DB43013101986B54834BC1B2E954D6
:10191000824B000AE8541004794A000C9046EC18F7
:10192000404423002818002201E01978013352189E
:101930009842FAD16346C82108339BB29846634661
:1019400089008C46D24307339BB2EB1863441A706C
:1019500080239B00984500D942E189464346A9442B
:10196000002B11D044239A462B00AA44002445465C
:10197000B0464E469946315D5046013402F0D4FBE4
:10198000A542F8DC46464D46029B04369E4200D0F6
:101990002DE79A46BD23AB46DB005B4402935346DA
:1019A0001868002800D1F1E083885D49BB80836816
:1019B000BB6003689A688A4200D00BE1594AFA601A
:1019C000DA6859498A4200D0FEE0584A3A618022DA
:1019D00092007A612A685B681468554A934200D085
:1019E000EFE043690193444B9C4200D0E4E0019B4B
:1019F000632B04DD414BEB5C002B00D1C6E0BB88C0
:101A00003F4ABE68AB541B0A0132AB54300003F0AE
:101A1000FBFF04003B4B0590042205A9E81803F0E6
:101A20001EF9394B22003100E81803F018F9A31D04
:101A30009946FB680A3418009B4603F0E5FF304BDB
:101A40008046EE184B460690F01806AB19000422AB
:101A5000039303F004F942465946301903F0FFF8A6
:101A60003B69444418009B4603F0CEFF814607AB18
:101A700019000790042230190434984603F0EFF857
:101A800030194A46594603F0EAF87B694C4433550D
:101A90001A0A3619727004341A0C1B0EF370A3B2B2
:101AA0009C46C823B270FF229B00EA54174B013AB0
:101AB000EA54174BE1B22212E954D3B2154A20047A
:101AC000AB54CB18DB430132AB54019A124BD1B269
:101AD000E954124B120AEA54094A000C9146EE18D6
:101AE000484433002818002226E0C046D46600008F
:101AF00094680000840500001D0A0000FC05000039
:101B000027030000290300002D030000210300002B
:101B10002203000023030000250300002603000029
:101B2000B505000028680000BD0500003868000009
:101B3000B10500001978013352189842FAD1C82132
:101B40006346890064468C46D24307339BB2EB1848
:101B500063441A7080230834A4B29B009C4200D9CD
:101B600094E08846A844002C10D0442399462B00CA
:101B7000A944002625004C46994643462000995D1D
:101B8000013602F0D1FAB542F7DC4D4604239C46FB
:101B9000029BE244534500D001E701226B4BEA541B
:101BA00011B03CBC90469946A246AB46F0BD3A0007
:101BB000019928009847E7E63A0001992800A047D4
:101BC000E4E7984701900EE79047534602001868F3
:101BD0000368FBE690475346020018680368EEE688
:101BE0005B465B4A5B491A60032299601A712B6855
:101BF00059491B688B4200D0A2E0584B0399EA5424
:101C000038230693CA239B000132E81803F027F813
:101C1000CB239B0038224F49E81803F020F8C82353
:101C2000FF229B00EA544E4B013AEA544D4BC13A15
:101C3000EA540023C2214C4AAB540132A9544B4A06
:101C4000BB39A9544A4AAB54D9239B00E91807224F
:101C500000239B18A14204D0227801349B18A14292
:101C6000FAD1D922DB439200AB5444239946C823CE
:101C70009B00EC183F4BA9449846A844217848465D
:101C8000013402F051FAA045F8D17DE64246304BCE
:101C9000304C1360434603229C601A712B682E4916
:101CA0001B688B4247D12D4B0399EA543823069386
:101CB000CA239B000132E81802F0D1FFCB239B001E
:101CC00038222100E81802F0CAFFC823FF229B0037
:101CD000EA54234B013AEA54224BC13AEA54002316
:101CE000C221214AAB540132A954204ABB39A9541C
:101CF0001F4AAB54D9239B00E918072200239B18E5
:101D00008E4204D0327801369B188E42FAD1D92205
:101D1000DB439200AB5444239846C8239B00EC1845
:101D2000144BA844EE1821784046013402F0FCF927
:101D3000B442F8D12AE7424607212800984725E710
:101D40005A460721280098471EE6C046FC050000B9
:101D5000EC6600005C6800001D0A0000270300001C
:101D600021030000220300002303000025030000DC
:101D70002603000065030000F0B55F464D4644466B
:101D80005646F0B4431DFF33040089B0180099464D
:101D900002F0FAF9CF4BD04AE3588346C31A934274
:101DA00002D90022CD4BE254BD23DB00E258002AC9
:101DB00005D0C122D200A2585A4500D22BE1251DE0
:101DC000280000F0A3FD071E14D0C44B0020E35CE4
:101DD000002B08D0C0235A46DB00E358D31AC04A70
:101DE000934200D91AE109B03CBC90469946A246FC
:101DF000AB46F0BD0121280000F0ECFB0028E4DB3D
:101E0000BF22BD21D200A358C9006658C318A350F1
:101E1000072E4AD0002E09D1FF285AD10123C12212
:101E200063505B46D2001433A350C9E7012E5DD046
:101E3000022E00D1BAE0032E00D1BFE0042E00D163
:101E4000C5E0052E00D1CFE0062E00D1D3E0082E4C
:101E5000B6D1BD220021FF20D200A150DA17120E08
:101E60009B1803409B1AFF2BAAD1BE23DB00E3582B
:101E7000002B00D1A4E20A2B00D15DE1062B00D19A
:101E8000B5E10B2B00D154E1FC339B00E3185B68F8
:101E9000002B95D01A68934912688A4200D089E2D3
:101EA00018001B690C3098478AE78F4AA358591CC1
:101EB000E3182133A150FF338C4A1870A358013B1B
:101EC000A350002B00D07BE7BD230822DB00E250AB
:101ED00076E7484602F058F95B46C01A052800D854
:101EE0006EE702207D4B4042E6547CE7FE2878D026
:101EF0007A4B6750E35C002B00D061E705AA90465F
:101F00007B4A059242465360936022681668794A7C
:101F1000964200D0D8E0FF21774AA3540132A3545F
:101F2000764AA354764AA354764AA3540132A35462
:101F3000754AA354754AA3540E3AA154744A013900
:101F4000A154744AF639A154734AEF31A3540132B3
:101F5000A154724AED39A154714AA354A318714A8D
:101F6000A018002201E01978013352189842FAD1E2
:101F7000D2436C4BE25444239846C8239B00E61896
:101F80001033E7182300A0443C00474698463178B8
:101F90003800013602F0C8F8A642F8D14446484657
:101FA00002F0F2F88A235B00E05009E74F4BE05063
:101FB0004D4BE75003236350A05001E74B4B000209
:101FC000E25894466044E05004236350F8E6FF2052
:101FD000DA17120E9B1803409B1AFF2B71D0675023
:101FE000EEE602236350EBE6BE23DB00E05006235F
:101FF0006350A050E4E6BE23DB00E25800029446A2
:1020000007226044E050083BE250384BE358002B75
:1020100000D159E7D4E60022E250D0E6344B354AED
:102020000593236806901B68079093427CD1FF229A
:10203000314B0A21E0540133E054304BE054304B33
:10204000E054304BE0540133E0542F4BE0542F4B1D
:10205000E0540E3BE2542E4B013AE2542D4BF63A3B
:10206000E2542D4BEF32E0540133E2542B4BED3A66
:10207000E2542B4B2B4AE054A018E318002201E055
:102080001978013352188342FAD1D2432700254BE5
:102090004437E2540F3BE5181033E618297838002E
:1020A000013502F041F8AE42F8D1484602F06CF832
:1020B0008A235B00E050C0235A46DB00E250002038
:1020C00091E6FA3B63507BE642460A212000B04786
:1020D00065E7C04604060000F82A0000FC05000081
:1020E000C4090000A5050000F4050000EC0500008F
:1020F000BC6600001D0A0000270300002903000041
:102100002A0300002B0300002D0300002E03000013
:102110002103000022030000230300002503000028
:10212000260300002F03000005AA0A21200098477B
:10213000BBE7B44BE15443E6484602F025F88A2356
:102140005B00E358C31A9A4690235B00E018E15CF9
:10215000437887781B020B433F041A003B00C77883
:1021600013433F061F4392235B00E018E15C437872
:1021700086781B020B4336041A003300C6781343DB
:1021800036061E43A04B48469C46664401F0FCFFC1
:10219000FA2180468900504602F016F8FA21013FE4
:1021A000C7198900404602F00FF88C23FA215B0022
:1021B0003F1AE7508900504602F08CF8934F404692
:1021C00079438E19FA21890002F084F88E232000C9
:1021D00079435B00761A1930E650E118FF3000F0C1
:1021E000E5F9484601F0D0FF894BE050E8E51B33A4
:1021F000FF339C46A4446346019390235B00E65C56
:10220000C223DB009A46A24453461B79B34206D24E
:102210005346B100D86800F0B9F95346D860534628
:102220001E71002E00D1E7E0C323DB009C46A444CE
:10223000634602930423019A26009B1A0393534694
:102240000027A2461C002536FF367378B8001A0214
:10225000B37802991B041343327801371A43F37899
:10226000FFB21B061343A360039B04229846E36856
:10227000B0449C46604402F0F2FC23790436BB4231
:10228000E3D8230054469A4643461E1DB046019AA1
:10229000D75C53461B7CBB4206D25346B9009869B3
:1022A00000F074F95346986153461F74002F2FD0E5
:1022B000584B52469C46A44463460293019BA24657
:1022C00043441F0043460026A84614001D007B78A7
:1022D000B0001A02BB7802991B0413433A78013606
:1022E0001A43FB78F6B21B0613436361A369042209
:1022F0009C46604402F0B3FC237C04350437B342AF
:10230000E5D82A0023004546544690469A461600D2
:10231000019B9E5D53461B7FB34206D25346B100DC
:10232000586A00F033F9534658624746534604371B
:102330001E77002E3AD0C623DB009C46A444634699
:1023400003930023029305AB98465346A2461C0014
:10235000019B0422DE193100404602F080FC059BFF
:10236000391DCF180B1EBB4205D232790133F270F2
:102370000136BB42F9D30020019A01399446D319A2
:10238000013B1870636A61449C46029E2162B00062
:1023900004226044039902F062FC33000133DBB293
:1023A00002931A00237F9342D2D8544601221A4B3B
:1023B000E25405E521002131FF3118009047FFE488
:1023C000164A06930793236805921B6805AA0A31EB
:1023D00020009847484601F0D7FE8A235B00E05072
:1023E0002000FFF7EBF9C0235A460120DB00E25042
:1023F000074B4042E250F6E4082308269846043B87
:1024000045E7C046FC05000000CA9A3B40420F0069
:1024100004060000240600000C060000BC66000054
:1024200070B5324C324B2000651D0821042208C0D3
:10243000FF35002300F042FA280001F089FEE12276
:10244000802312025B00E250280001F091FE00237D
:10245000284A2949A3541432A150284A0020A354E1
:10246000274AA3500432A3540832A350254AA35448
:10247000254AA350A423DB00E1180A00234BE318EC
:1024800001C29342FCD1BD22D200A018002204C395
:102490009842FCD12200C823002021329B00FF3249
:1024A000E318107001329342FBD100221A700133FD
:1024B0008B42FBD1164A1749200001F079FE164CD9
:1024C00018220021200002F0E8FB1449200000F04F
:1024D0003DFC134B134A1A60134ADA60134A1A611F
:1024E00001225A61124A9A6070BDC04678F1FF1FFE
:1024F00034670000FC0500000467000014060000BB
:102500001C0600002C0600003406000084050000B4
:10251000C0F0FF1F3525000060F1FF1F48100000CC
:10252000B0F7FF1F486700001C6700008905000026
:102530009868000010B50400024B08C000F046F98E
:10254000200010BD346700000748084A10B5121A71
:10255000002102F0A2FB00E000BF02F0E9FA01F066
:1025600077FC01F0BBFFC04644F1FF1F08F9FF1FD5
:1025700010B50123022802DD01F02EFC0300180033
:1025800010BDC04610B502F04BFB10BD10B503F0F6
:10259000BBF810BD10B502F04DFB10BD10B5012009
:1025A00001F09CFF10B5FFF7F9FFC04670B50600BB
:1025B0000D680C002800064901F006FE3368044946
:1025C0009C4660443060280001F084FE216070BDAC
:1025D00000CA9A3BC36F70B50400002B2ED0406E2A
:1025E00000282BD0002931D18423E358002B32D08E
:1025F000636FC3181878636FC5B201336367626F86
:10260000E36F9A4201DB002363678423E258E36FA0
:102610009A420BD02021E36D2000DE78DA78F6B202
:102620008A43DA7000F01AF8E36DDE7072B6842225
:10263000A358013BA35062B6280006E02021E26DBA
:1026400013791942FCD0D079C0B270BD8422A3584E
:10265000002BFCD0CCE701204042F6E7F0B547461E
:1026600080B4C36D0400DA7892063AD5002B3BD0D3
:10267000C26F002A38D0426E002A35D020271A793E
:102680006125842617422CD0DB79DBB26355A25931
:10269000E36F9A4238D0626E002A10D0E36ED318EE
:1026A000625DD2B21A70A3590133A351E36E0133B4
:1026B000E366E26EE36F9A4201DB0023E366582390
:1026C00098464033E358A044002B38D04046984702
:1026D0009423E25C635D9A420ED0E36D1A7917424F
:1026E000D2D104BC9046F0BD98232000E358583066
:1026F000002B34D09847F4E7E823E358002B3ED072
:1027000040469847E36DE9E78C22635DDBB2A35056
:10271000582398466033E358A044002BD6D12100BB
:10272000B8314B68002BD3D08A68C868002A0FD014
:10273000C1070FD44010181841469047C8E7210040
:1027400098314B68002BC3D08A68C868002AEFD143
:10275000C107BDD54010181803689A58ECE79834A3
:102760006368002BBDD0A568E268002D18D0D107A2
:1027700018D452109B1801001800A847B1E7230095
:10278000E83358680028A8D09A68DB68002A0ED081
:10279000D9070ED45B10C01841469047E36D9DE702
:1027A000D1079ED552109B181A685559E3E7D907EF
:1027B00093D55B10C01803689A58EDE77047C04680
:1027C00010B5040001F0FBFC200010BD154B10B546
:1027D0001A00083202601A0054334364F82320328E
:1027E00002641F22C35C04001A400123934080222C
:1027F0000D49406E8B50002801D0FFF7CBFEA06E34
:10280000002801D0FFF7C6FE084B20001A00236005
:1028100018324C3322646364403001F073FC2000B2
:1028200010BDC046C068000000E100E0606B000021
:1028300008B4024B9C46403808BC6047CD270000D6
:1028400008B4024B9C46443808BC6047CD270000C2
:1028500010B50400FFF7BAFF200001F0B0FC200023
:1028600010BDC04608B4024B9C46443808BC6047C3
:102870005128000008B4024B9C46403808BC604711
:102880005128000010B50121FFF7A4FE10BDC0467D
:1028900008B4024B9C46403808BC604785280000BD
:1028A00010B5012200F038F810BDC04608B4024B44
:1028B0009C46403808BC6047A128000070B5040061
:1028C000150001F0B3FB104B21001A000832226002
:1028D0001A005433636400232032A365230022646A
:1028E00000229833F8311A605A609A60DA60103327
:1028F0008B42F8D1802252002B002000110000F002
:10290000B1F8200070BDC046C06800008423C058E4
:1029100043425841C0B27047F0B54746836E80B419
:1029200004000D00002B03D08023C358002B0AD1D4
:10293000E26D13795BB2002BFBDA0020EDB2D571AA
:1029400004BC9046F0BDC36D197949B200293DDB46
:10295000002A42D07F21DA788827D2B29046DA78EE
:1029600080260A40DA708823E258083BE3589A42EE
:1029700007D10021200000F0F3F8E259A3599A4250
:10298000F7D04246E36DDA70E36D7F21DA78EDB27D
:102990000A40DA70A26E236F944663441D7072B6CB
:1029A0008822A3580133A35062B6236F01332367F3
:1029B0008023226FE3589A4201DB002323678023A0
:1029C000E26D0020D1780B43D370B9E788214058DD
:1029D0000028BDD1EDB2DD71B2E78822A158083AD6
:1029E000A2589142D1D190232000E5503833E358CA
:1029F0005830002B03D0984701204042A0E7C8344C
:102A00006268002A14D0A568E368002D0ED0D907AB
:102A100007D45B10D31801001800A84701204042DA
:102A20008EE75B10D3181A685559F4E7D907F8D424
:102A30000120404284E7C0464B6810B5DA0706D54E
:102A40005B10C01802680B68D258904710BD5B102D
:102A50000A68C018F9E7C04610B5012100F080F8F7
:102A600010BDC046F82370B516001F22C35C0400D9
:102A70001A400123934080220D0034498B5000F00E
:102A800007F9E36DA465002B5BD0E6670020002EFC
:102A900002DDE06FFFF776FD00238422E3666066C7
:102AA0006367A3500832A350002C3ED0284A6361CC
:102AB000284B261D22612362E460012200213000A0
:102AC00000F0ECFE8023E550002D38DDE058FFF7E4
:102AD00059FD002388222367A066A367A35008320C
:102AE000A3501D4A002A1AD0002C18D0E362194BBB
:102AF000A2626462A36301220121300000F0CEFED5
:102B0000200000F0E9F800229423E2546433E35CEF
:102B10001F321A40012393400C4A136070BD0022FB
:102B20000121300000F0BAFEEAE700220021042073
:102B300000F0B4FE80230426E550002DC6DC002002
:102B4000C7E7064800F0E2F8DAE7C04600E100E037
:102B50005D260000392A0000592A00001C69000087
:102B6000F8B546464F46C0B4C26D0400D3780E0097
:102B70005BB2002B09DB8823C158083BC35899423C
:102B800003D00CBC90469946F8BD002A24D080237F
:102B9000E358002B20D0A36E002B1DD06023882586
:102BA0009846802700226359002B04D0E16D0B79F1
:102BB0005BB2002B26DB8823E358002BE1D17F2179
:102BC000E26D2000D37858300B40D370D823E358FF
:102BD000002B35D09847D4E7A8232000E35858307D
:102BE000002BF7D1A8346368002BCAD0A568E2682F
:102BF000002D3CD0D1073DD452109B180100180085
:102C0000A847BEE7A06EA36F8446404663441B7886
:102C1000DBB22354CB716359013B6351A36F013382
:102C2000A367A16FE359994200DBA267002EBAD0D7
:102C3000A8232000E3585830002B06D09847B1E76E
:102C4000D8346368002BD1D19BE72200A8325368A7
:102C5000002BA7D09168D268894600290FD0D107F0
:102C60000FD452109B1801001800C8479AE7D107EB
:102C700000D486E752109B181A685559BEE7D10751
:102C800090D5494652109B181A6852589146EAE767
:102C90008368012B14D0022B0CD0002B04D000230E
:102CA000F822C36583547047084B0C22C365F82390
:102CB000C254F8E7064B0E22C365F823C254F2E76C
:102CC000044B0D22C365F823C254ECE700A0064074
:102CD00000C0064000B006407047C04600B589B04D
:102CE00072B6094902A800F031F8039A059B9620B4
:102CF0001A60019200F0DEF8039A069B96201A6093
:102D0000019200F0D7F8F0E7481000000FB400B5CA
:102D1000054B83B004AA1B6802CAD868019202F06E
:102D2000A5F9012001F0DAFB30F1FF1F70B50D00AD
:102D3000040000F039F96B1C07D00021200000F0DE
:102D400059F90221200000F04FF970BD70B50D0057
:102D5000040000F029F96B1C0AD023696268012184
:102D600020001A6000F046F90021200000F03CF934
:102D700070BDC04610B500F053F810BD10B504008A
:102D8000431C03D109E09C4208D00C3100228B5E29
:102D90005A1CF8D10648FFF7B9FF10BD200089681A
:102DA00000F038F90021200000F056F9F5E7C046A0
:102DB0004C69000010B5884208D0431C07D04B1C5A
:102DC00004D00448FFF7A2FF0120404210BD0800D4
:102DD000FCE7C0466069000010B50200431C03D147
:102DE0000BE09A420AD00C3100200B5E581CF8D13F
:102DF0000448FFF78BFF0120404210BD4868431C88
:102E0000FBD1F5E77469000030B585B06D46182434
:102E1000201C291CABBE041C200005B030BDC046E0
:102E2000014B18687047C046C4F0FF1F036870B5B7
:102E3000DB68050098476B685B680DE01C682B68D1
:102E40005B689847241A002C0CDC6A6851688B6810
:102E500053601268002A0CD1002BEFD12B689B68BD
:102E6000984770BD6B685B6818682B681B6998474A
:102E7000F7E748689047DEE710B503685B68984756
:102E800010BDC04600487047C869000010B5024830
:102E9000FFF7CCFF10BDC046C869000070B5050043
:102EA00000F03CFA040000F039FA001BA842FAD303
:102EB00070BDC046FA2310B59B005843FFF7EEFFE4
:102EC00010BDC0460A4A30B5946892682300002AB3
:102ED0000AD10023074A1D599A1804331560C02BE4
:102EE000F8D1044B024A936010308000C15030BDCD
:102EF00000ED00E000F0FF1F8822002010B58024C4
:102F0000214B2249520198505A58A40022435A504A
:102F10001F49204A9950204B204A996C11409964CE
:102F2000D96C0A40DA6489221D4B1F211A702423B0
:102F30001C4A537076331370D3780B40D37001233F
:102F40000F391371507193791942FCD10C21154836
:102F50008379144A0B40082BFAD10C213833537172
:102F600093790B40082BFBD140210E4882790D4B01
:102F70001142FBD01A220C211A701A0093790B40CF
:102F80000C2BFBD110BDC04600700440381000006F
:102F9000000001104410000000900440FFF8FFFE04
:102FA000005006400040064070B505000C00298026
:102FB0004B1C15D02000012100F02CF801236206E3
:102FC000D20E93406B60074B240B9C466444A401D3
:102FD000231DEB6004332B61143408336B61AC6048
:102FE00070BDC046C03FE00310B50023C05E00F0D6
:102FF00033F810BD002907D0012904D18268436845
:1030000011680B43136070478268416813688B43F3
:103010001360F8E7030BF0B51F0001220937BA402F
:10302000094E0A4D0902745922437251084A9446C6
:1030300063441A037C23184010180268054B1340A0
:1030400019430160F0BDC046007004403810000014
:1030500049000400FFF8FFFF044B03229C46604434
:1030600003689343194301607047C04600900440D1
:103070008020164B164900045A5870B502435A5026
:10308000002201210125134C494222601132FF32F6
:10309000A15008320531A150A1582943A1500E4A30
:1030A00099580E4B4903490F1868013101F08CF80B
:1030B0000B4B0C499C46604401F086F88023013894
:1030C0005B00E0500833E55070BDC046007004401E
:1030D0003C1000000070034044100000C8F0FF1FC7
:1030E00020A1070040420F0070B501245F4D604BE6
:1030F0006049EA581C202243EA5000225E4B3F26DA
:103100001A60FFF7DFFE80225C4B52051A605C4AB2
:103110005C4B1068EB585C4A1B0F11780133584325
:10312000B143802900D17AE01178B14322D153799B
:103130005B0645D49379DB061CD413789B065B0FA2
:103140009C405378302225001A4200D065011F228E
:103150004D4BDB789343602B00D17EE061D8202B70
:1031600000D172E0402B00D17AE0002B00D16FE05B
:10317000464965E00222444B0E2019780A431A7032
:10318000012259780A435A7000223B494A601A7A50
:10319000024010D0022A0BD01A7A82431A720422FB
:1031A000187A02431A7204234A6813434B6070BDB5
:1031B0004B684B60FBE708234A6813434B60F6E714
:1031C0001F21147953790C400134194060431831A0
:1031D00000F0FAFF0400002CCCD02D49200001F0B3
:1031E00079F80029C6D12A49200000F0EDFF012816
:1031F00020D0400801282ED0C307BBD400230122D1
:1032000001E00242B6D1013340080128F9D1782209
:10321000DB001340753A1343174A5360C7E70400B5
:10322000D9E7A02B0AD0C02B1DD0802BA0D1B7216D
:10323000890005E00722104B5A60B8E7B721C900A2
:10324000684300F0C1FF0400C5E7A021C900F7E70B
:10325000A0218900F4E70323DEE7A0210901EFE7BD
:10326000F021C900ECE70B49EAE7C04600700440D2
:1032700038100000993200000000044000E100E036
:10328000C8F0FF1F4410000000400640710B000012
:1032900040420F00950800008022154B10B51968B8
:1032A0000A4314491A600A68002A12D11249088890
:1032B00000280BD01A60986040201C6820431860DA
:1032C00001201C68204318600A8010BDFFF7DEFD56
:1032D000FBE7002018600948013A986040201C680C
:1032E0002043186001201C68204318600A60ECE746
:1032F00000000440D0F7FF1FD8F7FF1FFFFF0000BA
:10330000054B10B51A68002A05D101321A60FFF783
:10331000AFFEFFF7E9FE10BDD4F7FF1F084B10B555
:103320001A68002A05D101321A60FFF7A1FEFFF7E3
:10333000DBFE8A23034A5B00D058C04310BDC04661
:10334000D4F7FF1F007003404021024A13688B43EB
:1033500013607047000004407047C0461D4B10B515
:103360001A680400002A05D101321A60FFF780FEB6
:10337000FFF7BAFE8A23184A5B00D058C043201AD0
:10338000002823DD154C1649031423600880154AD4
:103390000DD10004000C136090604020146820439D
:1033A000106001201468204310600B8010BD0021C4
:1033B00011600D49013B916040211068014311608B
:1033C00001211068014311602360EFE7FFF75EFD04
:1033D000ECE7C046D4F7FF1F00700340D0F7FF1F93
:1033E000D8F7FF1F00000440FFFF000000B587B0C2
:1033F00010216846FFF79AFC07B000BD0C4B0D4A40
:1034000010B5D0580C4B000F1B68013058430B4BC4
:103410000B495B795B0606D580245358640223432D
:103420005350400810BD5458064B23405350F9E701
:103430004410000000700440C8F0FF1F0040064028
:1034400004100000FFFFFEFF70B5104B104D1C79FB
:103450002868E4B2002804D063B2002B11DBA30675
:1034600009D40A4A13791B0704D5082311790B43A1
:10347000DBB2137170BD074B28681B6800219847A9
:10348000EFE7044B01211B689847E8E700A00640DE
:10349000DCF7FF1FE8F7FF1F70B50C4B0C4D1C79D4
:1034A000A868E4B2002804D063B2002B08DBA306AE
:1034B00000D470BD074BA8681B6800219847F8E747
:1034C000044B01211B689847F1E7C04600C0064045
:1034D000DCF7FF1FE8F7FF1F70B50C4B0C4D1C7994
:1034E0006868E4B2002804D063B2002B08DBA306AE
:1034F00000D470BD074B68681B6800219847F8E747
:10350000044B01211B689847F1E7C04600B0064014
:10351000DCF7FF1FE8F7FF1FF8B54F464646C0B47B
:103520000F000C2103680400DE78DA780E408A432D
:10353000DA7005684B4B9D421FD04B4B4B4AD1581C
:103540004B4B4903490F0131186800F03DFE39012A
:1035500000F03AFE1F212B78020A0A408B431343E6
:103560002B702368C0B25A7858702268D3781E43F3
:10357000D6700CBC90469946F8BD3F223D4B904614
:1035800099461B78934335D03F21374B374AD05863
:10359000374B000F1B6801305843364B1A788A436B
:1035A000802AD4D01A788A4334D15A79520633D437
:1035B0009A79D2062ED4012219785B788906490FB0
:1035C0008A403021194200D052011F21294BDB785B
:1035D0008B43602B36D02CD8202B36D0402B37D0C5
:1035E000002B04D02449504300F0EEFDAFE7A021AA
:1035F0008900F8E7FFF702FF002831D04B4642462A
:103600001B78934302D025680020A0E7FFF7F6FE61
:1036100025689CE700209AE71A7959791F239C4670
:1036200013400133584363461940183100F0CCFD74
:103630008DE7A02B11D0C02B0DD0802BD2D1B7217C
:103640008900D0E7A0210901CDE7A021C900CAE780
:10365000F021C900C7E70949C5E7B721C900C2E79A
:10366000256891E700A00640441000000070044067
:10367000C8F0FF1F00400640710B000095080000D5
:1036800070B50C260168CC78CD783440B543CD7048
:10369000012A19D0002A19D0023A55425541690031
:1036A00020250268013B917001685B010A78AA43FA
:1036B0000A7001680A781343DBB20B7023000168BB
:1036C000CA781343CB7070BD0321E9E70021E7E717
:1036D000F8B54D4644465F465646F0B40F005E4B83
:1036E00005001900380016009946FFF775FB5B4B83
:1036F0000400190030009846FFF76EFB010020001F
:10370000FFF758FB564B0400021E28609A4200D176
:1037100081E0544B98426BD0534B98424FD00C21D0
:10372000D3788B43D37008232A68D1780B43402188
:10373000D3702A6813791942FCD00C21D3788B43BB
:10374000D370474B9C4263D0464B9C425DD0464B66
:103750009C4231D0962128008901FFF7DDFE01232C
:10376000002208212800FFF78BFF49463800FFF7A9
:1037700005FB41463000FFF701FB7B1C08D0082306
:103780002A683800D1780B43D3700221FFF764FC1C
:10379000731C08D004232A683000D1780B43D370FF
:1037A0000221FFF759FC304B9C4249D03CBC90466B
:1037B0009946A246AB46F8BD00236B60CAE73F219D
:1037C0002A4B1B788B432ED029482A4B9B46C35843
:1037D0009A46802351461B0519430B005946435016
:1037E000254B23489B46C3589A468023DB0006E0BE
:1037F000214B1F489B46C3589A4680235B01514684
:1038000019430B005946435089E702236B60A1E737
:1038100001236B609EE7184B15489B46C3589A4698
:1038200080231B01EBE7FFF7E9FD002811D0802082
:10383000104A0F49C0048B5803438B502A68CFE7C6
:1038400001220E4B29001A600D48073201F007FAD9
:10385000ACE72A68B8E7C0463C6A0000D0690000BF
:1038600000B0064000C0064000A0064000400640F0
:10387000007004400410000034100000ECF7FF1F3B
:10388000FCF8FF1F034B1960436803499B005A5023
:103890007047C046E8F7FF1FDCF7FF1F70B50368ED
:1038A0002B4CA34233D02B4CA3422DD02A4CA34205
:1038B00011D000250024002A11D0002942D001296E
:1038C00035D064B229002000FFF7FCFA0123A340A1
:1038D000224A136070BD224D0C24002AEDD14A42C9
:1038E0004A41D2B2002927D0012913D0012A18D188
:1038F000DB785BB2DB43DB0F002BEBD001238022B4
:10390000A34016498B50E5E7164D0E24D3E7164D1C
:103910000D24D0E77F25D9782940D9700368012A82
:10392000E6D00122DB785B0953401340E4E78022B4
:10393000D9780A43DA70C4E72025D978A943D97029
:103940000368D3E72022D9780A43DA70B9E7C04682
:1039500000B0064000C0064000A0064000E100E0C4
:103960004934000099340000D934000030B52021DA
:103970000825082403681A79144204D01A792A43C6
:10398000D2B21A7103681A791142F4D0D879C0B250
:1039900030BDC04670B5082608257F24026813791B
:1039A0001D4204D013793343DBB2137102681379DB
:1039B000A343F4D0C9B2D17170BDC0460A4B0833DD
:1039C00003608368002B0AD0084B1A68904201D12B
:1039D00006E01A0053689842FBD143685360704771
:1039E00042681A60FBE7C046A86A0000F0F7FF1FB4
:1039F0000D4B10B50833036083680400002B0AD018
:103A00000A4B1A68904201D10AE01A0053689C429E
:103A1000FBD163685360200000F0D1FB200010BD93
:103A200042681A60F7E7C046A86A0000F0F7FF1F77
:103A3000064B816008330360002302734360002952
:103A400003D0034B1A68186042607047A86A0000F0
:103A5000F0F7FF1FF8B50E4B07001C680E00002C96
:103A600011D0A568002D0BD032003900280001F0DC
:103A7000D2FF002804D1280001F0C6FF864204D0FE
:103A80006468002CEDD10020F8BD2000FCE7C046A2
:103A9000F0F7FF1F007B7047036870B51B690122B8
:103AA0000021040098470600431C0ED02368022220
:103AB0001B690021200098470500236800221B692C
:103AC000310020009847280070BDFDE7074B10B576
:103AD0000022040008C0FFF7ABFF054B20001A00CE
:103AE000343308322260636010BDC046146B00009E
:103AF000B86A0000074B10B51A00040008323433CE
:103B0000026043600430FFF759FF200000F06CF8BA
:103B1000200010BDB86A0000002370B50360436048
:103B20000B7804002F2B01D0200070BD4B78002BA8
:103B3000FAD0481C20604B782F2B14D0002B15D0C6
:103B4000030001E0002A0CD05D1A013323601A78CB
:103B50002F2AF7D1290001332360FFF77BFF606034
:103B6000E2E72900F9E703000021F4E70021F4E788
:103B70000068704710B504004068002805D0FFF7C2
:103B800089FF012801D1606810BD0020FCE7C04614
:103B9000406810B5002805D0FFF77CFF434258412C
:103BA000C0B210BD0020FCE710B50400406800283A
:103BB00008D0FFF76FFF002804D16068002801D00B
:103BC000043810BD0020FCE74068431E9841C0B295
:103BD0007047C04610B5042208210248FFF778FD5F
:103BE00010BDC046FCF8FF1F094B10B50833036039
:103BF000084B00215A1CFF3202E00433934206D0E6
:103C00001C68A042F9D1196004339342F8D110BD69
:103C10000C6B0000F4F7FF1FF0B5474680B40E00B0
:103C200082B03449050001F0E5FE041E08D1324B94
:103C30001B68002B0FD0200002B004BC9046F0BDE2
:103C40002E49280001F0D6FE002807D12A4B012476
:103C50001B68002BEFD1FFF7BDFFECE728492800D8
:103C600001F0C8FE002830D0264F00243B0003E0BE
:103C700001340433402C32D01A68002AF8D12B7852
:103C80003A2B2FD029006846FFF746FF6846FFF71A
:103C90009BFF002823D06846FFF77AFF00281AD13F
:103CA0006846FFF767FF051E19D0036868469B68E2
:103CB0009846FFF75DFF320001002800C04700284A
:103CC0000DD0A300F8500334B5E70B4B02241B685A
:103CD000002BB0D1BFE76846FFF766FFEFE701248E
:103CE0006442A8E76A460849280001F00DFE0098E2
:103CF000E5E7C046F46A0000ECF7FF1F046B000024
:103D0000FC6A0000F4F7FF1F386B0000030010B5D9
:103D10000020022B0ADD0749033B9B005A585850EC
:103D2000002A04D0136810005B68984710BD01207A
:103D30004042FBE7F4F7FF1FF8B50C00170002281C
:103D400012DC104B1B68002B01D1FFF743FF002F43
:103D500008D00D4DE619217828000134FFF71AFE2E
:103D6000B442F8D13800F8BD0338084B8000C05881
:103D7000002803D003681B689847F4E701204042FD
:103D8000F1E7C046ECF7FF1FFCF8FF1FF4F7FF1F39
:103D900010B50C0002280BDC0C4B1B68002B01D16A
:103DA000FFF718FF0A48FFF7E1FD2070012010BD62
:103DB0000338084B8000C058002803D003689B6874
:103DC0009847F4E701204042F1E7C046ECF7FF1FB7
:103DD000FCF8FF1FF4F7FF1F030010B50120022BB2
:103DE00008DD033B054A9B009858002803D0036870
:103DF000DB68984710BD01204042FBE7F4F7FF1F46
:103E0000030010B50020022B08DD033B05489B0092
:103E10001858002803D003681B69984710BD01207B
:103E20004042FBE7F4F7FF1F10B5022804D88023B7
:103E300000209B014B6010BD00F04AFB092303608A
:103E400001204042F7E7C0467047C0467047C04671
:103E500010B5FFF7FBFFFFF7F7FFFCF7AFFE10BD54
:103E6000074A13681818EFF30881884202D21060DD
:103E7000180070470C220120024B40421A60F8E7FC
:103E8000CCF0FF1F04F9FF1F70B50B4C0500236831
:103E9000986800F04DFC2368D86800F049FCFEF7F4
:103EA00069FF002805D1002D00D1FEE7FEF716FFBF
:103EB000FBE7FEF7A9FFF6E730F1FF1F10B5002181
:103EC00001F070FC10BDC0464B1C5A00D318DB003B
:103ED000C3189B6810B5002B0BD04A005118C900BD
:103EE0004218D268002A03D04118103110009847B8
:103EF00010BD4B005918C9004118CB68002BF7D0F2
:103F00009847F5E70C4B70B503600023436083606E
:103F1000C360036243628363962304009B01051D13
:103F2000C3632800FFF7D4FB280022000349FFF7F2
:103F3000A9FC200070BDC046506B0000C93E0000C7
:103F400070B50D0004000430FFF7E6FAE56370BDBC
:103F500010B50430FFF70AFD10BDC04610B50C00C7
:103F60000430FFF717FD200010BDC04610B5FFF765
:103F7000EFFF10BD08B4024B9C46403808BC6047B8
:103F80006D3F000010B5FFF7E9FF10BD08B4024B0C
:103F90009C46403808BC6047853F0000074B10B581
:103FA0001A00083202601A000400203254330264FE
:103FB0004364403000F0A6F8200010BD586B0000AC
:103FC00008B4024B9C46403808BC60479D3F000047
:103FD00008B4024B9C46443808BC60479D3F000033
:103FE000094B10B51A00083202601A000400203292
:103FF000543302644364403000F084F8200000F041
:10400000DEF8200010BDC046586B000008B4024B1B
:104010009C46403808BC6047E13F000008B4024BB2
:104020009C46443808BC6047E13F000070B504007E
:104030001D00FFF767FF20002900403000F040F826
:10404000054B20001A00083222601A005433203237
:104050002264636470BDC046586B0000F8B58E18CA
:1040600005000F000C1EB44202D10AE0A64208D09F
:104070000134631E19782B6828005B6A9847431C3B
:10408000F4D1E01BF8BDC046F8B58E1805000F004E
:104090000C1EB44205D10AE00134631E1870A6421A
:1040A00005D02B6828009B6A9847431CF4D1E01B7D
:1040B000F8BDC046002070470020704700207047C0
:1040C00010B5040084B0FFF701FD0B4B0B491A003B
:1040D0003C336360002308326361226001A8220040
:1040E00001F0F0FB064901A800F02AFC6061FFF72F
:1040F000E5FE200004B010BDB46B0000386B00007A
:10410000F86B0000074B10B51A00040008323C336E
:1041100002604360406900F04FFA2000FFF7EAFCBC
:10412000200010BDB46B000070B50D0004004069A4
:1041300000F0FEFA2800616900F032FC70BDC04654
:1041400010B50400C068FEF797FE6368C01A10BD82
:1041500070B500250560456085600400FEF792FE9D
:10416000E060FEF789FE6060A560200070BDC0467B
:10417000036810B50400002B05D1C068FEF77CFE73
:1041800001236060236010BD036810B58468002BB4
:1041900002D0FFF7D5FF0300FA21E018890000F0F4
:1041A0009DF810BDFEE7FEE7FEE7FEE7FEE7FEE74F
:1041B0000B0010B50100180000F07CF910BD10B51F
:1041C000FEF7E8F910BD0000002243088B4274D3CB
:1041D00003098B425FD3030A8B4244D3030B8B4208
:1041E00028D3030C8B420DD3FF22090212BA030C11
:1041F0008B4202D31212090265D0030B8B4219D3F2
:1042000000E0090AC30B8B4201D3CB03C01A524111
:10421000830B8B4201D38B03C01A5241430B8B4259
:1042200001D34B03C01A5241030B8B4201D30B0342
:10423000C01A5241C30A8B4201D3CB02C01A524169
:10424000830A8B4201D38B02C01A5241430A8B422C
:1042500001D34B02C01A5241030A8B4201D30B0215
:10426000C01A5241CDD2C3098B4201D3CB01C01A2F
:10427000524183098B4201D38B01C01A5241430939
:104280008B4201D34B01C01A524103098B4201D327
:104290000B01C01A5241C3088B4201D3CB00C01A94
:1042A000524183088B4201D38B00C01A524143080C
:1042B0008B4201D34B00C01A5241411A00D2014631
:1042C000524110467047FFE701B5002000F0F0F8BA
:1042D00002BDC0460029F7D076E7704703460B437E
:1042E0007FD4002243088B4274D303098B425FD3EF
:1042F000030A8B4244D3030B8B4228D3030C8B421B
:104300000DD3FF22090212BA030C8B4202D3121200
:10431000090265D0030B8B4219D300E0090AC30BD5
:104320008B4201D3CB03C01A5241830B8B4201D382
:104330008B03C01A5241430B8B4201D34B03C01A6B
:104340005241030B8B4201D30B03C01A5241C30AE3
:104350008B4201D3CB02C01A5241830A8B4201D354
:104360008B02C01A5241430A8B4201D34B02C01A3E
:104370005241030A8B4201D30B02C01A5241CDD2E3
:10438000C3098B4201D3CB01C01A524183098B422E
:1043900001D38B01C01A524143098B4201D34B0117
:1043A000C01A524103098B4201D30B01C01A52417A
:1043B000C3088B4201D3CB00C01A524183088B4201
:1043C00001D38B00C01A524143088B4201D34B00EA
:1043D000C01A5241411A00D201465241104670475C
:1043E0005DE0CA0F00D04942031000D34042534061
:1043F00000229C4603098B422DD3030A8B4212D321
:10440000FC22890112BA030A8B420CD38901921152
:104410008B4208D3890192118B4204D389013AD08F
:10442000921100E08909C3098B4201D3CB01C01A64
:10443000524183098B4201D38B01C01A5241430977
:104440008B4201D34B01C01A524103098B4201D365
:104450000B01C01A5241C3088B4201D3CB00C01AD2
:10446000524183088B4201D38B00C01A5241D9D2EA
:1044700043088B4201D34B00C01A5241411A00D26B
:104480000146634652415B10104601D34042002B67
:1044900000D54942704763465B1000D3404201B5E6
:1044A000002000F005F802BD0029F8D016E770479B
:1044B0007047C04670B5054C05001300201E04D09F
:1044C0000A000220290000E000BF70BD00000000CB
:1044D000014B18687047C04630F1FF1F084B10B5FC
:1044E0000400002B02D0002100E000BF054B18683B
:1044F000836A002B00D098472000FFF7C5FCC04618
:1045000000000000606C000070B505000C1E01D1B9
:10451000002049E0002804D08369002B01D100F07D
:104520005DF9224B9C4201D16C6808E0204B9C4213
:1045300001D1AC6803E01F4B9C4200D1EC680C2217
:10454000A35E002BE4D02100280000F03FF8236B8D
:104550000600002B06D0216A28009847002801DABF
:1045600001267642A3891B0603D52169280000F0A5
:104570009DFB616B002908D023004433994202D08F
:10458000280000F093FB00236363A16C002904D092
:10459000280000F08BFB0023A36400F091F90023B6
:1045A000A38100F08EF9300070BDC046FC6B0000A6
:1045B0001C6C00003C6C000010B5034B0100186837
:1045C000FFF7A2FF10BDC04630F1FF1FF7B58A8983
:1045D00005000C0013075AD44B68002B02DC0B6C4F
:1045E000002B19DDE76A002F16D000232E682B6000
:1045F00080235B011A4001D0606D14E00123216A21
:104600002800B847431C0ED12B68002B0BD01D2B64
:1046100001D0162B02D12E6000205AE04022A3893F
:104620001343A38155E0A3895B0706D56368C01ACD
:10463000636B002B01D0236CC01A00230200216A97
:104640002800E76AB847A389421C06D129681D29BA
:104650003AD8204ACA40D20736D500226260226981
:104660002260DB0405D5431C02D12B68002B00D14E
:104670006065616B2E600029CED0230044339942DF
:1046800002D0280000F012FB0020606321E00F69D7
:10469000002FC1D00B680F60DB1B01930023920732
:1046A00000D14B69A36003E0019B3F181B1A0193E3
:1046B000019B002BB0DD019B3A00216A2800A66A0D
:1046C000B0470028F0DCA389402201201343A381D6
:1046D0004042FEBD010040200B6970B505000C0092
:1046E000002B01D100201CE0002804D08369002B9E
:1046F00001D100F073F80B4B9C4201D16C6808E0CB
:10470000094B9C4201D1AC6803E0084B9C4200D1AC
:10471000EC680C22A35E002BE4D021002800FFF7F8
:1047200055FF70BDFC6B00001C6C00003C6C000071
:1047300010B5011E05D1054B0549186800F0D6F9E2
:1047400003E0044B1868FFF7C7FF10BD606C000062
:10475000D946000030F1FF1F10B5024900F0C6F93C
:1047600010BDC046D9460000002310B50400036008
:104770004360836081814366C281036143618361D9
:10478000190008225C3000F088FA054B246263624D
:10479000044BA362044BE362044B236310BDC04689
:1047A0005959000085590000BD590000E959000021
:1047B00070B568254B1E5D430E002900743100F072
:1047C000BBFA041E08D000212A00016046600C30AC
:1047D000A060683200F061FA200070BD836913B5F3
:1047E0000400002B28D18364C3640365134B144A6F
:1047F0001B6882620193984201D1012383612000EA
:1048000000F020F86060200000F01CF8A06020009C
:1048100000F018F80022E06004216068FFF7A4FFB0
:1048200001220921A068FFF79FFF02221221E06800
:10483000FFF79AFF0123A36113BDC046606C00001F
:1048400059470000F8B51D4B06001D68AB69002BE9
:1048500002D12800FFF7C2FF4835AC686B68013B06
:1048600005D40C22A75E002F10D06834F7E72B6820
:10487000002B01D02D68F0E704213000FFF798FFEE
:1048800028600028F6D10C23336016E001232000B5
:104890005B42E3810233A38167662760A76067609C
:1048A00027616761A7615C300822390000F0F5F9E3
:1048B00020006763A763A764E764F8BD606C00002D
:1048C00070477047F7B50F00110001AA050001F00D
:1048D000FBFA061E01D1002427E02800FFF7B2FFF3
:1048E000041EF8D0DB23019A5B003900280000F099
:1048F000BBFE002806DA0025FFF7E2FFA581FFF7DF
:10490000E0FFE8E70A4BE08163620A4BA681A362FD
:10491000094B2462E362094B2363F30505D50223A7
:1049200000222100280000F045F82000FEBDC0460E
:104930005959000085590000BD590000E95900008F
:1049400010B5034B0A0001001868FFF7BBFF10BD4C
:1049500030F1FF1F70B504000E001500002804D0D0
:104960008369002B01D1FFF739FF0A4B9D4201D12A
:10497000656808E0084B9D4201D1A56803E0074B3C
:104980009D4200D1E5682A003100200000F080FE41
:1049900070BDC046FC6B00001C6C00003C6C00004D
:1049A00010B5034B0A0001001868FFF7D3FF10BDD4
:1049B00030F1FF1F10B500F001F810BDF7B505008C
:1049C0000C0001921E00002804D08369002B01D145
:1049D000FFF704FF414B9C4201D16C6808E0404B5B
:1049E0009C4201D1AC6803E03E4B9C4200D1EC6894
:1049F0008422A38952001340934203D1210028004E
:104A0000FFF76AFEE36A0093002B01D11D3331E00A
:104A1000012E05D0022E31D01623002E2AD12DE0F2
:104A200021002800FFF758FE8023A2895B011A406D
:104A300001D0606D06E03300216A2800009EB04777
:104A4000431C18D0A3895A0707D56368C01A636B43
:104A5000002B0AD0236CC01A07E01B0705D523687A
:104A6000002B02D022699B1AC018019B00261B183C
:104A7000019303E02B6001277F422DE02369002B87
:104A800003D12100280000F079F821002800FFF769
:104A900023FE071EEFD13300019A216A2800009EF1
:104AA000B047431CE7D0616B002908D02300443392
:104AB000994202D0280000F0F9F800236363002136
:104AC00020002369A2892360074B61601340A38102
:104AD0005C30082200F0E1F83800FEBDFC6B0000FD
:104AE0001C6C00003C6C0000DFF7FFFFF7B5040012
:104AF0000700002601914834002C16D06368A56891
:104B00000093009B013B00930DD4AB89012B08D986
:104B10000E22AB5E013304D029003800019B984778
:104B200006436835EDE72468E6E73000FEBD000087
:104B30000E4B70B500251E000D4CE41AA410A542C2
:104B400004D0AB00F35898470135F8E701F0A6FD13
:104B5000084B00251E00084CE41AA410A54204D0FE
:104B6000AB00F35898470135F8E770BD38F1FF1FE7
:104B700038F1FF1F38F1FF1F40F1FF1FF0B58B899F
:104B800091B006000C009B0726D40E23C95E0029B5
:104B900004DA8023A5891D4010D10CE001AA01F0A0
:104BA000CDF90028F5DBF023029D1B021D401A4BB6
:104BB000ED186B425D418027FF0001E00025402792
:104BC0003900300000F0B8F800280CD1A3899A050C
:104BD0001FD402221343A3812300473323602361A0
:104BE0000123636115E080220C4BB362A38920602E
:104BF0001343A38120616761002D0AD00E23E15E7B
:104C0000300001F0ADF9002803D00122A38913433D
:104C1000A38111B0F0BDC04600E0FFFF594700007E
:104C200010B5034B0100186800F086F810BDC046AF
:104C300030F1FF1F10B5034B0100186800F036F883
:104C400010BDC04630F1FF1FC9B28218904204D097
:104C500003788B4202D00130F8E700207047002330
:104C600010B59A4203D0CC5CC4540133F9E710BDAF
:104C700010B5884202D98B18984201D3002305E071
:104C80009B1A013A08D3995C8154FAE7934203D006
:104C9000CC5CC4540133F9E710BD03008218934281
:104CA00002D019700133FAE77047000030B50029CF
:104CB0003ED004390B68002B00DAC9181D4A13686E
:104CC0001400002B02D14B60116031E08B420DD9F2
:104CD0000A688818834203D118685B6882180A60E2
:104CE0004B60216024E08A4203D813005A68002AEE
:104CF000F9D11D685C198C420BD1096869185818E4
:104D00001960824214D110685268411819605A60C3
:104D10000EE08C4202D90C23036009E008680C18ED
:104D2000A24203D114685268201808604A60596092
:104D300030BDC046F8F8FF1F032370B5CD1C9D435E
:104D4000083506000C2D01D20C2505E0002D03DAF4
:104D50000C230020336040E0A942F9D81F4B1C68A7
:104D60001A002100002913D00B685B1B0DD40B2BFC
:104D700002D90B60CC181EE08C4202D1636813602C
:104D80001AE04B6863600C0016E00C004968E9E724
:104D9000134C2368002B03D1300000F0BFFC2060CF
:104DA0002900300000F0BAFC431CD1D00323C41CFE
:104DB0009C43A0420AD12560200007220B30231D0E
:104DC0009043C31A09D05A42E25006E0211A30003B
:104DD00000F0A4FC431CEED1BAE770BDF8F8FF1F49
:104DE000F4F8FF1F936810B5013B9360002B05DAC0
:104DF0009469A34208DBCBB20A2B05D01368581C78
:104E000010601970C8B201E000F06CFF10BDF8B579
:104E100006000F001400D518AC4208D021783A00E3
:104E20003000FFF7DFFF0134431CF5D100E0002024
:104E3000F8BD0000F0B59FB006000F000292059388
:104E4000002804D08369002B01D1FFF7C7FC7F4BFA
:104E50009F4201D1776808E07D4B9F4201D1B7683E
:104E600003E07C4B9F4200D1F768BB891B070AD542
:104E70003B69002B07D0002306AD6B6120336B76B6
:104E80001033AB763DE03900300000F097FF00288A
:104E9000F1D001204042D6E0059A111D126805911B
:104EA000002A00DA7FE00992013423782E2B00D10A
:104EB0008DE0217803226848FFF7C6FE002807D05E
:104EC000654B2A68C01A4023834013432B6001348A
:104ED0002178631C0622614802932976FFF7B4FE0D
:104EE000002800D19DE05E4B002B00D090E007220F
:104EF000059B07339343083305936B69039A9B180B
:104F00006B61029C2378002B04D1029BE31A04936B
:104F100012D003E0252BF8D00134F3E7049B029A6A
:104F200039003000FFF773FF431C00D186E06A6947
:104F3000049B944663446B612378002B7ED001224E
:104F4000002352426A6002A95432521801342B6085
:104F5000EB60AB601370AB65217805224148FFF729
:104F600073FE002808D03F4B2A68C01A01238340F3
:104F700013432B600134EFE72B68DA0604D5532284
:104F8000202102A8121811701A0704D553222B21D0
:104F900002A81218117022782A2A00D17CE7099BF6
:104FA00000200A2105E05242EA60022213432B60EE
:104FB0007AE72278303A092A04D84B4301349B1807
:104FC0000120F6E7002800D16FE709936DE76378C9
:104FD0002A2B0AD1059B02341A1D1B680592002B4F
:104FE00001DA01235B42079363E700230A201A00DA
:104FF00001346B6021783039092904D842430134E7
:1050000052180123F6E7002B00D152E7079250E730
:1050100005AB00933A00144B2900300000E000BFBC
:1050200007E005AB00933A000F4B2900300000F079
:1050300097F80390039B013300D05EE7BB895B06C2
:1050400000D526E70B981FB0F0BDC046FC6B0000F2
:105050001C6C00003C6C00006A6C00006E6C000070
:1050600000000000646C00000F4E000010B513003B
:105070000A00010002480068FFF7DCFE10BDC046D0
:1050800030F1FF1FF7B5170001938A680B69009094
:105090000C00934200DA130022003B604332127886
:1050A000002A01D001333B6023689B0602D53B6890
:1050B00002333B60062523681D401ED02300433386
:1050C0001B785A1E9341226892061CD53020E118A5
:1050D0004331087021005A1C45310978A218433227
:1050E000023311700FE02200012319320199009858
:1050F000089EB047431C0ED00135E3683A689B1AFE
:105100009D42F0DBDAE72200019943320098089DC6
:10511000A847431C02D10120404220E0062320681A
:10512000E1683A6803400025042B03D18D1AEB4354
:10513000DB171D40A3682269934201DD9B1AED181D
:105140000027BD420AD0220001231A32019900989B
:10515000089EB047431CDED00137F2E70020FEBDB9
:10516000F0B58BB006920A00433207930590049283
:105170000A7E0C00109B6E2A00D1ABE011D8632A86
:1051800022D009D8002A00D1B5E0582A00D0C5E0C5
:1051900045310A70814A4FE0642A1DD0692A1BD02C
:1051A000BCE0732A00D1AAE009D86F2A29D0702A5E
:1051B00000D0B3E0202209680A43226037E0752A54
:1051C0001FD0782A33D0A9E00E001A684236111D8C
:1051D000196013683370A4E021681A68080606D4C1
:1051E000490604D5111D19600023D55E02E0111D8A
:1051F00019601568002D3BDA2D23049A6D42137057
:1052000036E021681A68080606D4490604D51568F0
:10521000111D1960ADB202E0111D196015685F4BD8
:10522000227E039308276F2A1DD00A271BE0220045
:105230007821453211705A4A19680392081D226874
:1052400018600D68100602D4500600D5ADB2D30721
:1052500002D520231A4322601027002D03D12023DA
:1052600022689A4322602300002243331A7002E02E
:105270000A274A4B03936368A360002B09DB0422CF
:10528000216891432160002D05D1049E002B11D08F
:105290007BE0002D79D0049E28003900FFF71AF832
:1052A000039B013E5B5C280033703900FEF78CFFE6
:1052B000051EF1D1082F09D12368DB0706D56368E5
:1052C0002269934202DC3023013E3370049B9B1B16
:1052D00023612BE009681A68080607D4490605D53A
:1052E000111D19601368A28A1A8004E0111D19604B
:1052F000136862691A600023049E236116E01A682D
:10530000111D19601668002162683000FFF79CFCCF
:10531000002801D0801B6060636803E026004236ED
:105320003270012323610023049A1370079B09AA9A
:1053300000932100069B0598FFF7A4FE431C02D1B1
:105340000120404227E02369320006990598079D15
:10535000A847431CF4D0236800259B070FD4099B62
:10536000E068984217DA180015E02200012319328C
:1053700006990598079EB047431CE1D00135E368C4
:10538000099A9B1A9D42F0DBE9E72600039B42360F
:105390001B7833708EE70BB0F0BDC046756C000013
:1053A000866C0000F7B515008A6801900C00002A91
:1053B00006D18A69511E8A41012152420A43A260E4
:1053C0002268D20603D41A68111D196017680026D6
:1053D000A06900281ED1102223680136134203D190
:1053E0002B681B783B7001372A686B6801322A6092
:1053F000A268013B013A6B60A260002A1ED0002B1C
:10540000E6DCC0235B00E358290001989847002898
:10541000DED013E0012806D12B6862691B78D35CCB
:10542000002BD8D11AE0022808D12B680D4A1B782E
:105430001268D31808225B781342CCD0102322685C
:10544000134006D1E2680132E260A269002A00D06E
:105450003B70236900209E19266101E0002EEDD1EA
:10546000FEBDC04634F1FF1FF0B50C008DB00293B5
:10547000774B0590160009AA23CB23C2754B0693E0
:10548000A369032B01D0744B06930022A3680492F6
:105490005D32591EFF32914205D95E3BFF3B0493BA
:1054A0005E23FF33A36023001C330193D023002726
:1054B00022681B0113432360019B0393336809A8EF
:1054C0001978BB0002221858FFF7BEFB00283BD01A
:1054D000012F0DD16368002B06D108332268636069
:1054E000F933FF33134323605C4B226813400EE013
:1054F000022F0DD1C02180222368C90019409200DB
:10550000914224D1F13AFF3A6260F03213432360B2
:10551000A3685A1EA260002B16D0039B5D1C336843
:105520005A1C32601B78039A039513707368013B11
:105530007360002B08DCC0235B00E3583100059842
:1055400007939847002847D10137032FB6D16368E6
:10555000002B01D10A336360102100276368606962
:10556000C91A3F4BC91800F0EBF8039DA368002B44
:1055700033D0326860691178405C00282DD0302922
:105580000DD1802021680001014208D0049A013722
:10559000002A0BD0013A01330492A36006E021688F
:1055A000304B0B40236013782B7001357368013B3F
:1055B0007360002B03DD33680133336008E0C023E0
:1055C0005B00E3583100059803939847002804D105
:1055D000A368013BA360C9E700272368DB050ED55C
:1055E000019B9D4207D9BE23013D5B002978E3580A
:1055F000320005989847019B01209D4225D010223A
:1056000023681A401AD12A70636801990598069E8A
:10561000B047029B22681B68910607D4D10705D5C5
:1056200002991A1D0A601B68188004E002991A1D6D
:105630000A601B681860E3680133E3600020019B87
:10564000ED1A2369ED195D1925610DB0F0BDC04655
:10565000986C00003D5A0000615B0000FFFAFFFFFC
:10566000A46C0000FFF6FFFF70B5050008001100F4
:105670000022064C22601A00FEF7CEFA431C03D12A
:105680002368002B00D02B6070BDC04604F9FF1FBB
:1056900070B505000E001400002804D08369002BAB
:1056A00001D1FFF79BF8154B9C4201D16C6808E0D3
:1056B000134B9C4201D1AC6803E0124B9C4200D1D9
:1056C000EC68A368013BA360002B10DAA269934247
:1056D00007DB23681E70236819780A290AD1220083
:1056E00001E022003100280000F0FCFA05E0236808
:1056F0001E7023685A1C2260187870BDFC6B000075
:105700001C6C00003C6C000010B5034B0A0001004B
:10571000186800F04BFC10BD30F1FF1F002370B57E
:10572000064C050008002360FEF79AFB431C03D1DA
:105730002368002B00D02B6070BDC04604F9FF1F0A
:1057400070B50B785E2B02D04A1C002502E00125C3
:105750004B788A1C0100441CFF340D700131A142BA
:10576000FBD1002B01D1501E1BE001214D40110047
:10577000C5540C784A1C2D2C07D05D2C10D0002C61
:1057800001D02300F3E708000BE04E785D2EF8D03F
:10579000B342F6DC02310133C5549E42FBDCE8E73C
:1057A000100070BD4A424A41802310B55200DB0010
:1057B00000F002F810BD0000F7B51E003C4B0400DD
:1057C0001D680F000192002D05D0AB69002B02D19E
:1057D0002800FFF703F8374B9C4201D16C6808E0C2
:1057E000354B9C4201D1AC6803E0344B9C4200D164
:1057F000EC68019B022B58D8002E56DB21002800B4
:10580000FEF76AFF00236360A361A3891B0603D52B
:1058100021692800FFF74AFA8322A3899343A381D1
:10582000019B022B13D0002F25D1002E01D1802601
:10583000F6003000FCF7A6FE071E18D18020C0003D
:10584000FCF7A0FE071E10D10120404200E000201E
:105850000222A3891343A3810023A36023004733BB
:10586000236023610123636121E08026F60080220A
:10587000A3891343A381019B012B05D1A389019A1D
:105880001A437342A281A3610D4B0020AB62A2892F
:10589000276027616661130709D503231A40534225
:1058A00053415B421E40A66001E001204042FEBD24
:1058B00030F1FF1FFC6B00001C6C00003C6C000012
:1058C000594700000EB410B59DB002A902900861BE
:1058D0000B48822488604861012040421FABC88188
:1058E000084804CBA400006801938C8100F0E6FB1B
:1058F0000023029A13701DB010BC08BC03B01847F7
:10590000FFFFFF7F30F1FF1F0EB4812370B59DB004
:1059100002AC21AD9B0040CDA3810290069000F027
:1059200073F80B4B60606362002360610948636336
:10593000A364013BE38132002B0021000068019544
:1059400000F016FD1DB070BC08BC03B01847C0467F
:105950008159000030F1FF1F70B50C000E25495F22
:1059600000F07CFE002803DB636D1B18636503E019
:10597000A289024B1340A38170BDC046FFEFFFFF19
:1059800000207047F8B51F008B8905000C00160039
:10599000DB0505D50E23C95E0022022300F0F2FAD2
:1059A000A289054B28001340A38132000E23E15E3B
:1059B0003B0000F0EFF9F8BDFFEFFFFF70B50C0002
:1059C0000E25495F00F0DEFAA389421C03D1054A87
:1059D0001340A38104E0802252011343A381606538
:1059E00070BDC046FFEFFFFF10B50E23C95E00F08B
:1059F00059FA10BD02780B78002A03D0013001312A
:105A00009A42F7D0D01A70470023C25C0133002AB3
:105A1000FBD1581E7047002330B59A420BD0013A93
:105A2000C45CCD5CAC4205D19A4202D00133002C5B
:105A3000F6D12500631B180030BD0000F0B51E0034
:105A4000454B87B01B680192029308220B0005901A
:105A500003911C7802995D1C09194878104001D007
:105A60002B00F6E72D2C04D19D1C5C7801230093BC
:105A700004E000902B2C01D15C789D1C002E02D0FC
:105A8000102E0AD162E0302C5ED120222B78934375
:105A9000582B54D110266C780235009F31007B1EA4
:105AA0009F412E4BFF183800FEF714FC380004917C
:105AB0003100FEF789FB00230322070094461800FB
:105AC000029A121951780422114201D0303C07E0A9
:105AD0006246114017D03722012900D02032A41A83
:105AE000A64210DD5A1C0BD0B84207D802D1049B45
:105AF0009C4203DC70430123201801E001235B4238
:105B00002C780135DCE75A1C0BD10098059A431E0E
:105B10009841124BC01822231360019B002B0AD11D
:105B200017E0009A002A00D04042019A002A10D0C3
:105B3000039A002B00D06A1E019B1A6009E03024F2
:105B4000002EAAD10826A8E70A26A6E7302C9CD06A
:105B5000A3E707B0F0BDC04634F1FF1FFFFFFF7F92
:105B6000F0B51E003F4B87B01B68049102931700ED
:105B70000B00082105901C78029A5D1C12195278BE
:105B80000A4001D02B00F6E72D2C04D19D1C5C7837
:105B90000123019304E001922B2C01D15C789D1C20
:105BA000002E02D0102E0AD157E0302C53D12022E3
:105BB0002B789343582B49D110266C78023501205D
:105BC00031004042FEF700FB0390012031004042CB
:105BD000FEF780FB00238C461800029A12195178B8
:105BE0000422114201D0303C07E00322114017D0BB
:105BF0003432012900D02032A41AA64210DD002B35
:105C000009DB039B984206D801D1644503DC70434D
:105C10000123201801E001235B422C780135DCE7E9
:105C2000002B07DA22230120059A40421360002F3F
:105C300009D115E0019A002A00D04042002F0FD070
:105C4000049A002B00D06A1E3A6009E03024002E2E
:105C5000B5D10826B3E70A26B1E7302CA7D0AEE7C6
:105C600007B0F0BD34F1FF1F0B00F7B54D6B4433A7
:105C70000C009D421BD18026F6003100FFF75CF836
:105C8000002802D10120404225E023006063A66382
:105C900046331A78104BC254230045331A780F4B01
:105CA000C2542A780E4BC254C018206012E08E6B8A
:105CB000290073001A00019300F078F9051EE1D065
:105CC0008719010032003800FEF7C9FF019B2760E9
:105CD0006563A3630020FEBDFF030000FE03000018
:105CE000FD030000F8B505000F001400002804D0E3
:105CF0008369002B01D1FEF771FD234B9C4201D13A
:105D00006C6808E0214B9C4201D1AC6803E0204B59
:105D10009C4200D1EC68A369A360A3891B070AD544
:105D20002369002B07D023682269FEB2981A6369A1
:105D300098420FDB08E02100280000F03FF800281F
:105D4000F1D0012040421DE021002800FEF7C4FCF4
:105D50000028F6D1A3680130013BA36023685A1CD8
:105D600022601F706369984205D0A3893000DB0769
:105D700008D50A2E06D121002800FEF7ADFC002828
:105D8000DFD13000F8BDC046FC6B00001C6C000089
:105D90003C6C000070B50500080011000022064CA4
:105DA00022601A00FDF7C8FF431C03D12368002BB3
:105DB00000D02B6070BDC04604F9FF1F354B70B595
:105DC0001D6806000C00002D05D0AB69002B02D128
:105DD0002800FEF703FD304B9C4201D16C6808E0BF
:105DE0002E4B9C4201D1AC6803E02D4B9C4200D16C
