:10000000008000101D4100004D4100004F410000E4
:100010005141000053410000554100000000000024
:100020000000000000000000000000005741000038
:1000300059410000000000005B4100005D410000EC
:100040005F4100005F4100005F4100005F41000030
:100050005F4100005F4100005F4100005F41000020
:100060005F4100005F4100005F4100005F41000010
:100070005F4100005F4100005F4100005F41000000
:100080005F4100005F4100005F4100005F410000F0
:100090005F4100005F4100005F4100005F410000E0
:1000A0005F4100005F4100005F4100005F410000D0
:1000B0005F4100005F4100005F4100005F410000C0
:1000C0005F4100005F4100005F410000044B0548B4
:1000D0001B1A062B02D9044B03B11847704700BF07
:1000E0006701001064010010000000000549064887
:1000F000091A891001EBD171491002D0034B03B1E9
:1001000018477047640100106401001000000000EF
:1001100010B5064C237843B9FFF7D8FF044B13B151
:100120000448AFF300800123237010BD6401001068
:1001300000000000A078000008B5084B1BB108497A
:100140000848AFF300800848036813B9BDE80840C9
:10015000CCE7064B002BF9D09847F7E700000000EA
:1001600068010010A0780000640100100000000089
:100170000346426808200A705A68C2404A70DA880A
:100180008A70DA79CA709A680A719A68C2404A71AC
:100190005A898A71DB7ACB71704700BF024610B46E
:1001A0000B78082053604C7843EA042353608C7822
:1001B00043EA04435360CC7843EA046353600B7909
:1001C00093604C7943EA042393608C7943EA0443B7
:1001D0009360C97910BC43EA01639360704700BF24
:1001E000004870470071000000487047107100001F
:1001F000004870473471000000487047507100009B
:100200000048704774710000004870478871000012
:10021000004870478872000000487047AC710000C9
:1002200000487047D071000000487047E07100003E
:100230000048704704720000004870471C720000BC
:10024000C06A704700487047047200000048704759
:100250001C72000090F8FC05704700BF10B5044602
:1002600090F91B0004F0D6F80022224B03F086FF21
:100270000022214B04F034F904F044FB01461F48EE
:1002800002F00AFF94F91A0004F0C4F80022194B96
:1002900003F074FF0022184B04F022F904F032FB43
:1002A0000146174802F0F8FE94F9190004F0B2F87C
:1002B0000022104B03F062FF00220F4B04F010F9F4
:1002C00004F020FB01460F4802F0E6FE94F9180006
:1002D00004F0A0F80022074B03F050FF0022064B69
:1002E00004F0FEF804F00EFBBDE81040014606489D
:1002F00002F0D2BE000060400000703FB801001064
:10030000F80700108001001000080010F0B40B780E
:10031000044643604A7882B043EA022343608A7805
:1003200001F10F0743EA02434360CA7843EA0263DC
:1003300043600B7983604A7943EA022383608A79B8
:1003400043EA02438360CA7943EA026383600B7A1B
:10035000C3604A7A43EA0223C3608A7A43EA0243CB
:10036000C360CA7A43EA0263C360C8680190019E11
:1003700006F11000102809D93B4606F10F050D447F
:1003800013F8012FAB4203F8012CF9D131440023BB
:10039000CB73276102B0F0BC704700BF0B46F0B4CE
:1003A00013F8012B06460271186882B00190019D76
:1003B0000F1D681D052808D93B462C1D0C4413F859
:1003C000012FA34203F8012CF9D10D4400232B7116
:1003D000B76002B0F0BC7047F0B40B78054683807C
:1003E0004A7884B043EA02238380D1F802004F1D8B
:1003F0000190019A961D062E08D93B46541D0C44C7
:1004000013F8010F9C4203F8010CF9D18B1800205E
:100410005871AF60885904360290029B33449E4263
:1004200009D2304609320A4412F8014F013098428D
:1004300002F8014CF8D3013E0E44CA18002002F81D
:10044000010CEE6010681E1D039003983044864234
:1004500009D2324603330B4413F8014F0132824272
:1004600003F8014CF8D3013E0C180E44002304F8A5
:10047000013C2E61A37866780A5C1B04E17843EAAC
:100480000623134343EA016304306B6104B0F0BCFC
:10049000704700BF436870B50B70436882B01B0A99
:1004A0004B70C38805468B70C3790C46CB7083684C
:1004B0000B7183681B0A4B7143898B71C37ACB71B3
:1004C000C3680B72C3681B0A4B72C3898B72C37BF0
:1004D000CB72006905F0C7FF064602AB43F8040D76
:1004E00018683246E060296904F1100005F0F0F860
:1004F00006F1100002B070BD2DE9F043037900242D
:100500000B704C708C70CC70037983B0002B68D06A
:100510000B460425C268661C52F82420F4B24FEA48
:10052000122E170C160E1A7183F805E09F71DE71FA
:1005300002790435A24203F10403EBD82B462A1DAD
:10054000154603F1010C03F1020EDF1C067C0024AA
:10055000CE5401F80C4001F80E40CC55037CABB1F1
:100560004B198269661C52F82420F4B24FEA122E0D
:10057000170C160E4A5583F801E09F70DE70027C5E
:100580000435A24203F10403EBD82A46067F4B1937
:1005900000248E545C709C70DC70037F2E1DE3B1D0
:1005A000884607467B6A06F1040953F8240005F0E3
:1005B0005AFF0546019001982A4648F806007B6AD2
:1005C00008EB090053F8241005F082F801343B7F52
:1005D000E4B2A34205EB0906E4D8304603B0BDE817
:1005E000F0830822154607274FF0060E4FF0050C42
:1005F0000423ABE770B5037982B00B7006468068C0
:100600000D4605F030FF044602AB43F8040D1868B0
:100610002246C5F80100B168681D05F059F8601D53
:1006200002B070BD83882DE9F0410B70838884B0DF
:100630001B0A4B70064680680D4605F014FF044601
:1006400004AB43F80C0D18682246C5F80200B168E7
:10065000A81D05F03DF8F06805F005FF804604ABE5
:1006600043F8080D1868A31DE8500A34F1684246A3
:10067000281905F02DF8306905F0F5FE074604ABA2
:1006800043F8040D1868444428510434316928198A
:100690003A4605F01DF8736938192A182B541E0ABA
:1006A0001C0C190E043056709470D17004B0BDE863
:1006B000F08100BF2DE9F04103790C7882B0A342AC
:1006C00005460E46C0F082802C71002C00F0878019
:1006D000334605F10807002004249A7993F805E0D1
:1006E0001979120442EA0E2293F807E00A4342EA1B
:1006F0000E62AA60D7F800E0EA68411C42F820E0E8
:100700002A79C8B2824204F1040403F10403E4D854
:10071000234616F803802B7C271D43453C4666D3B1
:1007200085F81080B8F1000F1FD005F114073319B8
:1007300000209A7893F801E01978120442EA0E2218
:1007400093F803E00A4342EA0E626A61D7F800E0D8
:10075000AA69411C42F820E02A7CC8B2824204F116
:10076000040403F10403E4D82746F75D2B7FBB4262
:1007700044D3231D2F772FB30027BC4605F1200E4D
:10078000F0581C1D019001982044844209D2224651
:100790000333334413F8011F0132824203F8011C72
:1007A000F8D3013C3318344403F801CC2C626A6A54
:1007B000DEF800107B1C42F827102A7FDFB2BA4215
:1007C0000346DDD8184602B0BDE8F081A100C0683C
:1007D00001F00EFE2C71E860002C7FF479AF042349
:1007E00016F803802B7C082743453C4698D24FEAF5
:1007F0008801A86901F0FCFDA86191E7B900686A69
:1008000001F0F6FD6862B4E7836870B50B70836829
:1008100005461B0A4B70438982B08B70C37A0C4625
:10082000CB70C3680B71C3681B0A4B71C3898B7192
:10083000C37BCB7103690B7203691B0A4B72438A3A
:100840008B72C37CCB72406905F00DFE064602AB8D
:1008500043F8040D18683246E060696904F110003D
:1008600004F036FF2B7E344423746B7E06F11400B3
:100870006374AB7EA374EB7EE37402B070BD00BF03
:10088000F0B50B78044643614A7800F10C0543EA61
:10089000022343618A7883B043EA02434361CA7802
:1008A00001F10F0E43EA026343610B7983614A79D8
:1008B00043EA022383618A7943EA02438361CA7966
:1008C00043EA026383610B7AC3614A7A43EA0223F3
:1008D000C3618A7A43EA0243C361CA7A43EA026384
:1008E000C361C8680190019E06F11007102F09D955
:1008F000734606F10F00084413F8012F834203F8F2
:10090000012CF9D128468B190022DA73C4F820E0B3
:10091000CA5D84F82420597CA26A84F82510997C49
:1009200084F82610DB7C84F8273003B0BDE8F04063
:10093000104700BF0B78F0B483604A78044643EA5E
:10094000022383608A7882B043EA02438360CA78D4
:1009500001F10F0743EA026383600B79C3604A79B0
:1009600043EA0223C3608A7943EA0243C360CA7937
:1009700043EA0263C3600B7A03614A7A43EA0223C3
:1009800003618A7A43EA02430361CA7A43EA026353
:100990000361C8680190019800F11006102E09D972
:1009A0003B4600F10F050D4413F8012FAB4203F84D
:1009B000012CF9D10B180022DA7367618A5D1430BB
:1009C00022765A7C62769A7CA276DB7CE37602B051
:1009D000F0BC70472DE9F041632984B003DD90F845
:1009E000FC55002D4AD006461368884610461B6801
:1009F00006F227319847C4B2C0F307216218D243E8
:100A000080B286F82243FF2406F2253700F226350D
:100A100086F8242386F82043FE225FFA88F448F300
:100A2000072886F821233B4686F82313354486F8A9
:100A3000254386F82683002201E013F8014FAB42DC
:100A40002244FAD1D243C31D00F108059BB2ADB2D6
:100A50003344B5F5007F83F8202313D806F5487793
:100A600065B16B1E1F4406F1440806F21F3414F8EA
:100A7000011F404603F010FBA742F8D1284604B0FE
:100A8000BDE8F0813049314C032233680191039471
:100A90008DF808201B682E498B424DD104AB3821BC
:100AA00043F8101D186886F82723C6F8280304F1B8
:100AB000300C06F54B75A646BEE80F00E6452860EB
:100AC0006960AA60EB6004F1100405F11005F2D131
:100AD00003CC4FF0000E286069604FF0070CC22174
:100AE000FF25FE243D2086F824137346624686F8CF
:100AF00023E386F826E386F825C386F8205386F894
:100B0000214386F8220306F2633101E017F8012F32
:100B10008F421344FAD1DB4306F1440786F864336D
:100B200006F21F3506F5597415F8011F384603F013
:100B3000B3FAAC42F8D103E0304601AA0721984746
:100B40004FF0FF359AE700BF7C7000004072000054
:100B5000D50900002DE98048DFF87C9389B0D9F8E9
:100B6000001109F1040003F0C1F90022134609F550
:100B7000B061C9F8E825C9F8EC25C9F8F425C9F829
:100B8000F02551F8042F1AB10133192BF9D106E0E1
:100B9000CF4A09EB83016433C1F884255360DFF841
:100BA0004883A8F5487A0DE099F8FC353BB140F64A
:100BB000C412DAF80036E31A934200F2978101205A
:100BC00002F0FAF8C34803F097FA42F6F822D9F88F
:100BD00004360446C31A934284BF00238AF8FC35C6
:100BE000D9F8E83533B1DAF80836984284BF0023E3
:100BF000CAF8E835B84D281D01F0ACFD07460028BD
:100C0000D2D10121281D01F01BFC0028CCDBDAF831
:100C1000F835DAF8E8650344072ECAF8F83500F02D
:100C2000A98056B9FF2840F0B980012204F11403CD
:100C3000CAF8E825CAF80836DCE7012E00F0B980CA
:100C4000022E00F00681032E00F00D81042E00F02C
:100C50001481052E00F02081062E00F02581082E3B
:100C6000C8D19E4A00211A408A42C9F8E815C0F24C
:100C70008681FF2ABED1D9F8F035974D002B00F0C0
:100C80006D820A2B00F02F82062B00F081810B2B46
:100C900000F07A810AEB8303D3F8F433002BA9D058
:100CA0001A688F4912688A4240F025849AF82021F8
:100CB00003F10C005A619AF8211142EA01225A61AB
:100CC0009AF8221142EA01425A619AF8231142EA43
:100CD00001625A619AF824219A619AF8251142EA30
:100CE00001229A619AF8261142EA01429A619AF821
:100CF000271142EA01629A619AF82821DA619AF88A
:100D0000291142EA0122DA619AF82A1142EA0142E3
:100D1000DA619AF82B1142EA0162DA61DAF82C11F1
:100D200001F11007102F0AD901F22F1605F22F1525
:100D3000564415F8012FAE4205F8012CF9D109EB04
:100D40000102002182F82F1166494F44196297F879
:100D5000201183F8241092F83151996A83F82550B4
:100D600092F8325183F8265092F8332183F82720E5
:100D700088473FE7DAF8F425DAF8EC35511C013BF7
:100D80005244CAF8F41582F82001CAF8EC35002B59
:100D90007FF430AF0823C9F8E8352BE705F58270FA
:100DA00003F0AAF9001B05287FF624AF85F8FC653F
:100DB00005E7FE286CD09AF8FC35CAF8E875002BD8
:100DC0007FF418AF0A201A468AF827338AF82833A6
:100DD0008AF829338AF82A338AF82B338AF82C3395
:100DE0008AF82D338AF82E338AF823338AF826338B
:100DF000FE230146FF268AF825038AF821330820BE
:100E0000F7238AF824338AF8206305F225338AF819
:100E1000220305F22E3501E013F8011FAB420A440C
:100E2000FAD1D243454689F82F2308F10F07FF2155
:100E300001E015F8011F284E06F1440003F02CF9DB
:100E4000BD42F6D106F5827003F056F9C6F81401DA
:100E5000D0E60323CAF8EC05CAF8F475CAF8F80519
:100E6000CAF8E835C6E6DAF8EC35042203EB0020D0
:100E7000CAF8EC05CAF8E825BCE6184A1A40002A68
:100E800021DBFF2A0CBF05230023C9F8E835B1E6B2
:100E90000223CAF8E835ADE60623CAF8F005CAF819
:100EA000F805CAF8E835A5E6D9F8F035D9F8EC2503
:100EB00003EB00230721C9F8F035C9F8E815002A2B
:100EC0003FF468AF96E6013A62F0FF020132D8E7DC
:100ED00088010010C4020010C0010010FF00008053
:100EE00081080000EF020010E00400100A25FF2630
:100EF000B54B00202946FE278AF825538AF820633F
:100F0000F725082602468AF827038AF828038AF874
:100F100029038AF82A038AF82B038AF82C038AF813
:100F20002D038AF82E038AF823038AF826038AF809
:100F3000217303F109008AF822638AF8245301E03F
:100F400013F8011F83420A44FAD1D243454689F877
:100F50002F2308F10F07FF2101E015F8011F9B4E19
:100F600006F1440003F098F8BD42F6D106F5827010
:100F700003F0C2F8C6F80046C6F814011FE6013AAD
:100F800062F0FF02013274E600238AF8FC3531E694
:100F90009AF820519AF81436AB4206D2A900DAF832
:100FA0001C0601F025FACAF81C0689F81456002D13
:100FB00000F0A782854E0427002596F8263196F882
:100FC000251196F824211B0443EA012396F82711E2
:100FD000134343EA0163C9F818367D4B0437186898
:100FE000D9F81C36043643F8250099F81436013533
:100FF000EDB2AB42E1D83E1D35464F4497F8207123
:1010000099F82036BB4206D2B900DAF8280601F07A
:10101000EFF9CAF8280689F820760FB30AEB05071E
:10102000002697F8223197F8211197F820211B0408
:1010300043EA012397F82311134343EA0163C9F8F4
:101040002436644B04351868D9F82836043743F839
:10105000260099F820360136F6B2B342E1D82E4682
:101060004E4496F8206199F82C36B34206D2B1006E
:10107000DAF8340601F0BCF9CAF83406043589F808
:101080002C6666B34FF0000EF446534B2F1D585993
:101090000790079E3E44BE4209D93A4605F2231303
:1010A000534459780132964203F8011BF9D84A4A51
:1010B0007B1E134409EB060282F81FC1C9F83036C3
:1010C000464B35461868D9F8343643F82E0099F85F
:1010D0002C360EF1010E5FFA8EFE7345D5D8012332
:1010E00089F80C3686E505F5827003F005F8DAF824
:1010F0001461DAF82021DAF82431394F861B05F51E
:10110000827002F1FF3B1F4402F0F6FF354B354978
:10111000A3FB0632A1FB001E4FF47A73920903FB76
:1011200012664FEA9E1E03FB1E032F485A4400FB23
:10113000067100FB1313CEEB020205F58E7105F567
:101140008C70CAF81C31CAF8182101F065F905F550
:10115000827002F0D1FFCAF804064BE585F8273308
:1011600085F8283385F8293385F82A3385F82B3319
:1011700085F82C3385F82D3385F82E3385F8233305
:1011800085F826331946FE230A2685F8202385F89C
:1011900021330822F72385F8243385F8256385F861
:1011A000222305F22E33304605F2253501E015F8ED
:1011B000010FAB420144FAD1C943DFF8308089F80E
:1011C0002F134646FF2115E0E5040010C001001072
:1011D000D8070010E4070010E0020010F00700102C
:1011E00000CA9A3BD34D621040420F00E004001049
:1011F00016F8011FC54D05F1440002F04DFF05F240
:101200002F339E42F4D105F5827002F075FF05F28E
:101210001C5302941C4605F55972C5F8140101923D
:1012200054F8043F002B00F09C8058689D680268C9
:10123000D3F800B09268904723680746586803685F
:10124000DB689847236806461B69632B04DD99F821
:10125000FC25002A00F08580C5F307225846039339
:1012600089F8275389F8282305F0FDF805460590ED
:10127000A74B0598594618602A46181D04F028FA0D
:10128000384605F0F0F883460690A24B0698AA1D52
:101290000A35985039465A46581904F019FA30461A
:1012A00005F0E1F8074607909A4B5D44079805F171
:1012B000040B585131463A4603EB0B0004F008FA90
:1012C00007EB0B00061DC6F307225FFA86FC0CEB4A
:1012D0000207FF43039B002548444FF0020EB6B2BD
:1012E00080F828E380F8275380F8295380F82A53A0
:1012F0002946D8B206F226354FF0FF0E89F824733E
:1013000043F30723FE2789F8232389F822C3824A5F
:101310004D4489F820E389F8217389F8250389F879
:10132000263301E012F8010FAA420144FAD1C94361
:10133000F21D06F1080392B29BB24A44B3F5007F56
:1013400082F8201300F2FC805BB103F21F33734D6F
:101350000AEB030615F8011F714802F09DFEB54225
:10136000F8D1704B9C427FF45BAF029C01941C4609
:1013700054F8040F002800F0A38090E808086A4998
:101380009A6887688A4240F0B180684EDA68684996
:101390008A4240F0A680674D5B68674A934240F0FE
:1013A0009D80C36A632B04DD99F8FC25002A00F0B8
:1013B0008780CBF307223846029389F827B389F850
:1013C000282305F050F883460590514B059839467F
:1013D00018605A46181D04F07BF9304605F043F8B2
:1013E000074606904B4B06980BF106020BF10A0BD1
:1013F000985031463A4603EB0B0004F069F9284651
:1014000005F031F806460790424BBB4407980BF1B4
:10141000040743F80B0029463246D81904F058F95E
:10142000F019071DC7F307225FFA87FC0CEB020BCC
:101430006FEA0B0B029B002548440226BFB280F8DE
:10144000286380F8275380F8295380F82A532946C7
:10145000D8B207F226354FF0FF0EFE2643F30723DE
:1014600089F8232389F824B389F822C32A4A4D44F2
:1014700089F820E389F8216389F8250389F8263360
:1014800001E012F8010FAA420144FAD1C943FA1D42
:1014900007F1080392B29BB24A44B3F5007F82F889
:1014A000201300F293805BB103F21F331B4D0AEB54
:1014B000030615F8011F1A4802F0EEFDAE42F8D1FE
:1014C0001E4B9C427FF454AF019C0123C9F8004697
:1014D000C9F8044689F8FC35FFF771BB9847034605
:1014E00060E7904705462068036855E79047064641
:1014F000206803684AE705F5907118469047FFF7A2
:1015000079BB08263546042777E500BFC0010010E7
:10151000E9040010E7040010E5040010DF040010E7
:101520000402001040070010450200000472000091
:101530004D0200001C72000041020000A4070010D0
:10154000454E464D0FCE0FC50FCE0FC50FCE0FC562
:1015500096E8030003238AF827333823CAF8283390
:10156000FF2385E803008AF82033FE238AF821331D
:101570003D238AF822334FF0000E4FF0070CC223B0
:1015800005EB0C027746E346373D8AF823E38AF8F9
:1015900026E38AF825C38AF8243301E015F801BF51
:1015A000AA425F44FAD1FF432D4D89F86473FF21AD
:1015B00001E015F8011F2B4802F06EFD019B9D42D2
:1015C000F7D1294B9C427FF42BAECEE6224E234D21
:1015D0000FCE0FC50FCE0FC50FCE0FC596E8030077
:1015E00003238AF827333823CAF82833FF2385E8F2
:1015F00003008AF82033FE238AF821333D238AF83A
:1016000022334FF0000E4FF0070CC22305EB0C0203
:101610007746E346373D8AF823E38AF826E38AF8DB
:1016200025C38AF8243301E015F801BFAA425F44BC
:10163000FAD1FF430A4D89F86473FF2101E015F8E0
:10164000011F084802F028FD084BAB42F7D1084BB8
:101650009C427FF48DAE37E740720000EC0400102E
:10166000E0040010040200104007001024050010E0
:10167000A40700102DE9F04F0746C14BC14991B0B6
:10168000002200F5B06800F21C5B0A910C930D93E8
:101690000E93ADF82C200F92CDF804805BF8043F38
:1016A000002B00F0BD8058681C6801689A680C9493
:1016B0008B68ADF82C209847DBF800300D90586807
:1016C0000368DB6898473B68DBF800104FF4007252
:1016D0000E901B680E690F92AB4A8146934240F010
:1016E0008B81632E04DD97F8FC35002B00F0988089
:1016F000BDF82C300C9D1A0A87F8273387F8282369
:10170000284604F0B0FE044610AB43F82C0D1868D0
:1017100029462246C7F8290307F22D3003F0D8FFE7
:101720000D9D10AB2846009304F09DFE07F2273E66
:10173000034629467546009A069052F8280D0293F2
:101740000092A21D0A344EF802001A46281903F02E
:10175000BFFF484604F087FE8246029B07900DF1CA
:101760004008234458F8240D1C1DE85049465246B1
:10177000281903F0ADFF0AEB0400011D5FFA81FA9E
:10178000C1F307290AEB090E6FEA0E0E00242C5450
:1017900005EB000C89B202208CF802408CF8034063
:1017A0008CF8010007F22533224601F22630FF248F
:1017B00087F824E3FE255FFA86FE46F307260293A8
:1017C00087F822A387F82393384487F8204387F8C3
:1017D000215387F825E387F8266301E013F801EF2A
:1017E00098427244FAD1D243C81D01F1080380B275
:1017F0009BB23918B3F5007F81F8202300F21D81D8
:1018000007F5487563B1013B1D4407F1440607F233
:101810001F3414F8011F304602F03EFCA542F8D1F7
:10182000019B9B457FF43AAF984607F2E45301933E
:1018300058F8040F002800F0D580826803684168DA
:101840000C929A68ADF82C1050498A4240F0EF8013
:101850004F4A0D92DA684F498A4240F0E2804E4A80
:1018600039680E924FF400725B680C680F924B4A15
:10187000934240F0D380C66ADFF80CA1544540F093
:10188000C480632E04DD97F8FC35002B00F0AA809D
:10189000BDF82C300C9D1A0A87F8273387F82823C7
:1018A000284604F0E0FD044610AB43F82C0D186800
:1018B00029462246C7F8290307F22D3003F008FF16
:1018C0000D9D10AB2846009304F0CDFD07F2273E96
:1018D000034629467546009A069052F8280D039350
:1018E0000092A21D0A344EF802001A46281903F08D
:1018F000EFFE0E990DF140090846029104F0B3FD88
:101900008346039B0790234459F8240D1C1DE8507F
:101910005A462819029903F0DBFE0BEB0400021D66
:101920005FFA82FBC2F3072C0BEB0C04E4430F9924
:1019300005EB000E2954080A8EF8010092B2080C3B
:10194000090E8EF802008EF8031007F22533FE21EF
:1019500002F22630FF2587F82443F4B246F3072627
:1019600087F82113029387F822B387F823C33844FA
:1019700087F8205387F8254387F82663002111E074
:101980007872000064700000D50900004502000074
:10199000047200004D0200001C72000041020000B1
:1019A00013F8014F98422144FAD1C943D01D02F1E6
:1019B000080380B29BB23A18B3F5007F82F8201377
:1019C00000F2998007F5487563B1013B1D4407F1AA
:1019D000440607F21F3414F8011F304602F05CFB86
:1019E000A542F8D1019B43457FF422AF012387F83C
:1019F000FC3511B0BDE8F08F31460AAA3846984749
:101A0000019B9B457FF44AAE0EE731460AAA384651
:101A1000A047019B43457FF40BAFE7E79847064695
:101A20002AE790470246D8F80000036818E7904775
:101A30000246D8F8000003680BE7614903220791CA
:101A400060493B6809918DF820201B685E498B42F4
:101A500040F0AC8038230693009B5A4C186887F8F6
:101A60002723C7F8280304F1300E07F54B752646E7
:101A70000FCE764528606960AA60EB6004F110041F
:101A800005F11005F3D103CC029B28606960FF20AB
:101A9000FE2100264FF0070E87F8200387F8211358
:101AA0003D20C22187F824133246744687F8236309
:101AB00087F8266387F825E387F8220307F2633166
:101AC00001E013F8014F99422244FAD1D24307F1C1
:101AD000440687F8642307F21F3407F5597514F894
:101AE000011F304602F0D8FAAC42F8D1019B9B4569
:101AF0007FF4D4AD98E63249324C03223B6807911B
:101B000009948DF820201B68534554D1382306933F
:101B1000009B87F82723186804F1300EC7F82803C4
:101B200007F54B7526460FCE764528606960AA609A
:101B3000EB6004F1100405F11005F3D103CC029B16
:101B400028606960FF20FE2100264FF0070E87F80D
:101B5000200387F821133D20C22187F82413324641
:101B6000744687F8236387F8266387F825E387F8A8
:101B7000220307F2633101E013F8014F8B42224444
:101B8000FAD1D24307F1440687F8642307F21F34E1
:101B900007F5597514F8011F304602F07DFAA54289
:101BA000F8D1019B43457FF443AE1FE7424607212E
:101BB0003846984734E64A4607213846984711E7A1
:101BC0007C70000040720000D50900002DE9F04F44
:101BD00000F58273044687B01846019302F08CFA30
:101BE00042F6F822D4F804360646C31A934284BF5C
:101BF000002384F8FC35D4F8E83533B1D4F808363E
:101C000083423CBF0023C4F8E835DFF8F083251D8C
:101C1000284600F09FFD814670B194F8FC0540B164
:101C200040F6C412D4F80036F31A934200F27481DD
:101C3000002007B0BDE8F08F0121284600F000FC2D
:101C40000028EADBD4F8F835D4F8E8750344072F08
:101C5000C4F8F83500F0AB8057B9FF2840F0BB80DE
:101C6000012206F11403C4F8E825C4F80836CFE7CA
:101C7000012F00F0BE80022F00F01481032F00F02E
:101C80001B81042F00F02281052F00F02E81062FEA
:101C900000F03381082FBBD1D44A00211A408A4278
:101CA000C4F8E815C0F29C81FF2AB1D1D4F8F03510
:101CB000002B00F0A0820A2B00F06082062B00F0BF
:101CC000A8810B2B00F0A18104EB8303D3F8F4234C
:101CD000002A9DD01368C6481B6804F590718342A2
:101CE00040F0868294F8203102F10C07536194F899
:101CF000210104F22F1943EA0023536194F82201D1
:101D000043EA0043536194F8230143EA00635361BB
:101D100094F82431936194F8250143EA00239361F8
:101D200094F8260143EA0043936194F8270143EABB
:101D30000063936194F82831D36194F8290143EA50
:101D40000023D36194F82A0143EA0043D36194F855
:101D50002B0143EA0063D361D4F82C010390DDF832
:101D60000CE00EF1100ABAF1100F09D94B460EF132
:101D70000F0C8C4413F8010F9C4503F8010CF9D1AA
:101D800001EB0E030020D873C2F8209011F80A105E
:101D9000384682F824105F7C916A82F825709F7C17
:101DA00082F82670DB7C82F82730884730E7D4F849
:101DB000F4355A1C2344C4F8F42583F82001D4F8E0
:101DC000EC35013BC4F8EC35002B7FF421AF082340
:101DD000C4F8E8351CE7019802F08EF9801B05284D
:101DE0007FF616AF6FF0010084F8FC7507B0BDE810
:101DF000F08FFE2875D094F8FC35C4F8E895002BD8
:101E00007FF406AF7B492268039117687A4A0493EE
:101E10009742059340F0DA800A201A4601464FF0B7
:101E2000FF0E84F8273384F8283384F8293384F8A4
:101E30002A3384F82B3384F82C3384F82D3384F838
:101E40002E3384F8233384F82633FE27F72384F8CF
:101E50002503082084F8220384F8243384F820E33F
:101E600084F8217304F2253304F22E3001E013F8D4
:101E7000011F98420A44FAD1D24304F1440A84F87B
:101E80002F2304F21F3704F22F3917F8011F504691
:101E900002F002F94F45F8D1019802F02DF9C4F88B
:101EA0001401B5E60323C4F8EC05C4F8F495C4F8AE
:101EB000F805C4F8E835ABE6D4F8EC35042203EBBA
:101EC0000020C4F8EC05C4F8E825A1E6474A1A400A
:101ED000002A76DBFF2A0CBF05230023C4F8E8356F
:101EE00096E60223C4F8E83592E60623C4F8F00526
:101EF000C4F8F805C4F8E8358AE6D4F8F035D4F823
:101F0000EC2503EB00230721C4F8F035C4F8E815ED
:101F1000002A3FF45CAF7BE6364A236803921D68D3
:101F2000354A002395420493059369D10A201A4645
:101F300001464FF0FF0E84F8273384F8283384F8E5
:101F4000293384F82A3384F82B3384F82C3384F82B
:101F50002D3384F82E3384F8233384F82633FE257A
:101F6000F72384F82503082084F8220384F8243317
:101F700084F820E384F8215304F2253304F22E3050
:101F800001E013F8011F83420A44FAD1D24304F15D
:101F9000440984F82F2304F21F3504F22F3815F872
:101FA000011F484602F078F8A845F8D1019802F0E0
:101FB000A3F8C4F814010020C4F8006607B0BDE817
:101FC000F08F013A62F0FF02013283E703AA0A218F
:101FD0002046B847019802F08FF8C4F8140117E6BC
:101FE000013A62F0FF0201325EE600BFFF000080AE
:101FF000810800004C700000D5090000D34D62102C
:1020000003AA0A212046A847D0E7002384F8FC351C
:10201000FEE594F8207194F8143604F59079BB42EB
:1020200006D2B900D4F81C0600F0E2F9C4F81C0688
:1020300084F81476002F00F0F780484604F5C36E4C
:1020400004270021837990F805C002791B0443EA34
:102050000C2390F807C0134343EA0C63C4F8183606
:10206000DEF80020D4F81C36043743F8212094F819
:1020700014360131C9B28B4200F10400E2D807F1F5
:10208000040A3B46574619F803B094F820365B45DE
:1020900007D24FEA8B01D4F8280600F0A9F9C4F85A
:1020A000280684F820B6BBF1000F22D004F2246E7B
:1020B00009EB07000021837890F801C002781B0427
:1020C00043EA0C2390F803C0134343EA0C63C4F8BB
:1020D0002436DEF80020D4F82836043743F82120CF
:1020E00094F820360131C9B28B4200F10400E2D8E5
:1020F000BA4619F80AA094F82C36534507D24FEA8D
:102100008A01D4F8340600F073F9C4F834060437B1
:1021100084F82CA6BAF1000F2CD000218C4604F5CF
:10212000C66E59F8070007F1040A0390039A524457
:10213000924509D25046FB1C4B4413F8017F0130F5
:10214000904203F8017CF8D30AF1FF334B4409EBCA
:10215000020000F801CCC4F83036DEF80000D4F8F4
:102160003436174643F8210094F82C360131C9B2B1
:102170008B42D6D8012384F80C3649E5DDF804B04B
:10218000DFF8B8A0584601F0B7FFD4F81471D4F8BE
:102190002431C71B58469A44D4F8209101F0ACFF73
:1021A000A8FB073EA8FB00124FEA9E1E4FF47A736D
:1021B00003FB1E7791091F4A03FB110302FB07A2D1
:1021C0001C4F09F1FF3907FB1323F144C1EB09024E
:1021D000C4F81C31C4F8182104F58E7104F58C7014
:1021E00000F01AF9584601F087FFC4F804060FE51D
:1021F000104698470CE510492268039104930A2180
:1022000005932046136803AA9847019801F074FFCC
:10221000C4F814012046FFF72DFAC4F80066C4F88C
:1022200004664FF0FF3004E54FF0080A57460423D8
:1022300029E700BF40420F004C70000000CA9A3BE3
:10224000F8B53C4C3C4A20463C49002340F8042B5E
:102250003B4A00F055FA04F5827001F031FF4FF46B
:102260006143C4F8003104F5827001F039FF354A4A
:102270000023194684F8FC35C4F8102684F8143677
:10228000C4F81C3684F82036C4F8283684F82C3676
:10229000C4F8343604F21C5204F5B06342F8041F4B
:1022A0009342FBD12849002243F8042F9942FBD1E5
:1022B000264A002102F5007302F8011F9342FBD168
:1022C0002349002203F8012F8B424FF00004F9D17B
:1022D000204A2149174801F043FF2049204800F0D7
:1022E0006BFE2049204800F067FE2049204800F09E
:1022F00063FE2049204800F05FFE204BDFF894E0A9
:102300001F4F204E204D2148214A012183F82440AF
:1023100083F8254083F8264083F827405C619C6160
:10232000DC61C3F800E0DF601E611D629862D96263
:102330009A60F8BDC0010010DC70000002C00920E6
:1023400003C0092094700000A4070010DF020010F1
:10235000DF060010C80000109923000032C00920D9
:102360000008001034C009208001001037C0092087
:10237000B801001035C00920F807001088010010CE
:10238000C4700000AC700000787200005D020000B4
:102390007C720000F070000010B50446034B40F85A
:1023A000043B00F04FF9204610BD00BFDC70000078
:1023B000074A084808B50021121A03F0AFF9AFF335
:1023C000008003F0F5F801F01DFD02F0F3FD00BF01
:1023D000180A001064010010022801DC0120704777
:1023E00001F0D8BCEFF3058303B100BE03F052B98E
:1023F000EFF3058303B100BE03F0C0BEEFF3058326
:1024000003B100BE03F04EB908B5012002F0D2FDC1
:1024100008B5FFF7F9FF00BF10B40C68064A630A5D
:10242000A2FB0323054ADB0902FB13420468234491
:10243000036010BC0A607047834B040000CA9A3BDB
:10244000C36F70B5002B2DD0426E002A2AD0002910
:102450002FD0D0F88430002BFBD0436F0446D55CDE
:10246000436FEDB201334367426FC36F9A42A4BF1B
:1024700000234367D0F88420C36F9A4209D0C36D0C
:102480005E685A6822F001025A6000F019F8E36DA4
:102490005E6072B6D4F88430013BC4F8843062B612
:1024A000284670BDC26D137DDB07FCD51078C0B225
:1024B00070BDD0F88430002BCFD14FF0FF3070BD0D
:1024C000C36D70B5002B4ED0C26F002A4BD0426E48
:1024D000002A48D0044600F15805002620E0626E2C
:1024E0008AB1E16E94F86130DBB25354D4F8843091
:1024F0000133C4F88430E36E0133E366E26EE36FC8
:102500009A42A8BFE666D4F89830002B34D028460B
:10251000984794F8942094F861309A421CD0E36D67
:102520001A7DD00738D51B78DBB284F86130D4F837
:102530008420E36F9A42D2D194F86130D4F8B82065
:10254000DBB2C4F88C307AB32846904794F89420D4
:1025500094F861309A42E2D1D4F8E830002B48D0A8
:1025600028469847DBE7D0F8983000F1580183B34C
:10257000BDE8704008461847D4F89C000028C8D031
:10258000D4F8A020D4F8A4303AB1D90707D400EB8E
:10259000630029469047BCE770BDD907B9D55B10E9
:1025A000C15818448A58F4E7D4F8BC30002BB0D096
:1025B000D4F8C020D4F8C40022B1C10704D403EB7E
:1025C0006000E6E7C107A4D54010195818448A589E
:1025D000DFE7D0F89C30002BDED0D0F8A020D0F878
:1025E000A4001AB3C40714D403EB6000BDE8704024
:1025F0001047D4F8EC00002891D0D4F8F020D4F89B
:10260000F4305AB1D9070CD400EB63002946904747
:1026100085E740101C581844A258E7E7D9077FF512
:102620007EAF5B10C15818448A58EFE7C507F0D455
:1026300070BD00BF704700BF10B5044601F095FDA6
:10264000204610BDF8B5044690F8F820144D53B25A
:10265000406E01215B0902F01F02124E01FA02F2E4
:1026600005F11807203305F14C01256027646164EA
:1026700046F8232008B1FFF7C1FEA06E08B1FFF7AE
:10268000BDFE094B04F1400003F1180103F14C02B7
:1026900023602164626401F0EDFC2046F8BD00BFB8
:1026A000AC72000000E100E040760000A0F14000C4
:1026B000FFF7C8BFA0F14400FFF7C4BF10B5044640
:1026C000FFF7C0FF204601F050FD204610BD00BFBF
:1026D000A0F14400FFF7F2BFA0F14000FFF7EEBF0A
:1026E0000121FFF7ADBE00BFA0F14000F8E700BF39
:1026F000012200F035B800BFA0F14000F8E700BFAC
:1027000038B50446154601F049FC114B002103F190
:1027100018000A46A16503F14C012360616420643E
:1027200004F1A80304F5847143F8102C43F80C2C31
:1027300043F8082C43F8042C10338B42F4D14FF4A7
:10274000807220462B46114600F09EF8204638BD88
:10275000AC720000D0F88400B0FA80F040097047F5
:10276000836E70B5044613B1D0F880303BB9E26D8A
:10277000137D9E06FCD5C9B21170002070BDC36DDB
:10278000187D850605D5D4F8880010B9C9B219702E
:1027900070BD0D46C2B15E685A6822F002025A60EE
:1027A000D4F88820D4F880309A4209D100212046FC
:1027B00000F0EEF8D4F88820D4F880309A42F5D0B2
:1027C000E36D5E60E36D05E0D4F88810D4F88020F6
:1027D000914220D05A68E9B222F002025A60236F77
:1027E000A26ED15472B6D4F888300133C4F8883060
:1027F00062B6236F002001332367226FD4F8803044
:102800009A42A8BF0023E26DA8BF2367536843F034
:102810000203536070BDD4F8C830C4F8905004F17E
:1028200058001BB198474FF0FF3070BDD4F8CC2052
:10283000AAB1D4F8D050D4F8D43075B1D90707D4A0
:1028400002EB630301461846A8474FF0FF3070BD06
:102850005B10D15813444D59F4E7DC07F8D44FF01E
:10286000FF3070BD4B68DA0705D55B100A68C158A8
:1028700018448A5810470A6800EB6300104700BFED
:10288000012100F085B800BFF8B5044690F8F85073
:1028900001266BB25B0905F01F05384F203306FA9D
:1028A00005F547F8235016460D4600F00DF9E36D87
:1028B000A465002B5ED0002EE66747DDE06FFFF7D2
:1028C00091FD0021E16660666167C4F88410C4F878
:1028D0008C10002C42D02A4A2A4B261D2261E4602B
:1028E000616123623046012200F026FE002DC4F80B
:1028F00080503DDDD4F88000FFF774FD22490023AD
:102900002367A066A367C4F88830C4F89030F9B193
:10291000F4B11C4D0122A1626462E3623046A563FA
:10292000114600F009FE204600F0FAF894F8F8305D
:1029300001215AB203F01F0301FA03F30F480021EB
:10294000520984F8941040F82230F8BD0020B8E70E
:1029500030460022012100F0EFFDE4E70426304676
:102960002246214600F0E8FD002DC4F88050C1DC6D
:102970000020C3E7054800F011F9D4E700E100E0CA
:10298000C1240000652800008128000000730000B9
:10299000C36D2DE9F04113B3D0F88030FBB1836EE5
:1029A000EBB10E460446002700F15805D4F88830F4
:1029B0001BB1E26D137D98061AD4D4F88830002B31
:1029C00033D1E26D04F15800536823F002035360E1
:1029D000D4F8D830002B4BD0BDE8F0411847D0F8E0
:1029E000A83000F1580113B3BDE8F041084618477C
:1029F000A36FA16ECB5CDBB284F860301370D4F8A7
:102A00008830013BC4F88830A36F0133A367A26FFD
:102A1000D4F880309A4200DBA767002EC6D0D4F8E5
:102A2000A830ABB128469847C0E7BDE8F081D0F8A0
:102A3000AC30002BF9D0D0F8B020D0F8B400002A88
:102A40003AD0C40727D403EB6000BDE8F04110473B
:102A5000D4F8AC000028A9D0D4F8B020D4F8B43011
:102A6000F2B1D9071ED400EB6300294690479DE7D9
:102A7000D4F8DC30002BD8D0D4F8E050D4F8E420DF
:102A8000F5B1D10713D403EB6203014618462B4678
:102A9000BDE8F041184740101C581844A258D4E72C
:102AA000D90783D55B10C15818448A58DDE7521006
:102AB000995813444D59E8E7C507ECD4BDE8F081B7
:102AC000D407F4D4BDE8F0818368032B1BD8DFE87A
:102AD00003F0140E08020E4A0823C26580F8F8308D
:102AE00070470C4A0723C26580F8F83070470A4ADD
:102AF0000623C26580F8F8307047084A0523C2658E
:102B000080F8F83070470023C36580F8F8307047CC
:102B100000C00940008009400000014000C00040A2
:102B2000C36D07221A72704700B599B072B6174983
:102B3000684600F057F806A8154900F053F80CA8AD
:102B4000144900F04FF812A8134900F04BF8039A0B
:102B500001990A9B11600799109A19600D99159BAC
:102B60001160139A96201A6000F026F9049A0199D0
:102B7000099B116007990F9A19600D99169B1160B6
:102B8000139A96201A6000F017F9E0E732C0092086
:102B900034C0092035C0092037C009200FB400B562
:102BA000064A83B004AB53F8041B10681A46C06889
:102BB000019302F097FF012002F0FCF95001001090
:102BC00038B50D46044600F077F9013509D02046A6
:102BD000002100F093F92046BDE83840032100F0C1
:102BE00089B938BD38B50D46044600F065F90135A0
:102BF0000CD023696268204601211A6000F07EF93A
:102C00002046BDE83840022100F074B938BD00BF4D
:102C100070B50D461646044600F04EF9013511D048
:102C200066B9236962681A602046012100F066F9DE
:102C30002046BDE87040022100F05CB9E36862689C
:102C40001A60F1E770BD00BF00F06EB8431C1CD0E5
:102C50000B685A1C1AD0984210B5044602D10AE0FB
:102C60009C4208D051F80C3F5A1CF9D10948BDE8E4
:102C70001040FFF793BF2046896800F051F92046C5
:102C8000BDE81040022100F067B970470148FFF726
:102C900085BF00BF3073000088420AD0421C09D0B3
:102CA000013106D008B50448FFF778FF4FF0FF3038
:102CB00008BD704708467047447300000B685A1CF3
:102CC00008D0984202D107E0834205D051F80C3F6A
:102CD0005A1CF9D11846704748687047421C0ED0FC
:102CE00008B50B685A1C04D10AE051F80C3F5A1C75
:102CF00006D09842F9D14868411C01D008BD704700
:102D00000248FFF74BFF4FF0FF3008BD587300003B
:102D100030B585B018246D4620462946ABBE044622
:102D2000204605B030BD00BF024B186800F001001E
:102D3000704700BFF0ED00E0036870B5DB68054642
:102D400098476B685B6883B12A681C68536898472A
:102D5000201A00286A680DDC506811688368536087
:102D60000029F0D040688847EBE72B68BDE8704049
:102D70009B6818472B6852681B691068BDE8704053
:102D8000184700BF03685B68184700BF00487047DA
:102D9000AC7300000148FFF7CFBF00BFAC73000069
:102DA00038B5054600F0D2FD044600F0CFFD001B0B
:102DB000A842FAD338BD00BF4FF47A7303FB00F08A
:102DC000FFF7EEBF0C4B30B49D689A682B46B2F10A
:102DD000805F0CD2094AC43553F8044BAB4242F829
:102DE000044FF9D14FF080521346034CA2601030CB
:102DF00043F8201030BC704700ED00E0FCFFFF0FEF
:102E00002B4A2023F0B4C2F8A031D2F8A0319806A2
:102E100045D4274B002519460124AA205522022714
:102E20000B26C3F80471C3F8A851C3F8AC51C3F81A
:102E30000C41C3F88460C3F88C00C3F88C20C3F83D
:102E40008040C3F88C00C3F88C20D1F88830184A31
:102E50005B01FAD511460324AA205523C2F880400D
:102E6000C2F88C00C2F88C30D1F88830104A13F0C8
:102E7000407FF9D00F4900230520C2F80801C2F8AD
:102E8000C410C2F8C8311368F0BC23F4704323F0B7
:102E90003A0343F4405343F03A0313607047D2F8C7
:102EA000A0315906B5D4D2F8A0315906F7D5B0E70C
:102EB00000C00F40DE8728044A1C016018D038B5D6
:102EC0000C4605460021204600F02AF824F01F0198
:102ED00004F01F020123934001F1180401F11C00CA
:102EE00001F11402A9606B60EC6028616A6138BD71
:102EF000704700BF006800F02FB800BF41B1012942
:102F000005D18268436811680B43136070477047AE
:102F100082684168136823EA01031360704700BFA9
:102F200000F16040A0F51C2003099B0003F18043E1
:102F300003F53033400010B400F01E001C6803227B
:102F4000824024EA02021A601A68814041EA0200C3
:102F5000186010BC704700BF00F16040A0F51C2055
:102F600043099B0003F1804303F5303330B400F094
:102F70001F029C6EC1F3800505FA02F224EA0204E6
:102F80009C669C6E22439A669DB903099B0003F1DF
:102F9000804303F5303340001C6C00F01E00032218
:102FA000824024EA02021A641A6C01FA00F010430B
:102FB000186430BC704700BFF8B50D4604462F4971
:102FC0002846FFF78BFE44F620612D4A2D4FD2F89C
:102FD000C430C6B257F8267043F040032071276012
:102FE000C2F8C430D2F8A801274B20F440504FF06B
:102FF000000E0224C2F8A801C3F80CE05C61D86C92
:1030000006F1080E012202FA0EF202431F48DA64AA
:103010000268DFF880E01E48AEFB02E2120D01FB01
:1030200002F102605C6099619A6932B13A689B6909
:1030300002FB01F1B1FBF3F13960134C0922236D5E
:1030400043F0010323656260A06901F061FD002186
:1030500001F0B6FD01F07AFFA3690B49984208BF61
:10306000013038600B6D012202FA06F61E430E6530
:103070002846BDE8F8400149FFF7E8BDB4730000F9
:1030800000C00F40D000001000800140CC000010B4
:103090001008001083DE1B4370B50C460546002166
:1030A000204601F02BFFF0B94FF07E51204601F091
:1030B00043FF08B14FF07E540C4EB06901F028FD7B
:1030C000214601F07DFD01F041FFB36907499842B7
:1030D0002B6808BF0130186028790A6D01238340EE
:1030E00013430B6570BD0024E6E700BF008001407C
:1030F000154B9968C1F34201012918D0022914D156
:10310000124A516F013106D0D2F88010906F0860DA
:1031100092F8A61089B1106F0C4B38B193F8A63015
:1031200023B10B4B00211B68184770477047074BB2
:10313000186F38B1064B1B681847596821F0010118
:103140005960E8E7704700BF008009401C08001084
:1031500018080010F8B5294C0368A34247D03FDD9A
:10316000274CA34229D004F58044A34242D1254DE7
:10317000082632BB01290BD04268234CC2EBC202A5
:1031800004EBC20292F8364092F83520D44213D1B3
:10319000B1FA81F25D68012404FA01F125EA010126
:1031A0005960036852095B6804FA02F21A4203D1BB
:1031B000164BB440C3F88040F8BD154D0726002AD1
:1031C000D8D05868012707FA01F2024374B25A6056
:1031D00029462046FFF7F6FD0C4BA7401F60F8BDBF
:1031E000A4F58044A34205D10A4D0526C1E70A4D46
:1031F0000626BEE700252E46BBE700BF00000140C3
:10320000008009401D3200001C08001000E100E0B1
:10321000F130000089320000E9320000174B996854
:10322000C1F3420101291BD0022917D1144AD2F857
:10323000AC10013107D0D2F8B810D2F8B000086055
:1032400092F8DE1099B1D2F8A8000D4B38B193F87E
:10325000DE3023B10B4B00211B68184770477047C5
:10326000074BD3F8A80038B1064B1B6818475968BC
:1032700021F001015960E6E7704700BF00C0094036
:103280001C08001018080010144B9968C1F3420183
:10329000012917D0022913D1114A5168013105D0F3
:1032A00011699068086092F8361089B110680C4B6B
:1032B00038B193F8363023B10A4B00211B68184708
:1032C00070477047064B186838B1064B1B681847A3
:1032D000596821F001015960E8E7704700C00040DB
:1032E0001C08001018080010144B9968C1F3420123
:1032F000012917D0022913D1114AD16B013105D010
:10330000916C106C086092F86E1089B1906B0C4B48
:1033100038B193F86E3023B10A4B00211B6818476F
:1033200070477047064B986B38B1064B1B681847BF
:10333000596821F001015960E8E770470000014039
:103340001C080010180800102DE9F04F02686E4BA1
:1033500089B09A420790069200F0C88040F3B4808A
:103360006A4B0698984272D003F58043984240F029
:103370009D80674BD3F8AC2122F44022C3F8AC21E6
:10338000D3F8AC2142F48022C3F8AC21614A0B018E
:103390001268B2FBF3F003FB1023039280B2002B00
:1033A00000F09080039B4FF001085A009C00944667
:1033B000A246C3468E469946002305920494009087
:1033C0000291019300242546029E5FFA88F7BCF122
:1033D000000FB5BFBCFBF6F0BAFBF6F000094009E0
:1033E0000130C0F34F0008EB040200283DD00CB1BF
:1033F00001283BD0034603FB02F3DB00B9FBF3F3E8
:103400000133C1EB5303002BB8BF5B42734505DAB0
:10341000994230D09E46BB468DE821000134E5B28A
:10342000AF420E44D3D8039B08F101089944059B91
:10343000B8F1100F9C44049B9A44029B0B440293E6
:10344000C0D1019B009843EA0B15EDB216E0304B5A
:10345000D3F8AC2122F44032C3F8AC21D3F8AC212C
:1034600042F48032C3F8AC2190E714B10220034645
:10347000C1E70120BEE745EA0715EDB20699C0F3A2
:1034800007220B7BC0B243F080030B7307990B68D4
:103490001A710B6818700B6883F828500A68137B40
:1034A00003F07F03137309B0BDE8F08F194A0B01D5
:1034B0001268B2FBF3F003FB1023039280B2002BDF
:1034C0007FF470AF1025D9E7A3F580439A42EDD180
:1034D0000F4BD3F8A82122F0C002C3F8A821D3F8DB
:1034E000A82142F04002C3F8A8214FE7084BD3F8C7
:1034F000A82122F44072C3F8A821D3F8A82142F4ED
:103500008072C3F8A82141E7000001400080094013
:1035100000C00F40CC000010436810B40448054CB4
:10352000C3EBC30344F83320016010BC704700BFF5
:10353000180800101C08001059B9436810B4064C54
:10354000C3EBC30304EBC30383F8362010BCFFF7BF
:1035500001BEFFF7FFBD00BF1C0800100268137D0D
:10356000DB07FCD543680949C3EBC30301EBC30385
:10357000596810780131C0B206D059699B680B6058
:10358000536843F001035360704700BF1C080010EC
:103590004368154AC3EBC303DB00D11810B4CC69F0
:1035A00001340FD00B460A6B1C335B6812681A4259
:1035B00005D1036810BC187DC0F38010704700204F
:1035C00010BC704703681B7D9B0607D491F834003C
:1035D00010BC0F288CBF002001207047002381F809
:1035E0003430012010BC70471C08001038B5044668
:1035F0000D462046FFF7CCFF0028FAD02368EDB235
:103600001D706368054AC3EBC30302EBC30393F861
:103610003420013283F8342038BD00BF1C0800106C
:103620002DE9F04F054644482C6883B084420F468C
:1036300091469A461DD06E6800243246DFF804B1E8
:103640004FEAC608C2EBC201C6EB08000BEBC00094
:1036500000220BEBC1014FF0FF3381F83520C3612D
:10366000436011462846FFF775FD4FB903B0BDE82A
:10367000F08F237C6E6803F03F0323746A68DDE7F4
:103680002E494846FFF71AFB2D4901905046FFF797
:1036900015FBBA1E012A30D9012FE7D1B9F1FF3F3E
:1036A000E4D0254A019B29680720934208720BD178
:1036B00054B14846237C214943F04003237403B0AE
:1036C000BDE8F04FFFF7C2BAC6EB08060BEBC60029
:1036D000494604300022FFF79BFA6A680124C2EBD6
:1036E000C2020BEBC20328462246002183F8354074
:1036F00003B0BDE8F04FFFF72DBDBAF1FF3F0AD090
:103700000D4A90420DD0C6EB08000BEBC0005146AD
:103710001C30FFF755FA032FA8D1B9F1FF3FC0D1F4
:10372000A4E7002CEFD0227C504642F080022274A5
:103730000349FFF78BFAEEE70000014068740000D0
:10374000647500001C0800102DE9F0410F46054685
:10375000594938461646FFF7C1FA584904463046DB
:10376000FFF7BCFA01462046FFF796FA544B044691
:10377000984228607FD06FD9524B98424BD003F5C6
:103780008043984206D1504AD2F8C43043F00073C7
:10379000C2F8C430012323722B684FF00008C3F82D
:1037A00004804FF416512846FFF7CEFD2B68032204
:1037B0001A7341493846FFF749FA40493046FFF746
:1037C00045FA7A1C03D041463846FFF7C5FB731C07
:1037D00003D030460021FFF7BFFB394B9C4247D056
:1037E00021D9384B9C4263D003F580439C424AD197
:1037F00003236B60354CC3EBC3034FF0FF3604EB80
:10380000C3042846334632466660E6610021BDE8BF
:10381000F041FFF705BF2C4AD2F8C43043F0807363
:10382000C2F8C430B6E7A3F580439C422BD1274EA3
:103830004FF0FF3400216960234622462846746019
:10384000F461FFF7EDFE224B01221A6028686968D7
:10385000204B03C3BDE8F081A3F58043984299D182
:10386000194AD2F8C43043F00803C2F8C43091E7D3
:1038700001236B60BEE7144AD2F8C43043F0100352
:10388000C2F8C43086E76E68104BC6EBC6064FF030
:10389000FF3703EBC6063A463B46002128467760D1
:1038A000F761FFF7BDFE0C4B9C42CCD0BDE8F08128
:1038B00002236B609EE700BFF87400008C74000068
:1038C000000001400080094000C00F401C080010AB
:1038D000140800100C0A001000C0004038B5104950
:1038E000104B01241C60D1F8C4300F4A43F400038C
:1038F0000E480025C1F8C430156703680C48022142
:10390000A0FB03031B0D013B51600420D360094958
:103910005460FFF757FA084B10221A6038BD00BFF9
:1039200000C00F40FC08001000400940CC0000100F
:1039300083DE1B43952D000000E100E0024B1B6875
:1039400003B17047FFF7CABFFC08001008B5044B6D
:103950001B680BB9FFF7C2FF024B986808BD00BF98
:10396000FC08001000400940034B98615A6942F07E
:1039700001025A61704700BF00400940024A536982
:1039800023F001035361704700400940014B0122BD
:103990001A60704700400940094A8368026053B1C9
:1039A000084B1A68904201D106E01A4653689842C3
:1039B000FBD143685360704742681A60704700BF8C
:1039C00090750000000900100C4A836810B5044689
:1039D000026053B10A4B1A68904201D10AE01A46BC
:1039E00053689C42FBD163685360204600F0BDFBE6
:1039F000204610BD42681A60F7E700BF90750000CE
:103A00000009001010B4064C0023027381600460AA
:103A1000436019B1034B1A681860426010BC7047CC
:103A20009075000000090010F8B50B4B1C688CB1B4
:103A300007460E46A56855B132463946284602F07B
:103A40001AFD20B9284602F00EFD864202D06468B5
:103A5000002CEFD12046F8BD00090010007B704714
:103A6000036870B501221B69002104469847064689
:103A700001300ED0236802221B690021204698479E
:103A80000546236831461B69204600229847284690
:103A900070BD304670BD00BF10B50446064B002215
:103AA00040F8043BFFF7AEFF044B204603F1080249
:103AB000343384E80C0010BDF475000098750000E4
:103AC00010B50446064B03F108023433026040F897
:103AD000043FFFF761FF204600F06CF8204610BD60
:103AE0009875000038B50023036043600A780446E7
:103AF0002F2A01D0204638BD4A78002AFAD0481C27
:103B000020604D782F2D13D085B1034600E06AB1B7
:103B10005D1A013323601A782F2AF8D12946013320
:103B20002360FFF781FF6060204638BD2946F8E733
:103B300019460346F3E700BF00687047436843B186
:103B400010B504461846FFF789FF012803D16068C5
:103B500010BD00207047002010BD00BF406830B18C
:103B600008B5FFF77BFFB0FA80F0400908BD704749
:103B700043684BB110B504461846FFF76FFF28B9EC
:103B8000606818B1043810BD00207047002010BDD7
:103B90004068003018BF0120704700BF024A034947
:103BA0000348FFF7D1BD00BF03C0092002C00920B0
:103BB0000C0A0010074A084B10B4026003F580712C
:103BC000002453F8042F904208BF1C608B42F8D1A8
:103BD00010BC7047F475000000090010F0B50E46E7
:103BE00085B03749054602F034FC28B9354B1B68CF
:103BF000002B42D005B0F0BD3349284602F029FC25
:103C000030B9304B1B68002B42D0012005B0F0BD0D
:103C10002E49284602F01DFC002834D02C4B0024ED
:103C200002E00134402C3CD053F8042F002AF8D194
:103C30002B783A2B3CD0294602A8FFF753FF02A865
:103C4000FFF7A6FF68B302A8FFF788FF20BB02A812
:103C5000FFF774FF054620B3036802A89F68FFF7CB
:103C60006BFF324601462846B8470346CBB1194A96
:103C7000E01C42F8243005B0F0BD0190FFF78EFF44
:103C8000019805B0F0BD0F4B1B686BB10220B1E786
:103C9000FFF784FF0120ADE702A8FFF769FF0346A5
:103CA000E4E74FF0FF30A5E7FFF778FF0220A1E738
:103CB000284602AA084902F05DFB029BD6E700BF36
:103CC000D475000014080010E4750000DC750000D5
:103CD00000090010040900101876000002280ADD0F
:103CE000074AC31E52F82300002142F8231020B1D6
:103CF00003685B681847002070474FF0FF3070473B
:103D000004090010022812DC0E4B70B51B680C462B
:103D100016460BB9FFF742FFA51936B114F8011B7F
:103D20000948FFF763FCAC42F8D1304670BD074B41
:103D3000033853F8200010B103681B6818474FF090
:103D4000FF307047140800100C0A0010040900101E
:103D500002280DDC0C4B10B51B680C460BB9FFF7A5
:103D60001DFF0A48FFF7FAFB01232070184610BD1B
:103D7000074B033853F8200010B103689B681847BD
:103D80004FF0FF3318467047140800100C0A00105B
:103D900004090010022807DD064B033853F8200001
:103DA00020B10368DB681847012070474FF0FF30EF
:103DB000704700BF04090010022807DD064B0338D6
:103DC00053F8200020B103681B6918470020704792
:103DD0004FF0FF30704700BF04090010022808B5FB
:103DE00004D84FF400534B60002008BD01F0DCF80C
:103DF000092303604FF0FF3008BD00BF704700BFCC
:103E0000704700BF08B5FFF7FBFFFFF7F7FFBDE8FE
:103E10000840FCF79FBE00BF074A13681918EFF36C
:103E20000880814202D2184611607047034B0C2271
:103E30001A604FF0FF307047EC000010140A0010B9
:103E40000B4C08B523680546986801F0D1F9236842
:103E5000D86801F0CDF9FEF7F7FE20B905B9FEE705
:103E6000FEF762FEFBE7FEF753FF002DF7D0F7E702
:103E700050010010002102F0C9B900BF4A1C02EB3A
:103E8000420200EBC202936853B101EB4101C90049
:103E90004218D2681AB101441031104618477047D1
:103EA00001EB410300EBC301CB68002BF7D01847AF
:103EB00070B504460B4E0023251D4FF41650E063E9
:103EC00063602846A360E36023626362A3632660A5
:103ED000FFF73AFC284622460349FFF71DFB204620
:103EE00070BD00BF307600007D3E000038B504464E
:103EF0000D460430FFF728FAE56338BD0430FFF7BC
:103F00002DBB00BF10B50C460430FFF76FFB2046F9
:103F100010BD00BFFFF7F2BFA0F14000FFF7FABFEE
:103F2000FFF7F0BFA0F14000FFF7FABF10B504465D
:103F3000064B403003F1080103F1200254332160A5
:103F40002264636400F096F8204610BD38760000C5
:103F5000A0F14000EAE700BFA0F14400E6E700BF9F
:103F600010B50446084B403003F1080103F120026C
:103F7000543321602264636400F07CF8204600F032
:103F8000F4F8204610BD00BF38760000A0F14000D4
:103F9000E6E700BFA0F14400E2E700BF38B5044601
:103FA0001D46FFF785FF294604F1400000F040F868
:103FB000054B204603F1080103F120025433216030
:103FC0002264636438BD00BF38760000F8B58E18EF
:103FD000B1420F460ED005460C4601E0A64207D07E
:103FE0002B6814F8011B5B6A284698470130F5D10D
:103FF000E01BF8BD0C46FBE7F8B58E18B1420F4642
:104000000ED005460C4603E004F8010BA64205D08D
:104010002B6828469B6A9847431CF5D1E01BF8BDE6
:104020000C46FBE7002070470020704700207047D7
:1040300010B5044684B0FFF72FFD0B4B002203F1AF
:1040400008013C3384E80A00626101A8224607495E
:1040500002F06CF9064901A801F0CAF96061FFF7A6
:1040600009FF204604B010BD9476000018760000C9
:10407000D876000010B50446064B406903F10802EB
:104080003C3384E80C0000F0FBFF2046FFF718FDEE
:10409000204610BD9476000038B50D4604464069B0
:1040A00001F0A6F861692846BDE8384001F0CCB9B6
:1040B00010B50446C068FEF765FE6368C01A10BDFF
:1040C00038B500250560456085600446FEF75EFE54
:1040D000E060FEF757FEA5606060204638BD00BF77
:1040E000036803B1704710B50446C068FEF74AFE86
:1040F00001236060236010BD036810B5846813B1AC
:10410000FFF7D6FF03460448234480FB0320DB1758
:10411000C3EBA01010BD00BFD34D62100649074A83
:10412000074B9A42BEBF51F8040B42F8040BF8E764
:104130000448804704480047A4780000C8000010E5
:1041400064010010012E0000B1230000FEE7FEE72D
:10415000FEE7FEE7FEE7FEE7FEE7FEE7FEE7FEE737
:104160000B460146184600F011BFFEF747B90000A4
:1041700081F0004102E000BF83F0004330B54FEA18
:1041800041044FEA430594EA050F08BF90EA020F85
:104190001FBF54EA000C55EA020C7FEA645C7FEA18
:1041A000655C00F0E2804FEA5454D4EB5555B8BF3B
:1041B0006D420CDD2C4480EA020281EA030382EAAC
:1041C000000083EA010180EA020281EA0303362D3E
:1041D00088BF30BD11F0004F4FEA01314FF4801C11
:1041E0004CEA113102D0404261EB410113F0004F23
:1041F0004FEA03334CEA133302D0524263EB4303DA
:1042000094EA050F00F0A780A4F10104D5F1200E77
:104210000DDB02FA0EFC22FA05F2801841F10001D2
:1042200003FA0EF2801843FA05F359410EE0A5F1A6
:1042300020050EF1200E012A03FA0EFC28BF4CF0D7
:10424000020C43FA05F3C01851EBE37101F000458D
:1042500007D54FF0000EDCF1000C7EEB00006EEB9A
:104260000101B1F5801F1BD3B1F5001F0CD3490824
:104270005FEA30004FEA3C0C04F101044FEA44527B
:1042800012F5800F80F09A80BCF1004F08BF5FEA02
:10429000500C50F1000041EB045141EA050130BDE2
:1042A0005FEA4C0C404141EB010111F4801FA4F185
:1042B0000104E9D191F0000F04BF01460020B1FADA
:1042C00081F308BF2033A3F10B03B3F120020CDA12
:1042D0000C3208DD02F1140CC2F10C0201FA0CF0F0
:1042E00021FA02F10CE002F11402D8BFC2F1200C55
:1042F00001FA02F120FA0CFCDCBF41EA0C0190400B
:10430000E41AA2BF01EB0451294330BD6FEA040453
:104310001F3C1CDA0C340EDC04F11404C4F120023E
:1043200020FA04F001FA02F340EA030021FA04F350
:1043300045EA030130BDC4F10C04C4F1200220FAA7
:1043400002F001FA04F340EA0300294630BD21FAE5
:1043500004F0294630BD94F0000F83F4801306BFAB
:1043600081F480110134013D4EE77FEA645C18BF9F
:104370007FEA655C29D094EA050F08BF90EA020F36
:1043800005D054EA000C04BF1946104630BD91EA2E
:10439000030F1EBF0021002030BD5FEA545C05D131
:1043A0004000494128BF41F0004130BD14F5800470
:1043B0003CBF01F5801130BD01F0004545F0FE41E4
:1043C00041F470014FF0000030BD7FEA645C1ABF19
:1043D000194610467FEA655C1CBF0B46024650EA50
:1043E000013406BF52EA033591EA030F41F400217C
:1043F00030BD00BF90F0000F04BF0021704730B502
:104400004FF4806404F132044FF000054FF00001D6
:1044100050E700BF90F0000F04BF0021704730B597
:104420004FF4806404F1320410F0004548BF40426C
:104430004FF000013EE700BF42004FEAE2014FEAC1
:1044400031014FEA02701FBF12F07F4393F07F4F9C
:1044500081F06051704792F0000F14BF93F07F4FCE
:10446000704730B54FF4607401F0004521F0004111
:1044700020E700BF50EA010208BF704730B54FF097
:1044800000050AE050EA010208BF704730B511F09C
:10449000004502D5404261EB41014FF4806404F1D4
:1044A00032045FEA915C3FF4DCAE4FF003025FEA56
:1044B000DC0C18BF03325FEADC0C18BF033202EBDE
:1044C000DC02C2F1200300FA03FC20FA02F001FA38
:1044D00003FE40EA0E0021FA02F11444C1E600BFD7
:1044E00070B54FF0FF0C4CF4E06C1CEA11541DBF8A
:1044F0001CEA135594EA0C0F95EA0C0F00F0DEF855
:104500002C4481EA030621EA4C5123EA4C5350EA39
:10451000013518BF52EA033541F4801143F480138A
:1045200038D0A0FB02CE4FF00005E1FB02E506F01B
:104530000042E0FB03E54FF00006E1FB03569CF070
:10454000000F18BF4EF0010EA4F1FF04B6F5007F76
:1045500064F5407404D25FEA4E0E6D4146EB0606E8
:1045600042EAC62141EA55514FEAC52040EA5E5071
:104570004FEACE2EB4F1FD0C88BFBCF5E06F1ED81B
:10458000BEF1004F08BF5FEA500E50F1000041EB52
:10459000045170BD06F0004646EA010140EA0200FF
:1045A00081EA0301B4EB5C04C2BFD4EB0C0541EA21
:1045B000045170BD41F480114FF0000E013C00F336
:1045C000AB8014F1360FDEBF002001F0004170BD5A
:1045D000C4F10004203C35DA0C341BDC04F1140473
:1045E000C4F1200500FA05F320FA04F001FA05F2FF
:1045F00040EA020001F0004221F0004110EBD370CC
:1046000021FA04F642EB06015EEA430E08BF20EAF7
:10461000D37070BDC4F10C04C4F1200500FA04F39A
:1046200020FA05F001FA04F240EA020001F000412C
:1046300010EBD37041F100015EEA430E08BF20EA9F
:10464000D37070BDC4F1200500FA05F24EEA020EE7
:1046500020FA04F301FA05F243EA020321FA04F016
:1046600001F0004121FA04F220EA020000EBD370CD
:104670005EEA430E08BF20EAD37070BD94F0000FCD
:104680000FD101F00046400041EB010111F4801F01
:1046900008BF013CF7D041EA060195F0000F18BFB2
:1046A000704703F00046520043EB030313F4801FEE
:1046B00008BF013DF7D043EA0603704794EA0C0FA8
:1046C0000CEA135518BF95EA0C0F0CD050EA4106BE
:1046D00018BF52EA4306D1D181EA030101F000413B
:1046E0004FF0000070BD50EA410606BF1046194663
:1046F00052EA430619D094EA0C0F02D150EA01366F
:1047000013D195EA0C0F05D152EA03361CBF1046AF
:1047100019460AD181EA030101F0004141F0FE414E
:1047200041F470014FF0000070BD41F0FE4141F4D2
:10473000780170BD70B54FF0FF0C4CF4E06C1CEAD2
:1047400011541DBF1CEA135594EA0C0F95EA0C0F87
:1047500000F0A7F8A4EB050481EA030E52EA033542
:104760004FEA013100F088804FEA03334FF0805563
:1047700045EA131343EA12634FEA022245EA111590
:1047800045EA10654FEA00260EF000419D4208BF41
:10479000964244F1FD0404F5407402D25B084FEAEE
:1047A0003202B61A65EB03055B084FEA32024FF49A
:1047B00080104FF4002CB6EB020E75EB030E22BFF7
:1047C000B61A754640EA0C005B084FEA3202B6EBB7
:1047D000020E75EB030E22BFB61A754640EA5C0066
:1047E0005B084FEA3202B6EB020E75EB030E22BFF6
:1047F000B61A754640EA9C005B084FEA3202B6EBF7
:10480000020E75EB030E22BFB61A754640EADC00B5
:1048100055EA060E18D04FEA051545EA16754FEA17
:1048200006164FEAC30343EA52734FEAC2025FEA35
:104830001C1CC0D111F4801F0BD141EA00014FF0C4
:1048400000004FF0004CB6E711F4801F04BF014395
:104850000020B4F1FD0C88BFBCF5E06F3FF6AFAEB1
:10486000B5EB030C04BFB6EB020C5FEA500C50F141
:10487000000041EB045170BD0EF0004E4EEA1131C4
:1048800014EB5C04C2BFD4EB0C0541EA045170BDCB
:1048900041F480114FF0000E013C90E645EA060E0F
:1048A0008DE60CEA135594EA0C0F08BF95EA0C0F3D
:1048B0003FF43BAF94EA0C0F0AD150EA01347FF485
:1048C00034AF95EA0C0F7FF425AF104619462CE75C
:1048D00095EA0C0F06D152EA03353FF4FDAE1046BF
:1048E000194622E750EA410618BF52EA43067FF410
:1048F000C5AE50EA41047FF40DAF52EA43057FF4A0
:10490000EBAE12E74FEA4102B2F1E04324BFB3F548
:10491000001CDCF1FE5C0DD901F0004C4FEAC00236
:104920004CEA5070B2F1004F40EB830008BF20F01A
:104930000100704711F0804F21D113F13872BCBFD4
:1049400001F00040704741F480114FEA5252C2F129
:104950001802C2F1200C10FA0CF320FA02F018BF72
:1049600040F001004FEAC1234FEAD32303FA0CFCC5
:1049700040EA0C0023FA02F34FEA4303CCE77FEA54
:10498000625307D150EA01331EBF4FF0FE4040F49E
:104990004000704701F0004040F0FE4040F400004D
:1049A000704700BF80F0004002E000BF81F000418E
:1049B00042001FBF5FEA410392EA030F7FEA226CC5
:1049C0007FEA236C6AD04FEA1262D2EB1363C1BF55
:1049D000D218414048404140B8BF5B42192B88BFC4
:1049E000704710F0004F40F4000020F07F4018BFE7
:1049F000404211F0004F41F4000121F07F4118BF07
:104A0000494292EA030F3FD0A2F1010241FA03FCAE
:104A100010EB0C00C3F1200301FA03F100F0004396
:104A200002D5494260EB4000B0F5000F13D3B0F15E
:104A3000807F06D340084FEA310102F10102FE2ACD
:104A400051D2B1F1004F40EBC25008BF20F001003D
:104A500040EA03007047490040EB000010F4000FEB
:104A6000A2F10102EDD1B0FA80FCACF1080CB2EB7E
:104A70000C0200FA0CF0AABF00EBC25052421843DD
:104A8000BCBFD0401843704792F0000F81F4000182
:104A900006BF80F400000132013BB5E74FEA410355
:104AA0007FEA226C18BF7FEA236C21D092EA030FC1
:104AB00004D092F0000F08BF0846704790EA010F3B
:104AC0001CBF0020704712F07F4F04D1400028BF68
:104AD00040F00040704712F100723CBF00F500004A
:104AE000704700F0004343F0FE4040F40000704780
:104AF0007FEA226216BF08467FEA2363014642022C
:104B000006BF5FEA412390EA010F40F4800070473E
:104B10004FF0000304E000BF10F0004348BF4042E4
:104B20005FEA000C08BF704743F0964301464FF020
:104B300000001CE050EA010208BF70474FF000037C
:104B40000AE000BF50EA010208BF704711F00043BD
:104B500002D5404261EB41015FEA010C02BF84468D
:104B60000146002043F0B64308BFA3F18053A3F5EC
:104B70000003BCFA8CF2083AA3EBC25310DB01FA33
:104B800002FC634400FA02FCC2F12002BCF1004FB7
:104B900020FA02F243EB020008BF20F00100704748
:104BA00002F1200201FA02FCC2F1200250EA4C009C
:104BB00021FA02F243EB020008BF20EADC707047E2
:104BC0004FF0FF0C1CEAD0521EBF1CEAD15392EAF0
:104BD0000C0F93EA0C0F6FD01A4480EA010C4002CC
:104BE00018BF5FEA41211ED04FF0006343EA501026
:104BF00043EA5111A0FB01310CF00040B1F5000F68
:104C00003EBF490041EAD3715B0040EA010062F116
:104C10007F02FD2A1DD8B3F1004F40EBC25008BF00
:104C200020F00100704790F0000F0CF0004C08BF1E
:104C300049024CEA502040EA51207F3AC2BFD2F1EB
:104C4000FF0340EAC250704740F400004FF00003F9
:104C5000013A5DDC12F1190FDCBF00F00040704733
:104C6000C2F10002410021FA02F1C2F1200200FA71
:104C700002FC5FEA310040F1000053EA4C0308BF38
:104C800020EADC70704792F0000F00F0004C02BF89
:104C9000400010F4000F013AF9D040EA0C0093F004
:104CA000000F01F0004C02BF490011F4000F013B5E
:104CB000F9D041EA0C018FE70CEAD15392EA0C0FCC
:104CC00018BF93EA0C0F0AD030F0004C18BF31F037
:104CD000004CD8D180EA010000F00040704790F00D
:104CE000000F17BF90F0004F084691F0000F91F0B1
:104CF000004F14D092EA0C0F01D142020FD193EA77
:104D00000C0F03D14B0218BF084608D180EA0100FE
:104D100000F0004040F0FE4040F40000704740F0DA
:104D2000FE4040F4400070474FF0FF0C1CEAD052A8
:104D30001EBF1CEAD15392EA0C0F93EA0C0F69D004
:104D4000A2EB030280EA010C49024FEA402037D06F
:104D50004FF0805343EA111143EA10130CF0004066
:104D60008B4238BF5B0042F17D024FF4000C8B4256
:104D700024BF5B1A40EA0C00B3EB510F24BFA3EB36
:104D8000510340EA5C00B3EB910F24BFA3EB910306
:104D900040EA9C00B3EBD10F24BFA3EBD10340EA60
:104DA000DC001B0118BF5FEA1C1CE0D1FD2A3FF6A6
:104DB00050AF8B4240EBC25008BF20F0010070475B
:104DC0000CF0004C4CEA50207F32C2BFD2F1FF03FE
:104DD00040EAC250704740F400004FF00003013A2F
:104DE00037E792F0000F00F0004C02BF400010F4D3
:104DF000000F013AF9D040EA0C0093F0000F01F0E7
:104E0000004C02BF490011F4000F013BF9D041EA08
:104E10000C0195E70CEAD15392EA0C0F08D142023B
:104E20007FF47DAF93EA0C0F7FF470AF084676E70E
:104E300093EA0C0F04D14B023FF44CAF08466EE7E7
:104E400030F0004C18BF31F0004CCAD130F00042B5
:104E50007FF45CAF31F000437FF43CAF5FE700BF0D
:104E60004FF0FF3C06E000BF4FF0010C02E000BF36
:104E70004FF0010C4DF804CD4FEA40024FEA4103D8
:104E80007FEA226C18BF7FEA236C11D001B052EA8E
:104E9000530C18BF90EA010F58BFB2EB030088BF54
:104EA000C81738BF6FEAE17018BF40F001007047C3
:104EB0007FEA226C02D15FEA402C05D17FEA236CA5
:104EC000E4D15FEA412CE1D05DF8040B704700BFEC
:104ED000844608466146FFE70FB5FFF7C9FF002883
:104EE00048BF10F1000F0FBD4DF808EDFFF7F4FFBC
:104EF0000CBF012000205DF808FB00BF4DF808ED55
:104F0000FFF7EAFF34BF012000205DF808FB00BF77
:104F10004DF808EDFFF7E0FF94BF012000205DF899
:104F200008FB00BF4DF808EDFFF7D2FF94BF01204A
:104F300000205DF808FB00BF4DF808EDFFF7C8FF43
:104F400034BF012000205DF808FB00BF42000ED2F4
:104F5000B2F1FE4F0BD34FF09E03B3EB126209D4B4
:104F60004FEA002343F0004323FA02F070474FF06A
:104F70000000704712F1610F01D1420202D14FF0DF
:104F8000FF3070474FF00000704700BF10B5054C70
:104F900013462CB10A4601460220AFF3008010BD33
:104FA000204610BD00000000014B1868704700BF8C
:104FB0005001001008B5074B044613B10021AFF3B0
:104FC0000080054B1868836A03B198472046FEF7B6
:104FD00037FF00BF000000004077000070B50546B5
:104FE0000C4609B9002070BD18B183690BB900F0F7
:104FF00051F9204B9C4201D16C6808E01E4B9C4249
:1050000001D1AC6803E01D4B9C4208BFEC68B4F9C9
:105010000C30002BE6D02146284600F039F8236BEF
:10502000064633B1216A284698470028B8BF4FF09A
:10503000FF36A3891B0603D52169284600F076FBBD
:10504000616B41B104F14403994202D0284600F05B
:105050006DFB00236363A16C21B1284600F066FB61
:105060000023A36400F082F90023A38100F07FF9FC
:10507000304670BDDC760000FC7600001C77000036
:10508000024B01461868FFF7A9BF00BF500100108E
:105090008A892DE9F041054610070C4659D44B6822
:1050A000002B02DC0B6C002B17DDE66AAEB102F4BC
:1050B0008052002392B22F682B600AB1606D15E018
:1050C000216A01232846B047411C0FD12B686BB1E0
:1050D0001D2B01D0162B03D12F600020BDE8F081DD
:1050E000A38943F04003A381BDE8F081A3895A0757
:1050F00005D56368C01A636B0BB1236CC01A00231B
:105100000246E66A216A2846B047431CA38906D1B5
:1051100029681D2939D8204ACA40D60735D500222A
:1051200062602269D904226004D5421C01D12B6837
:1051300003B96065616B2F600029CED004F1440390
:10514000994202D0284600F0F1FA00206063BDE8E1
:10515000F0810F69002FC0D093070E680CBF4B6918
:105160000023C7EB06080F608B6002E00744C0EB2A
:105170000808B8F1000FB0DD43463A46216A2846D8
:10518000A66AB0470028F1DCA38943F04003A3815D
:105190004FF0FF30BDE8F0810100402038B50B69C9
:1051A00005460C46DBB118B183690BB900F072F803
:1051B0000C4B9C4201D16C6808E00B4B9C4201D126
:1051C000AC6803E0094B9C4208BFEC68B4F90C30B2
:1051D0002BB121462846BDE83840FFF759BF0020D3
:1051E00038BD00BFDC760000FC7600001C770000B4
:1051F000014620B9044B0549186800F0BBB9044BBF
:105200001868FFF7CBBF00BF407700009D5100003A
:1052100050010010014900F0ADB900BF9D510000E0
:1052200010B50446002303604360836081814366B8
:10523000C281036143618361194608225C3000F03A
:105240006DFA054B24626362044BA362044BE36274
:10525000044B236310BD00BFC9630000EF6300006F
:10526000276400004B64000070B568234D1E5D4349
:105270000E4605F1740100F09DFA044640B100218C
:1052800080E842000C30A06005F1680200F046FAA8
:10529000204670BD836910B5044633BB8364C36484
:1052A0000365124B124A1B688262984204BF0123B5
:1052B000836100F01FF86060204600F01BF8A060DA
:1052C000204600F017F80022E06004216068FFF734
:1052D000A7FF01220921A068FFF7A2FF02221221E5
:1052E000E068FFF79DFF0123A36110BD4077000038
:1052F00015520000F8B51C4B07461E68B36913B978
:105300003046FFF7C7FF4836B4687368013B04D4E2
:10531000B4F90C507DB16834F8E733680BB13668E6
:10532000F2E704213846FFF79FFF30600028F6D1EE
:105330000C233B60F8BD4FF6FF73E3810123A3818B
:1053400065662560A560656025616561A5610822C7
:10535000294604F15C0000F0E1F96563A563A564EA
:10536000E5642046F8BD00BF4077000070477047F5
:10537000F7B50F46114601AA054601F0B1FA0646F7
:1053800008B9002029E02846FFF7B4FF04460028AA
:10539000F7D04FF4DB73019A3946284600F0A0FE9F
:1053A000002806DA0025FFF7E1FFA581FFF7DFFF00
:1053B000E7E70B4BE08163620A4BA681A3620A4BCD
:1053C0002462E362094B2363F30505D5022300221F
:1053D0002146284600F040F8204603B0F0BD00BF4B
:1053E000C9630000EF630000276400004B64000005
:1053F000024B0A4601461868FFF7BABF5001001079
:1054000070B50E461446054618B183690BB9FFF70F
:1054100041FF0A4B9C4201D16C6808E0084B9C425A
:1054200001D1AC6803E0074B9C4208BFEC68224600
:1054300031462846BDE8704000F064BEDC760000CE
:10544000FC7600001C770000024B0A4601461868F3
:10545000FFF7D6BF5001001000F000B82DE9F84367
:105460000C4690461E46054618B183690BB9FFF7F6
:1054700011FF3D4B9C4201D16C6808E03B4B9C42C4
:1054800001D1AC6803E03A4B9C4208BFEC68A389A9
:1054900003F48473B3F5847F03D121462846FFF7D4
:1054A0007DFEE76A0FB91D232BE0012E04D0022EEA
:1054B0002BD056B3162324E021462846FFF76EFE74
:1054C000A28902F4805292B20AB1606D05E0216AAD
:1054D00033462846B847411C14D0A3895A0706D53D
:1054E0006368C01A636B4BB1236CC01A06E01B07DC
:1054F00004D5236813B122699B1A184480440026FE
:1055000003E02B604FF0FF392BE023691BB92146E4
:10551000284600F073F821462846FFF73FFE8146F3
:105520000028EFD133464246216A2846B847013069
:10553000E8D0616B41B104F14403994202D028469E
:1055400000F0F4F800236363236900212360A3893A
:10555000616023F40263A381082204F15C0000F07F
:10556000DDF84846BDE8F883DC760000FC760000F4
:105570001C7700002DE9F8438046894600F1480475
:10558000002694B1A5686768013F0CD4AB89012B54
:1055900007D9B5F90E30013303D029464046C84734
:1055A00006436835F0E72468EBE73046BDE8F8834A
:1055B0000E4B70B51E460E4C0025E41AA410A542F1
:1055C00004D056F8253098470135F8E701F02EFD54
:1055D000084B094C1E46E41AA4100025A54204D02D
:1055E00056F8253098470135F8E770BD580100108E
:1055F000580100105801001060010010F0B58B89AF
:1056000091B09D0706460C4625D4B1F90E1000292D
:1056100008DAA389002513F0800F14BF40274FF448
:1056200080670DE001AA01F093F90028F1DB029DEB
:105630004FF4806705F47045A5F500514D424D418A
:105640003946304600F0B6F860B9A3899A051DD4F2
:1056500043F00203A38104F1470323602361012384
:10566000636113E00A4BB362A389206043F08003B7
:10567000A381206167614DB1B4F90E10304601F08D
:1056800079F918B1A38943F00103A38111B0F0BDEA
:1056900015520000024B0146186800F08BB800BF9D
:1056A00050010010024B0146186800F03FB800BFDF
:1056B0005001001010B5C9B202449042034605D013
:1056C0001C7801308C42F8D1184610BD002010BD66
:1056D00010B5431E0A44914204D011F8014B03F85F
:1056E000014FF8E710BD884210B501EB020301D865
:1056F000421E0BE09842FBD28118D21AD34204D04A
:1057000013F8014D01F8014DF8E710BD994204D09E
:1057100011F8014B02F8014FF8E710BD03460244AF
:10572000934202D003F8011BFAE7704730B5002915
:105730003CD051F8042C0B1F1D49002AB8BF9B1800
:105740000A680C4612B95A600B6030BD9A420DD9F6
:1057500019685818824201BF106852680918196008
:105760005A60236030BD994203D80A465168002927
:10577000F9D1146815199D420AD11B682344D01829
:105780008142136012D10868034413604B680CE037
:1057900002D90C23036030BD18681C18A14201BF58
:1057A0000C684968001918605960536030BD00BF2B
:1057B000080A001070B5CD1C25F0030508350C2D26
:1057C00038BF0C25002D064603DA0C233360002079
:1057D00070BDA942F9D81F4B1C681A462146A1B1D9
:1057E0000B685B1B0ED40B2B03D90B60CC18CD5070
:1057F0001EE08C420BBF63684B681360636018BF88
:105800000C4615E00C464968E9E7134C23681BB9C0
:10581000304600F0BBFC20602946304600F0B6FC64
:10582000431CD2D0C41C24F00304A0420AD125603A
:1058300004F10B00231D20F00700C31A09D05A42BF
:10584000E25070BD211A304600F0A0FC0130EED1CC
:10585000BBE770BD080A0010040A0010936810B47A
:10586000013B002B936008DA9469A34202DBCBB2C0
:105870000A2B02D110BC00F051BF1368581C1060F5
:105880001970C8B210BC7047F8B506460F461446EA
:10589000D518AC4208D03A4614F8011B3046FFF741
:1058A000DDFF431CF5D100E00020F8BD2DE9F04FED
:1058B0009DB00C4617460393064618B183690BB991
:1058C000FFF7E8FC7F4B9C4201D1746808E07E4BF7
:1058D0009C4201D1B46803E07C4B9C4208BFF46851
:1058E000A38918070CD5236953B1002309932023FA
:1058F0008DF8293030238DF82A30DFF8D4B144E018
:105900002146304600F070FF0028EED04FF0FF3007
:10591000D5E0039A111D12680391002A80F28C8051
:10592000524243F002000792049098F800302E2B68
:1059300000F08480032298F800106548FFF7BAFE53
:1059400048B14023CBEB000003FA00F0049B08F1C0
:1059500001081843049098F8001006225D4808F1E9
:1059600001078DF82810FFF7A5FE002800F09580AC
:10597000594B002B40F08880039B073323F007032B
:1059800008330393099B53440993B846454615F8D9
:10599000013B1BB9B8EB07090FD003E0252BF9D069
:1059A000A846F3E74B463A4621463046FFF76CFFE0
:1059B00001307FD0099B4B44099398F80030002BAD
:1059C00078D000234FF0FF3204930793059206939B
:1059D0008DF853301A930127052229783F48FFF7A5
:1059E00069FE05F10108049B38B13C4A4546801A1E
:1059F00007FA00F018430490EEE7D90644BF2022CE
:105A00008DF853201A0744BF2B228DF853202A7893
:105A10002A2A3FF47EAF079A00210A20A84698F868
:105A200000300135303B092B03D800FB0232012145
:105A3000F4E700293FF479AF079276E798F8013050
:105A40002A2B0BD1039B08F102081A1D1B68039235
:105A5000002BB8BF4FF0FF3305936BE700231946C7
:105A6000059308F101000A25804698F800200130CE
:105A7000303A092A03D805FB01210123F4E7002B62
:105A80003FF458AF059155E703AB00932246144B02
:105A900004A93046AFF3008007E003AB0093224631
:105AA0000F4B04A9304600F09DF8B0F1FF3F82464D
:105AB0007FF468AFA3895B063FF528AF09981DB056
:105AC000BDE8F08FDC760000FC7600001C7700005B
:105AD0004A7700004E770000000000004477000085
